S01E000032303233203039323920454D5330315F6E65775043422E7372656367
S1130000A0560020E58F0000E18F0000E18F000082
S113001000000000000000000000000000000000DC
S1130020000000000000000000000000E18F00005C
S11300300000000000000000E18F0000E18F0000DC
S1130040E18F0000E18F000019810000E18F0000C2
S1130050A97B0000E18F0000E18F0000A98500006A
S1130060B9850000C9850000D985000000000000A2
S113007000000000197D0000297D0000397D00008A
S1130080497D0000597D0000697D000000000000EA
S113009000000000E18F0000E18F0000E18F00000C
S11300A0E18F000010B5064C2378002B07D1054BD7
S11300B0002B02D0044800E000BF0123237010BDD0
S11300C070000020000000004CCC0000084B10B56C
S11300D0002B03D00749084800E000BF0748036825
S11300E0002B00D110BD064B002BFBD09847F9E73D
S11300F000000000740000204CCC00004CCC000038
S11301000000000030B50400224A1088538843439D
S11301108B4206D28022920118201F4BCB189342A7
S11301200ED81E4B5D688022D2022A435A602022D8
S1130130FF321A831B7DDB0703D4184B5D60052057
S113014030BD452C22D8A300154AD3589F46134BE3
S11301501B8BDB0503D5114B5D601020F0E789088C
S113016049000E4BD96103E0890849000B4BD96162
S1130170A52000020443094B1C80190001220B7DB9
S11301801342FCD0054B5D600020D9E7034B5D6052
S11301901720D5E78C00002000C07FFF00400041FD
S11301A064A00000F8B5204B1D885B886B431824BD
S11301B0834201D22000F8BD6B1E1842FAD1013CE3
S11301C09542F7D3194B1A4C1C802024FF341C830E
S11301D0002A22D0012305009D430023571E09E075
S11301E0CE187678360234432C8002339BB2023523
S11301F09A4204D9CC5CBB42F2DBA4B2F4E70A4BCA
S11302001B790024002BD5D13F2AD3D8002201002A
S11302100420084B98470400CCE7034B1B790024C7
S1130220002BF3D0C6E7C0468C00002000400041FC
S113023044A5FFFF0501000070B5184B1D885B88BD
S11302406B431824834201D2200070BD6B1E1842F8
S1130250FAD1013C9542F7D3114B1B7D123CDB07CD
S1130260F2D52024FF340E4B1C83002A14D0012322
S113027098430023561E04E002339BB202309A4294
S113028008D90488A4B2CC54B342F5DACD18240AB0
S11302906C70F1E70024D7E70024D5E78C00002038
S11302A000400041134B1A885B8853431821834252
S11302B001D2080070479200013A1042F9D10E4B66
S11302C01B7D1339DB07F4D50B4B2022FF321A8335
S11302D080084000D861094A1A80190001220B7D68
S11302E01342FCD0044B198B1C200140481E814151
S11302F08900DEE78C0000200040004102A5FFFFDA
S11303000268138A1BB2002BFBDB704703689A7BDD
S1130310920707D502229A731B8A9B074120DB1799
S1130320184070471A8A520706D55968C0229202AB
S11303300A435A601820F4E70020F2E730B5026857
S1130340002301240225917B21420BD1917B294278
S113035006D101339BB201899942F4D8122002E0FC
S1130360002000E0002030BDF0B5DE4657464E4682
S11303704546E0B583B00600894605684C880B887D
S11303805B0001221343DBB22B75324B984701907B
S11303906B68314A13406B60002807D0019803B0A2
S11303A03CBC90469946A246AB46F0BD30002B4B70
S11303B0984701900028F1D1013CA4B28046284B13
S11303C09A46284B9B4611E03000D84743465F1CB1
S11303D0BFB22B7E4A4652684146535430001D4BEF
S11303E09847013CA4B2002812D1B846544511D014
S11303F02B8A9B062BD5F37A002BE5D0002CE3D176
S11304006A688023DB0213436B60013CA4B2EDE70E
S1130410B8460190B37A002B10D03000114B9847A6
S11304206A68C0239B0213436B6030000D4B9847EE
S11304302A7E4B465B6841465A54AFE73000094B6D
S113044098476A6880235B0213436B60EDE741239E
S11304500193A3E73D030000FFFFFBFF0D03000032
S1130460FFFF000001030000F0B5DE4657464E468C
S11304704546E0B583B006000F0005684C88244B60
S113048098473B885B00DBB22B753000214B9847C3
S11304900190002807D0019803B03CBC90469946CF
S11304A0A246AB46F0BD30001B4B9847031E01909B
S11304B0F1D1A046002420339946154B9B46154B99
S11304C09A46444514D02B8A4A4613421CD0300025
S11304D0D8477B681B5D2B763000D047002806D1B7
S11304E02B8A01345B07ECD51E23019300E00190B5
S11304F0B37A002BCFD03000054B98476A68C023ED
S11305009B0213436B60C6E741230193C3E7C046D4
S1130510010300003D0300000D030000F0B5C646D2
S113052000B582B007000D00160039600800454B85
S11305309847454A116A841C0123A3400B43136264
S113054001A933790B700D30C4B220003F4B98479A
S113055020003F4B9847307900213E4B98472B6849
S11305601C209B0703D502B004BC9046F0BD2B6849
S11305701738DB07F7D414232B603C682000314B79
S11305809847804680236A461370002353700122E3
S113059069468A70CB707069B569002847D06B468C
S11305A0187002236A465370000CC0B269462A4B85
S11305B09847002D40D06B461D7002236A46537045
S11305C0280CC0B26946244B9847B389FB80F38951
S11305D03B81327C8023002A04D1204B9B789B07EB
S11305E0DB0FDB01B2681343327F002A02D0802282
S11305F0D20513432268316A0A43134323608023DC
S11306005B00636045460D35E8B2154B9847336887
S1130610FA21C90059434B1E1818124B9847431F1F
S11306204020FF2B9FD8DBB2638100209BE7002191
S113063020000D4B9847B2E7012120000A4B984750
S11306400500B8E7F984000000040040598E00005A
S1130650CD8D0000B1830000818F00000020004197
S1130660A58E000025940000FD83000010B5012331
S11306708372C372014B984710BDC04669030000E2
S113068010B501238372C372014B984710BDC04655
S11306906904000010B50B4B436050241C800A4AC7
S11306A05A604168094B8B61094901600C800168FB
S11306B04A60022201684A8002680649D1600268E1
S11306C0936110BDF400002040130020920000202C
S11306D0D8150020BC12002084B0F8B5069007910C
S11306E0111C08921A0009930E4B188059805A6005
S11306F030240D4D0B490D48A847002810D00C4F4D
S1130700522138000B4EB04721003800B047013465
S1130710E4B2342CEED10020F8BC08BC04B0184775
S11307200120F9E7700100206D0600002C13002061
S1130730300100209137000084B0F8B5051C040096
S113074006900791089209930F4B1D80240C5C803E
S1130750596030240D4D0C490D48A847002810D08D
S11307600C4F572138000C4EB04721003800B047D9
S11307700134E4B2342CEED10020F8BC08BC04B03F
S113078018470120F9E7C0467001002081060000E7
S11307902C130020300100209137000084B0F0B504
S11307A08BB0061C0790109008911191101C0992AF
S11307B012921393149D169C324A168050805360F3
S11307C014AA6946C1CAC1C1C1CAC1C1079808995E
S11307D0099A2D4EB04700282ED02C4920002C4ECB
S11307E0B04729002000B0472A492000B047002222
S11307F0294B1A701495169414AB6A4643CB43C222
S113080043CB43C210981199129A139B234EB047BD
S1130810002824D11D4920001D4EB0472900200086
S1130820B0471F492000B0471E4B1B78022B28D825
S113083001331C4A13701FE014492000144EB047C2
S113084029002000B04718492000B047124B1B78FC
S1130850022B03D80133104A1370CBE7FEE70B4990
S113086020000B4EB04729002000B0470F4920005C
S1130870B04700220B4B1A700BB0F0BC08BC04B09C
S11308801847FEE770010020390700007CA1000032
S11308907936000080A1000068350020D9060000E8
S11308A0B0A10000092D002094A10000A8A100001F
S11308B010B5040007490848084B9847002C04D198
S11308C007490548054B984710BD06490248034BA4
S11308D09847F9E7B8A100003001002079360000FC
S11308E0D0A10000CCA1000010B5040007490848BD
S11308F0084B9847002C04D107490548054B9847F5
S113090010BD06490248034B9847F9E7D4A10000FB
S11309103001002079360000D0A10000CCA10000F5
S1130920F0B595B0040003685B6800261E700123CF
S11309300268538008330268138105682B00103362
S11309406A4683CB83C283CB83C228686968AA685A
S1130950EB681C4DA84705002368DB681B781A4A1E
S113096013752368DB685B7853752368DB689B78B1
S113097093752368DB68DB78D3752368DB681B79A0
S113098013762368DB685B7953762368DB689B798D
S113099093762368DB68DB79D376167714320B49B8
S11309A007A80B4B984707A90A480B4B9847002DFB
S11309B004D10020094B984715B0F0BD0120074B26
S11309C09847F9E79D07000030070020E8A10000E0
S11309D0D19700003001002079360000E9080000BA
S11309E030B595B0040043685B6800211970436812
S11309F05B682A4A2420105C587063685B68252071
S1130A00105C987063685B682620105CD87063681B
S1130A105B682720105C187163685B682820105C91
S1130A20587163685B682920105C987163685B681F
S1130A302A20105CD87163685B682B20105C1872E4
S1130A402C23D15461684968D35C4B720A236168D2
S1130A504B802432124907A8124B984707A9124821
S1130A60124B98476468230010336A4623CB23C291
S1130A7023CB23C220686168A268E3680C4CA047BA
S1130A80002807D100200B4B984764200A4B984755
S1130A9015B030BD0120074B9847F6E7300700201A
S1130AA014A20000D1970000300100207936000024
S1130AB039070000B10800007581000070B5C6B0A8
S1130AC00400002221480021C3689B188233197056
S1130AD00132402AF8D123685B6810321A7001236E
S1130AE0226853803F332268138125682B0010331A
S1130AF06A4643CB43C243CB43C228686968AA68A9
S1130B00EB68134DA847050000221048C36821680C
S1130B10C968895C9B18823319700132402AF5D167
S1130B200A4BDA6882320B4906A80B4B984706A990
S1130B300A480B4B9847002D04D10020094B9847D5
S1130B4046B070BD0120074B9847F9E730070020F5
S1130B509D07000040A20000D19700003001002052
S1130B6079360000E9080000F0B5CE46474680B566
S1130B70CDB007000026002398462A4D08E04046E1
S1130B80294B98470A20294B98471036402E43D0CA
S1130B9007AB2D226A444146197001339342FAD1BE
S1130BA0330050337A68526813704146481CEA682F
S1130BB08C191219C23212787B685B681A54EB687C
S1130BC01B19C2331B786A461C24121953540100A2
S1130BD01028EBD111237A68538007AB32001449F3
S1130BE00CA8144CA0470CA91348144B98477B68D5
S1130BF09C4610336A4613CB13C213CB13C263460D
S1130C00186859689A68DB680D4CA0470028B6D06C
S1130C100120054B9847B5E74DB00CBC904699466A
S1130C20F0BDC04630070020B10800007581000007
S1130C3070A20000D1970000300100207936000036
S1130C403907000070B5C6B0040000232048002115
S1130C50C268D21891700133402BF9D123685B68C4
S1130C6010221A700123226853803F3322681381B3
S1130C7025682B0010336A4643CB43C243CB43C29F
S1130C8028686968AA68EB68124DA8470500002324
S1130C900F48C2682168C968C95CD21891700133D1
S1130CA0402BF6D10A4BDA6802320B4906A80B4BEB
S1130CB0984706A90A480B4B9847002D04D10020F9
S1130CC0094B984746B070BD0120074B9847F9E798
S1130CD0300700209D070000A8A20000D197000063
S1130CE03001002079360000E9080000F0B5CE4656
S1130CF0474680B5CDB007000026002398462A4D0C
S1130D0008E04046294B98470A20294B984710365B
S1130D10402E43D007AB2D226A444146197001335B
S1130D209342FAD1330010337A6852681370414603
S1130D30481CEA688C191219423212787B685B6885
S1130D401A54EB681B1942331B786A461C24121987
S1130D50535401001028EBD111237A68538007AB58
S1130D60320014490CA8144CA0470CA91348144B86
S1130D7098477B689C4610336A4613CB13C213CB47
S1130D8013C26346186859689A68DB680D4CA0471B
S1130D900028B6D00120054B9847B5E74DB00CBCF0
S1130DA090469946F0BDC04630070020B1080000C7
S1130DB075810000D4A20000D1970000300100200A
S1130DC0793600003907000070B5C6B0040000236E
S1130DD020480021C2188932FF3211700133102BD0
S1130DE0F8D123685B68D0221A70012322685380EB
S1130DF00F332268138125682B0010336A4643CBD6
S1130E0043C243CB43C228686968AA68EB68124DA1
S1130E10A847050000230F482268D268D15CC21895
S1130E208932FF3211700133102BF5D10B4A0C4972
S1130E3006A80C4B984706A90B480C4B9847002D65
S1130E4004D100200A4B984746B070BD0120084BDE
S1130E509847F9E7300700209D070000B8080020F4
S1130E6008A30000D197000030010020793600006B
S1130E70E908000030B5C7B0040043685B68D022BD
S1130E801A70002319485A1CC3189933FF33197870
S1130E9063685B6899541300102AF4D101336268C3
S1130EA05380134A134906A8134B984706A91348BD
S1130EB0134B98476468230010336A4623CB23C23C
S1130EC023CB23C220686168A268E3680D4CA04765
S1130ED0002807D100200C4B98470A200B4B984759
S1130EE047B030BD0120084B9847F6E73007002093
S1130EF0C808002040A30000D19700003001002062
S1130F007936000039070000B1080000758100003F
S1130F1070B5C6B0040000231F480021C218B832BF
S1130F2011700133102BF9D123685B6890221A7079
S1130F300123226853800F332268138125682B0014
S1130F4010336A4643CB43C243CB43C22868696823
S1130F50AA68EB68114DA847050000230E482268D3
S1130F60D268D15CC218B83211700133102BF6D19B
S1130F700B4A0C4906A80C4B984706A90B480C4B86
S1130F809847002D04D100200A4B984746B070BD05
S1130F900120084B9847F9E7300700209D0700001F
S1130FA0E807002078A30000D1970000300100205A
S1130FB079360000E908000030B5C7B00400436882
S1130FC05B6890221A70002319485A1CC318C8334E
S1130FD0197863685B6899541300102AF5D10133BA
S1130FE062685380134A144906A8144B984706A90B
S1130FF01348144B98476468230010336A4623CB84
S113100023C223CB23C220686168A268E3680E4C24
S1131010A047002807D100200C4B98470A200C4B0E
S1131020984747B030BD0120084B9847F6E7C046C3
S113103030070020F8070020E0A30000D19700004B
S1131040300100207936000039070000B1080000A3
S11310507581000070B5C6B004000023204800214B
S1131060C2182132FF3211700133102BF8D12368DA
S11310705B68A0221A700123226853800F33226810
S1131080138125682B0010336A4643CB43C243CBFC
S113109043C228686968AA68EB68124DA84705002E
S11310A000230F482268D268D15CC2182132FF3273
S11310B011700133102BF5D10B4A0C4906A80C4BC7
S11310C0984706A90B480C4B9847002D04D10020E3
S11310D00A4B984746B070BD0120084B9847F9E782
S11310E0300700209D07000050080020ACA300003A
S11310F0D19700003001002079360000E908000093
S113110030B5C7B0040043685B68A0221A7000239E
S113111019485A1CC3183133FF33197863685B6864
S113112099541300102AF4D1013362685380134A8E
S1131130134906A8134B984706A91348134B98471D
S11311406468230010336A4623CB23C223CB23C213
S113115020686168A268E3680D4CA047002807D1A5
S113116000200C4B98470A200B4B984747B030BDE2
S11311700120084B9847F6E730070020600800205C
S113118014A40000D197000030010020793600003B
S113119039070000B10800007581000070B5C6B0C1
S11311A0040000231F480021C218EC3211700133DF
S11311B0102BF9D123685B68B0221A7001232268CE
S11311C053800F332268138125682B0010336A463D
S11311D043CB43C243CB43C228686968AA68EB681F
S11311E0114DA847050000230E482268D268D15C3F
S11311F0C218EC3211700133102BF6D10B4A0C4992
S113120006A80C4B984706A90B480C4B9847002D91
S113121004D100200A4B984746B070BD0120084B0A
S11312209847F9E7300700209D0700001C080020BC
S113123048A40000D1970000300100207936000056
S1131240E908000030B5C7B0040043685B68B02209
S11312501A70002319485A1CC318FC3319786368A0
S11312605B6899541300102AF5D1013362685380E6
S1131270134A144906A8144B984706A91348144B5B
S113128098476468230010336A4623CB23C223CBD8
S113129023C220686168A268E3680E4CA047002856
S11312A007D100200C4B98470A200C4B984747B0B5
S11312B030BD0120084B9847F6E7C04630070020B0
S11312C02C080020B0A40000D197000030010020B9
S11312D07936000039070000B1080000758100006C
S11312E070B5C6B00400002320480021C21855324E
S11312F0FF3211700133102BF8D123685B68C022D0
S11313001A700123226853800F33226813812568E1
S11313102B0010336A4643CB43C243CB43C22868F5
S11313206968AA68EB68124DA847050000230F48B6
S11313302268D268D15CC2185532FF321170013371
S1131340102BF5D10B4A0C4906A80C4B984706A95B
S11313500B480C4B9847002D04D100200A4B9847AA
S113136046B070BD0120084B9847F9E730070020CC
S11313709D070000840800207CA40000D197000091
S11313803001002079360000E908000030B5C7B00C
S1131390040043685B68C0221A70002319485A1C71
S11313A0C3186533FF33197863685B689954130075
S11313B0102AF4D1013362685380134A134906A8F2
S11313C0134B984706A91348134B984764682300A6
S11313D010336A4623CB23C223CB23C2206861681F
S11313E0A268E3680D4CA047002807D100200C4BED
S11313F098470A200B4B984747B030BD0120084B53
S11314009847F6E73007002094080020E4A4000081
S1131410D197000030010020793600003907000020
S1131420B108000075810000F8B5654B1878654B6C
S113143098470C2800D0F8BD614B5878614B984709
S11314401528F8D1604B1B78032B03D05C4B9B7899
S11314500D2BF0D15D485E4B98475E4B5B78012BBA
S1131460E9D15D4C4E2120005C4FB8476F2120002C
S1131470B8472E212000B847564D2878C0B2584BA3
S1131480984701002000574B984720212000B84777
S1131490297FC9B22000544EB047697FC9B22000E9
S11314A0B047A97FC9B22000B047E97FC9B2200084
S11314B0B04720212000B8472023E95CC9B22000AE
S11314C0B04720212000B8472123E95CC9B220009D
S11314D0B04720212000B8472223E95CC9B220008C
S11314E0B0472323E95CC9B22000B0472021200083
S11314F0B8472423E95CC9B22000B0472523E95C3E
S1131500C9B22000B04720212000B8472623E95C57
S1131510C9B22000B0472723E95CC9B22000B04714
S113152020212000B8472823E95CC9B22000B04735
S113153020212000B8472923E95CC9B22000B04724
S113154020212000B8472A23E95CC9B22000B04713
S113155020212000B8472B23E95CC9B22000B04702
S113156020212000B8472C23E95CC9B22000B047F1
S113157020212000B8472D23E95CC9B22000B047E0
S113158020212000B84720212000B8472E23E95C01
S1131590C9B22000B04720212000B8472F23E95CBE
S11315A0C9B22000B04720212000B8473023E95CAD
S11315B0C9B22000B0470D212000B8473BE7C04620
S11315C0C0010020A93800009402002018A50000E2
S11315D051360000841000203001002091370000B3
S11315E0513A000029380000B137000070B5384B7B
S11315F01878384B9847112800D070BD344B587870
S1131600344B98470E28F8D1314B9878314B984792
S11316101528F2D12E4BD8782E4B98471928ECD1A7
S11316202D4B1B78042BE8D1294B1B790D2BE4D1CE
S11316302A4D28002A4CA04728001430A04728002F
S11316403830A04728005C30A047264D28001030D1
S1131650A04728004430A04728007830A047224DF6
S113166028003030A04728005430A04728006830B4
S1131670A0471E4D28001830A04728003C30A04742
S113168028006430A0471A4D281DA04728002430A4
S1131690A04728003430A04728005830A04728002D
S11316A07830A047134D28001830A0472800443054
S11316B0A04728006830A0470F4D28000830A047F5
S11316C028002C30A0470D210C480D4B984794E777
S11316D0C0010020A9380000940200205CA500008D
S11316E051360000DCA500005CA60000DCA600006A
S11316F05CA70000DCA700005CA80000300100200B
S113170091370000F0B5C64600B5824B1878824B7D
S11317109847202802D004BC9046F0BD24237D4A7B
S1131720D05C7D4B984723282CD07A4B58787A4B41
S113173098471228EFD1774B9878774B98470F2822
S1131740E9D1744BD878744B98471228E3D1714B84
S11317501B790D2BDFD1714B1B78052BDBD1704D21
S1131760704C2B5D012253402B556F480C306F4B4E
S113177098472B5D002B00D1C6E06B4820306B4BA3
S11317809847C8E72523634AD35C0D2BCDD1634B1F
S11317901B78262BC9D16448644CA0470222644BB1
S11317A01A706448A0475D4B1B78002B10D00024AE
S11317B0584F614D614E395D2800B0472021280003
S11317C05F4B98470134E4B2544B1B78A342F2D8E0
S11317D00D2159485A4B98475A48544B98474F4BF8
S11317E01B78042B19D904244A4B98464A4F564E69
S11317F04346185DB8470100231FDBB2F0544E4D39
S113180028004E4B9847202128004D4B984701341F
S1131810E4B2424B1B78A342EAD80D214648484B18
S11318209847494A494C15006435210013781B0137
S1131830507803430B7002320131AA42F6D1434E71
S11318403323337473744248384B984712363B4DF4
S11318503B4F21783848A84720213748B8470134FE
S1131860A642F6D1344D0D212800354B9847294B1B
S11318709A7859783020374B98470400C1B2280031
S11318802E4B984734236343334AD3182F4A117895
S113189019775178597791789977D178D977190050
S11318A02031107908700131507908700131907934
S11318B008700131D07908700131107A0870013153
S11318C0507A08700131907A08700131D07A08702A
S11318D00131107B08700131507B08700131907B1D
S11318E008700131D27B0A70013133220A70013150
S11318F00A701A002E320121117019002F310022B2
S11319000A7030331A7010E707482830074B98479D
S113191001E7C046C0010020A9380000940200205D
S11319204C1900203E090000ACA80000513600000C
S11319305C160020DCA8000030010020B137000054
S113194091370000F4A800005C1100206C350020E1
S11319500CA900009D29000084100020F0B5D64693
S11319604F4680B583B004003C4B18783C4B9847F5
S11319700A2804D003B00CBC91469A46F0BD374BFC
S11319805878374B98470D28F4D1344B9878344B1A
S113199098470D28EED1334B1B78102BEAD12F4BEF
S11319A01B7C0D2BE6D12D4B9A79597918792E4B46
S11319B09847C0B20128DDD821002C4B9847060077
S11319C0FF28D7D02A4B984721003000294B9A464C
S11319D09847294B98473425019675436519002388
S11319E06B701E4F387A1E4EB0478146787AB047E6
S11319F04A4613010343DBB22B71B87AB0478146E0
S1131A00F87AB0474A4613010343DBB26B71387B63
S1131A10B0478146787BB0474A4613010343DBB2A3
S1131A20AB71B87BB0478146F87BB0474A46130197
S1131A300343DBB2EB712000104B98472000104B9E
S1131A40984721000198D0470E4D0D2128000E4CD7
S1131A50A0470D212800A0478CE7C046C001002004
S1131A60A9380000940200209D290000117700008D
S1131A70CD33000051340000FD340000014000006B
S1131A8095400000300100209137000070B50A4DE8
S1131A9044212800094CA04765212800A047422181
S1131AA02800A04775212800A04767212800A047E7
S1131AB020212800A04770BD30010020913700008C
S1131AC070B5054B9847054D4F212800044CA0479D
S1131AD04E212800A04770BD8D1A0000300100205F
S1131AE09137000070B5074B9847074D4F212800E8
S1131AF0064CA04746212800A04746212800A047BD
S1131B0070BDC0468D1A00003001002091370000DE
S1131B1010B504000C4B984788239B00E35C012B11
S1131B200AD0012288239B00E254084B98470D21D8
S1131B300748084B984710BD002288239B00E254B5
S1131B40054B9847F3E7C0468D330000C11A0000E7
S1131B503001002091370000E51A000010B5154B44
S1131B601878154B98470D2800D010BD134B1B78DF
S1131B70022BFAD10F4B9B780D2BF6D10D4B5878D5
S1131B800D4B984701280DD00A4B58780A4B9847BB
S1131B900228EAD10A4C20680A4B984720680A4B6D
S1131BA09847E2E7094C2068064B98472068064BA3
S1131BB09847DAE7C0010020A93800009402002009
S1131BC0C4090020111B0000C529000014160020C0
S1131BD010B5064B1B68834203D00548054B984754
S1131BE010BD0548034B9847FAE7C0461416002079
S1131BF0D8A9000051360000CCA90000F0B5CE46AB
S1131C0000B50500294B98470D212948294EB047B6
S1131C1029482A4B99469847294BE85CC0B2294C7D
S1131C20A04701002248284FB84709212048B0475F
S1131C302648C847264BE85CC0B2A04701001C48B0
S1131C40B84709211A48B0472248C847224BE85CE4
S1131C50C0B2A04701001648B8472048C8478F23A0
S1131C609B00E858A04701001148B84709211048D3
S1131C70B0471B48C8478A239B00E85CC0B2A04712
S1131C8001000B48B84709210948B0471548C8471F
S1131C905B23E85CC0B2A04701000548B8470D21AA
S1131CA00348B04704BC9146F0BDC046D11B0000B8
S1131CB0300100209137000078A90000513600005F
S1131CC01E020000513A0000DD37000088A9000020
S1131CD01D02000094A900001F020000A4A9000036
S1131CE0B0A90000C0A90000F8B50400A64B1878FC
S1131CF0A64B98470D2800D0F8BDA34B5878A34BAA
S1131D0098471528F8D1A24B1B78022BF4D19E4B8F
S1131D109B780D2BF0D19F489F4B98476378012BFC
S1131D2007D09E4B18689E4CA0479E4B1868A0474E
S1131D30E2E79A4B1A685B23D35C002B00D10FE1D6
S1131D4020219948994B98474E219748974DA84789
S1131D506F219548A8472E219348A8472078C0B200
S1131D60934B984701009048924B984720218E4806
S1131D70A847914F39788C48904EB04779788A4873
S1131D80B047B9788848B04720218748A847F978F0
S1131D908548B04739798448B04779798248B04753
S1131DA0B9798148B04720217F48A847F9797E480E
S1131DB0B04720217C48A847397A7B48B047797AD4
S1131DC07948B04720217848A847B97A7648B0477F
S1131DD0F97A7548B04720217348A847397B72487F
S1131DE0B047797B7048B04720216F48A847B97B3A
S1131DF06D48B047F97B6C48B04720216A48A84732
S1131E00397C6948B047797C6748B04720216648E7
S1131E10A847B97C6448B047F97C6348B04720219F
S1131E206148A847397D6048B047797D5E48B0472E
S1131E3020215D48A847B97D5B48B047F97D5A48E1
S1131E40B04720215848A847397E5748B047202139
S1131E505548A847797E5448B047B97E5248B047A0
S1131E6020215148A847F97E4F48B047397F4E4852
S1131E70B04720214C48A847797F4B48B0472021E0
S1131E804948A8477B214848A847617AC9B24648CF
S1131E90B047217AC9B24448B04720214248A847F4
S1131EA03C214148A84720213F48A847617BC9B24B
S1131EB03D48B047217BC9B23B48B0477D213A48F1
S1131EC0A84720213848A8472423F95C3648B0475E
S1131ED020213548A847FB7E387F1B021843C043A6
S1131EE080B2374B984720212F48A847354C217D95
S1131EF02D48B04720212C48A8475B212A48A847F1
S1131F00E37B002B31D158212748284B9847264C96
S1131F105D212000254DA8472D212000A847294EEA
S1131F20B17B2000254B984720212000A847282179
S1131F302000A847337C002B1CD120211A481B4BBE
S1131F40984729211848194B9847164B1A685B2360
S1131F50D35C002B13D00D211348144B9847E0E6B3
S1131F603E211148114B9847EEE620210E480F4BB5
S1131F709847CCE74E210C480C4B9847E1E73C21AD
S1131F8009480A4B9847E6E7C0010020A938000039
S1131F909402002020A900005136000014160020ED
S1131FA0FD1B0000C409002030010020913700000F
S1131FB0513A00002938000004170020B13700000E
S1131FC03D3300008410002070B50400204B1878C5
S1131FD0204B9847002803D01D4B5B78202B00D062
S1131FE070BD1D4B1B78052BFAD1194B5B790D2B5A
S1131FF0F6D1174B1A79D9789878184B9847C0B20C
S11320002100174B98470500FF28E9D0154B984746
S113201021002800144B9847144B984734236B43F2
S1132020E3185A78002A10D101325A702000104B5C
S1132030984720000F4B9847210028000A4B9847E7
S11320400D210D480D4B9847CAE700225A70EDE761
S1132050C0010020A9380000940200209D2900003E
S113206011770000CD33000051340000FD3400002E
S1132070014000009540000030010020913700002D
S113208010B501000020034B984709210248034B77
S1132090984710BD513400003001002091370000F2
S11320A010B504000C4B18780C4B9847152800D039
S11320B010BD0B4B1B78022BFAD1074B5B780D2B11
S11320C0F6D12000074B98472000074B9847002281
S11320D0064B1A70ECE7C046C0010020A938000086
S11320E09402002095400000812000002917002060
S11320F0F0B5DE4657464E46C0B53A4B18783A4BD3
S11321009847192804D01CBC91469A46A346F0BDB2
S1132110344B5878344B98470D28F4D1314B987888
S1132120314B98471528EED1304B1B78042BEAD15C
S11321302C4BDB780D2BE6D12D4B99460024250042
S113214008E00D212B482C4B984718239C46E1446A
S11321500C2DD8D029482A4B98474B465968254816
S1132160284B98472848264B9847EB1C9B464F46DC
S1132170214E264B9A465B211E48B0472800D04783
S113218001001C481F4B98475D211A48B047202185
S11321901848B0477978C9B216481D4CA047397819
S11321A0C9B21448A04720211248B0477B211148E6
S11321B0B047F978C9B20F48A047B978C9B20D48F9
S11321C0A0477D210B48B04720210A48B0472C2165
S11321D00848B04720210748B047013508375D4516
S11321E0C9D1AEE7C0010020A93800009402002044
S11321F0AC3500203001002091370000E4A9000034
S113220051360000DD370000ECA90000513A00000F
S1132210B1370000F8B5DE4657464E464546E0B5B0
S11322208146254B9B461879244B984698470F279F
S113223006015B465879C04738400F239A46064347
S1132240F3B24A4653705B469879C04700013E405A
S113225006435B46D879C047384053469E43350011
S11322600543EBB24A4693705B46187AC0470001B7
S11322703D4005435B46587AC047384053469D432A
S11322802C000443E3B24A46D3705B46987AC047B5
S113229000013C4004435B46D87AC047384053466B
S11322A09C432043C0B24B4618713CBC90469946AF
S11322B0A246AB46F8BDC046C0010020A9380000C4
S11322C0F0B5CE46474680B583B00500224B98460C
S11322D01879224CA047070043465879A047204E5E
S11322E07E43FA239B005843361843469879A04707
S11322F081464346D879A04707004346187AA04749
S113230064244B465C438619A419BB00DB195B00AB
S1132310E41823021B0E98466A46D371D1791148FA
S1132320114B994698472604360EF1B20D48C8471A
S1132330E7B239000B48C8476C61C2234246EA54ED
S11323400133EE540133EF540422084BEA5403B032
S11323500CBC90469946F0BDC0010020A93800008D
S11323601027000030010020B13700001D020000DA
S1132370F8B505000C4F38790C4EB0470400787955
S1132380B0470238A300E41864000019C0B2021C6C
S11323900F2800D90F22C523EA54EB5CDBB2AB73E0
S11323A00422034BEA54F8BDC0010020A938000000
S11323B01D020000F8B505000F4F38790F4EB047E5
S11323C004007879B0470538A300E41864000019C4
S11323D0C0B2031C012800D802231A1CDBB2072B4D
S11323E000D90722DE23EA54EB5CDBB2EB73042250
S11323F0034BEA54F8BDC046C0010020A9380000D0
S11324001D02000070B504000D4B98470D4E0D21C0
S113241030000D4DA8470D4B984720000C4B9847B2
S113242020213000A84720213000A8472021300077
S1132430A8472000074B98472000074B984770BDDA
S11324408D3300003001002091370000B9330000C3
S113245045310000E93C00001D32000010B5604B1E
S11324601878604B98471C2800D010BD5C4B5878F6
S11324705C4B98471C28F8D880005B4B1B589F4640
S11324805A4B1B78022BF0D1554B9B780D2BECD17A
S1132490574B1868574B9847E7E7544B1B78022B68
S11324A0E3D14F4B9B780D2BDFD1534B1868514B25
S11324B09847DAE74D4B1B78062BD6D1484B9B79CE
S11324C00D2BD2D1464B9878464B984701280DD016
S11324D0434B9878434B98470228C6D1464C206812
S11324E0464B98472068464B9847BEE7404C2068C7
S11324F0424B98472068424B9847B6E73B4B1B78C2
S1132500062BB2D1364B9B790D2BAED1344B987838
S1132510344B984701280DD0314B9878314B98476C
S11325200228A2D1344C2068364B98472068344B9B
S113253098479AE72E4C2068324B98472068304BD6
S1132540984792E7294B1B78092B00D08DE7244B41
S11325505B7A0D2B00D088E7214B9878214B984764
S113256001280ED01E4B98781E4B9847022800D0A5
S11325707BE7214C2068244B98472068204B9847E0
S113258073E71B4C2068204B984720681C4B9847E6
S11325906BE7164B1B780C2B00D066E7104B1B7BAC
S11325A00D2B00D061E70E4B98780E4B984701280D
S11325B00ED00B4B98780B4B9847022800D054E769
S11325C00D4C2068114B984720680D4B98474CE7F9
S11325D0074C20680D4B98472068094B984744E7FF
S11325E0C0010020A9380000F4A9000094020020D2
S11325F01416002005240000C4090020B52300009F
S1132600C529000071230000C1220000152200002A
S113261010B5574B1878574B98471C2800D010BD5D
S1132620534B5878534B98471128F8D1504B98780E
S1132630504B98471828F2D14D4BD8784D4B9847BA
S11326402028ECD14C4B1B78042B29D0052BE6D148
S1132650474B1879474B9847202850D0464B1B7856
S1132660052BDCD1424B1879424B984712285ED097
S1132670414B1B78052BD2D13D4B18793D4B9847E4
S11326800A28CCD13A4B5B790D2BC8D13B4B1B6844
S11326903B4A9A5C002A67D10121394A9954BEE722
S11326A0334B1B790D2BBAD1344B1B68354A9A5CDA
S11326B0002A14D00021334A995433493348344B07
S11326C09847344B1B682F4A9A5C002A0FD000218C
S11326D02C4A995430492D482D4B98479FE70121A6
S11326E0284A99542D492948294B9847E9E701215B
S11326F0244A99542A492548254B98478FE71C4B6F
S11327005B790D2BAAD1274B1B78002B07D0002215
S1132710244B1A7024491D481D4B98477FE701221A
S1132720204B1A7021491948194B984777E7104BE9
S11327305B790D2B9CD1114B1B68932292009A5C00
S1132740002A08D0002193229200995418490F4876
S11327500F4B984763E7012193229200995415493E
S11327600A480B4B98475AE70021054A995456E703
S1132770C0010020A9380000940200201416002093
S11327804D0200002602000068AA0000300100206B
S113279079360000C409002090AA00007CAA000039
S11327A0A4AA0000B0160020B8AA0000D8AA00000D
S11327B0F4AA000014AB0000F0B5C64600B582B020
S11327C00400354B1878354B98471D2803D002B0C8
S11327D004BC9046F0BD304B5B78202BF7D1304BD6
S11327E01B780A2BF3D12C4B9B7A0D2BEFD12A4E5D
S11327F0B0792A4DA847FA27BF004743B846F07975
S1132800A847642747434744307AA8478046707AEC
S1132810A847C71943469D0045446D00ED19327918
S1132820F178B0781F4B98470700C3B21E001E4BC7
S113283098472100019630001C4EB0471C4B984726
S1132840FF231F40CB3B7B43E3182A04120E5A722A
S1132850EDB21D72FB00DB199B00DF19154BDB1970
S1132860DA771A00203215701900213100220A701B
S113287022331A702000104B984720000F4B9847C2
S113288021000198B0470E4D0D2128000D4CA047A2
S11328900D212800A0479AE7C0010020A9380000B4
S11328A0940200209D290000CD3300005134000023
S11328B0FD34000004170020053C0000813C0000AA
S11328C0300100209137000070B51E4B98471E4B15
S11328D098471E4B98471E4B802212045A6180224F
S11328E012055A61802252055A611A4B98471A4BB5
S11328F098471A4D1A4928001A4CA0471A4928002B
S1132900A0471A4B98471A492800A047194B9847E3
S1132910194B984719492800A047194B9847194B58
S1132920984719492800A0470122184B1A70BFF391
S11329305F8F62B616492800A047164B9847164B7E
S1132940984770BDB92B0000B58F00003581000099
S11329500044004111350000113600003001002010
S113296030AB00007936000040AB000089760000EF
S11329704CAB0000F5290000D92D000058AB000035
S1132980D53B0000013C000068AB000008000020BB
S113299074AB00000181000025730000F8B50C0041
S11329A01500074EB04707002000B04764247C435D
S11329B083001818400024182800B0470019F8BDF7
S11329C0A938000010B50400054B98472000054BBA
S11329D098472000044B98470022044B1A7010BDFE
S11329E08D3300002D3F0000E93C00002917002032
S11329F07047000010B58CB068460E4B98470E4CDB
S1132A006A460E4920000E4B98472268537E5BB2FB
S1132A10002BFBDB0F2393751376137802210B43F2
S1132A201370054B1A68537E5BB2002BFBDB0CB0B2
S1132A3010BDC04625770000483500200040004204
S1132A407177000070B5264B19680A691F24A243E8
S1132A500A611A6811690843106119684B7E5BB2F8
S1132A60002BFBDB0B7B022213430B734B7E5BB20D
S1132A70002BFBDB01200425022401E010420AD1D3
S1132A800B7EDBB202001A401D4200D022431C42DE
S1132A90F4D02A43F2E74B7E5BB2002BFBDB4C8B7A
S1132AA0A4B2104B1C8001230B760A7ED2B21340D1
S1132AB0500701D502200343920701D50422134392
S1132AC05B0701D502230B760748001B80B2054B38
S1132AD01880064B58430649064B984780B270BD90
S1132AE04835002094000020FF0F0000300402004D
S1132AF040420F0039950000F0B5D6464F46464691
S1132B00C0B5A0B09823244AD258244B9A4205D089
S1132B1020B01CBC90469946A246F0BD1E4C002233
S1132B209823E25000201E4DA847E0670420A847E0
S1132B3080239A46E0500520A84784239946E05014
S1132B400620A84788239846E0500720A8478C27EA
S1132B50E0511220A8479026A0511320A8479421A1
S1132B606050E26F5346E35848462058454665593D
S1132B70E759A6596158049103960297019500906C
S1132B80084907A8084CA04707A90848084B9847D4
S1132B90084B9847BCE7C046300700208813000064
S1132BA0452A000084AB0000D197000030010020CA
S1132BB07936000001810000F0B5C64600B582B048
S1132BC001AC0127677000239846A3702770210089
S1132BD01720174EB047174D80231B04AB6121000B
S1132BE01B20B04780231B05AB6121001C20B0478C
S1132BF080235B05AB6121000020B047AF614346F1
S1132C002370677021000720B0478023AB61210047
S1132C101620B0478023DB03AB6121001120B047AD
S1132C2080239B02AB6102B004BC9046F0BDC04659
S1132C30158200000044004110B59AB0A023124A46
S1132C40D258124B9A4201D01AB010BD0E4B00213B
S1132C50A02299500E48026A520C01310A409C2469
S1132C601A55026A920D11409D2019541A5DD2B270
S1132C701B5CDBB2074901A8074CA04701A9074820
S1132C80074B9847E0E7C046300700208813000050
S1132C9000440041C0AB0000D19700003001002087
S1132CA07936000010B58EB001AA0023002193707C
S1132CB01381002050709172D1721173917351730A
S1132CC01174536193611177136253621385013355
S1132CD013708023DB009380202393711233538578
S1132CE09385134C13492000134B98472268D37BD8
S1132CF05BB2002BFBDB138802210B43138001AA78
S1132D00E023DB0093802023937112335385938552
S1132D100A4C0B492000084B98472268D37B5BB2CE
S1132D20002BFBDB138802210B4313800EB010BD74
S1132D305401002000280042B17D00009C120020B4
S1132D4000240042F0B5D6464F464646C0B51A4C5C
S1132D5002221A4920001A4B9A4698472068194BB8
S1132D6099469847184B98461B5C1F26334001250B
S1132D702A009A40154F3A60637E1022134363760B
S1132D80236810225A73124C0D3A12492000D0477E
S1132D902068C84743461B5C1E40B5403D60637EC7
S1132DA0202213436376236820225A731CBC904666
S1132DB09946A246F0BDC0469C120020ED2D0000AD
S1132DC0817C0000797D0000F0AB000000E100E0B0
S1132DD054010020E52E000010B5024B9847024B29
S1132DE0984710BDA52C0000452D0000344B1B68EE
S1132DF0344A9A5C002A07D1902292009A580A2AEF
S1132E0023D901212F4A99542F4B1B68012B22D916
S1132E102E4B2F4AD35C002B48D02E4BD3580A2B71
S1132E201DD02C4B2A4AD358142B26D0294B284A80
S1132E30D358132B35D8284BD35C002B2BD011003F
S1132E40244A8B5805338B5038E0902189005A5816
S1132E5001325A50D8E701331B4A1360D8E71F4B9D
S1132E60D35C002B04D1802212051D4B5A61DDE78F
S1132E70802252051A4B5A61D8E7184BD35C002BB9
S1132E8004D180221205164B9A61CFE780225205A5
S1132E90134B9A61CAE70E490E4A8B5801338B5083
S1132EA00CE000210B4B0A4AD15007E00021094BEA
S1132EB0074AD15080225205094B5A617047C046D7
S1132EC01416002027020000281600203C090000E8
S1132ED04C190020380900003D0900004309000096
S1132EE000440041284B1B688F2292009958274ABE
S1132EF0914204D88F2189005A5801325A50244BE8
S1132F001B688F2292009958204A914204D88F213D
S1132F1089005A5801325A501E4B1F4AD358C72BA6
S1132F2004D811001B4A8B5801338B501B4B1A4A8F
S1132F30D2581B4B9A4204D81749184A8B5801336C
S1132F408B50184B144AD258174B9A4204D8124942
S1132F50144A8B5801338B509823144AD258144B7B
S1132F609A4204D8114998228B5801338B50A023DC
S1132F700E4AD2580E4B9A4204D80C49A0228B58C0
S1132F8001338B507047C046141600201F4E0000BA
S1132F90C4090020340900004C1900201409000061
S1132FA0E7030000180900004FC3000030070020A9
S1132FB087130000F0B5DE46574680B585B0304B28
S1132FC01B78012B53D001242E4E2F4D2F4FA2B22C
S1132FD031002800B847002802D00134E4B2F6E7F3
S1132FE0002C44D0264B1B780293294B1978013CC2
S1132FF0E0B201300022002303930193214D254BBD
S11330009B460D239A462E005F460AE0002905D010
S11330105B4654465C54012303930293013282427B
S11330201BD0AB5CDBB2082B0CD00D2BEED0002BED
S1133030F4D06329F2D8B35C7B540131C9B20123C3
S11330400193EBE7022904D90239C9B201230193A0
S1133050E4E7012301930021E0E7019B002B0BD15E
S1133060039B002B03D0064B6A46127A1A7005B0F4
S11330700CBC92469B46F0BD054B1970F0E7C04668
S1133080E90900203C03002030010020C188000031
S113309094020020C0010020F0B5D6464F464646B3
S11330A0C0B50124204E214D214FA2B23100280089
S11330B0B847002805D00134FA235B009C42F4D1C0
S11330C02DE0002C27D000231A4F0530FF301A4E74
S11330D03A001A498A4600218946134988468421C0
S11330E049008C4602E00133A34214D03958B1425E
S11330F0F9D851464D46555011584546ED5CEDB250
S113310051180A31FF310D7011580131115001214C
S113311065465155E7E70021094B064AD1501CBCCE
S113312090469946A246F0BD3C030020203500207D
S1133130C18800004C190020FF070000140900009A
S113314018090000F0B5C64600B506002A482B4B06
S1133150984698473178C9B2294C2000294DA84790
S113316009212000284FB847284B98470D212000FB
S1133170B8472748C0477178C9B22000A847B1783A
S1133180C9B22000A847F178C9B22000A847317914
S1133190C9B22000A84709212000B8471D48C047EC
S11331A07179C9B22000A847B179C9B22000A847F3
S11331B0F179C9B22000A847317AC9B22000A847E2
S11331C009212000B8471448C047717AC9B22000C9
S11331D0A847B17AC9B22000A847F17AC9B2200041
S11331E0A847317BC9B22000A8470D212000B84769
S11331F004BC9046F0BDC0465CAC000051360000F3
S113320030010020B1370000913700005D760000E6
S113321068AC0000A8AC000074AC0000F0B5D64661
S11332204F464646C0B582B006003748374B9847EC
S113323088239B00F35C012B5CD035480430334B6E
S113324098470D213348344B984734482F4B9847BF
S1133250737B022B52D02E4810302C4B98472D4CA8
S11332600D2120002C4DA8472D48284FB8477069E0
S11332702C4B984780460102090E20002A4B9946A0
S1133280984743461904090E2000C8472E21200000
S1133290A84743466A46D371D1792000C8471C4BDE
S11332A0984618001430B8470D212000A8471F483D
S11332B0B847B07B02301E4B9A4698470100200065
S11332C01C4B9946984740461C30B8470D212000B6
S11332D0A8471948B847F07B0530D04701002000C3
S11332E0C8470D212000A84702B01CBC904699464F
S11332F0A246F0BD0648054B9847A2E704480C30A7
S1133300024B9847ABE7C0463CAC00005136000086
S1133310F8AB0000300100209137000080AC0000C1
S113332050AC0000C13A0000B13700008CAC000082
S1133330513A0000DD3700009CAC000030B583B08A
S113334001900E4C202120000D4DA8472D21200076
S1133350A84701980B4B9847010020000A4B984757
S113336020212000A84764212000A84742212000F2
S1133370A8476D212000A84703B030BD30010020CC
S113338091370000513A0000DD37000010B5064BBC
S11333901B68834203D00548054B984710BD054878
S11333A0034B9847FAE7C0461416002004AD00000A
S11333B051360000FCAC000010B50248024B98479F
S11333C010BDC046D0AC00005136000010B5024814
S11333D0024B984710BDC046ECAC000051360000CB
S11333E010B545210148024B984710BD300100201B
S11333F09137000010B520210148024B984710BDB9
S1133400300100209137000070B506000B4C2021DC
S113341020000B4DA84734235E430A4B9B195A7A6C
S1133420187A12021043084B984701002000074BFA
S1133430984720212000A84770BDC04630010020D5
S11334409137000084100020513A0000DD3700005D
S1133450F0B583B0040001911D481E4B98471E4EE1
S1133460342500946543A85D1C4B984701001C4C0F
S113347020001C4B9847202120001B4FB84775198A
S113348029792000194EB04769792000B047A979FD
S11334902000B047E9792000B04720212000B84738
S11334A001990098124B984720212000B8475B21CE
S11334B02000B8476B78012B07D00E4B98475D214D
S11334C00748094B984703B0F0BD0B4B9847F6E704
S11334D0B4AC00005136000084100020513A0000C2
S11334E0300100202938000091370000B137000076
S11334F009340000F5330000E133000010B5024840
S1133500024B984710BDC046C8AC000051360000BD
S113351030B58DB08023DB05009300230193FF2297
S113352069460A818B72CB7201220A754A758B75C2
S1133530CB7506930B774B77FA239B020493C42332
S11335409B03039301235B4208930993254B0A933E
S1133550254B0B93254D264C6A4626492800A04747
S11335600028F9D1214D2C682000234B98471F23B4
S113357018401E3B8340214A13602A68138A1BB2F9
S1133580002BFBDB2368022213432360E1235B024D
S11335900493C4239B03039301235B42089309937D
S11335A0174B0A93174B0B93174D114C6A46174947
S11335B02800A0470028F9D1134D2C6820000E4B99
S11335C098471F2318401E3B83400C4A13602A6807
S11335D0138A1BB2002BFBDB2368022213432360F4
S11335E00DB030BD020018000200190030010020A7
S11335F0E9850000001400428585000000E100E038
S113360002000E0002000F002035002000100042CE
S113361070B50A4D01220A4928000A4EB0470A4CE7
S113362001220A492000B04721230220E95C01431A
S1133630E954E25C0243E25470BDC046300100200C
S1133640B52F0000A9880000203500209930000023
S113365070B50178002909D00400054D054E89B2E2
S11336602800B047013421780029F8D170BDC04644
S1133670300100203D88000070B505000C00097879
S1133680002907D0044E89B22800B04701342178BC
S11336900029F8D170BDC0463D880000F0B5C6468B
S11336A000B5A0B000AF10300400020030490C2374
S11336B008203818C0182F4EB0470C230822BA1817
S11336C0D1182D482D4DA84721000C23F8182C4B58
S11336D098470C23F8182B4B9847030078608046D2
S11336E00C22BA1828490C20386004388446BC449B
S11336F004306044B0470C230822BA18D1181E487D
S1133700A8474346032B04DDBD4620B004BC9046C5
S1133710F0BD6D4604207B68C01A002809DD002234
S1133720702308217918C918403B53540132904240
S1133730FBD170239C46683B9846B844C44460441B
S11337400433F9180E4EB04770234246D1182000B6
S1133750B04722000D490C234046C018054B98473A
S11337600C234246D1180448044B9847AD46CBE796
S11337700CAD0000D1970000300100207936000024
S1133780299800003998000028AD000040AD0000E1
S113379010B589B2014B984710BDC0463D88000062
S11337A0092802D83030C0B270473730C0B2FBE7C6
S11337B0F8B505000C000809064FB84781B2280087
S11337C0054EB0472007000FB84781B22800B04724
S11337D0F8BDC046A13700003D880000F0B583B0B5
S11337E001900C000804060E000F0D4DA84781B28D
S11337F001980C4FB8473007000FA84781B20198D1
S1133800B8472006000FA84781B20198B84720079F
S1133810000FA84781B20198B84703B0F0BDC04675
S1133820A13700003D880000F8B505000C0008052C
S1133830000F094FB84781B22800084EB047200650
S1133840000FB84781B22800B0472007000FB847DF
S113385081B22800B047F8BDA13700003D880000C0
S113386030281AD031281BD00223322816D0013335
S1133870332813D00133342810D0013335280DD028
S1133880013336280AD00133372807D001333828CA
S113389004D0392806D0F73300E00023180070471D
S11338A00123FBE70923F9E7302800D1C8E03128D8
S11338B000D1C8E00223322800D1C2E0013333280A
S11338C000D1BEE00133342800D1BAE001333528F9
S11338D000D1B6E00133362800D1B2E001333728F5
S11338E000D1AEE00133382800D1AAE001333928F1
S11338F000D1A6E00133612800D1A2E0013362289F
S113390000D19EE00133632800D19AE0013364289A
S113391000D196E00133652800D192E00133662896
S113392000D18EE0053B412800D18AE001334228D2
S113393000D186E00133432800D182E001334428DA
S11339407FD0013345287CD00133462879D0013318
S1133950672876D00133682873D00133692870D082
S113396001336A286DD001336B286AD001336C2887
S113397067D001336D2864D001336E2861D00133E0
S11339806F285ED0013370285BD00133712858D082
S11339900133722855D00133732852D0013374286F
S11339A04FD0013375284CD00133762849D00133E8
S11339B0772846D00133782843D00133792840D082
S11339C001337A283DD0133B47283AD001334828A5
S11339D037D00133492834D001334A2831D0013358
S11339E04B282ED001334C282BD001334D2828D01E
S11339F001334E2825D001334F2822D001335028DB
S1133A001FD0013351281CD00133522819D001335F
S1133A10532816D00133542813D00133552810D01D
S1133A20013356280DD0013357280AD001335828C2
S1133A3007D00133592804D05A2806D0DD3300E0DA
S1133A400023180070470123FBE72323F9E7000054
S1133A50F0B5CE4600B582B00600174B9946FA2160
S1133A60890098470F270401144DFA21890030007A
S1133A70A8470B00642101931800C8473840044349
S1133A80E6B2360264210198A8470B000A2101938B
S1133A901800C84700013C4004430A210198A84784
S1133AA0380008400F239C432043C0B2304302B087
S1133AB004BC9146F0BDC046259400003195000039
S1133AC0F0B5DE4657464E464546E0B583B03B4F1B
S1133AD03B490090B8470F2405013A4E38490098F5
S1133AE0B0470B00384900931800B84720400F2214
S1133AF091460543AB462D0633490098B0470B0069
S1133B00324900931800B84700015B462340034341
S1133B109A462E490098B0470B002D49009318008F
S1133B20B847204053464A46934303439B461A1CD6
S1133B306B46DA71D3B21B041D4325490098B04784
S1133B400B00FA21890000931800B84700015B4676
S1133B50234003439B46FA2189000098B0470B0099
S1133B60642100931800B84720405B464A469343BB
S1133B70034398461A1C6B46DA71D3B21B021D43E9
S1133B8064210098B0470B000A2100931800B8473D
S1133B9000014746274007430A210098B0472140C7
S1133BA03C004B469C430C43E4B22543280003B03D
S1133BB03CBC90469946A246AB46F0BD2594000015
S1133BC0809698003195000040420F00A0860100C5
S1133BD01027000000B583B000236A461370012249
S1133BE069464A7003328A700832CA700B7109330D
S1133BF04B716846014B984703B000BD018000003B
S1133C0070470000F0B5D646474680B5D3B0437A36
S1133C1002AA1370037A53701600144B019342AC3A
S1133C20134B9846134F0023F25C1A550133402B73
S1133C30FAD10198C04738700528FAD00E4B9A463D
S1133C400C4D402221000198D04728700528F8D057
S1133C50019B0133FF331A0001934036074B9A420C
S1133C60E1D153B00CBC90469A46F0BD000E020060
S1133C70A50200000A2D0020A50100000012020088
S1133C80F0B5CE4600B5D2B0814602AE124B0193D8
S1133C9042AC124D124F402221000198A8473870BF
S1133CA00528F8D000231A5DF2540133402BFAD1D1
S1133CB04036019B0133FF331A000193094B9A42AA
S1133CC0E9D102AB1B784A46537202AB5B7813729C
S1133CD052B004BC9146F0BD000E0200390200004F
S1133CE00A2D002000120200F0B591B00400844EA9
S1133CF0844D402269468448B04728700528F8D08E
S1133D008E218900635CDBB26A46D25C635C6B44DF
S1133D105B78A373552A00D0B8E0A37BDBB2743977
S1133D20FF3963548E239B00E35C6B449B78E373FD
S1133D30E37BDBB2193163548E239B00E15C69445D
S1133D40C978A175E15C694409796175E35C6B44E8
S1133D505B792375552A00D0A7E0A37DDBB2C2218D
S1133D606354637DDBB201316354237DDBB20131E3
S1133D7063548E208000235C6B449B795D31FF315A
S1133D806354235C6B449B7963548E239B00E15CF6
S1133D906944C8795D490870E15C6944097A6171D4
S1133DA0E15C6944497AA171E15C6944897AE17111
S1133DB0E15C6944C97A2172E35C6B441B7B237424
S1133DC0552A00D08DE08E239B00E35C6B445B7B23
S1133DD063744F4B1B689C4200D18CE04D494E48A4
S1133DE04E4B98478E27BF00E35DDBB26A46D15C39
S1133DF049484B4EB047202147484A4DA847E35D08
S1133E006B4459784448B04720214348A847E35DB0
S1133E106B4499784048B04720213F48A847E35D68
S1133E206B44D9783C48B047E35D6B4419793A4810
S1133E30B047E35D6B4459793748B0472021364891
S1133E40A847E35D6B4499793348B0472021324851
S1133E50A847E35D6B44D9792F48B04720212E4809
S1133E60A8476179C9B22C48B047A179C9B22A4898
S1133E70B047E179C9B22848B047217AC9B2264887
S1133E80B0470D212448A84711B0F0BDC523E35C19
S1133E90DBB2A3738E239B00E35C6B449B78E373D8
S1133EA0DE23E35CDBB2E37346E7C223E35CDBB20D
S1133EB0A375C323E35CDBB26375C423E35CDBB2A9
S1133EC023758E218900635C6B44987988239B0059
S1133ED0E0540120E054615C69448979E154E05480
S1133EE053E7002222748E239B00E35C6B445B7BCC
S1133EF0637462746DE70C490748084B984771E78F
S1133F00390200000A2D0020000D02005135002066
S1133F101416002060AD0000300100207936000046
S1133F20B13700009137000050AD000070B590B07B
S1133F3004002D4E2D4D402269462D48B04728706F
S1133F400528F8D08E239B00E25CD2B25521684646
S1133F508154E25CA17B6A445170E25CE17B6A4477
S1133F609170E25CA17D6A44D170E25C617D6A4437
S1133F701171E25C217D6A445171E25C88218900FF
S1133F80615C6A449171E25C6A441A4909780131BE
S1133F90D171E25C61786A441172E25CA1786A448E
S1133FA05172E25CE1786A449172E25C21796A447C
S1133FB0D172E25C217C6A441173E35C627C6B44E1
S1133FC05A730B4E0C4D094C3000A847207005283D
S1133FD0FAD00A4D054C402269460548A84720708E
S1133FE00528F8D010B070BD390200000A2D002059
S1133FF0000D020051350020A5020000A5010000BB
S1134000F0B5D646474680B51E4CA544037802AAAF
S1134010137043785370037993704379D370837921
S11340201371C37953711600FA235B020193A2AC96
S1134030154B9846154F0023F25C1A550133402B5B
S1134040FAD10198C04738700528FAD0104B9A4627
S11340500E4D402221000198D04728700528F8D041
S1134060019B0133FF331A0001934036FF235B02A7
S11340709A42E0D1B3239B009D440CBC90469A46DF
S1134080F0BDC04634FDFFFFA50200000A2D00204C
S1134090A5010000F0B5CE4600B51D4CA5440700AF
S11340A002AEFA235B020193A2AC1A4B99461A4D55
S11340B0402221000198C84728700528F8D0002321
S11340C01A5DF2540133402BFAD14036019B01337F
S11340D0FF331A000193FF235B029A42E8D102AB3B
S11340E01B783B7002AB5B787B7002AB9B783B71B7
S11340F002ABDB787B7102AB1B79BB7102AB5B79E2
S1134100FB71B2239B009D4404BC9146F0BDC046A4
S113411038FDFFFF390200000A2D0020F8B5070022
S11341200D00134CA04706002800A0470400331AD2
S11341309C4617D4002005E0002C18D0013001372C
S1134140604512DC002CF7DD3E003A782B789A4269
S1134150F4D1002301339C4209D0F15CEA5C914222
S1134160F8D0EBE70120404201E001204042F8BDD5
S113417039980000F0B5DE4657464E464546E0B550
S11341808F4CA5448F4D90492800904CA0479049EE
S11341902800A04700238F4A13708F4A13708F4B57
S11341A0DA6882235B00D3580025002B00D1C4E0D9
S11341B08A4C32260020002231006943E3685B18F0
S11341C09B18874FBC46634418700132312AF5D1DD
S11341D00135132DEFD1814CE2680021814BD1547C
S11341E0E2680131804BD154764E80493000774DDE
S11341F0A8477F493000A8477E493000A847E068B7
S11342000A30FF307C497D4DA8470700E0680A303A
S1134210FF307B49A84703007A1C00D19DE0421C73
S113422000D19FE0C41B874200DDA0E0C8229200B9
S1134230944200DD14003A007249734802ADAC4662
S11342406044724DA946A8476F4B02AA9446634442
S113425019005C485D4EB0472500604BDA68822344
S11342605B00D35822006A49674802ACA446604404
S1134270C847654B02AA9446634419005148B047A5
S113428064495048B047604A02AB9C466244FFAC64
S11342901434002323700134A242FBD1002D0ED02C
S11342A0EE193A004D48FFA91431C91BC3689B1885
S11342B00A33FF331B788B540132B242F6D1FFA884
S11342C01430554B98470290FFAB14331A005349EE
S11342D04D4B02A88446634418004C4EB0474A4BE9
S11342E002AA9446634419003648384FB847029AE4
S11342F04B49454B02A8844663441800B047424BDF
S113430002AA9446634419002E48B847FFAA1432FF
S1134310444904A8B04704AA43493B4B02A8844635
S113432063441800B047384B02AA9446634419000A
S11343302448B84708230393DFE03C492148234B32
S113434098473B491F48214B98473A4B9D443CBCF6
S113435090469946A246AB46F0BD374919481B4BD7
S11343609847EEE735491748184B9847E9E7344929
S11343701448164B9847E8E72F491248134B9847BF
S1134380DFE72E490F48114B9847DAE72C490D48CF
S11343900E4B9847D5E72B490A480C4B98474BE1FD
S11343A025490848094B9847CBE724490548074B5A
S11343B09847C6E722490348044B9847C1E7C046DB
S11343C0ECF3FFFF3001002070AD000079360000EF
S11343D078AD00002D070020E809002030070020F8
S11343E0490D00003111000048090000BCAD000077
S11343F0D4AD0000F4AD000028AE00001D41000063
S113440030AE000078AE000008080000D19700002C
S113441098AE0000D4AE000039980000F8AE000059
S11344200CAF000028AF00002CAF000098AD0000D6
S113443014B00000140C000038AE00004CAE0000B4
S113444064AE0000A4AF000053460093434632001C
S11344508A498B4802AFBC4660448A4FB847884BB0
S113446002AA9446634419008748884B9847FFAFD3
S1134470143700233B700137A742FBD15146002972
S11344800AD00023FFA8143004AA94466644F25CC0
S11344901A5401338B42FAD1FFAA14327C49784B67
S11344A002A8844663441800764B9847744B02AACA
S11344B09446634419007448744B9847FFAB143313
S11344C000221A7001339F42FBD14346454508D967
S11344D0FFAA143204A8195C1170013301329D4201
S11344E0F9D8FFAA14326B4904A8664B9847039B7A
S11344F0013B0393002B00D123E767496248634BD8
S11345009847664904A8664B98470600431C00D1A7
S113451032E7831C9A46634904A8614B9847814655
S11345200300013300D12CE75246871A824500DD8F
S11345302CE70297C8239B009F4200DD02934B4661
S1134540524659494E4802AFBC4660444D4FB847A5
S11345504B4B02AA9446634419004B484B4B984773
S1134560CA4500D117E7FFAB14330022029F1A702B
S11345700133A342FBD1002F0BD00023FFA9143138
S1134580F21804A88446624492785A540133BB4218
S1134590F6D1FFAA14324549394B02A88446634434
S11345A01800384B9847364B02AA944663441900C6
S11345B03548364B9847FFA814303D4B98470028A0
S11345C01AD000223B4F3C4B9946FFA914313226A6
S11345D0A846A4460400FB68F8684D46455D505C57
S11345E075435B199B18354DAA4653441870013224
S11345F09442F0D1644645462E4EF368F2682E4F3D
S1134600D25D32214A432D498C4662449A182C4982
S11346101B4B02A88446634418001A4B9847184B56
S113462002AA9446634419001748184B9847F26845
S1134630D35D0133DBB2D35522491348134B98475A
S1134640214904A8164B98470600431C00D1A7E64D
S11346501E4904A8124B9847431C00D1A5E6831CAD
S11346609846991B9E4200DDA4E68A46C8239B0017
S1134670994200DCE8E69A46E6E6C046F0AF000060
S113468008080000D19700003001002079360000AE
S1134690F8AE000028AF000044AF000068AF00008F
S11346A01D4100006CAF000078AE000070AF000048
S11346B0399800003007002031110000490D000036
S11346C088AF0000C0AF000028AE0000ECAF0000CF
S11346D0F0B5CE4600B5224CA544224B98470022A3
S11346E0214C00208021C900E3689B181F4DAC4673
S11346F06344187001328A42F6D11B4BDA681C4BB2
S1134700D35C002B25D01B4E0025174C1A4FE068B4
S1134710E268E3689B1915498C4662446044174972
S1134720B847E368124A91469B5CDBB2E26892198F
S113473000922A00124902A8B84702A91148124B54
S113474098470135E3684A469B5CDBB23236AB429C
S1134750DDD88123DB009D4404BC9146F0BDC046F6
S1134760F8FBFFFF01810000300700204909000029
S113477031110000490D0000D197000034B0000051
S113478040B000003001002079360000F0B5CE467C
S1134790474680B5B3B0040067496848684FB847D6
S11347A0002399466366674DE8680A30FF3066491E
S11347B0664EB0476066E8680A30FF306449B04727
S11347C00300A066626E0932626662496846624E00
S11347D0B04769465948B847EB68616E5B180A33BD
S11347E0FF331A784823E254EB685B180B33FF332A
S11347F01A784923E254EA6852180C32FF321278CC
S11348000133E254EB685B180D33FF331A784B2302
S1134810E25401334A46E254250048352A004F4900
S11348206846B04769464548B84729004C484D4B4F
S11348309847002872D14C494048414FB8474B49EA
S11348403E48B847002323633E4DE8680A30FF30F2
S113485047493E4B984698472063E8680A30FF3042
S11348603949C04703006063226B05322263414922
S11348706846394EB04769463048B847EA68236B02
S1134880D2180A32FF3212782275EA68D2180B3233
S1134890FF3212786275EA68D2180C32FF3212784D
S11348A0A275EA68D2180D32FF321278E275EA680E
S11348B0D2180E32FF3212782276EA68D2180F32FA
S11348C0FF3212786276EA68D2181032FF32127818
S11348D0A276EA68D3181133FF331B78E3764B468C
S11348E0237725001435043423002A00224968461E
S11348F0B04769461148B84729002000194B98472A
S1134900002814D01D490D480D4B98470D4C2069C3
S11349101B4B984720691B4B984703E01A490748EB
S1134920074B984733B00CBC90469946F0BD1749E5
S11349300248034B9847F5E750B0000030010020CF
S1134940793600003007002080B000001D410000CF
S11349508CB0000094B00000D1970000D4B00000E7
S113496000B100001598000008B1000018B1000063
S113497040B1000048B1000080B10000E4B1000083
S1134980E109000021090000B4B10000C4B1000035
S113499030B59BB005000C00002833D1087C3A4B9D
S11349A09847FF2832D0FA239B005843636A9C46F9
S11349B060446062002D2DD1607C334B9847FF2802
S11349C02CD064235843636A9C4660446062002D83
S11349D028D1A07C2C4B9847FF2827D08300181897
S11349E04000636A9C4660446062002D22D1E07CF2
S11349F0254B9847FF2831D0636A9C466044606227
S1134A001BB030BD0878204B9847CAE70122282301
S1134A10E254CFE760781C4B9847D0E70122282363
S1134A20E254D4E7A078184B9847D5E7012228230D
S1134A30E254DAE7E078144B9847FF2814D0636A0D
S1134A40C2186262002DDBD02262104901A8104B0B
S1134A50984701A90F48104B9847D1E70122282312
S1134A60E254002DCCD002E001222823E25400239A
S1134A7023620022094901A8054B984701A905486A
S1134A80054B9847BCE7C046613800008CB2000073
S1134A90D1970000300100207936000064B2000094
S1134AA0F0B5D6464F4680B54D4CA5440700036B80
S1134AB0C26A4C4968464C4CA04769464B484C4B2B
S1134AC0984710239A46BA443900203153460022AD
S1134AD01A7001338B42FBD1FD6A6B1C5CD03B6BBB
S1134AE05A1C59D09D425DD20024424B9946424EF5
S1134AF04B46DB685B190A33FF3319783B19197489
S1134B003A48B0470134E4B201353B6BAB42EFD8CD
S1134B103B1900221A7438001030384B98470300B0
S1134B20220037496846304DA847304D6946280071
S1134B302F4EB04733492800B047002C4AD01034D8
S1134B403C1956462C4D31782848A8470136A642D0
S1134B50F9D12D492548264B98472C4D224C5346D4
S1134B601A7829006846A04769462048204B984790
S1134B7001239C46E2445645F1D125491B481C4B70
S1134B8098473800234B984700232822BB547B6264
S1134B9039000020204B9847204B9D440CBC914683
S1134BA09A46F0BD00233B7438001030134B9847ED
S1134BB003000022124968460B4CA0470B4D69467E
S1134BC028000B4CA0470F492800A0470E49280095
S1134BD0A047D2E70C490548054B9847CDE7C046A6
S1134BE0FCF7FFFF0CB20000D19700003001002059
S1134BF07936000030070020913700003998000012
S1134C0038B2000050B2000060B200005CB2000094
S1134C10ECAF00009D36000091490000040800003C
S1134C2030B59BB00C002823C35C002B12D1436A1F
S1134C3003621F4B99421CD01E4B99421FD01E4B3E
S1134C40994222D01D4B9C4225D01D4B9C4228D01A
S1134C501BB030BD01A91B4B0A0031CB31C231CB93
S1134C6031C231CB31C21B7813701748174B9847A8
S1134C70EEE7A423164AD058164B9847E2E7A82338
S1134C80134AD058144B9847DFE7AC23104AD05846
S1134C90124B9847DCE7B0230D4AD058104B984785
S1134CA0D6E7B4230A4AD0580E4B9847D0E7C046FB
S1134CB0D4070020D8070020DC070020E0070020EC
S1134CC0E40700208CB30000300100207936000096
S1134CD030070020B90F0000451200000111000048
S1134CE08D130000750E0000F0B5D6464F464646BB
S1134CF0C0B557495748584B98469847574CE426EF
S1134D0000239A46A351E0680A30FF305449554DB8
S1134D10A847A051E0680A30FF305349A847E82368
S1134D20E050A3590533A3512700B83738004F4E3C
S1134D30B0472100A43138004D4B994698474D495E
S1134D404448C0478C277F005346E351E0680A304B
S1134D50FF304949A847E051E0680A30FF3047492D
S1134D60A8478E235B00E050E3590533E351270045
S1134D70EC373800B0472100A8313800C847404913
S1134D803448C047A6277F005346E351E0680A3001
S1134D90FF303C49A847E051E0680A30FF303A4907
S1134DA0A847A8235B00E050E3590633E3512700EA
S1134DB02137FF373800B0472100AC313800C847ED
S1134DC032492448C047C0277F005346E351E06876
S1134DD00A30FF302E49A847E051E0680A30FF301E
S1134DE02C49A847C2235B00E050E3590633E35142
S1134DF027005537FF373800B0472100B03138005D
S1134E00C84725491348C047DA277F005346E35172
S1134E10E0680A30FF301F49A847E051E0680A30D3
S1134E20FF301E49A847DC235B00E050E3590633FA
S1134E30E35125008935FF352800B0472100B431FE
S1134E402800C8471CBC90469946A246F0BDC046FF
S1134E50A4B20000300100207936000030070020A1
S1134E60C4B200001D410000CCB20000A14A000001
S1134E70214C0000D4B20000F4B20000FCB20000E7
S1134E8004B3000024B300002CB3000034B30000CA
S1134E9054B300005CB3000064B3000040B10000F0
S1134EA070B5184D0D212800174B9847174CE16831
S1134EB082312800164EB04716492800B047E168F1
S1134EC0C2312800B047E068E168C2318230124B39
S1134ED0984700280FD011490A480D4B98470B4DAD
S1134EE0EB680F4C18590F4B9847EB6818590E4B49
S1134EF09847012070BD0D490248054B9847002092
S1134F00F8E7C04630010020913700003007002048
S1134F1079360000B4B3000015980000D4B3000043
S1134F2044110000690B0000BD0A0000B8B3000082
S1134F30F0B5CE46474680B54F4CA5444F4950483E
S1134F40504B9847504E51493000514CA0470500F2
S1134F5050493000A047040000224F480021C36894
S1134F609B18C23319700132402AF8D1AB1D9946FF
S1134F704A494348434B98474F464C455BD9002523
S1134F80454B9846464E4346DB684A46525D5B199C
S1134F90C2331A704346DB685B19C2331978384848
S1134FA0B0470135EDB20137BC42ECD83A4AD36878
S1134FB05B19C23300211970D068C230394B98474D
S1134FC003002A0038496846384CA0472C4E6946ED
S1134FD030002C4CA04736493000A047002D45D066
S1134FE000262D4C2E4FE3689B19C23319782448B0
S1134FF0B8470136AE42F6D12E492148214B984795
S11350000026254C294FE3689B19C2331A782A4994
S11350106846B84769461A481A4B98470136AE4263
S1135020F1D126491648174B9847254B9D440CBC93
S113503090469946F0BD184BD9680020C222885486
S1135040D868C230174B98470300002216496846B7
S1135050164CA0470A4D694628000A4CA04714493B
S11350602800A04713492800A047DAE7114904485B
S1135070044B9847D5E7C046FCF7FFFFFCB300009C
S11350803001002079360000551A00201CB40000BD
S11350904798000024B40000300700202CB400001E
S11350A0913700003998000034B40000D197000013
S11350B04CB4000060B200005CB20000ECAF000031
S11350C00408000070B5184D0D212800174B9847AF
S11350D0174CE16802312800164EB04716492800E3
S11350E0B047E16842312800B047E068E1684231E6
S11350F00230124B9847002810D011490A480D4B32
S113510098470B4DEB688A24640118590D4B984756
S1135110EB6818590C4B9847012070BD0B490248A5
S1135120044B98470020F8E7300100209137000035
S11351303007002079360000B4B300001598000051
S113514070B40000ED0C0000450C00005CB40000DD
S1135150F0B5D6464F464646C0B5644CA544644DAA
S113516064492800644FB847644CE0680A30FF3053
S11351706349644EB0470190E0680A30FF306249E9
S1135180B047060061492800B8470198604B9A4629
S11351909847010028005F4B994698475E492800CC
S11351A0B8473000D04701002800C8475B492800B1
S11351B0B847E2685A4BD15C28005A4FB8470D21D2
S11351C02800B84700224D480021C3689B18423389
S11351D019700132402AF8D1019B3A3A944663444B
S11351E0994651494248444B98474C464E455CD9F0
S11351F00025424B98464B4F4346DB684A46525D76
S11352005B1942331A704346DB685B1942331978E1
S11352103748B8470135EDB20134A642ECD8374AD5
S1135220D3685B19423300211970D06842303F4B78
S1135230984703002A003E4902A83E4CA0472C4E42
S113524002A930002C4CA0473B493000A047002D58
S113525046D00026294C334FE3689B194233197812
S11352602348B8470136AE42F6D134492048224B90
S113527098470026214C2F4FE3689B1942331A7834
S11352802F4902A8B84702A919481B4B9847013671
S1135290AE42F1D12B491648174B98472A4B9D44EF
S11352A01CBC90469946A246F0BD144BD968002018
S11352B042228854D86842301C4B9847030000228D
S11352C01B4902A81B4CA047094D02A928000A4CFF
S11352D0A04719492800A04718492800A047D9E742
S11352E016490348044B9847D4E7C046F8F7FFFF34
S11352F030010020FCB300007936000030070020A4
S11353008CB400004798000094B400009CB40000E2
S1135310513A000029380000ACB40000BCB40000CD
S11353204811000091370000D4B4000039980000FF
S113533034B40000D1970000DCB4000060B2000077
S11353405CB20000ECAF00000808000070B55C49D6
S11353505C485D4CA0475D4BD96840795C4A8854F1
S1135360D8680A30FF305B49A047002800D170E0BC
S1135370564BD8680A30FF305749534B984700289A
S113538000D16BE0514BD8680A30FF3053494E4B83
S11353909847002867D04D4BD8680A30FF305049F1
S11353A0494B9847002863D0484BD8680A30FF30EF
S11353B04C49454B984700285FD0444BD8680A3085
S11353C0FF304949404B984700285BD03F4BD86891
S11353D00A30FF3045493C4B9847002857D03B4B97
S11353E0D8680A30FF304249374B9847002853D0D9
S11353F0364BD8680A30FF303E49334B9847002873
S11354004FD03D4B9847314CE6683C4B98473C4D58
S113541070553C4B9847E6683B4B98473B4BF054E0
S1135420E3685B5D002B05D1284BDA68374BD35C0E
S1135430002B3BD0254BDA680121354BD15435493B
S11354403548364B9847364B98473648364B98473D
S113545070BD36493048314B9847F9E734492E48F6
S11354602E4B9847F4E733492B482C4B9847EFE7EA
S113547031492948294B9847EAE730492648274BC0
S11354809847E5E72E492448244B9847E0E72D49FF
S11354902148224B9847DBE72B491F481F4B98476D
S11354A0D6E72A491C481D4B9847D1E7074BDA68D1
S11354B00021174BD15426491748184B9847C2E787
S11354C0ECB40000551A0020479800003007002073
S11354D0481100008CB4000094B4000024B400000F
S11354E0CCB20000FCB200002CB3000088B5000070
S11354F040B1000080B0000051510000C5500000D0
S11355003B110000314F0000A14E00003C1100008F
S11355103D110000FCB50000300100207936000088
S1135520E94C0000400700208D470000F4B400005F
S11355300CB5000028B5000040B5000058B50000C7
S113554070B5000090B50000A8B50000C0B500001B
S1135550DCB50000F0B59BB08C4BDB681B78212BCD
S113556001D01BB0F0BD894BDA68894BD15C282986
S1135570F7D88B00874AD3589F46844BDA680021BA
S11355801170DA680131824BD154EAE77F4BDA6853
S113559001211170DA680E317D4BD154E1E77B4B68
S11355A0DA680F211170DA680A39794BD154D8E7D7
S11355B0764BDA6805211170D9682820744A88541A
S11355C0DA68754BD35C002BCBD0704BDA680021C2
S11355D0714BD154C5E76D4BDA681F211170DA683D
S11355E00F396B4BD154BCE7684BDA68102111704A
S11355F0DA680131664BD154B3E7644BDA681121A0
S11356001170DA680131624BD154AAE75F4BDA6852
S113561012211170DA6801315D4BD154A1E75B4B63
S1135620DA6813211170DA680131594BD15498E7C3
S1135630564BDA6814211170DA680131544BD15495
S11356408FE7524BDB6815221A702621504B534AC0
S1135650D15486E752495348534B98474B4CE16821
S11356600023524A8B54E1680120514A8854514A1C
S11356701370514B802212055A61802252055A61DF
S1135680802212045A61FA2040014C4B98474C4B3B
S11356909847E26824213E4BD15462E749484A4B7B
S11356A098473A4BDA6882235B00D358002B12D117
S11356B046493C483C4B9847454B9847002800D105
S11356C04FE7444B9847002813D0304BDA68262123
S11356D02F4BD15445E72D4BDA6882235B00D25817
S11356E03D4901A83D4B984701A92E482E4B9847A8
S11356F0E2E73B492B482C4B9847244BDA6882233A
S11357005B00D358002B11D00025204E254C354F7B
S1135710F3685B190A33FF3319782000B847013561
S1135720F26882235B00D358AB42F1D82E491D485E
S11357301D4B9847154BDA682521154BD15410E7BA
S11357402A4B9847114BDA68134BD35C002B05D0D6
S11357500E4BDA6805210E4BD15402E70B4BDA6885
S113576023210B4BD154FCE621490E480E4B98479C
S1135770204B9847054BDA680D21054BD154F0E6D0
S1135780024BDA681321024BD154EAE630070020B9
S1135790280900001CB600003D1100004C1900202F
S11357A0C0B6000030010020793600003C0900003A
S11357B048090000E80900200044004199670000FE
S11357C0256400002035002099300000F4AE00006C
S11357D029670000D1630000D4B60000D19700000F
S11357E000B700009137000010B700004D530000CF
S11357F02CB700001959000010B50A4BDA680A4B9F
S1135800D358C82B00D010BD064BD9680020064AD7
S11358108850DB68054B9847054CA047054B9847D3
S1135820A047F0E730070020340900005555000078
S113583001810000B96B0000F8B50600104C114955
S11358402000114DA847114BDA68114BD15C2000A0
S1135850104FB8472C212000B84730000E4B984712
S11358600E4B9847010020000D4B98470D4920002E
S1135870A84705200C4B984731002000A847F8BDE5
S11358802035002050B80000793600003007002091
S1135890481100009137000039980000513A000087
S11358A0DD37000040C3000075810000F8B5060034
S11358B00F4C10492000104DA847104BDA68104BCC
S11358C0D15C20000F4FB8472C212000B84730008E
S11358D00D4B98470D4B9847010020000C4B9847FF
S11358E00C492000A84731002000A847F8BDC04655
S11358F0300100205CB80000793600003007002039
S1135900481100009137000039980000513A000016
S1135910DD37000040C30000F0B5DE46574680B5D1
S1135920FD4CA5444922FD49FD4802AB9C46604418
S1135930FC4DA847B7220021FB4802AB9C466044BB
S1135940FA4CA0470027FA4B02AA944663441F600E
S1135950F84E32000021F8486044A0470497320012
S1135960002105A8A047F24C02AB9C466444A72240
S1135970F2492000A847F24B2200F2492000F24EDF
S1135980B047F24DEB68F24A944663442200ED4975
S11359902000B047EF4B2200EA492000B047EE4F09
S11359A03B002200E7492000B047EC4B2200E549C8
S11359B02000B047EB68EA4A944663442200E14978
S11359C02000B047E74B2200DE492000B047E64BF9
S11359D02200DC492000B047E44B2200D9492000D2
S11359E0B047E34B2200D7492000B047EB680233AD
S11359F02200D4492000B047DE4B2200D1492000C8
S1135A00B047DD4B2200CF492000B047DB4B2200DA
S1135A10CC492000B047EB6882332200C9492000FA
S1135A20B047D44B2200C7492000B0473B002200B6
S1135A30C4492000B047D24B2200C2492000B047DD
S1135A40D04B2200BF492000B047E86FEB6F9B4664
S1135A50CD4B9A460A2198470390CC4F0A215846C9
S1135A60B8470091039B2200C9492000B047C94BA5
S1135A702200B4492000B047C74B2200B14920009E
S1135A80B047C64B2200AF492000B0478823E858EE
S1135A90EB589B460A21D04703900A215846B84741
S1135AA00091039B2200BA492000B047B94B220061
S1135AB0A4492000B047B84B2200A2492000B047B7
S1135AC0B74B22009F492000B0479423E858EB5875
S1135AD09B460A21D04703900A215846B8470091B3
S1135AE0039B2200AA492000B047AA4B22009549F3
S1135AF02000B047AB4B220092492000B047AA4B8C
S1135B00220090492000B0478023E858EB589B4678
S1135B100A21D04703900A215846B8470091039BB5
S1135B2022009B492000B0479A4B2200854920005F
S1135B30B047994B220083492000B0479B4B220079
S1135B4080492000B0478C23E858EB589B460A2133
S1135B50D04703900A215846B8470091039B22007E
S1135B608B492000B0478B4B220076492000B04778
S1135B708C4B220073492000B0478D4B22007149A1
S1135B802000B0478423E858EB589B460A21D047AD
S1135B9003900A215846B8470091039B22007C4990
S1135BA02000B0477B4B220066492000B0477A4B67
S1135BB0220064492000B0477E4B22006149200046
S1135BC0B0479023E858EB589B460A21D0470390EE
S1135BD00A215846B8470091039B22006C492000D3
S1135BE0B0476C4B220057492000B047724B22004B
S1135BF054492000B047714B220052492000B0475D
S1135C006F4B22004F492000B047D823EB586D4F0B
S1135C10220039002000B047564B22004949200099
S1135C20B047554B220047492000B047664B22003D
S1135C3044492000B04786235B00EB58220039001A
S1135C402000B0474B4B22003E492000B0474A4B4E
S1135C5022003C492000B0475C4B22003949200017
S1135C60B047A0235B00EB58220039002000B04766
S1135C70404B220033492000B0473F4B22003149BA
S1135C802000B047524B22002E492000B047BA23CF
S1135C905B00EB58220039002000B047354B22004E
S1135CA028492000B047344B220026492000B04741
S1135CB0484B220023492000B047D4235B00EB5813
S1135CC0220039002000B0472A4B22001D49200041
S1135CD0B047394B22001B492000B0473E4B2200FD
