S017000032303233203039323420454D5330312E73726563F1
S113000050750020312D00002D2D00002D2D0000F5
S113001000000000000000000000000000000000DC
S11300200000000000000000000000002D2D000072
S113003000000000000000002D2D00002D2D000008
S11300402D2D00002D2D0000651E00002D2D00001B
S1130050351800002D2D00002D2D0000F522000084
S113006005230000152300002523000000000000E4
S113007000000000311A0000411A0000511A00006B
S1130080611A0000711A0000811A000000000000CB
S1130090000000002D2D00002D2D00002D2D00004E
S11300A02D2D000010B5064C2378002B07D1054BED
S11300B0002B02D0044800E000BF0123237010BDD0
S11300C07000002000000000383E0000084B10B50E
S11300D0002B03D00749084800E000BF0748036825
S11300E0002B00D110BD064B002BFBD09847F9E73D
S11300F00000000074000020383E0000383E00007C
S11301000000000010B51E4AD36904210B43D361DB
S11301101C4B2022FF321A831A7D0523D20701D4F7
S1130120180010BD03781B02C022920013404178CE
S1130130C901FF220A401343817849001E220A4064
S11301401343C27892048021C9020A4013430279FE
S11301501204C02189020A4013430A4A5360936877
S11301605B035B0F084908249C400C8093684B8018
S113017043780B71138BDB05DB0F1B01D0E7C04603
S113018000040040004000418C0000200268138AF3
S11301901BB2002BFBDB704703689A7B920707D5E1
S11301A002229A731B8A9B074120DB171840704771
S11301B01A8A520706D55968C02292020A435A6025
S11301C01820F4E70020F2E730B502680023012488
S11301D00225917B21420BD1917B294206D1013327
S11301E09BB201899942F4D8122002E0002000E079
S11301F0002030BDF0B5DE4657464E464546E0B5D4
S113020083B00600894605684C880B885B00012290
S11302101343DBB22B75324B984701906B68314A1C
S113022013406B60002807D0019803B03CBC904693
S11302309946A246AB46F0BD30002B4B984701903F
S11302400028F1D1013CA4B28046284B9A46284BA1
S11302509B4611E03000D84743465F1CBFB22B7E5B
S11302604A4652684146535430001D4B9847013C5E
S1130270A4B2002812D1B846544511D02B8A9B064B
S11302802BD5F37A002BE5D0002CE3D16A688023C8
S1130290DB0213436B60013CA4B2EDE7B846019066
S11302A0B37A002B10D03000114B98476A68C023F2
S11302B09B0213436B6030000D4B98472A7E4B46DC
S11302C05B6841465A54AFE73000094B98476A6867
S11302D080235B0213436B60EDE741230193A3E7A3
S11302E0C9010000FFFFFBFF99010000FFFF0000B0
S11302F08D010000F0B5DE4657464E464546E0B552
S113030083B006000F0005684C88244B98473B884F
S11303105B00DBB22B753000214B9847019000281D
S113032007D0019803B03CBC90469946A246AB4620
S1130330F0BD30001B4B9847031E0190F1D1A0463D
S1130340002420339946154B9B46154B9A46444549
S113035014D02B8A4A4613421CD03000D8477B68FD
S11303601B5D2B763000D047002806D12B8A013440
S11303705B07ECD51E23019300E00190B37A002BB8
S1130380CFD03000054B98476A68C0239B021343C3
S11303906B60C6E741230193C3E7C0468D010000AB
S11303A0C901000099010000F0B5C64600B582B04D
S11303B007000D00160039600800454B9847454A70
S11303C0116A841C0123A3400B43136201A93379EE
S11303D00B700D30C4B220003F4B984720003F4BB8
S11303E09847307900213E4B98472B681C209B0787
S11303F003D502B004BC9046F0BD2B681738DB0768
S1130400F7D414232B603C682000314B9847804676
S113041080236A46137000235370012269468A7050
S1130420CB707069B569002847D06B4618700223F9
S11304306A465370000CC0B269462A4B9847002D97
S113044040D06B461D7002236A465370280CC0B21C
S11304506946244B9847B389FB80F3893B81327CFE
S11304608023002A04D1204B9B789B07DB0FDB0100
S1130470B2681343327F002A02D08022D20513438C
S11304802268316A0A431343236080235B0063605C
S113049045460D35E8B2154B98473368FA21C90033
S11304A059434B1E1818124B9847431F4020FF2BEB
S11304B09FD8DBB2638100209BE7002120000D4B15
S11304C09847B2E7012120000A4B98470500B8E796
S11304D04522000000040040A52B0000192B000059
S11304E0FD200000CD2C000000200041F12B000075
S11304F0FD2E00004921000010B501238372C37250
S1130500014B984710BDC046F501000010B501230A
S11305108372C372014B984710BDC046F5020000B8
S113052084B0F8B506900791111C08921A0009933B
S11305300E4B188059805A6030240D4D0B490D48DC
S1130540A847002810D00C4F522138000B4EB0475A
S113055021003800B0470134E4B2342CEED100203D
S1130560F8BC08BC04B018470120F9E7900100204A
S1130570F9040000DC2C002010010020851100008B
S113058084B0F8B5051C04000690079108920993FD
S11305900F4B1D80240C5C80596030240D4D0C4998
S11305A00D48A847002810D00C4F572138000C4E96
S11305B0B04721003800B0470134E4B2342CEED106
S11305C00020F8BC08BC04B018470120F9E7C04675
S11305D0900100200D050000DC2C002010010020FB
S11305E08511000084B0F0B58BB0061C0790109004
S11305F008911191101C099212921393149D169C48
S1130600324A16805080536014AA6946C1CAC1C1D7
S1130610C1CAC1C107980899099A2D4EB04700284C
S11306202ED02C4920002C4EB04729002000B04782
S11306302A492000B0470022294B1A7014951694B9
S113064014AB6A4643CB43C243CB43C210981199BF
S1130650129A139B234EB047002824D11D49200031
S11306601D4EB04729002000B0471F492000B04765
S11306701E4B1B78022B28D801331C4A13701FE031
S113068014492000144EB04729002000B0471849EF
S11306902000B047124B1B78022B03D80133104AB9
S11306A01370CBE7FEE70B4920000B4EB04729003F
S11306B02000B0470F492000B04700220B4B1A70AE
S11306C00BB0F0BC08BC04B01847FEE79001002052
S11306D081050000C83A000025100000CC3A000053
S11306E03854002021050000FC3A0000B14B0020E2
S11306F0E03A0000F43A000010B504000749084845
S1130700084B9847002C04D107490548054B9847E6
S113071010BD06490248034B9847F9E7043B000023
S113072010010020251000001C3B0000183B0000B5
S113073070B594B0040003685A680023137002680B
S11307405268537002330268538002330268138183
S113075005682B0010336A4643CB43C243CB43C2E4
S113076028686968AA68EB680E4DA8472368DB68A7
S11307701A780D4B1A752268D26852785A75226815
S1130780D26892789A752268D268D278DA755A69F2
S1130790064907A8064B984707A90648064B9847F9
S11307A014B070BDE5050000100C0020203B0000D3
S11307B099320000100100202510000030B595B0DA
S11307C0040043685A6800231370426852685370E7
S11307D043685A681B4B197D917042685268597D71
S11307E0D17042685268997D117142685268D97D0E
S11307F05171062241684A805A69134907A8134B6C
S1130800984707A91248134B98476468230010338C
S11308106A4623CB23C223CB23C220686168A26823
S1130820E3680D4CA047002807D100200B4B9847E4
S113083064200B4B984715B030BD0120074B9847F7
S1130840F6E7C046100C00204C3B00009932000033
S1130850100100202510000081050000F9060000A9
S1130860C11E000010B504000D490E480E4B9847F8
S11308700E4B6360502018800D4A5A6061680D4B1E
S11308808B610D492160088021684A600222216839
S11308904A8022680949D1602268936110BDC0462C
S11308A0783B00001001002025100000F0530020C8
S11308B0AC00002092000020E40B002094000020F3
S11308C070B5234B9847234B9847234B9847234BAA
S11308D0802212045A61802212055A618022520534
S11308E05A611F4B98471F4B98471F4D1F492800BB
S11308F01F4CA0471F492800A0471F4B98471F497A
S11309002800A0471E4B98471E4B98471E492800B5
S1130910A0471E4B98471E4B98471E492800A047E6
S11309201D4B98471D4B98471D492800A0471D4B58
S113093098471D492800A04701221C4B1A70BFF399
S11309405F8F62B61A492800A0471A4B984770BDBA
S113095035120000012D0000811E000000440041FA
S11309604510000045110000100100208C3B0000E0
S1130970251000009C3B0000DD120000A83B000095
S1130980B90900002D0D0000B43B0000850B0000E8
S1130990C50B0000C43B0000B9110000E5110000C4
S11309A0D43B000005120000E03B000008000020DA
S11309B0EC3B0000191E000010B58CB068460E4BCD
S11309C098470E4C6A460E4920000E4B9847226801
S11309D0537E5BB2002BFBDB0F23937513761378E6
S11309E002210B431370054B1A68537E5BB2002B34
S11309F0FBDB0CB010BDC04665130000185400208A
S1130A0000400042B113000070B5264B19680A6912
S1130A101F24A2430A611A68116908431061196806
S1130A204B7E5BB2002BFBDB0B7B022213430B736D
S1130A304B7E5BB2002BFBDB01200425022401E08A
S1130A4010420AD10B7EDBB202001A401D4200D0D4
S1130A5022431C42F4D02A43F2E74B7E5BB2002BC4
S1130A60FBDB4C8BA4B2104B1C8001230B760A7E5B
S1130A70D2B21340500701D502200343920701D597
S1130A80042213435B0701D502230B760748001B9E
S1130A9080B2054B1880064B58430649064B9847CD
S1130AA080B270BD18540020B6000020FF0F000073
S1130AB03004020040420F0011300000044B1B6858
S1130AC0044A9A5C002A02D10121024A99547047CF
S1130AD07C2F00202302000010B5204B1A6A8023CB
S1130AE013401800421E90411D4A1E498854002B91
S1130AF021D01A4B802212059A61802212049A6135
S1130B00802252059A61174C0122174BE25417496F
S1130B1010311748174B98478C22174BE250114B52
S1130B200022822109015A5414495A5414495A5032
S1130B301C321A7010BD094B802212059A61802262
S1130B4012049A61802252059A610121064B054ADA
S1130B50D15406490648074B9847E0E70044004152
S1130B603B080000F840002034080000FC3B000073
S1130B7010010020251000002408000028080000AF
S1130B802C080000F0B585B001AC20000B4B984751
S1130B900B2301930025656025720127E77221006C
S1130BA00B20074EB0470723019365602772043B6F
S1130BB0E37221000720B04705B0F0BD0D19000015
S1130BC02119000070B500220B210748074DA847E2
S1130BD000210B20064CA047002207210548A84706
S1130BE000210720A04770BDBD0A0000E9170000DE
S1130BF015180000D90A000010B58EB001AA002310
S1130C00002193701381002050709172D17211737E
S1130C109173517311745361936111771362536229
S1130C201385013313708023DB0093802023937199
S1130C30123353859385134C13492000134B984763
S1130C402268D37B5BB2002BFBDB138802210B43AE
S1130C50138001AAE023DB009380202393711233D5
S1130C60538593850A4C0B492000084B984722680A
S1130C70D37B5BB2002BFBDB138802210B43138075
S1130C800EB010BD3401002000280042C91A000033
S1130C90EC2B002000240042F0B5D6464F464646D1
S1130CA0C0B51A4C02221A4920001A4B9A4698479A
S1130CB02068194B99469847184B98461B5C1F2689
S1130CC0334001252A009A40154F3A60637E102272
S1130CD013436376236810225A73124C0D3A124957
S1130CE02000D0472068C84743461B5C1E40B540DF
S1130CF03D60637E202213436376236820225A7367
S1130D001CBC90469946A246F0BDC046EC2B002080
S1130D10410D000099190000911A00001C3C0000CC
S1130D2000E100E034010020390E000010B5024B50
S1130D309847024B984710BDF90B0000990C00002E
S1130D40354B1B68354A9A5C002A07D190229200E1
S1130D509A580A2A22D90121304A9954304B1B68E7
S1130D60012B21D92F4B304AD35C002B49D083234C
S1130D701B01D3580A2B1BD0142B27D083231B0110
S1130D80294AD358132B36D8284A27498A5C002A83
S1130D902BD00533832212018B503BE09021890034
S1130DA05A5801325A50D9E701331D4A1360D9E722
S1130DB01F4BD35C002B04D1802212051D4B5A61BA
S1130DC0DCE7802252051B4B5A61D7E7184B164AC1
S1130DD0D35C002B04D180221205164B9A61CDE717
S1130DE080225205134B9A61C8E701338322120112
S1130DF00D498B500EE0002183231B010A4AD15078
S1130E0008E0002183231B01074AD15080225205A8
S1130E10084B5A617047C0467C2F0020270200000F
S1130E20902F002034080000F8400020350800000E
S1130E303B080000004400411C4B1B688F229200B9
S1130E4099581B4A914204D88F2189005A5801327B
S1130E505A50184B1B688F2292009958144A914299
S1130E6004D88F2189005A5801325A50124B134A20
S1130E70D358C72B03D801330F4A10498B50104B5A
S1130E800E4AD3580F4A934203D801330C4A0B49F4
S1130E908B5081231B01094AD3580B4A934204D82F
S1130EA001338122120105498B5070477C2F0020A9
S1130EB01F4E0000400D00202C080000F8400020C8
S1130EC00C080000E70300004FC30000F0B585B034
S1130ED0294B1B78012B49D00124284E284D294F3A
S1130EE0A2B231002800B847002802D00134E4B28D
S1130EF0F6E7002C3AD0204B1B780293224B19784A
S1130F001E4B013CE4B20134E41800220392019226
S1130F1001301E4D0D262F0007E0002902D06E542B
S1130F20039002900133A34216D01A78082A0AD0FB
S1130F300D2AF2D0002AF5D06329F3D87A5401316E
S1130F40C9B20190EEE7022903D90239C9B201906E
S1130F50E8E701900021E5E7019B002B08D1039B02
S1130F60002B03D0044B6A46127A1A7005B0F0BD08
S1130F70054B1970F3E7C046590D002048030020C3
S1130F80100100200D260000AC020020D401002036
S1130F90F0B583B001241D4E1D4D1E4FA2B2310089
S1130FA02800B847002805D00134FA235B009C428E
S1130FB0F4D126E0002C1DD0174B5A681E7A00236A
S1130FC00193002515481449104F02E00133A34250
S1130FD009D08242FAD88D18FE5C6E720132012566
S1130FE001950126F2E7002D0DD1019B002B01D0C4
S1130FF0094B1E72084B0022812109015A500849ED
S11310005A5003B0F0BD044B5A60EEE74803002089
S1131010C85300200D260000F8400020FF07000000
S11310200C08000070B505000C000978002906D0F2
S1131030034E2800B047013421780029F9D170BD4E
S11310408511000030B58DB08023DB0500930023AB
S11310500193FF2269460A818B72CB7201220A75C1
S11310604A758B75CB7506930B774B77E1235B023F
S11310700493C4239B03039301235B4208930993C2
S1131080254B0A93254B0B93254D264C6A4626493E
S11310902800A0470028F9D1214D2C682000234BBB
S11310A098471F2318401E3B8340214A13602A6837
S11310B0138A1BB2002BFBDB236802221343236039
S11310C0E1235B020493C4239B03039301235B4248
S11310D008930993174B0A93174B0B93174D114C15
S11310E06A4617492800A0470028F9D1134D2C68F7
S11310F020000E4B98471F2318401E3B83400C4A88
S113110013602A68138A1BB2002BFBDB23680222BC
S1131110134323600DB030BD02001200020013001F
S11311201001002035230000000C0042D1220000F1
S113113000E100E002000E0002000F00C85300208E
S11311400010004270B50A4D01220A4928000A4ED7
S1131150B0470A4C01220A492000B047212302204B
S1131160E95C0143E954E25C0243E25470BDC046C9
S113117010010020CD0E0000F5250000C85300200A
S1131180910F000070B5084B984203D089B2074B09
S1131190984770BD064C80256D02A56189B2180080
S11311A0024B98476561F4E710010020892500008F
S11311B0004400417047000000B583B000236A4634
S11311C01370012269464A7003328A700832CA7069
S11311D00B7109334B716846014B984703B000BD4E
S11311E0191D000010B500210348044B9847002046
S11311F0034B984710BDC046B5110000311E0000D6
S1131200451E000000B583B000226B461A70074BE0
S11312105B68DB061B0F69468B70CA700A714A70E3
S11312206846034B984703B000BDC04600400041E8
S113123005010000F0B5C64600B582B001AC01233B
S1131240984663700027A770237021001720214E51
S1131250B047214D80231B04AB6121001B20B04704
S113126080231B05AB6121001C20B04780235B0554
S1131270AB6121001120B04780239B02AB612100A8
S11312801020B04780235B02AB61277021000B2044
S1131290B04780231B016B61677021000720B047B2
S11312A080236B614346637021001620B04780237E
S11312B0DB036B6121000120B04702236B612770BF
S11312C021000A20B0478023DB006B6102B004BC1C
S11312D09046F0BD611F00000044004110B58AB083
S11312E06423009300236A461371137480229203CB
S11312F002920122524269468A816A460B77089318
S1131300124BCB81124B0593124B069396239B00F1
S11313108B84114C11492000114B98472268138A81
S11313201BB2002BFBDB136802210B4313600A4B37
S1131330DC8800231020118A014204D10133A34226
S1131340F9D3102313820AB010BDC0461027000041
S11313500200080002000900DC2C00200008004202
S1131360A90300000023037003224270C0229200EC
S11313704280037103760362C361836007220273B0
S1131380C0225201C281037443748374C37403750D
S11313902A22835443758375063A83540022C384F6
S11313A00385C2752B33C2540133C2547047000005
S11313B0F0B5DE4657464E464546E0B597B00700C1
S11313C016000160C94A106A80235B02034313625A
S11313D00B780520DB0706D517B03CBC9046994630
S11313E0A246AB46F0BD0B7817309B07F4D4737854
S11313F03B71002B04D1BE4A136C04210B431364CC
S1131400BC4B1B681B041B0F98463B689B463378F8
S11314106A46137069461720B74B98471720B74B95
S113142098472C23F25C002A5AD0013BF55C337BAD
S1131430EB18DBB2D118C9B28B4227D25219D3B2FE
S11314409946AF4B9A4633004E46B9461F0003E017
S11314500135EDB2AE4217D00F242C403B7BE4188B
S11314605022A84902A8D047132CF1D8A40002ABFB
S1131470E05801A900234B70CB708B7001330B70C3
S1131480C0B2A14B9847E3E73E004F46F48950228F
S11314909C4902A89A4B9847132C13D9737D9B003F
S11314A0DBB25A461370B37DDB0172781343DBB2AF
S11314B05A4653703379342B00D98CE19B00934AFC
S11314C0D3589F46A40002ABE05801A900234B70F7
S11314D0CB708B7001330B70C0B28B4B9847DDE738
S11314E0347B5022874902A8854B9847132C15D981
S11314F0F4895022834902A8814B9847132CCDD8F4
S1131500A40002ABE05801A900234B70CB708B7090
S113151001330B70C0B27C4B9847BFE7A40002AB09
S1131520E05801A900234B70CB708B7001330B7012
S1131530C0B2754B9847DBE704231024022122E054
S1131540717C337C10241EE04346022B00D8C4E097
S113155006231024012116E04346022B00D8C0E0E4
S11315600823102400210EE00023302400210AE087
S113157000232024002106E000230024002102E0AF
S1131580022310240121090170220A4013435A4600
S11315909370F37D17203F2B00D91DE7D3703A6871
S11315A0537E5BB2002BFBDBF37C72881343242253
S11315B0B25CD2001343327D92001343B27C5200DA
S11315C0134323435A469380337E002B20D0102CA0
S11315D000D1E2E000D8A1E0202C00D1BFE0302C03
S11315E016D1F27C002A0AD0F26980321720FF2A31
S11315F000D9F1E6326A8032FF2A00D9ECE61720DE
S1131600F269FF2A00DDE7E6326AFF2A00DDE3E63D
S113161039684A7E52B2002AFBDB5A4613723A6892
S1131620537E5BB2002BFBDBB38B5A4693833A6841
S1131630537E5BB2002BFBDB338C5A4613842C2382
S1131640F35C002B05D0013BDBB217200F2B00D934
S1131650C2E62B22B15C17200F2900D9BCE63868FA
S1131660427E52B2002AFBDBF289307B0243B0682F
S1131670024309050A431B0413435A4613612A23F0
S1131680F35C13750F2393751533F35C002B12D0A1
S1131690F38C1F4A1720934200D99DE65A4693843F
S11316A0328D80231B01D31819499BB28B4200D978
S11316B092E65B46DA84174B1B685B01E022D2009A
S11316C01340154A516849011268D20E0A43D2B236
S11316D013435A46138500207EE606231024032173
S11316E051E70823102404214DE7C04600040040BC
S11316F00008004018200041A52B0000192B000011
S113170085320000F83C0000CD2C0000243C000091
S1131710FF0F00002460800020608000002C00D0B7
S113172076E7F27C002A0FD0F269802109018C4609
S113173062442A4917208A4200D94DE6326A62443B
S113174026498A4200D947E6244A1720F169914282
S113175000DD41E6316A914200DD3DE658E7F27C66
S1131760002A0FD0F269802189008C4662441C490A
S113177017208A4200D92FE6326A624418498A4205
S113178000D929E6164A1720F169914200DD23E6C3
S1131790316A914200DD1FE63AE7F27C002A0FD05D
S11317A0F269802109028C4662440E4917208A425C
S11317B000D911E6326A62440A498A4200D90BE62A
S11317C0084A1720F169914200DD05E6316A914229
S11317D000DD01E61CE71720FEE5C046FF0F000010
S11317E0FF030000FFFF00001723002A01D01800A8
S11317F070478B00064A9B58002B03D0834205D0C8
S11318001D23F4E7890088500023F0E70023EEE766
S1131810E05400201723002901D01800704700224B
S11318201F2800D8024A01238340D3600023F4E731
S11318300018004070B50022104B1A7000231049A4
S11318401F25104E0D4C0AE00D4908E023780133A2
S1131850DBB223700F2B10D800211F2BF4D92800E2
S113186018400122824008691042EFD00A619B00AF
S11318709B59002BEAD09847E8E770BDDC54002060
S113188000180040E0540020044A137802210B435E
S1131890137053785BB2002BFBDB704700180040D9
S11318A000B583B0124A936940210B43936101A9A7
S11318B000230B7003200F4B984703200E4B9847CF
S11318C00E4A137801210B43137053785BB2002B3B
S11318D0FBDB0B4B19004031002204C39942FCD1BD
S11318E01022084B1A60084B984703B000BDC0464D
S11318F000040040A52B0000192B00000018004034
S1131900E054002000E100E0891800000023036097
S1131910436001220272427283720233C3727047BF
S1131920F0B583B005000C0001A900234B70CB7007
S113193023790B70237A8B702078154B98470020FD
S11319401F2D00D8134807222A409200E77AA37A71
S1131950002B01D008231F43EB089B00C31899698F
S11319600F269640B14397403A000A439A61637A3E
S1131970002B06D143690122AA409343436103B07B
S1131980F0BD42690123AB4013434361F7E7C0460E
S1131990CD2C000000180040931C9B001950022A13
S11319A009D0032A0CD0012393401A00037E134369
S11319B0037600207047037E102213430376F8E772
S11319C0037E202213430376F3E7000070B5800002
S11319D0164BC45823689D7B227E637E13401D40B2
S11319E0EB0706D4AB070BD4EB0610D4AB0615D427
S11319F070BD2000A3689847012322689373F1E720
S1131A002000E3689847022322689373ECE72000E0
S1131A1023699847102322689373E7E720006369DA
S1131A209847236820229A73E2E7C0462055002095
S1131A3010B50020014B984710BDC046CD190000D9
S1131A4010B50120014B984710BDC046CD190000C8
S1131A5010B50220014B984710BDC046CD190000B7
S1131A6010B50320014B984710BDC046CD190000A6
S1131A7010B50420014B984710BDC046CD19000095
S1131A8010B50520014B984710BDC046CD19000084
S1131A9030B587B00B4B6A4632CB32C232CB32C23E
S1131AA0009B98420BD001239A0069465258824207
S1131AB006D00133062BF7D1002007B030BD002338
S1131AC0D8B2FAE7483D0000F0B5C64600B588B084
S1131AD004000D0016000800884B9847804606ABAA
S1131AE013221A705A7001329A70DA7001321A7124
S1131AF05A7103AA824B183383CB83C20023A36099
S1131B00E360236163612376637643469A007D4BE9
S1131B10D4502560B378082B08D023712B88052076
S1131B20DB0708D508B004BC9046F0BD1720424638
S1131B30D207F7D4F1E7EB7B1730DB06F2D42B881E
S1131B409B07EFD4337C002B00D07BE0337F002B4A
S1131B5000D083E06C49086A43465A0003ABD35A69
S1131B6003430B62B378082B00D187E001A93378D3
S1131B700B7006AB42469F5C3800644B98473800B4
S1131B80634B98473189B3880B43B178B2791143D9
S1131B9019437378002B02D080231B011943226858
S1131BA0D37B5BB2002BFBDB2980717B4B1E9941FD
S1131BB08900B37B002B01D0012319432268D37B16
S1131BC05BB2002BFBDBFF232B71002905D02268BD
S1131BD0D37B5BB2002BFBDB6971B17AF37A002B08
S1131BE001D010231943337B002B01D02023194348
S1131BF02268D37B5BB2002BFBDBA9712268D37B09
S1131C005BB2002BFBDB2379042B40D0082B5FD085
S1131C101720002B00D085E7D37B5BB2002BFBDBC6
S1131C20338D2B822268D37B5BB2002BFBDB738D5D
S1131C302B832268D37B5BB2002BFBDBB38D6B83DE
S1131C4000206FE702A901238B700022CA70327E44
S1131C500A704B70307D2F4B984777E702A9012318
S1131C608B700022CA702432B21812780A704B703A
S1131C701F33F3181878274B98476BE7086A4346D5
S1131C805A1C520003ABD35A03430B626EE7D37B57
S1131C905BB2002BFBDB2823F35C2B742268D37B21
S1131CA05BB2002BFBDB2923F35C2B752268D37B0F
S1131CB05BB2002BFBDB2A23F35C2B762268D37BFD
S1131CC05BB2002BFBDB2B23F35C6B76002029E754
S1131CD0D37B5BB2002BFBDBB36A2B612268D37B23
S1131CE05BB2002BFBDBF36AAB612268D37B5BB294
S1131CF0002BFBDB336BEB61002013E7911A000030
S1131D00483D00002055002000040040A52B0000A1
S1131D10192B0000CD2C000010B582B00400394A04
S1131D20936910210B439361374B1B785BB21020EE
S1131D30002B03DBE3780730002B01D102B010BD88
S1131D4022799A42FAD862799A42F7D82E4A1378BD
S1131D500E398B431370D3795BB2002BFBDB6378B2
S1131D600020002BEAD001A9A3780B700130274B87
S1131D7098470120264B98472378002B27D1E378F6
S1131D80013B2279002A26D01F490A780420024305
S1131D900A702279013A824013431B49CA7952B22C
S1131DA0002AFBDBDBB2184A53706379002B18D18D
S1131DB02378002B1FD0144A137880210B4313700F
S1131DC0114AD3795BB2002BFBDB0020B6E701207C
S1131DD0104B9847D3E70C490A78042082430A70D1
S1131DE0DBE71100CA7952B2002AFBDB013BDBB20C
S1131DF0054A9370DCE7044A137802210B431370FD
S1131E00DEE7C0460004004000100040A52B00009F
S1131E10192B0000C12B0000A522044B1A721A00D2
S1131E20D3795BB2002BFBDB7047C0460010004047
S1131E30002901D017207047014B18600020FAE7F1
S1131E4038550020002801D0172070470122034B89
S1131E505A710332024B1A60F7E7C0460010004083
S1131E6000E100E010B50122034B9A71034B1B689B
S1131E70002B00D0984710BD0010004038550020BA
S1131E8070B50020084B98470500084CFA218900DA
S1131E90A047074B186007492800A047064B186065
S1131EA00522064B1A6070BD8D2A0000FD2E00002D
S1131EB00000002040420F000400002010E000E079
S1131EC030B5084B1C68084A0025802149020138B6
S1131ED007D3002CFBD05460956013680B42FCD0F0
S1131EE0F5E730BD0000002010E000E00C4B1B685B
S1131EF0002B06D1EFF31083002B07D00022094BEF
S1131F001A70074A136801331360704772B6BFF33F
S1131F105F8F0022044B1A700132024B1A70F0E7F3
S1131F20B8000020BC00002008000020084B1A68FC
S1131F30013A1A601B68002B09D1064B1B78002B51
S1131F4005D00122044B1A70BFF35F8F62B670474D
S1131F50B8000020BC0000200800002070470000EA
S1131F6000B583B001AB80221A700A785A704A789F
S1131F709A708A78DA701900014B984703B000BD53
S1131F80CD2C0000F0B5DE4657464E464546E0B53A
S1131F9087B08046049116001F0000220023002110
S1131FA08B463F2401202100009601975C46039450
S1131FB04446059413E02024641A0500E540A8462D
S1131FC014E0009C019D121BAB415C464D462C4322
S1131FD0A346039C45462C430394013925D320246E
S1131FE064420C19E7D40500A540A84604008C40BF
S1131FF0A14692185B4114001D00059E4F463E40C9
S1132000B446049E47463E40B246664657463E4363
S113201003D00600264332002B00009C019D9D4204
S1132020DBD8CED19442D8D8CBE7039B58461900CD
S113203007B03CBC90469946A246AB46F0BD10B5ED
S1132040490840230024814202D2180010BD1C001C
S1132050091A631C9BB28842F9D94023FF2CF4D897
S113206014800023F1E70000F0B583B00F001600E0
S113207008AA117804004C434022BC4202D9100043
S113208003B0F0BD002B14D1020008000021194C4C
S1132090A04701003A0000230020174CA04700226B
S11320A00123121A8B41120C1B041A4332800022A2
S11320B0E5E70022012BF9D10A00002300210D4C91
S11320C0A04702000B0000920193380000210A4C43
S11320D0A047050080239B0140229842CFD8790F66
S11320E0F800009A019BA047EA00821AD2B2520378
S11320F02A43DBE7E9310000851F000010B582B0F8
S113210004000E4B1B78002B07D0002905D10B4B84
S11321105B78834210D01D200CE001A90C700C20C8
S1132120074B98470C20074B9847044B5C700122DF
S11321301A70002002B010BD0020FBE7C000002090
S1132140A52B0000192B00002B4B984223D00FD94C
S11321502A4B98422FD02A4B984242D101293AD097
S1132160002946D0022938D0032938D0002039E08C
S1132170244B984235D1012907D0002933D00229B4
S113218005D0032905D000202CE01F482AE01F4871
S113219028E01F4826E0012907D0002925D002297C
S11321A005D0032905D000201CE01A481AE01A487B
S11321B018E01A4816E0012907D0002917D002298F
S11321C005D0032905D000200CE015480AE0154885
S11321D008E0154806E0154804E0154802E01548F3
S11321E000E0002070471448FCE70320FAE7134896
S11321F0F8E71348F6E7C046000C0042001000421E
S11322000014004200080042030005000300060019
S1132210030007000300010003001E0003001F0069
S11322200300090003000A0003000B00030011006F
S1132230030012000300130003000400030008005D
S11322400300100030B585B06A460F4B32CB32C262
S11322501B6813600300009A824211D0019A8242E3
S11322600AD0029A824209D00020039A9A4201D0ED
S113227005B030BD033004E0012002E0022000E09C
S11322800020C0B2F4E7C0466C3D00007047000077
S113229030B50B4B1B78002B0ED10A4C0A4D256030
S11322A00A4B00221A6065605A60A5609A60E56076
S11322B0DA600132024B1A708000024BC15030BD0B
S11322C0C2000020C40000208D2200003C550020E4
S11322D010B582B001AC072323700133637001335E
S11322E0A3700133E370024B9847205602B010BD2F
S11322F04522000010B5024B1B680020984710BD12
S1132300C400002010B5024B5B680120984710BD43
S1132310C400002010B5024B9B680220984710BDF2
S1132320C400002010B5024BDB680320984710BDA1
S1132330C4000020F0B5DE4657464E464546E0B59B
S11323408DB005000C00160029600800804B9847EA
S1132350020023680520DB0706D50DB03CBC90467F
S11323609946A246AB46F0BD236817309B07F4D4C8
S11323707849086A971C0123BB4003430B620BA9ED
S1132380737F0B700D32D7B23800734B9847380007
S1132390724B9847707F0021714B9847F37A6B71A9
S11323A0337DAB71737DEB712B6898461800684BD5
S11323B098470D3000220E2302A98C4663441A80EC
S11323C033680393F3689A46B37D9B4673689946D2
S11323D0002B14D080235B05994530D1F37D002B6D
S11323E031D133691F00C0B25E4B984701000E2201
S11323F002AB9C46624438005B4B984720E0F37D77
S1132400002B0BD01023009300230E2202A98C462C
S11324106244B1693069554FB84711E033691F0010
S1132420C0B2504B984701001023009300230E22A2
S113243002A88446624438004C4FB84700E00020AC
S1132440002800D089E72A68039F138A1BB2002B57
S1132450FBDB0E2302AA944663441B884246538145
S113246053461F434B461F435B465B071F43F37DA5
S1132470002B01D104331F43317D4904737D1B04B8
S11324800B43B17AF27A114319433389FF2B03D0FA
S11324908022520417431943337F002B03D1344B5A
S11324A09B789B0701D580231F432A68138A1BB29C
S11324B0002BFBDB434659602A68138A1BB2002BAE
S11324C0FBDB43461F600AAB80221A7000225A705D
S11324D0DA709A70336A0693736A0793B36A08933F
S11324E0F36A03930993002706AE06E02000214B0C
S11324F0984707E00137042F0DD0F9B2BB00985973
S11325000028F3D0431CF5D00AA90870000CC0B20F
S1132510194B9847EEE70023AB60EB602B61AB618E
S11325206B610022EB83AB832033EA540133EA541A
S11325300133EA540133EA542868054B98470400F0
S11325400E490F4B9847A4000E4BE550002004E7BA
S11325504522000000040040A52B0000192B0000B8
S1132560FD200000F12B00003F2000006920000046
S11325700020004149210000CD2C00002D26000040
S1132580912200003C550020C2791C23002A01D16D
S113259018007047C28B92B2173B002AF8D1026828
S11325A0138A1BB2002BFBDB11830221937B0B42AA
S11325B0FCD00023ECE70000F8B506000C00150081
S11325C007680A4B9847B38B9BB2002B03D0084B88
S11325D098470520F8BDB583054B984774610522DB
S11325E02223F2541E3B7B730020F3E7ED1E000010
S11325F02D1F0000931C9B001950202101239340A0
S11326001A00435C134343547047000010B517236A
S1132610002A01D1180010BD84790533002CF9D0AB
S1132620014B98470300F5E7B9250000F8B5800091
S1132630464BC5582C68238A1BB2002BFBDBA37BBB
S1132640667B1E402023EB5C2122AF5C1F40F30716
S113265022D5EB8B9BB2002B1CD0AA691378DBB27A
S1132660511CA961697901290ED09BB2DB05DB0DF0
S11326702383EB8B013B9BB2EB83002B0CD1013307
S113268023730133637307E0517809020B43023269
S1132690AA61EBE701232373B30706D5022323734F
S11326A000222133EA54FB0716D473074DD5AB8BB4
S11326B09BB2002B47D0238ADBB25A0720D09A075B
S11326C00ED51A222223EA54203B23827B073CD5D1
S11326D02B692800984738E02800AB689847E4E75E
S11326E05A0705D51E222223EA541E3B2382EDE716
S11326F0DB07EBD513222223EA54213B2382E5E7AF
S1132700238BDB05DB0DDAB269690A706A69511C37
S113271069616979012910D0AB8B013B9BB2AB8312
S1132720002B12D10433237300221E33EA54BB0757
S11327300BD5EB682800984707E01B0A53706B69B8
S113274001336B61E8E704232373F8BD3C55002093
S113275010B5072803D88000164B1B589F4600204D
S113276027E0154BD86824E0144B1B6A9B059B0F8C
S11327701348D8401DE0104B18691AE00E4B1B6833
S113278000209B0715D50D491022CB681A42FCD0B6
S1132790094B1B685B0701D40A480AE000200A4B76
S11327A09847054B9B681B041B0C584301E0802091
S11327B0000210BD7C3D0000D40000200008004051
S11327C000127A00006CDC02F12B000070B50C4999
S11327D00B6A0478857840780122104080014026F5
S11327E0B34303432A40D20180208343134303228B
S11327F0224012020348034013430B6270BDC046DB
S113280000080040FFFCFFFF072803D880001E4B90
S11328101B589F46172036E01C4A136A02210B43BB
S1132820136200202FE0194A936902210B4393613C
S1132830002028E0154A138A02210B43138200204A
S113284021E0124A938A02210B43938200201AE06A
S11328500F4B1A6802210A431A601B680D4A134081
S11328600A4A938411001022CB681A42FCD0084A09
S11328709168064BD96251689962126892B29A843F
S1132880002000E0002070479C3D0000000800404C
S1132890D40000207FFF0000F0B5C64600B584B028
S11328A0C222D200284B9A60284A53681E218B43C7
S11328B0536002236A4613700024254DE0B2694632
S11328C0A84701341C2CF9D103A800244470012327
S11328D09846837004701F4B984706201E4B9847F8
S11328E01E4B98476B465C7006271F701C725C7207
S11328F00823019369460120194EB0470120194D60
S1132900A8476B465C701C725C7203236A461370A2
S11329103D33019369460420B0470420A847124B75
S11329201C725C729C72DC72434601936B465C7051
S11329301F701C725C7269460020B0470020A847D3
S113294004B004BC9046F0BD0008004000400041C3
S1132950A52B0000CD270000092800006D290000E8
S113296091290000492A000000040040064A9369A6
S113297008210B4393610122044B1A7019000B7850
S11329801342FCD17047C04600040040000C0040D4
S113299070B5060004000D782D0205434B78002B1A
S11329A002D08023DB021D434B7A002B02D080230C
S11329B01B031D434868012810D9431E184234D113
S11329C0022830D90223002201325B009842FBD84E
S11329D012023243140080235B031D430B7A002B45
S11329E002D080239B031D43134A53785BB2002B10
S11329F0FBDB124B9847124B1E700F4A53785BB2A5
S1132A00002BFBDB0C4B9C601A0053785BB2002B51
S1132A10FBDB094A5368802149020B401D43556082
S1132A20084B984770BD0022D2E704023443802348
S1132A309B021D43D2E7C046000C0040ED1E00007F
S1132A40080C00402D1F000010B504000B4A5378F9
S1132A505BB2002BFBDB0A4B98470A4B1C70074AFE
S1132A6053785BB2002BFBDB044A516880235B0282
S1132A700B435360044B984710BDC046000C004004
S1132A80ED1E0000040C00402D1F000070B5040072
S1132A901A4A53785BB2002BFBDB194B9847194B4E
S1132AA01C70164A53785BB2002BFBDB134E706824
S1132AB0C004C00E144B98470500124B1C70766876
S1132AC0F602F60F114B1C700C4A53785BB2002BC4
S1132AD0FBDB0A4B9C682402240C0D4B9847002E08
S1132AE007D1012C07D9210028000A4B984705007B
S1132AF001E00134E540280070BDC046000C0040F0
S1132B00ED1E0000040C004051270000080C00409A
S1132B102D1F0000FD2E000010B50400064B984741
S1132B20064B1C70064A53888021C9010B4353800D
S1132B30044B984710BDC046ED1E0000020C004037
S1132B40000C00402D1F000010B504000F4B9847E7
S1132B500F4B1C700F4A53881B05180F53880E49DE
S1132B600B40538053880D490B4053801100802241
S1132B70D2014B881342FCD106494A880302064815
S1132B80024013434B80064B984710BDED1E0000D6
S1132B90020C0040000C0040FFF0FFFFFFBFFFFFEE
S1132BA02D1F000010B50C7824020443024B9847F3
S1132BB0A4B2024B5C8010BD492B0000000C004005
S1132BC010B50400064B9847064B1C70064A538800
S1132BD0C02109020B435380044B984710BDC046E3
S1132BE0ED1E0000020C0040000C00402D1F0000F0
S1132BF010B50400064B9847064B1C70064B5C88C6
S1132C002405240F054B98472000054B984710BD19
S1132C10ED1E0000020C0040000C00402D1F0000BF
S1132C208D2A000030B5D378002B35D11378802B52
S1132C3029D01B0680246402234354780225AC4324
S1132C4006D19478002C20D18024A402234341602F
S1132C505478013C012C1CD90D042D0CA024E4054E
S1132C602C431C4384620D0CD02424062C431C43A7
S1132C708462D478002C22D15B031CD59378012B79
S1132C801ED0416117E00023D7E7C024E4022343A8
S1132C90DDE70D4C2340DFE741600C04240CA02346
S1132CA0DB05234383620C0CD0231B06234383627E
S1132CB0D378002B03D15378013B012B02D930BDCB
S1132CC08161F8E78160FAE7FFFFFBFF10B50A00B6
S1132CD0C1090023002904D14309DB0105498C46BD
S1132CE063441F242040012181401800024B98476F
S1132CF010BDC04600440041252C00007047000070
S1132D0010B5054B9847054B9847054B9847054B1D
S1132D109847054B984710BD992800005D1F000097
S1132D20FD2C0000A1180000FD2C0000FEE70000AF
S1132D3010B51A4A1A4B9A4211D01A00194B9A42EA
S1132D400DD2194A03339B1A9B0801339B000022BE
S1132D50134812498C58845004329A42FAD1134AC7
S1132D60134B9A420AD2D34311495B1803218B4374
S1132D7004339B18002102C29342FCD10D4AFF2167
S1132D800D4B8B4393600D4A53687F390B4353605B
S1132D900B4B98470B4B9847FEE7C046383E000064
S1132DA000000020700000200400002070000020BB
S1132DB05055002000ED00E00000000000400041FC
S1132DC03D320000092E00000300064A1268002A62
S1132DD004D0044A1068C318136070470249014ABA
S1132DE01160F6E7E80000205075002010B50122BC
S1132DF002490348034B984710BDC04648030020CE
S1132E00100100200D260000F0B5C64600B59AB0AA
S1132E10244B9847244E96229200244BF250244D82
S1132E20244B2B612869244B98472869234FB847C2
S1132E306B69234A944663446B612869214B984724
S1132E402869B8470023204A137001221F4972548D
S1132E501F49725484221201B3541E4B98471E4DCD
S1132E601E4B9846104F18E00020C04702001C4B30
S1132E70F8501C4901A81C4B98471C4E01A930006E
S1132E801B4CA0471B493000A0471B493000A047FA
S1132E90074B1869094B98470024A847642CE3D0D2
S1132EA00134FAE7C1080000F840002024080000BB
S1132EB0100C0020542F002065080000310700008A
S1132EC004030201BD070000F400002034080000E0
S1132ED036080000ED2D0000191E0000090A00004C
S1132EE044080000BC3D000099320000100100209D
S1132EF025100000D43D0000DC3D00000022430802
S1132F008B4274D303098B425FD3030A8B4244D3AD
S1132F10030B8B4228D3030C8B420DD3FF220902EF
S1132F2012BA030C8B4202D31212090265D0030BAE
S1132F308B4219D300E0090AC30B8B4201D3CB03A4
S1132F40C01A5241830B8B4201D38B03C01A5241E6
S1132F50430B8B4201D34B03C01A5241030B8B42E8
S1132F6001D30B03C01A5241C30A8B4201D3CB02D3
S1132F70C01A5241830A8B4201D38B02C01A5241B8
S1132F80430A8B4201D34B02C01A5241030A8B42BB
S1132F9001D30B02C01A5241CDD2C3098B4201D3D3
S1132FA0CB01C01A524183098B4201D38B01C01A51
S1132FB0524143098B4201D34B01C01A52410309C8
S1132FC08B4201D30B01C01A5241C3088B4201D377
S1132FD0CB00C01A524183088B4201D38B00C01A24
S1132FE0524143088B4201D34B00C01A5241411A4B
S1132FF000D20146524110467047FFE701B5002058
S113300000F0F0F802BDC0460029F7D076E770471B
S113301003460B437FD4002243088B4274D3030935
S11330208B425FD3030A8B4244D3030B8B4228D3D6
S1133030030C8B420DD3FF22090212BA030C8B42FC
S113304002D31212090265D0030B8B4219D300E09C
S1133050090AC30B8B4201D3CB03C01A5241830B21
S11330608B4201D38B03C01A5241430B8B4201D3D1
S11330704B03C01A5241030B8B4201D30B03C01AFA
S11330805241C30A8B4201D3CB02C01A5241830A74
S11330908B4201D38B02C01A5241430A8B4201D3A3
S11330A04B02C01A5241030A8B4201D30B02C01ACD
S11330B05241CDD2C3098B4201D3CB01C01A524134
S11330C083098B4201D38B01C01A524143098B42BD
S11330D001D34B01C01A524103098B4201D30B01A6
S11330E0C01A5241C3088B4201D3CB00C01A5241CB
S11330F083088B4201D38B00C01A524143088B4290
S113310001D34B00C01A5241411A00D20146524128
S1133110104670475DE0CA0F00D04942031000D347
S11331204042534000229C4603098B422DD3030A9C
S11331308B4212D3FC22890112BA030A8B420CD3AC
S1133140890192118B4208D3890192118B4204D3D5
S113315089013AD0921100E08909C3098B4201D355
S1133160CB01C01A524183098B4201D38B01C01A8F
S1133170524143098B4201D34B01C01A5241030906
S11331808B4201D30B01C01A5241C3088B4201D3B5
S1133190CB00C01A524183088B4201D38B00C01A62
S11331A05241D9D243088B4201D34B00C01A524139
S11331B0411A00D20146634652415B10104601D3C6
S11331C04042002B00D54942704763465B1000D350
S11331D0404201B5002000F005F802BD0029F8D0F6
S11331E016E770477047C046F0B5CE46474615040B
S11331F02D0C2E0080B50704140C3F0C9946030CCB
S11332007E435D43674363437F19340CE4199C4652
S1133210A54203D980235B029846C4444B465143DC
S113322043433604360C250C24046544A419591868
S1133230491920000CBC90469946F0BD70B5002693
S11332400C4D0D4C641BA410A64209D1002600F0BD
S1133250E3FD0A4D0A4C641BA410A64205D170BDBF
S1133260B300EB5898470136EEE7B300EB589847A4
S11332700136F2E7243E0000243E0000243E000014
S1133280283E0000002310B59A4200D110BDCC5C4A
S1133290C4540133F8E700000EB410B59DB002A980
S11332A0029008610B4882248860486101204042F2
S11332B01FABC881084804CBA400006801938C812B
S11332C000F06EF80023029A13701DB010BC08BC05
S11332D003B01847FFFFFF7F0C000020F0B58E6895
S11332E085B007000C00039201939E4239D89023C5
S11332F08A89DB001A4234D00325096923685B1AE2
S11333000293636902985D43EB0F5D19019B6D1095
S113331001331B18AB4200D91D00530532D52900D7
S1133320380000F031FB061E09D10C233B6040231A
S11333300120A28940421343A38105B0F0BD029A43
S11333402169FFF79FFFA389144A1A40802313437E
S1133350A381029B2661F61826606561019EED1A21
S1133360A560019BB34200D21E003200039920687D
S113337000F0ADFAA36800209B1BA36023689E198C
S11333802660DAE72A00380000F05CFB061EE0D174
S11333902169380000F0AEFAC7E7C0467FFBFFFFA3
S11333A0F0B59FB0029005938B890F0016001B06A1
S11333B011D50B69002B0ED1402100F0E5FA3860DD
S11333C03861002805D10C23029A013813601FB01C
S11333D0F0BD40237B61002306AD6B6120336B7627
S11333E01033AB7634002378002B47D1A31B04930E
S11333F00DD0A31B320039000298FFF76FFF431C66
S113340000D1B5E06A69049B944663446B612378F8
S1133410002B00D1ACE00122002352426A6002A9D1
S11334205432521801342B60EB60AB601370AB65FF
S1133430584E05222178300000F03EFA621C002824
S113344020D12968CB0604D5532302AE20309B1922
S113345018700B0704D553232B2002AE9B19187048
S113346023782A2B16D000200A21099B2278303A8F
S1133470092A55D9002815D0099313E0252BB5D076
S11334800134B0E70123801B8340296814000B43F7
S11334902B60CDE7059B181D1B680590002B39DBBD
S11334A00993140023782E2B0BD16378621C2A2BEA
S11334B03ED1059B02341A1D1B680592002B34DB98
S11334C00793354E21780322300000F0F5F90028E7
S11334D006D04023801B83402A68013413432B60A9
S11334E0217806222D48661C297600F0E5F900288B
S11334F046D02B4B002B2FD12968059B0722C905E9
S113350028D59B189343083305936B69039A9B183A
S11335106B6167E75B42EB6002230B432B60C0E700
S11335204B4301349B180120A0E701235B42C7E70A
S1133530002314000A201A006B602178303909290D
S113354003D9002BBDD00792BBE742430134521884
S11335500123F2E70733D5E705AB00933A00114B9B
S11335602900029800E000BF0390039B0133CCD1F3
S1133570BB890B985B0600D429E70120404226E76B
S113358005AB00933A00074B2900029800F07AF843
S1133590EAE7C046E43D0000EA3D0000EE3D0000DD
S11335A000000000DD320000F7B5150001938A68C1
S11335B00B6900900C00934200DA130022002B6088
S11335C043321278002A01D001332B6023689B0612
S11335D002D52B6802332B60062723681F4027D0AF
S11335E0230043331B785A1E93412268920630D439
S11335F02200019943320098089EB047431C25D00D
S1133600062320682A68E16803400025042B03D1BF
S11336108D1AEB43DB171D40A3682269934201DD39
S11336209B1AED180027BD4220D1002010E001377D
S1133630E3682A689B1A9F42D2DA220001231932D6
S113364001990098089EB047431CF0D101204042E4
S1133650FEBD3020E1184331087021005A1C453169
S11336600978A218433202331170C1E72200012302
S11336701A3201990098089EB047431CE6D00137DE
S1133680D1E70000F0B58BB006920A0043320793ED
S1133690059004920A7E0C00109B6E2A00D18FE0E4
S11336A017D8632A2CD008D8002A00D199E0582AC8
S11336B054D026004236327029E0642A01D0692AA7
S11336C0F7D121681A68080623D5111D19601568F9
S11336D025E0732A00D188E008D86F2A29D0702AFF
S11336E0E7D1202209680A43226003E0752A20D02A
S11336F0782ADED122007821453211706C4A30E0FC
S11337000E001A684236111D1960136833700123C4
S113371079E04906D9D5111D19600023D55E002D25
S113372003DA2D23049A6D421370624B0A27039324
S11337302FE020681968050603D5081D18600D6878
S113374005E04006F9D50D68081D1860ADB2594B67
S1133750082703936F2A18D00A2716E045310A7008
S1133760544A03921A682168101D186015680806E7
S113377022D5CB0702D52023194321601027002D21
S113378003D1202322689A4322602300002243337A
S11337901A706368A360002B5CDB042221689143E8
S11337A02160002D58D1049E002B64D02600039B79
S11337B042361B7833705EE04806DAD5ADB2D8E7FE
S11337C009681A68080605D5111D1960136862692D
S11337D01A6006E04906F7D5111D19601368A28A1C
S11337E01A800023049E236154E01A68111D196095
S11337F0166800216268300000F05EF8002801D0ED
S1133800801B6060636823610023049A137041E0A5
S11338102369320006990598079DA847431C43D0A5
S1133820236800259B070FD4099BE06898423DDA82
S113383018003BE022000123193206990598079EDF
S1133840B047431C30D00135E368099A9B1A9D4266
S1133850F0DBE9E7002DA9D0049E28003900FFF72A
S1133860D3FB039B013E5B5C280033703900FFF7F8
S113387045FB051EF1D1082F09D12368DB0706D5C6
S113388063682269934202DC3023013E3370049B57
S11338909B1B2361079B09AA00932100069B0598A3
S11338A0FFF782FE431CB3D1012040420BB0F0BDB0
S11338B0063E0000F53D0000C9B28218904201D1D5
S11338C00020704703788B42FBD00130F6E710B537
S11338D0884202D98B18984208D300239A4207D011
S11338E0CC5CC4540133F9E78B5C8354013AFBD2BA
S11338F010BD000070B50500002910D00C1F23680E
S1133900002B00DAE418280000F0D4F81D4A1368EC
S1133910002B05D163601460280000F0CCF870BD62
S1133920A34209D9216860188342F3D118685B68FF
S113393041182160EEE713005A68002A01D0A24220
S1133940F9D919685818A0420BD1206809185818D9
S113395019608242E0D110685268411819605A60B7
S1133960DAE7A04202D90C232B60D5E7216860185E
S1133970824203D1106852684118216062605C6021
S1133980CAE7C046EC000020032370B5CD1C9D435C
S1133990083506000C2D1ED20C25A9421DD8300076
S11339A000F088F8254A14682100002919D1244C14
S11339B02368002B03D1300000F06AF8206029004E
S11339C0300000F065F8431C2CD10C233000336028
S11339D000F071F803E0002DDFDA0C2333600020DF
S11339E070BD0B685B1B1AD40B2B03D90B60CC186E
S11339F0256003E08C420ED163681360300000F050
S1133A005AF8200007220B30231D9043C31AE7D035
S1133A105A42E250E4E74B6863600C00EEE70C00A6
S1133A204968C2E70323C41C9C43A042E0D0211A86
S1133A30300000F02DF8431CDAD1C6E7EC0000207A
S1133A40F0000020F8B507000D001600002905D18C
S1133A501100FFF799FF04002000F8BD002A03D1EC
S1133A60FFF748FF3400F7E700F026F82C00864201
S1133A70F2D931003800FFF787FF041EECD029008B
S1133A803200FFF7FFFB29003800FFF733FFE3E7BD
S1133A90002370B5064C050008002360FFF794F975
S1133AA0431C03D12368002B00D02B6070BDC0469B
S1133AB04C550020704770470B1F1B68181F002BC4
S1133AC001DA0B58C01870475B0000005F44756D45
S1133AD06D795F627566666572204F4B5D200000EC
S1133AE05F44756D6D795F627566666572204E47D9
S1133AF05D200000204F4B5D20000000204E475DFC
S1133B0020000000202D2D3E205B454550454F4DA3
S1133B105F577269746520004F4B5D004E475D002E
S1133B200D204C6F6164205B6D476174657761792A
S1133B302E75454D532E754D6F64756C652E754904
S1133B40445D203D20307825303858000D205361E5
S1133B507665205B6D476174657761792E75454D97
S1133B60532E754D6F64756C652E7549445D203D0B
S1133B7020307825303858000D206549445F696E3F
S1133B80697469616C28293B000000000D206D6395
S1133B9075205B756172745D000000000D206D631B
S1133BA075205B6932635D000D206D6375205B6178
S1133BB064635D000D206D6375205B74696D6572CF
S1133BC05D0000000D206D6375205B6578696E747F
S1133BD05D0000000D206D6375205B7764745D00EB
S1133BE00D206D6375205B6E766D5D000D206D6339
S1133BF075205B696E74206F6E5D00004150204D2E
S1133C006F6465204F4E2E2E0D0000004150204D54
S1133C106F6465204F46462E2E0D00000D0E0F10CA
S1133C201112000078150000D6170000D617000006
S1133C30D6170000D6170000D6170000D6170000CC
S1133C40D6170000D6170000D6170000D6170000BC
S1133C50D6170000D6170000D6170000D6170000AC
S1133C60D617000058150000D6170000D61700001C
S1133C70D6170000D6170000D6170000D61700008C
S1133C80D6170000D6170000D6170000D61700007C
S1133C90D6170000D6170000D6170000D61700006C
S1133CA0D617000070150000D6170000D6170000C4
S1133CB0D6170000D6170000D6170000D61700004C
S1133CC0D6170000D6170000D6170000D61700003C
S1133CD0D6170000D6170000D6170000D61700002C
S1133CE0D617000068150000801500003815000084
S1133CF04815000040150000020000000300000009
S1133D00FFFF0000FFFF00000400000005000000AA
S1133D100600000007000000FFFF0000FFFF000096
S1133D20FFFF0000FFFF0000FFFF0000FFFF000097
S1133D30FFFF0000FFFF0000080000000900000072
S1133D400A0000000B000000002000420024004292
S1133D5000280042002C004200300042003400429F
S1133D6000010002000400080010002000080042C6
S1133D70000C0042001000420014004262270000C0
S1133D805E2700005E270000AE270000AE2700007B
S1133D9076270000682700007C27000034280000F4
S1133DA0142800001428000084280000262800009D
S1133DB04228000018280000502800000D204E540E
S1133DC0435F4E6F5F3031203D2028253036642913
S1133DD0200000005B52756E5D0000000D5B5265B3
S1133DE061645D00232D302B2000686C4C006566F7
S1133DF06745464700303132333435363738394138
S1133E00424344454600303132333435363738394D
S1133E106162636465660000F8B5C046F8BC08BC1E
S1133E209E467047CD000000F8B5C046F8BC08BCFB
S10B3E309E467047A500000046
S1133E38401F0000080000000100000010000020DE
S1133E480000000000000000000000000000000066
S1133E580000000000000000000000000000000056
S1133E680000000000000000000000000000000046
S1133E780000000000000000000000000000000036
S1133E880000000000000000000000000000000026
S1133E980000000000000000000000000000000016
S9032D319E
