S0190000416C61726D5F576966695F4D6F64756C652E737265636B
S1130000286D0020719200006D9200006D92000036
S113001000000000000000000000000000000000DC
S11300200000000000000000000000006D920000CD
S113003000000000000000006D9200006D920000BE
S11300406D9200006D920000F16D00006D92000051
S1130050C16700006D9200006D92000035880000B9
S113006045880000558800006588000000000000F5
S113007000000000BD690000CD690000DD690000DA
S1130080ED690000FD6900000D6A00000000000039
S1130090000000006D9200006D9200006D9200005F
S11300A06D92000010B5064C2378002B07D1054B48
S11300B0002B02D0044800E000BF0123237010BDD0
S11300C0340300200000000040BF0000084B10B5BE
S11300D0002B03D00749084800E000BF0748036825
S11300E0002B00D110BD064B002BFBD09847F9E73D
S11300F0000000003803002040BF000040BF0000A3
S11301000000000010B51E4AD36904210B43D361DB
S11301101C4B2022FF321A831A7D0523D20701D4F7
S1130120180010BD03781B02C022920013404178CE
S1130130C901FF220A401343817849001E220A4064
S11301401343C27892048021C9020A4013430279FE
S11301501204C02189020A4013430A4A5360936877
S11301605B035B0F084908249C400C8093684B8018
S113017043780B71138BDB05DB0F1B01D0E7C04603
S113018000040040004000415003002030B504004A
S1130190224A1088538843438B4206D2802292011C
S11301A018201F4BCB1893420ED81E4B5D6880223B
S11301B0D2022A435A602022FF321A831B7DDB07B6
S11301C003D4184B5D60052030BD452C22D8A30014
S11301D0154AD3589F46134B1B8BDB0503D5114B94
S11301E05D601020F0E7890849000E4BD96103E0F7
S11301F0890849000B4BD961A52000020443094B2F
S11302001C80190001220B7D1342FCD0054B5D605C
S11302100020D9E7034B5D601720D5E75003002089
S113022000C07FFF00400041BCA20000F8B5254B90
S11302301D885B886B431824834201D22000F8BDDB
S11302406B1E1842FAD1013C9542F7D31E4B1B7D1D
S1130250123CDB07F2D51D4C1B4B1C801D000124F6
S11302602B7D2342FCD02024FF34174B1C83002A0F
S113027022D0012305009D430023571E09E0CE1818
S11302807678360234432C8002339BB202359A428C
S113029004D9CC5CBB42F2DBA4B2F4E7094B1B7972
S11302A00024002BCAD13F2AC8D800220100042010
S11302B0074B98470400C1E7024B1B790024002B2D
S11302C0F3D0BBE7500300200040004144A5FFFFEA
S11302D08D01000070B5184B1D885B886B43182492
S11302E0834201D2200070BD6B1E1842FAD1013C3A
S11302F09542F7D3114B1B7D123CDB07F2D520242A
S1130300FF340E4B1C83002A14D00123984300238E
S1130310561E04E002339BB202309A4208D9048884
S1130320A4B2CC54B342F5DACD18240A6C70F1E7C8
S11303300024D7E70024D5E7500300200040004103
S1130340134B1A885B8853431821834201D2080057
S113035070479200013A1042F9D10E4B1B7D1339BC
S1130360DB07F4D50B4B2022FF321A8380084000B0
S1130370D861094A1A80190001220B7D1342FCD06E
S1130380044B198B1C200140481E81418900DEE783
S1130390500300200040004102A5FFFFF8B5CE46FF
S11303A0474680B5694B1878694B98470C2803D0A9
S11303B00CBC90469946F8BD644B5878644B9847FA
S11303C01528F5D1634B1B78032B03D05F4B9B7827
S11303D00D2BEDD16048614B9847614C614B9846B9
S11303E0A044614D614F624B994602E03434444568
S11303F0DED06378012BF9D14E212800B8476F2154
S11304002800B8472E212800B8472078C0B2C84732
S113041001002800574B984720212800B847217F26
S1130420C9B22800544EB047617FC9B22800B04712
S1130430A17FC9B22800B047E17FC9B22800B04704
S113044020212800B8472023E15CC9B22800B04726
S113045020212800B8472123E15CC9B22800B04715
S113046020212800B8472223E15CC9B22800B04704
S11304702323E15CC9B22800B04720212800B847F3
S11304802423E15CC9B22800B0472523E15CC9B24A
S11304902800B04720212800B8472623E15CC9B2D0
S11304A02800B0472723E15CC9B22800B0472021C7
S11304B02800B8472823E15CC9B22800B0472021AE
S11304C02800B8472923E15CC9B22800B04720219D
S11304D02800B8472A23E15CC9B22800B04720218C
S11304E02800B8472B23E15CC9B22800B04720217B
S11304F02800B8472C23E15CC9B22800B04720216A
S11305002800B8472D23E15CC9B22800B047202158
S11305102800B84720212800B8472E23E15CC9B23F
S11305202800B04720212800B8472F23E15CC9B236
S11305302800B04720212800B8473023E15CC9B225
S11305402800B0470D212800B8474FE714040020C5
S1130550B959000036060020D4A30000D95E00007B
S1130560B817002050140000B003002049580000C0
S1130570615B000081590000B958000070B5384B28
S11305801878384B9847112800D070BD344B5878F0
S1130590344B98470E28F8D1314B9878314B984713
S11305A01528F2D12E4BD8782E4B98471928ECD128
S11305B02D4B1B78042BE8D1294B1B790D2BE4D14F
S11305C02A4D28002A4CA04728001430A0472800B0
S11305D03830A04728005C30A047264D2800103052
S11305E0A04728004430A04728007830A047224D77
S11305F028003030A04728005430A0472800683035
S1130600A0471E4D28001830A04728003C30A047C2
S113061028006430A0471A4D281DA0472800243024
S1130620A04728003430A04728005830A0472800AD
S11306307830A047134D28001830A04728004430D4
S1130640A04728006830A0470F4D28000830A04775
S113065028002C30A0470D210C480D4B984794E7F7
S113066014040020B95900003606002018A4000024
S1130670D95E000098A4000018A5000098A5000009
S113068018A6000098A6000018A70000B0030020D8
S113069049580000F0B5C64600B5824B1878824B25
S11306A09847202802D004BC9046F0BD24237D4AFC
S11306B0D05C7D4B984723282CD07A4B58787A4BC2
S11306C098471228EFD1774B9878774B98470F28A3
S11306D0E9D1744BD878744B98471228E3D1714B05
S11306E01B790D2BDFD1714B1B78052BDBD1704DA2
S11306F0704C2A5D043B53402B556F480C306F4BB4
S113070098472B5D002B00D1C7E06B4820306B4B22
S11307109847C8E72523634AD35C0D2BCDD1634B9F
S11307201B78262BC9D16448644CA0470222644B31
S11307301A706448A0475D4B1B78002B10D000242E
S1130740584F614D614E395D2800B0472021280083
S11307505F4B98470134E4B2544B1B78A342F2D860
S11307600D2159485A4B98475A48544B98474F4B78
S11307701B78042B19D904244A4B98464A4F564EE9
S11307804346185DB8470100231FDBB2F0544E4DB9
S113079028004E4B9847202128004D4B98470134A0
S11307A0E4B2424B1B78A342EAD80D214648484B99
S11307B09847494A494D1400F534FF342900137809
S11307C01B01507803430B7002320131A242F6D16F
S11307D0424E3323337473744148384B984712366E
S11307E03A4C3B4F29783848A04720213648B8472F
S11307F00135AE42F6D1344D0D212800344B9847D3
S1130800284B9A7859783020364B98470400C1B267
S113081028002E4B984734236343334AD3182F4A76
S1130820117819775178597791789977D178D97760
S113083019002031107908700131507908700131A4
S1130840907908700131D07908700131107A0870FC
S11308500131507A08700131907A08700131D07AF0
S113086008700131107B08700131507B0870013130
S1130870907B08700131D27B0A70013133220A70F7
S113088001310A701A002E320121117019002F3122
S113089000220A7030331A700FE707482830074BDC
S11308A0984700E714040020B959000036060020D8
S11308B0603F00203608000068A70000D95E0000F1
S11308C05C30002098A70000B0030020B958000055
S11308D049580000B0A700006C2C002050480020AC
S11308E0C8A70000E55C0000B8170020F0B5D646A4
S11308F04F4680B583B004003C4B18783C4B984776
S11309000A2804D003B00CBC91469A46F0BD374B7C
S11309105878374B98470D28F4D1344B9878344B9A
S113092098470D28EED1334B1B78102BEAD12F4B6F
S11309301B7C0D2BE6D12D4B9A79597918792E4BC6
S11309409847C0B26428DDD821002C4B9847060094
S1130950FF28D7D02A4B984721003000294B9A46CC
S11309609847294B98473425019675436519002308
S11309706B701E4F387A1E4EB0478146787AB04766
S11309804A4613010343DBB22B71B87AB047814660
S1130990F87AB0474A4613010343DBB26B71387BE4
S11309A0B0478146787BB0474A4613010343DBB224
S11309B0AB71B87BB0478146F87BB0474A46130118
S11309C00343DBB2EB712000104B98472000104B1F
S11309D0984721000198D0470E4D0D2128000E4C58
S11309E0A0470D212800A0478CE7C046140400202E
S11309F0B959000036060020E55C00008D5E000059
S1130A00595F0000DD5F000089600000592B000081
S1130A10F52B0000B00300204958000070B50A4DC2
S1130A2044212800094CA04765212800A047422101
S1130A302800A04775212800A04767212800A04767
S1130A4020212800A04770BDB003002049580000B1
S1130A5070B5054B9847054D4F212800044CA0471D
S1130A604E212800A04770BD1D0A0000B0030020DD
S1130A704958000070B5074B9847074D4F2128008F
S1130A80064CA04746212800A04746212800A0473D
S1130A9070BDC0461D0A0000B00300204958000084
S1130AA010B504000C4B984788239B00E35C012B92
S1130AB00AD0012288239B00E254084B98470D2159
S1130AC00748084B984710BD002288239B00E25436
S1130AD0054B9847F3E7C046FD5E0000510A00004D
S1130AE0B003002049580000750A000010B5154BEA
S1130AF01878154B98470D2800D010BD134B1B7860
S1130B00022BFAD10F4B9B780D2BF6D10D4B587855
S1130B100D4B984701280DD00A4B58780A4B98473B
S1130B200228EAD10A4C20680A4B984720680A4BED
S1130B309847E2E7094C2068064B98472068064B23
S1130B409847DAE714040020B9590000360600205B
S1130B5038150020A10A00000D5D00002830002097
S1130B6010B5064B1B68834203D00548054B9847D4
S1130B7010BD0548034B9847FAE7C04628300020CB
S1130B8094A80000D95E000088A80000F0B5CE4605
S1130B9000B50500294B98470D212948294EB04737
S1130BA029482A4B99469847294BE85CC0B2294CFE
S1130BB0A04701002248284FB84709212048B047E0
S1130BC02648C847264BE85CC0B2A04701001C4831
S1130BD0B84709211A48B0472248C847224BE85C65
S1130BE0C0B2A04701001648B8472048C8478F2321
S1130BF09B00E858A04701001148B8470921104854
S1130C00B0471B48C8478A239B00E85CC0B2A04792
S1130C1001000B48B84709210948B0471548C8479F
S1130C205B23E85CC0B2A04701000548B8470D212A
S1130C300348B04704BC9146F0BDC046610B0000B8
S1130C40B00300204958000034A80000D95E000019
S1130C501E020000615B00003559000044A800003A
S1130C601D02000050A800001F02000060A8000040
S1130C706CA800007CA80000F0B5DE4657464E463E
S1130C804546E0B583B00400BA4B1878BA4B984790
S1130C900D2806D003B03CBC90469946A246AB460C
S1130CA0F0BDB44B5878B44B98471528F2D1B34BE8
S1130CB01B78022BEED1AF4B9B780D2BEAD1B048B9
S1130CC0B04B9847A046B04B9A46B04D0023994686
S1130CD0AF4CB04E2AE03E21AD48AE4B984736E0CB
S1130CE02021AB48AB4B98471BE14E21A848A94BA8
S1130CF098472921A648A74B9847A74B1A685B2316
S1130D00D35CDBB24B4500D127E10D21A048A14BB8
S1130D1098474B460133DBB2994634239C46E04462
S1130D20E24425354B46642B00D11BE1C3464346C0
S1130D305B78012BEDD15A33984A12680192D35C47
S1130D40DBB24B45C7D020219148924B98474E21A6
S1130D502000B0476F212000B0472E212000B0476B
S1130D605B461878C0B28E4B9847010020008D4B2B
S1130D70984720212000B047297820008A4FB8479F
S1130D8069782000B847A9782000B84720212000BE
S1130D90B047E9782000B84729792000B847697935
S1130DA02000B847A9792000B84720212000B04787
S1130DB0E9792000B84720212000B047297A200093
S1130DC0B847697A2000B84720212000B047A97AA3
S1130DD02000B847E97A2000B84720212000B04716
S1130DE0297B2000B847697B2000B84720212000D8
S1130DF0B047A97B2000B847E97B2000B8472021F1
S1130E002000B047297C2000B847697C2000B847FF
S1130E1020212000B047A97C2000B847E97C2000AD
S1130E20B84720212000B047297D2000B847697DBC
S1130E302000B84720212000B047A97D2000B847F2
S1130E40E97D2000B84720212000B047297E2000FA
S1130E50B84720212000B047697E2000B847A97E0A
S1130E602000B84720212000B047E97E2000B84781
S1130E70297F2000B84720212000B047697F200047
S1130E80B84720212000B0477B212000B0475B46B3
S1130E90597AC9B22000B8475B46197AC9B2200012
S1130EA0B84720212000B0473C212000B047202132
S1130EB02000B0475B46597BC9B22000B8475B4667
S1130EC0197BC9B22000B8477D212000B0472021FA
S1130ED02000B0472B00243319782000B847202184
S1130EE02000B047EB7E287F1B021843C04380B22A
S1130EF02E4B984720212000B047534601939979FF
S1130F002000B84720212000B0475B212000B047D3
S1130F1053465B78002B00D0E2E658211C481D4B59
S1130F2098475D211A481B4FB8472D211848B847E8
S1130F30019B197816481C4B984720211448B84740
S1130F4028211348B847019B9B78002B00D0CCE69E
S1130F5020210F480F4B9847CBE63C210C480D4B02
S1130F609847D2E60D4B1868114CA0470A4B1868F5
S1130F70A0478FE614040020B9590000360600206B
S1130F80DCA70000D95E0000C6170020BC3000209A
S1130F90B0030020495800003815002028300020F4
S1130FA0615B000081590000B9580000E57D000034
S1130FB08D0B000070B50400204B1878204B984727
S1130FC0002803D01D4B5B78202B00D070BD1D4B37
S1130FD01B78052BFAD1194B5B790D2BF6D1174BE6
S1130FE01A79D9789878184B9847C0B22100174BD2
S1130FF098470500FF28E9D0154B984721002800A1
S1131000144B9847144B984734236B43E3185A788E
S1131010002A10D101325A702000104B984720004A
S11310200F4B9847210028000A4B98470D210D4883
S11310300D4B9847CAE700225A70EDE714040020CC
S1131040B959000036060020E55C00008D5E000002
S1131050595F0000DD5F000089600000592B00002B
S1131060F52B0000B003002049580000F0B583B010
S11310700190002700240C4D0C4E08E00D210C4873
S11310800A4B984700270134E4B2642C0AD0019932
S11310902000A847032FF1D009210548B0470137A4
S11310A0FFB2F0E703B0F0BDDD5F00004958000077
S11310B0B003002010B504000C4B18780C4B984773
S11310C0152800D010BD0B4B1B78022BFAD1074B0F
S11310D05B780D2BF6D12000074B98472000074B77
S11310E098470022064B1A70ECE7C046140400200F
S11310F0B959000036060020F52B00006D100000E1
S1131100303F0020F0B5DE4657464E46C0B53A4B58
S113111018783A4B9847192804D01CBC91469A4633
S1131120A346F0BD344B5878344B98470D28F4D17E
S1131130314B9878314B98471528EED1304B1B78BA
S1131140042BEAD12C4BDB780D2BE6D12D4B9946A1
S11311500024250008E00D212B482C4B9847182328
S11311609C46E1440C2DD8D029482A4B98474B463D
S113117059682548284B98472848264B9847EB1C24
S11311809B464F46214E264B9A465B211E48B0474C
S11311902800D04701001C481F4B98475D211A487E
S11311A0B04720211848B0477978C9B216481D4C79
S11311B0A0473978C9B21448A04720211248B04743
S11311C07B211148B047F978C9B20F48A047B978D4
S11311D0C9B20D48A0477D210B48B04720210A48D9
S11311E0B0472C210848B04720210748B0470135B3
S11311F008375D45C9D1AEE714040020B959000091
S1131200360600207C480020B00300204958000026
S1131210A0A80000D95E000035590000A8A800006D
S1131220615B0000B9580000F8B5DE4657464E46EB
S11312304546E0B58146254B9B461879244B984694
S113124098470F2706015B465879C04738400F235B
S11312509A460643F3B24A4653705B469879C047B0
S113126000013E4006435B46D879C04738405346A8
S11312709E4335000543EBB24A4693705B46187AA9
S1131280C04700013D4005435B46587AC04738409B
S113129053469D432C000443E3B24A46D3705B4655
S11312A0987AC04700013C4004435B46D87AC04763
S11312B0384053469C432043C0B24B4618713CBC53
S11312C090469946A246AB46F8BDC0461404002099
S11312D0B9590000F0B5CE46474680B583B0050045
S11312E0224B98461879224CA04707004346587968
S11312F0A047204E7E43FA239B00584336184346AA
S11313009879A04781464346D879A04707004346C9
S1131310187AA04764244B465C438619A419BB0081
S1131320DB195B00E41823021B0E98466A46D3714E
S1131330D1791148114B994698472604360EF1B2DB
S11313400D48C847E7B239000B48C8476C61C2234F
S11313504246EA540133EE540133EF540422084B5D
S1131360EA5403B00CBC90469946F0BD1404002026
S1131370B959000010270000B0030020B95800003C
S11313801D020000F8B505000C4F38790C4EB0472B
S113139004007879B0470238A300E4186400001907
S11313A0C0B2021C0F2800D90F22C523EA54EB5CFB
S11313B0DBB2AB730422034BEA54F8BD14040020DF
S11313C0B95900001D020000F8B505000F4F387927
S11313D00F4EB04704007879B0470538A300E418ED
S11313E064000019C0B2031C012800D802231A1C8F
S11313F0DBB2072B00D90722DE23EA54EB5CDBB215
S1131400EB730422034BEA54F8BDC04614040020D5
S1131410B95900001D02000070B504000D4B984737
S11314200D4E0D2130000D4DA8470D4B984720005F
S11314300C4B984720213000A84720213000A847B2
S113144020213000A8472000074B98472000074B75
S1131450984770BDFD5E0000B003002049580000AD
S1131460295F0000AD7A000011280000857B000090
S113147010B5604B1878604B98471C2800D010BDFD
S11314805C4B58785C4B98471C28F8D880005B4B21
S11314901B589F465A4B1B78022BF0D1554B9B7817
S11314A00D2BECD1574B1868574B9847E7E7544B33
S11314B01B78022BE3D14F4B9B780D2BDFD1534B81
S11314C01868514B9847DAE74D4B1B78062BD6D159
S11314D0484B9B790D2BD2D1464B9878464B984775
S11314E001280DD0434B9878434B98470228C6D126
S11314F0464C2068464B98472068464B9847BEE7C1
S1131500404C2068424B98472068424B9847B6E7C6
S11315103B4B1B78062BB2D1364B9B790D2BAED1AE
S1131520344B9878344B984701280DD0314B987838
S1131530314B98470228A2D1344C2068364B984747
S11315402068344B98479AE72E4C2068324B9847D2
S11315502068304B984792E7294B1B78092B00D021
S11315608DE7244B5B7A0D2B00D088E7214B9878CC
S1131570214B984701280ED01E4B98781E4B984754
S1131580022800D07BE7214C2068244B9847206830
S1131590204B984773E71B4C2068204B98472068E2
S11315A01C4B98476BE7164B1B780C2B00D066E757
S11315B0104B1B7B0D2B00D061E70E4B98780E4B24
S11315C0984701280ED00B4B98780B4B984702286C
S11315D000D054E70D4C2068114B984720680D4B00
S11315E098474CE7074C20680D4B98472068094BF7
S11315F0984744E714040020B9590000B0A800003B
S11316003606002028300020191400003815002068
S1131610C91300000D5D000085130000D512000001
S11316202912000010B5474B1878474B98471C28DF
S113163000D010BD434B5878434B98471128F8D13C
S1131640404B9878404B98471828F2D13D4BD878B6
S11316503D4B98472028ECD13C4B1B78042B29D0D8
S1131660062BE6D1374B1879374B9847202840D0C2
S1131670364B1B78062BDCD1324B1879324B98470A
S1131680122846D0314B1B78062BD2D12D4B18791A
S11316902D4B98470A28CCD12A4B5B790D2BC8D106
S11316A02B4B1B682B4A9A5C002A47D10121294AFB
S11316B09954BEE7234B1B790D2BBAD1244B1B68DD
S11316C0254A9A5C002A0CD00021234A9954234BC2
S11316D01B68214A9A5C002A07D000211E4A9954AB
S11316E0A7E701211C4A9954F1E701211A4A9954A8
S11316F09FE7144B5B790D2BBAD1194B1B78002B48
S113170003D00022164B1A7093E70122144B1A706F
S11317108FE70C4B5B790D2BB4D10D4B1B689322D7
S113172092009A5C002A04D00021932292009954DA
S11317307FE701219322920099547AE70021054A18
S1131740995476E714040020B959000036060020A5
S1131750283000204D020000260200003815002029
S113176088300020F0B5C64600B582B00400354B81
S11317701878354B98471D2803D002B004BC904616
S1131780F0BD304B5B78202BF7D1304B1B780A2B04
S1131790F3D12C4B9B7A0D2BEFD12A4EB0792A4DE5
S11317A0A847FA27BF004743B846F079A8476427FB
S11317B047434744307AA8478046707AA847C719F8
S11317C043469D0045446D00ED193279F178B078B7
S11317D01F4B98470700C3B21E001E4B98472100B9
S11317E0019630001C4EB0471C4B9847FF231F4006
S11317F0CB3B7B43E3182A04120E5A72EDB21D72DE
S1131800FB00DB199B00DF19154BDB19DA771A0093
S1131810203215701900213100220A7022331A7007
S11318202000104B984720000F4B98472100019847
S1131830B0470E4D0D2128000D4CA0470D21280066
S1131840A0479AE714040020B95900003606002086
S1131850E55C0000595F0000DD5F00008960000066
S1131860BC300020152700009D270000B003002095
S113187049580000F8B5DE4657464E464546E0B5A1
S11318803D4B98473D4B98473D4B98473D4C8023F3
S11318901B049946636180231B0598466361802776
S11318A07F056761384B9847384B9847384B9847C2
S11318B0384B9847384B9847384B9847384B98479C
S11318C0384B9847384B98470122384B1A70BFF36E
S11318D05F8F62B6364EB0470020364B98470020E3
S11318E0354B9847FA204000344DA847FA20400071
S11318F0A847B047324B9847324B9847324B9847EA
S1131900324D2800324B98472800324B9847280024
S1131910314B98472800314B98473148314B984711
S1131920B047314B9847314B9B461868304DA84718
S1131930304B9A461868A84700252F4B1D702F4B33
S11319401D702F4B9847B0475B461A688F239B0046
S1131950D55052461268D5502A4B1D704B46A36190
S11319604346A361A761284B98473CBC90469946DF
S1131970A246AB46F8BDC0461D1B000041920000C4
S1131980C183000000440041F98100006983000024
S11319908162000015810000D56E0000156F000003
S11319A03562000061620000292B0000CC02002097
S11319B0A56D0000111A00002D1A0000018400001A
S11319C0491A0000A51A00003D5D0000B817002068
S11319D0E15D0000A55D0000F52B00009D270000DF
S11319E0BC060020812C00003D5F00002830002050
S11319F011280000381500203C150020303F00203D
S1131A000D1A0000360600208D45000070470000C6
S1131A10002804D180229202034B5A61704780222D
S1131A209202014B9A61F9E700440041002804D175
S1131A3080225202034B5A61704780225202014BAA
S1131A409A61F9E7004400410E4B0F4A13600F4AB4
S1131A509A6100228E2189005A54DE39FF395A5482
S1131A6001315A540A495A5404200A495854023933
S1131A705A5409495A5409495A5417315A50084971
S1131A805A547047D02D002028300020F003002045
S1131A901D0200002A0200002302000025020000AB
S1131AA02602000070B5154C15482060154B836163
S1131AB014228E239B00C254134B9C466044002185
S1131AC0124DA8472368124A944663441800032120
S1131AD0A84723688A229200944663441800002190
S1131AE0A84723680B4A9446634418000021A8477A
S1131AF022680121084BD15470BDC046381500201E
S1131B00401500201C4800201D020000A1700000A8
S1131B102A0200002302000026020000F0B5C64697
S1131B2000B582B001AC0123984663700027A7700A
S1131B30237021001720274EB047274D80231B0414
S1131B40AB6121001B20B04780231B05AB61210042
S1131B501C20B04780235B05AB6121001120B047F6
S1131B6080239B02AB6121001020B04780235B02DD
S1131B70AB61277021000E20B0478023DB016B612D
S1131B8021000F20B04780231B026B6121000B2032
S1131B90B04780231B016B61677021000720B047A9
S1131BA080236B614346637021001620B047802375
S1131BB0DB036B6121000120B04702236B612770B6
S1131BC021000A20B0478023DB006B6102B004BC13
S1131BD09046F0BDA18400000044004110B50548C2
S1131BE0054B98476920054B984701000448054B6D
S1131BF0984710BD24A90000D95E0000615B000075
S1131C00B00300208159000010B504001D4B1B686F
S1131C10834204D01C4B1B68984224D010BD8F23F0
S1131C209B00C258FA23DB009A420DD8174BC35CC1
S1131C30012BF3D180221205154B5A61154B98479D
S1131C400622154BE254E9E7144B98472000144B45
S1131C5098472000134B98478A229200A35C0133D3
S1131C60DBB2A354DAE7094BC35C012BD6D1802243
S1131C705205074B5A61074B98470622064BE2541C
S1131C80CCE7C0462830002038150020230200008D
S1131C9000440041A56D00001D020000E979000028
S1131CA0BD790000B570000010B5194B1B78012BED
S1131CB013D0002B02D0022B1ED010BD154A9C233A
S1131CC0D35C9D21515C1B021943F6D01248134B7F
S1131CD0984701220E4B1A70EFE70E4A9E23D35CFD
S1131CE09F21515C1B021943E7D00D480B4B9847C9
S1131CF00022074B1A70E0E700230A480A49CA5C2D
S1131D00C2540133122BFAD10222014B1A70D4E7C8
S1131D105C300020BC3000202B180000911E000015
S1131D202F180000343F00205048002070B50400F4
S1131D303B4BC35CDBB2732B51D0742B40D0662B6E
S1131D4000D070BD0B3BC25C34204243354952186D
S1131D509289E35C43435B18198992B28A422BD976
S1131D605B23E35C342253432E4A9B1800229A815E
S1131D7020002D4B98472D4BE35C012B02D02C4BBC
S1131D809847DEE720002B4B984720002A4B9847C2
S1131D902A4C092120002A4DA8472A482A4B984753
S1131DA02A4B98472A4B19783031C9B22000A847EA
S1131DB00D212000A847E2E72000264B9847C0E702
S1131DC0254B9847194BE35C012B03D06622144B37
S1131DD0E254B6E713492000204B9847F6E78A23DC
S1131DE09B00C35CDBB2012BABD900218A239B008F
S1131DF0C154CE3BFF3BC35C34225A43094B9B186E
S1131E00D9730A4BC35C012B06D02000114B9847B1
S1131E106622034BE25494E70249114B9847F4E7D6
S1131E201D020000B8170020B57000002602000053
S1131E30A91C0000FD5E0000AD610000B00300209D
S1131E404958000034A90000D95E0000E55800009C
S1131E505C300020CD1E00001D260000056100003E
S1131E609D600000F8B505000C000809064FB8474E
S1131E7001002800054EB0472007000FB8470100B5
S1131E802800B047F8BDC046595800004958000022
S1131E9010B50D4B55221A705A709A70DA700022E0
S1131EA01A715A7101249C710534DC71040A1C7284
S1131EB05872080A9872D9721A735A739A73DA7339
S1131EC033321A745A7410BD343F0020F8B5CE462C
S1131ED0474680B581465B23C45C0134E4B22200EA
S1131EE034216143344B5B185B78012B19D0601C9F
S1131EF06421324B9847CCB263252F4F34262F4BA5
S1131F009846220033006343FB185B78012B08D00A
S1131F10601C6421C047CCB2013DEDB2002DF0D16C
S1131F2025E05B234946CC5434210D006543224B04
S1131F30ED182879C0B2F7264F46B8556879C0B273
S1131F400136B855A879C0B20136B855E879C0B29F
S1131F500136B855B87BC0B20136B8550336FC20FB
S1131F603E5451435B182E331B78012B03D00CBC19
S1131F7090469946F8BD0023E918087FC0B2494647
S1131F80C918FD3108700133122BF5D122335343A4
S1131F90094AD2182E3202231370094D0949280028
S1131FA0094B984721002800084B98470D21280029
S1131FB0074B9847DBE7C046B8170020519900004B
S1131FC0B003002048A90000B95E0000B958000021
S1131FD049580000F0B5CE4600B505005321944899
S1131FE0944B994698475B27EA5DD2B2924CD30052
S1131FF09B189B009B18E318D9788D488F4EB047E7
S1132000EA5DD2B2D3009B189B009B18E3181979A0
S11320108748B047EA5DD2B2D3009B189B009B1857
S1132020E31859798248B047EA5DD2B2D3009B18CD
S11320309B009B18E31899797D48B047EA5DD2B2BA
S1132040D3009B189B009B18E318D9797848B047B4
S1132050EA5DD2B2D3009B189B009B18E318197A4F
S11320607348B047EA5DD2B2D3009B189B009B181B
S1132070E318597A6E48B047EA5DD2B2D3009B1890
S11320809B009B18E318997A6948B047EA5DD2B27D
S1132090D3009B189B009B18E318D97A6448B04777
S11320A0EA5DD2B2D3009B189B009B18E318197BFE
S11320B05F48B047EA5DD2B2D3009B189B009B18DF
S11320C0E318597B5A48B047EA5DD2B2D3009B1853
S11320D09B009B18E318997B5548B047EA5DD2B240
S11320E0D3009B189B009B18E318D97B5048B0473A
S11320F0EA5DD2B2D3009B189B009B18E318197CAD
S11321004B48B047EA5DD2B2D3009B189B009B18A2
S1132110E318597C4648B047EA5DD2B2D3009B1815
S11321209B009B18E318997C4148B047EA5DD2B202
S1132130D3009B189B009B18E318D97C3C48B047FC
S1132140EA5DD2B2D3009B189B009B18E318197D5B
S11321503748B047EA5DD2B2D3009B189B009B1866
S1132160E318597D3248B047EA5DD2B2D3009B18D8
S11321709B009B18E318997D2D48B047EA5DD2B2C5
S1132180D3009B189B009B18E318D97D2848B047BF
S1132190EA5DD2B2D3009B189B009B18E318197E0A
S11321A02348B047EA5DD2B2D3009B189B009B182A
S11321B0E318597E1E48B047EA5DD2B2D3009B189B
S11321C09B009B18E318997E1948B047EA5DD2B288
S11321D0D3009B189B009B18E318D97E1448B04782
S11321E0EA5DD2B2D3009B189B009B18E318197FB9
S11321F00F48B047EA5DD2B2D3009B189B009B18EE
S1132200E318D97F0A48B047EA5DD2B2D3009B18DD
S11322109B009B18E418203421780548B0475A21C4
S11322200348C8470D210248C84704BC9146F0BD85
S1132230B003002049580000BC300020651E000097
S1132240F0B5DE4657464E464546E0B585B00290A9
S1132250DF4A17002D3700235B2188461AE00298D5
S11322604546405D6D46A873A87B8246C0008446FF
S1132270D444604680008446D444CC44917F8A464A
S1132280614689798A4550D0013334323437642B1E
S113229000D196E1DEB21C001578012DF4D17878D6
S11322A001900028F0D138780228EDD102984546F3
S11322B0405DC0B2C500AC4684446546AD00AC4642
S11322C08444C4488146CC44D07E82466046C0786B
S11322D08245D9D102984546405D6D46A873A87BD6
S11322E08246C0008446D444604680008446D44478
S11322F0CC44107F8246604600798245C4D102985E
S11323004546405D6D46A873A87B8246C00084465E
S1132310D444604680008446D444CC44507F8246F2
S1132320604640798245AFD199E7AB49AB48AC4BA5
S113233098473100A948AB4B98470D21A748AA4FAD
S1132340B84734226243A94B9B181A0022321278F0
S1132350233319781202114388465B21029D685C7D
S1132360C0B29C4AC3001B189B001B18D318987C4E
S1132370695CC9B2CB005B189B005B18D318DB7C8B
S11323800002184383B29A4619009448984B9B461E
S1132390984720219148B84743466A46D381D38958
S11323A0984619008D48D84720218C48B847C24523
S11323B000D0DCE08F498948894B984701231E00EF
S11323C034226243894B9B181A0024321278253335
S11323D01B781202134398465B21029D685CC0B2CD
S11323E07C4AC3001B189B001B18D318187D695C1A
S11323F0C9B2CB005B189B005B18D3185B7D00024D
S1132400184383B29946754F19003800784B9B46A0
S1132410984720213800744B9A46984743466A46A9
S1132420D381D389984619003800D8472021380031
S1132430D047C14500D0A0E06F496848684B984731
S113244034226243694B9B181A00263212782733D0
S11324501B781202134398465B21029D685CC0B24C
S11324605C4AC3001B189B001B18D318987D695C39
S1132470C9B2CB005B189B005B18D318DB7D00024C
S1132480184383B29946554F19003800584B9B4660
S1132490984720213800544B9A46984743466A4649
S11324A0D381D389984619003800D84720213800B1
S11324B0D047C14567D151494848494B984701968F
S11324C034226243494B9B1828331B7898465B207F
S11324D0029D295CC9B23F4ACB005B189B005B1884
S11324E0D3181F7C295CC9B2CB005B189B005B1816
S11324F0D3185B7C3F021F43384E390030003C4BFD
S11325009B46984720213000374B9A4698474346CC
S11325106A46D381D389984619003000D8472021D0
S11325203000D047474533D135492C482C4B984788
S1132530019B002B3AD0342363432C4CE418230032
S11325402E3303221A7022002F32012313703034E9
S1132550237008330021029AD218F4321170013327
S11325601B2BF8D127491D481D4B984729E02649C4
S11325701A481B4B9847019E22E724491748184BD9
S11325809847019E5CE722491448154B984797E702
S11325904346032B06D1042F04D11E490F48104B88
S11325A09847C5E71C490D480D4B984734236343AE
S11325B00E4CE41823002F3300221A702E34022309
S11325C0237005B03CBC90469946A246AB46F0BD8C
S11325D0B9170020BC30002060A90000B00300201F
S11325E0B95E0000B958000049580000B81700202F
S11325F03559000070A9000098A90000C0A9000086
S1132600E8A9000038AA000084A90000ACA90000D1
S1132610D4A90000FCA9000024AA000070B504009D
S1132620314BC35C012B07D02223E35CF722A25C6D
S1132630DBB2934220D070BD2C4B98472C482D4BD5
S113264098472223E15CC9B22B4D28002B4EB0479A
S11326502323E15CC9B22800B0472423E15CC9B25A
S11326602800B0472523E15CC9B22800B0470D21FA
S11326702800234B9847D7E72323E35CF822A25C86
S1132680DBB29342D7D12423E35CF922A25CDBB210
S11326909342D0D12523E35CFA22A25CDBB29342BD
S11326A0C9D100215B26174DA25DD2B26318D87F31
S11326B0D3009B189B009B18EB18585401311E291A
S11326C0F2D12000104B98475B25635D0F4A3420FC
S11326D04343D3180121D973635D4343D218117462
S11326E020000B4B9847A6E726020000FD5E000081
S11326F040A90000D95E0000B0030020B9580000D2
S113270049580000BC30002041220000B8170020C6
S1132710D51F0000F0B5D646474680B5D3B002AE0B
S113272034A93300427A1A70027A5A703430023370
S11327308B42F7D1144B019342AC144B9846144F7F
S11327400023F25C1A550133402BFAD10198C0479B
S113275038700528FAD00F4B9A460D4D40222100BF
S11327600198D04728700528F8D0019B0133FF3326
S11327701A0001934036084B9A42E1D153B00CBC85
S113278090469A46F0BDC046000E02004103000088
S1132790194800202D02000000120200F0B5C646C0
S11327A000B5D2B0019002AF3C00154B009342AD8E
S11327B0144E154B9846402229000098B0474346D2
S11327C018700528F7D000235A5DE2540133402BDA
S11327D0FAD14034009B0133FF331A0000930B4BB2
S11327E09A42E8D1019C34AA3B7863727B782372C5
S11327F0023734349742F7D152B004BC9046F0BD4E
S1132800000E0200D5020000194800200012020048
S1132810F0B591B00400844E844D4022694684484A
S1132820B04728700528F8D08E218900635CDBB29C
S11328306A46D25C635C6B445B78A373552A00D010
S1132840B8E0A37BDBB27439FF3963548E239B0059
S1132850E35C6B449B78E373E37BDBB21931635431
S11328608E239B00E15C6944C978A175E15C6944ED
S113287009796175E35C6B445B792375552A00D053
S1132880A7E0A37DDBB2C2216354637DDBB20131D7
S11328906354237DDBB2013163548E208000235CBA
S11328A06B449B795D31FF316354235C6B449B79AA
S11328B063548E239B00E15C6944C8795D490870C8
S11328C0E15C6944097A6171E15C6944497AA17106
S11328D0E15C6944897AE171E15C6944C97A2172F5
S11328E0E35C6B441B7B2374552A00D08DE08E235C
S11328F09B00E35C6B445B7B63744F4B1B689C42A3
S113290000D18CE04D494E484E4B98478E27BF006E
S1132910E35DDBB26A46D15C49484B4EB0472021A7
S113292047484A4DA847E35D6B4459784448B0474B
S113293020214348A847E35D6B4499784048B04759
S113294020213F48A847E35D6B44D9783C48B04711
S1132950E35D6B4419793A48B047E35D6B445979B8
S11329603748B04720213648A847E35D6B4499793E
S11329703348B04720213248A847E35D6B44D979F6
S11329802F48B04720212E48A8476179C9B22C4866
S1132990B047A179C9B22A48B047E179C9B22848F9
S11329A0B047217AC9B22648B0470D212448A84728
S11329B011B0F0BDC523E35CDBB2A3738E239B008F
S11329C0E35C6B449B78E373DE23E35CDBB2E37389
S11329D046E7C223E35CDBB2A375C323E35CDBB24B
S11329E06375C423E35CDBB223758E218900635CC9
S11329F06B44987988239B00E0540120E054615C87
S1132A0069448979E154E05453E7002222748E2307
S1132A109B00E35C6B445B7B637462746DE70C49FD
S1132A200748084B984771E7D50200001948002071
S1132A30000D02004C480020283000206CAA000041
S1132A40B0030020B95E0000B958000049580000E6
S1132A505CAA000070B590B004002D4E2D4D4022AC
S1132A6069462D48B04728700528F8D08E239B006E
S1132A70E25CD2B2552168468154E25CA17B6A448F
S1132A805170E25CE17B6A449170E25CA17D6A442E
S1132A90D170E25C617D6A441171E25C217D6A441B
S1132AA05171E25C88218900615C6A449171E25C45
S1132AB06A441A4909780131D171E25C61786A4447
S1132AC01172E25CA1786A445172E25CE1786A4472
S1132AD09172E25C21796A44D172E25C217C6A449D
S1132AE01173E35C627C6B445A730B4E0C4D094CBE
S1132AF03000A84720700528FAD00A4D054C402222
S1132B0069460548A84720700528F8D010B070BD64
S1132B10D502000019480020000D02004C48002096
S1132B20410300002D02000000B583B000226B4673
S1132B301A70074B5B68DB061B0F69468B70CA7003
S1132B400A714A706846034B984703B000BDC046FB
S1132B500040004105010000F0B5D646474680B567
S1132B60204CA54402AE98A9330002781A7042782A
S1132B705A7002799A704279DA7082791A71C2793C
S1132B805A71343006338B42EFD1FA235B0201933E
S1132B90A2AC154B9846154F0023F25C1A5501332D
S1132BA0402BFAD10198C04738700528FAD0104B51
S1132BB09A460E4D402221000198D04728700528DE
S1132BC0F8D0019B0133FF331A0001934036FF23F1
S1132BD05B029A42E0D1B3239B009D440CBC904617
S1132BE09A46F0BD34FDFFFF410300001948002060
S1132BF02D020000F0B5C64600B51E4CA544019058
S1132C0002AF3C00FA235B020093A2AD1A4E1B4BA9
S1132C109846402229000098B0474346187005287A
S1132C20F7D000235A5DE2540133402BFAD14034EB
S1132C30009B0133FF331A000093FF235B029A4287
S1132C40E7D1019C98AA3B7823707B786370BB78AA
S1132C502371FB7863713B79A3717B79E371063748
S1132C6034349742EFD1B2239B009D4404BC904678
S1132C70F0BDC04638FDFFFFD50200001948002012
S1132C80F0B5D64600B51D4CA544019002AE370000
S1132C901B4B009398242401B4466444194B9A4670
S1132CA0194D402221000098D04728700528F8D0FB
S1132CB000231A5DFA540133402BFAD14037009BAC
S1132CC00133FF331A000093104B9A42E9D1019D5E
S1132CD09622120102AB9C46624433786B7073787F
S1132CE02B70B378AB70F378EB70043606359642EC
S1132CF0F3D1074B9D4404BC9246F0BD38F6FFFF68
S1132D0000170200D502000019480020003D02000F
S1132D10C809000010B53B4C3B4920003B4B984789
S1132D20093C01223A4BE25400282AD0394B3A4A52
S1132D30D35C002B21D10021354B374AD15437497C
S1132D403048324B9847002828D0324B324AD35C63
S1132D50002B1FD100212E4B2F4AD1543049294832
S1132D602A4B9847002822D02A4B2B4AD35C002BAD
S1132D7026D02C482C4B984722E02C482A4B9847C5
S1132D80D9E7244B244AD35C002BD8D02848264BBF
S1132D909847D4E72748244B9847DBE71D4B1E4A46
S1132DA0D35C002BDAD024481F4B9847D6E7194B45
S1132DB0194AD35C002B13D10021154B164AD15468
S1132DC01E491048114B9847002811D0114B124A44
S1132DD0D35C002B08D101210D4B0F4AD15410BDF7
S1132DE01748114B9847E7E716480F4B9847F2E707
S1132DF0084B094AD35C002BF1D013480A4B98477F
S1132E00EDE7C046693F0020DCAB000099550000A7
S1132E103708000036080000603F0020F0AB0000D7
S1132E20D4AB00002CAB0000D95E0000F0AA000077
S1132E30FCAA00000CAB00001CAB0000C0AB0000FF
S1132E4040AB000054AB000070AB000010B5254C43
S1132E5025492000254B9847093C0122244BE25484
S1132E6000281CD0234B244AD35C002B13D100210F
S1132E701F4B214AD15421491A481C4B984700281A
S1132E801AD01C4B1C4AD35C002B11D10021184BC7
S1132E90194AD15421E01A481A4B9847E7E7154BD1
S1132EA0154AD35C002BE6D01748164B9847E2E747
S1132EB01648144B9847E9E70E4B0F4AD35C002B96
S1132EC00CD10B4B0C4AD35C002B06D00022104BC8
S1132ED01A70802212050F4B9A6110BD0E48094BDF
S1132EE09847EEE7693F0020DCAB000099550000ED
S1132EF03708000036080000603F0020E4AB000003
S1132F00F0AA0000D95E0000FCAA00008CAB00000F
S1132F10940300200044004198AB000010B5254BF9
S1132F205B78033BDAB2082A3AD89300224AD35892
S1132F309F4622492248234B984700280DD0224B14
S1132F401C4AD35C002B04D10121204B194AD154D3
S1132F5026E01F481F4B9847F6E71B4B154AD35CE6
S1132F60002B1DD01C481B4B984719E01B491448E3
S1132F70144B9847002808D0134B0E4AD35C002BFF
S1132F800ED01748134B98470AE00F4B094AD35CFD
S1132F90002B05D013480F4B984701E0124B98477C
S1132FA010BD114B9847FBE7104B9847F8E70F4BC0
S1132FB09847F5E7603F00207CAA0000F8AB0000CA
S1132FC0693F0020995500003608000035080000CC
S1132FD0A0AA0000D95E0000B0AA0000A8AB0000BF
S1132FE0C4AA0000D8AA0000152D00004D2E000030
S1132FF010B5044800230370034A0449044B98475E
S113300010BDC046000000202C490020C8AC0000C0
S11330101D9A0000F0B5C64600B5B64B5A78112A81
S113302014D89300B44AD3589F46B449B448B54B16
S11330309847B04B0021812212019950FA21C9000E
S1133040B14A9950FA218900B04A995004BC90467B
S1133050F0BDAF49AA48AB4B9847A64B002181224B
S113306012019950FA21C900A74A9950FA218900FE
S1133070A64A9950EAE7A749A148A24B98479D4B15
S11330800021812212019950A3499F4A9950A349D2
S11330909E4A9950DAE7A24999489A4B9847954B2A
S11330A00021812212019950FA21C900964A9950AF
S11330B0FA218900954A9950C8E79A499048914B5A
S11330C098478C4B0021812212019950FA21C900A2
S11330D08D4A9950FA2189008C4A9950B6E7924951
S11330E08748884B9847834B0021812212019950CD
S11330F0FA21C900844A9950FA218900834A9950D7
S1133100A4E78A497E487F4B98477A4B0021812265
S113311012019950FA21C9007B4A9950FA21890079
S11331207A4A995092E782497548764B9847714B91
S11331300021812212019950FA21C900724A995042
S1133140FA218900714A995080E77A496C486D4B9D
S11331509847684B0021812212019950FA21C90035
S1133160694A9950FA218900684A99506EE7724970
S11331706348644B98475F4B0021812212019950A8
S1133180FA21C900604A9950FA2189005F4A99508E
S11331905CE76A4C6A4B6B4A6B4920006B4DA8474D
S11331A021005748574B9847524B00218122120166
S11331B099505949544A99505849544A995045E7A5
S11331C063494F484F4B98474A4B002181221201D3
S11331D0995051494C4A995050494C4A995035E7B5
S11331E05C4B984755485C4B98475E3004005B4DF8
S11331F05B492800434EB04720005A4B98470100D2
S11332002800594B984759492800B047584B394A28
S1133210D35C002B1CD13A4D51492800394EB0479C
S11332202000504B9847010028004F4B98474F49C6
S11332302800B0472F4B0021812212019950FA2116
S1133240C900314A9950FA218900304A9950FDE663
S1133250484E424D310028002A4FB84737483E4B6C
S1133260984701002800404B984698474249280057
S1133270B84731000C312800B8475E212800C04708
S1133280310018312800B847C5E7394B194AD35CD7
S1133290002B13D11A4D294928001A4CA04737494D
S11332A02800A047134B00218122120199501A498A
S11332B0154A99501949154A9950C7E6274D1F498F
S11332C02800104CA0472D492800A047E2E72C49CC
S11332D00B480C4B9847074B00218122120199504F
S11332E0FA21C900084A9950FA218900074A9950DD
S11332F0ACE6C046603F002004AC0000E0AC000037
S11333001C480020B95E00001408000018080000E2
S1133310E8AC0000F8AC0000C832000064190000FA
S113332004AD000010AD000024AD000038AD000075
S11333304CAD000084AD000094AD000000000020FE
S1133340204A002068490020A8AD00001D9A000012
S1133350E4AD0000F12F0000919A0000B0030020BA
S1133360C4AD0000615B0000355900007CB300006F
S1133370360800004CAC0000D0AD000068AC000082
S1133380D4AD0000F0B5DE4657464646C0B56D4C98
S1133390A5446D4D6D4928006D4CA04706006D494C
S11333A02800A04742796C4B1A70002E00D1BBE074
S11333B000246A4B1C706A496A486B4B98476B4BF4
S11333C05C606B4A9C506B496B4A99506B496C4AE0
S11333D099501C7200276B4C624DA61E10E0634B83
S11333E09B784B2B1CD00027604B812212019A58EA
S11333F063495B589A4200D99EE000225B4B1A72E3
S1133400012221002800604B9847337A002BF7D023
S1133410002FE4D1554B9B784F2BE5D10127E3E7EF
S11334205A495B48504B9847504B5B680024002B2B
S11334300AD04E4D564E574F6319597A3000B8474B
S113344001346B68A342F7D8514E53493000464FBC
S1133450B84752493C483E4CA047050050493A48B9
S1133460A04701900D2130004A4CA0474D4930003F
S1133470B84728004C4A93469047010030004B4A15
S1133480924690472C213000A04749493000B84764
S11334900198D84701003000D0470D213000A047E3
S11334A03D493000B847019B5C1B02ABFFA80C30C0
S11334B000221A7001339842FBD1002C06D000235D
S11334C0EA5C02A95A5401339C42F9D1304C02A956
S11334D02000254DA84702A8364B98469847324FFE
S11334E0B84701002000314EB0471E4C324920003D
S11334F0A847194B19782000264B98472F492000DC
S1133500A84702A8C047B84701002000B0472C498B
S11335102000A847FA277F0038002A4EB04702A9A6
S11335202000A8473800B0478123DB009D441CBC21
S113353090469A46A346F0BD234915480A4B98473E
S113354072E7C046F8FBFFFF693F002018AE000099
S11335509F9A000024AE0000184900205C4A002015
S11335602CAE00001C480020B95E0000603F002023
S11335700C08000010270000140800008813000045
S113358018080000623F00204D8B000038AE000098
S1133590B00300204958000054AE00006CAE000097
S11335A074AE00007CAE0000615B00003559000081
S11335B088AE0000919A0000C4AD000028AE00005F
S11335C07CB300000184000048AE0000F0B5D6468C
S11335D04F464646C0B582B000246B461C70042397
S11335E06A4693700833D3701471547154706846EA
S11335F0744B984774497548754B9847754B764A90
S1133600D454764B802212055A61802252055A61A5
S1133610802212045A61704B9946002398469A46B8
S11336206F4B9F1EA3E0012B09D0022B33D16A4BB1
S11336309B78542B07D103226A4B1A7006E0664B21
S11336409B78542B23D0674B42461A70664B1B78E9
S1133650002B51D1604B42461A72644B5E4AD35CD4
S1133660002B00D0A8E001225D492000604B984760
S11336703B7A002BF1D05B4B1B78002BD3D1564BFC
S11336809B78482BDFD10122564B1A70DEE70222C9
S1133690544B1A70DAE7032B07D14F4B9B78502B0E
S11336A0D1D104224F4B1A70D0E7042B07D14A4BD7
S11336B09B782F2BC7D105224A4B1A70C6E7052BDE
S11336C007D1454B9B78312BBDD10622454B1A704F
S11336D0BCE7062B07D1404B9B782E2BB3D1072296
S11336E0404B1A70B2E7072BADD13B4B9B78312B83
S11336F0A9D101223C4B1A703C4B374AD35C002BB6
S11337005AD1324C3B492000314DA847354B1978EA
S11337103031C9B22000384B984738492000A847B7
S11337202D4B5B68002B0AD000242B4E324DA3197D
S1133730597A2648A84701347368A342F7D8304A17
S1133740254B9A7001222F4B1A702F491F48204B8A
S113375098472E4B98472E4B98472E4B9847224B11
S11337601B78002B03D1274B1B78002B0FD1494624
S113377052464A60284BCA501A4B42461A701A4B9A
S11337801A7026491148124B9847254C6BE7244C74
S1133790244920000E4DA847234B19782000164BCE
S11337A0984722492000A847FA204000204B984718
S11337B020492000A847DAE702B01CBC904699468D
S11337C0A246F0BDA56C000090AE0000B00300203E
S11337D0B95E000034080000603F0020004400414E
S11337E0623F00202B490020A44900203B08000030
S11337F04D8B0000A4AE000049580000C4AE000088
S1133800C0AD00005C4A002054AE000051480000E6
S113381085330000514500000C0800009CAE0000F8
S11338201C480020C4AD000018490020D0AE0000A0
S113383001840000D8AE000010B5244B244AD358AC
S1133840C82B08D0234B9847234B9847204B1B7811
S11338501E2B38D010BD130000211C4A99501B7830
S11338601C2BEFD182231B01194AD35C002B06D1F8
S1133870117001338222120115498B54E2E7012BA6
S11338800DD0022B0FD0032B11D0042B13D0052BFA
S113389015D0062BEDD11E220D4B1A70D2E7012153
S11338A00B4A1170E5E70E21094A1170E1E70F2177
S11338B0074A1170DDE71021054A1170D9E711217B
S11338C0034A1170D5E7054B9847C3E72C0800005D
S11338D0603F0020A56D0000B53C0000CD35000020
S11338E0F0B5C64600B5002800D000E1CD49CE4869
S11338F0CE4B98478046444647462E37CC4ECD4D56
S113390021783000A8470134BC42F9D10D21C848C0
S1133910C84B984743465879C74EB047C74C2070A8
S113392043469879B04760704346D879B047A07051
S11339304346187AB047E0704346587AB04720713E
S11339404346987AB04760714346D87AB047A0712D
S11339504346187BB047E071B94D23781B01627868
S113396013432B70A3781B01E27813436B70237904
S11339701B0162791343AB70A3791B011843E870F0
S11339804346987BB04720704346D87BB04760706D
S113399023781B01184328714346587CB047207094
S11339A04346987CB047607023781B0118436871C4
S11339B04346187DB04720704346587DB047607039
S11339C04346987DB047A0704346D87DB047E07029
S11339D023781B0162781343AB71A3781B0118434E
S11339E0E8714346587EB04720704346987EB047FE
S11339F060704346D87EB047A0704346187FB047F6
S1133A00E07023781B01627813432B72A3781B01A7
S1133A10184368724346987FB04720704346D87F66
S1133A20B047607020234246D05CB047A070212389
S1133A304246D05CB047E07023781B0162781343A0
S1133A40AB72A3781B011843E87223234246D05C6F
S1133A50B047207024234246D05CB047607023787E
S1133A601B011843287326234246D05CB0472070BC
S1133A7027234246D05CB047607023781B0118436B
S1133A80687329234246D05CB04720702A234246FB
S1133A90D05CB047607023781B011843A8732C23B3
S1133AA04246D05CB04720702D234246D05CB047DC
S1133AB0607023781B011843E8732C001035614EA5
S1133AC05C4F21785A48B04720215948B8470134FF
S1133AD0AC42F6D10D215648564B9847584B1D78A9
S1133AE05E789F78DB789C46574B002215E00128CE
S1133AF008D0022800D0FEE654494B484B4B984767
S1133B008046F8E652494848484B98478046F2E6D2
S1133B1001323433642A00D181E014001978A942B7
S1133B20F6D15978B142F3D19978B942F0D1D97824
S1133B306145EDD14748484B9847484D34235C4391
S1133B40605D474B984701003948464B9847202110
S1133B503748384EB0472C1921793548394FB84782
S1133B6061793348B847A1793148B847E179304899
S1133B70B84720212E48B0473D212D48B047202189
S1133B802B48B0472E4D29782948B84769782848EA
S1133B90B847A9782648B847E9782548B8472B7824
S1133BA023776B786377AB78A377EB78E37723009D
S1133BB020332A791A7001336A791A700133AA7989
S1133BC01A700133EA791A7001332A7A1A700133B0
S1133BD06A7A1A700133AA7A1A700133EA7A1A706F
S1133BE001332A7B1A7001336A7B1A700133AA7B72
S1133BF01A700133EA7B1A7022002C3233231370BB
S1133C000132137023002E3301221A7022002F3246
S1133C1000231370303423700D210548B04704BCD1
S1133C209046F0BD64AF0000693F00209F9A0000F9
S1133C30B003002049580000B9590000AC4A0020E4
S1133C409C4A0020B9580000BC17002074AF000043
S1133C506CAF00005CAF0000D95E0000B817002014
S1133C60615B000081590000F8B50B490B480C4B0F
S1133C70984700280FD00B4F0B4E390030000B4DE6
S1133C80A84700200A4CA0470120A0470220A047D3
S1133C9039003000A847F8BD64AF0000693F002038
S1133CA09F9A00007CAF0000B0030020B95E0000C2
S1133CB0E1380000F0B5CE4600B5CE4B1A781D2A87
S1133CC00DD89300CC4AD3589F46CC4B9847C94C47
S1133CD02000CB4B9847002363701233237004BC3D
S1133CE09146F0BDC54B9847C24C2000C44B984741
S1133CF00223637010332370F1E7C04B9847BD4C27
S1133D002000BF4B98470123637011332370E6E70B
S1133D10BA4B9847B74C2000B94B984703236370BC
S1133D200F332370DBE7B54B9847B24C2000B44BFC
S1133D309847042363700E332370D0E7AF4B984742
S1133D40AC4C2000AE4B98470D23637005332370B1
S1133D50C5E7AA4B9847A74C2000A94B98470E23C8
S1133D60637004332370BAE7A44B9847A14C200036
S1133D70A34B98470F23637003332370AFE79F4B24
S1133D8098479C4C20009E4B984710236370023345
S1133D902370A4E7994B9847964C2000984B98477A
S1133DA0112363700133237099E7944B9847914C26
S1133DB02000934B9847052363700D3323708EE7DF
S1133DC08E4B98478B4C20008D4B9847062363708D
S1133DD00C33237083E7894B9847864C2000884B2B
S1133DE09847072363700B33237078E7834B984716
S1133DF0804C2000824B9847082363700A33237059
S1133E006DE77C4C20007E4B98470C23637006338F
S1133E10237064E77B4B8022120199187A4A1A7046
S1133E2001339942FBD1734C2000754B9847774B73
S1133E30984700236360764AA350764DAE1E6D4FBB
S1133E4012E0754C012229002000744B9847744BF2
S1133E506F4AB2589A42F5D9664B812212019A5898
S1133E6070495B589A420DD881231B01FA586E4B56
S1133E70FB589A420AD26A4B654A5E498A589A426A
S1133E80DFD9E9E7694B98470028D8D0684B594AED
S1133E90D35C002B03D11422564B1A701FE76549DB
S1133EA06548664DA847534C81263601A059644B9A
S1133EB09946984763496048A8475B4FE059C8470B
S1133EC061495D48A847A259E3599A42E3D95F4939
S1133ED059485A4B9847DEE7464C2000484B9847D0
S1133EE06368002B0DD1524B424AD35C002B03D1A3
S1133EF01222404B1A70F2E655494F484F4B9847EF
S1133F00F6E74B4B3B4AD35C002B03D11622394BCB
S1133F101A70E4E64F494848484B9847F6E7354C51
S1133F202000374B9847424BE35C002B03D1192206
S1133F30304B1A70D3E6484B98472E4B5B68002BE6
S1133F400BD000242B4D3C4E444F6319597A30005A
S1133F50B84701346B68A342F7D80D2136483F4B6C
S1133F6098473D4B9847E2E73D4B98471822214B31
S1133F701A70B4E61F4C2000214B9847394B9847E0
S1133F801A232370ABE61B4C20001D4B9847364B7D
S1133F909847274BE35C002B18D0164B5B68002B2B
S1133FA010D00024134E244D304F3319597A280071
S1133FB0B84720212800294B98470134E4B273689C
S1133FC09C42F2D30D211C48244B98471A22094BDA
S1133FD01A7084E6074C2000094DA847002281236B
S1133FE01B01E250C832224BE2501B2323702000F5
S1133FF0A84774E6603F0020E4AE00003556000098
S11340005D560000693F0020C0AD0000153000007F
S11340100C080000623F00201C4800204D8B00006B
S1134020570200001808000014080000AD550000F5
S11340303608000098AF0000B0030020B95E00000D
S1134040995800009CAF0000A4AF0000A8AF000086
S1134050B8AF0000D4AF0000295F00004958000049
S1134060693C00001D2F000089600000B958000061
S11340701C0800000C4B812212019A580B495B5812
S11340809A4200D82BE60848002281231B01C25023
S11340901C230370064B984721E6034C2000044B75
S11340A098471C2323701AE6603F00201C08000078
S11340B05D560000F0B5D6464F464646C0B57A492F
S11340C07A487B4B98477B4B00225A607A495A5076
S11340D07A487B4958501A727A4C744DA71E22E0D4
S11340E04346012B02D0002398462EE0714B9B7867
S11340F04B2B00D1C7E00023984626E06D4B9B78FC
S1134100522B00D1BBE04346022B29D000260022CB
S1134110684B1A72674B812212019A5868495B589E
S11341209A4200D988E0012221002800664B984772
S11341303B7A002BEED04346002BD1D15D4B9B78CC
S11341404F3B59425941CBB29846002E00D09FE0D4
S1134150584B9B78452BD6D101264346022BD6D10A
S11341605A495B48524B9847524B5B68022290462F
S1134170002B69D1564C574920004D4DA84756494C
S11341802000A84755495648564FB8470600564997
S11341905348B847070055492000A8473000544BFE
S11341A09946984701002000524B98469847524937
S11341B02000A8473800C84701002000C04720213C
S11341C020004E4B9847BE4257D2350000244C4B3A
S11341D09A464A4B9946315D534619553C48C8475F
S11341E00134E4B20135AF42F5D8BF1BFFB200225F
S11341F0434BDA55434936482D4B984738E0032E54
S113420006D12C4B9B784F2B00D07CE70426A4E7E7
S1134210042E36D1274B9B78522B01D000269CE7E5
S11342204346022B9CD038492948214B9847214BBF
S11342305B68002B08D116E0344925481C4B98478D
S11342401C4B5B68002B0BD000241A4D204E2B4FC7
S11342506319597A3000B84701346B68A342F7D820
S11342604346022B86D00A2229492548294B9847E0
S11342701CBC90469946A246F0BD0027B7E702262B
S11342806BE7002669E7002E00D169E70223984610
S1134290012E00D132E7022EB1D1064B9B78522B6E
S11342A000D030E7032658E704B100001C48002082
S11342B0B95E0000603F00200C080000307500006B
S11342C014080000623F00204D8B000018B100006C
S11342D0B003002044B1000050B100005CB1000004
S11342E0693F00209F9A000074AE000060B1000096
S11342F0615B00008159000068B10000495800006A
S1134300604A002070B1000024B1000034B1000004
S1134310E4AF0000F9990000F0B5DE4657464E467A
S1134320C0B5654CA544654C6C44654B220023CB59
S113433023C223CB23C223CB23C2624D6D44624BE1
S11343402A0043CB43C243CB43C21B681360A1275B
S11343503F016F4487225D4938005D4EB0475822C3
S11343605C495D486844B0474A225C495C486844FB
S1134370B04747225B495C486844B04749225B49DF
S11343800C315B486844B047B7220021594868445F
S1134390594EB04700239946FFAB28334A461A606A
S11343A0FF2292000021FFA82C30B0474B4609930E
S11343B0FF22920000210AA8B047FFAE28364A4BDC
S11343C06B4407934D4B0693454B6B4405934C4B01
S11343D00493414B6B4403934A4B029301974A4B1A
S11343E000932B00220049493000494CA04730007B
S11343F0484B99469847030000963D4A6A4446490B
S113440009A8A04745494648464CA047464E31783E
S11344104348464FB8472C214148B84709A8C847E4
S1134420434B9B46984701003D48424B9A46984768
S113443041493B48A047414D38492800A0473178BD
S11344402800B8472C212800B84709A8C847D847EE
S113445001002800D04738492800A047FA2040002E
S1134460374B9946984709A92D48A04709A9280020
S1134470A047FA204000C84732492948A04731786C
S11344802748B8472C492648A0472E492800A0476A
S113449031782800B84728492800A047FA2040006E
S11344A0C84729490C312800A047284B9D441CBC0F
S11344B091469A46A346F0BD28F5FFFFB40A0000D2
S11344C0CCB10000980A0000F0B100000CB200006A
S11344D0F999000094B20000B8090000ECB20000A1
S11344E06C09000038B3000024090000E4AF0000A8
S11344F0240800006D0800000B9A00002C490020DD
S1134500204A002068490020604A002090B1000041
S11345101D9A0000919A0000B0B10000C4AD0000E3
S11345201C480020B95E00001849002049580000CA
S1134530615B0000355900007CB30000B00300202B
S113454001840000BCB10000E4B00000D80A0000FF
S113455070B5084D08492800084CA04706000849D2
S11345602800A0474279074B1A70002E01D0064B51
S1134570984770BD693F002080B100009F9A0000F9
S113458024AE0000184900201943000010B5124B56
S11345901C221A700121114A99543131104A995040
S11345A0002210495A5410495A5010495A5410497B
S11345B05A5410495A5410495A5410495A54104ADA
S11345C0126A1206D20F0F495A540F4B98470F4BD9
S11345D098470F4B984710BD603F002037080000F4
S11345E024080000280800002C08000034080000FB
S11345F035080000360800003908000038080000BB
S1134600004400413B08000051520000695300007F
S113461005550000F0B5C64600B5784B784AD35826
S1134620C82B0DD0774B98471420774B984780229E
S11346301204764B9A61764B984704BC9046F0BDC1
S1134640130000216D4A99501B781C2BEAD1714B41
S11346506B4AD3582C22FF32934246D9684B01212E
S11346606D4A99546D4A9B5C002B11D1644B053102
S1134670173A99540539694A99540021684A99545A
S1134680684A9B5C032B38D00133664A5C498B54DF
S1134690802212045D4B5A6182231B01584AD35C69
S11346A0002B32D100211170554A013382210901B6
S11346B053545D4BD35C002B75D182231B01504AAC
S11346C0D35C092B00D189E00E2BABD14C4B0621D6
S11346D0822212019954002254495A544D495A5085
S11346E053495448544B98479CE7454A00204A494B
S11346F0505401334749535094E7414B00228221DF
S113470009015A5447495A54C2E7012B1BD0022BC2
S11347101DD0032B1FD0042B21D0052B23D0062B17
S113472025D0072B27D0082B29D0092B2BD00A2BD7
S11347302DD00B2B2FD00C2B31D00D2BB4D10C2121
S11347402F4A1170B0E701212D4A1170ACE7042102
S11347502B4A1170A8E70021294A1170A4E700210F
S1134760274A1170A0E70521254A11709CE706210C
S1134770234A117098E70721214A117094E7082110
S11347801F4A117090E70C211D4A11708CE70A2111
S11347901B4A117088E70B21194A117084E71D2107
S11347A0174A117080E7234C0D212000234DA847A0
S11347B023492000204B98469847114F1B4BF95C26
S11347C02000204EB04720492000C0471F4BF95C11
S11347D02000B0470D212000A8476EE713000621F2
S11347E0822212019954194A9B5C002B00D019E7CC
S11347F0073182231B01024AD15413E72C0800001D
S1134800603F0020A56D00000184000000440041C9
S1134810B53C0000240800003408000037080000FC
S11348203508000028080000360800003808000099
S1134830ACB30000B0030020B95E0000495800008A
S113484080B30000B958000090B300003A0800009B
S1134850F0B5DE4657464E464546E0B5C84CA5443D
S1134860C849C948C94B98470400C94B1B78002B59
S113487000D153E1C749C448C44B98470700C6490F
S1134880C148C24B98474279C44B1A70002C01D1DD
S113489000F072FC002F01D100F06EFC0022C04B2E
S11348A01A700D21BF48C04DA847C049BD48C04E2D
S11348B0B0472000BF4B994698470100B948BE4B0A
S11348C09B4698472C21B748A847BC49B548B047F0
S11348D03800C8470100B348D847B949B148B04780
S11348E0AE4B1978AF48A8470D21AE48A847B54943
S11348F0AC48B0470023B4490022CA5401333C2BCE
S1134900FBD1A31D9A461C009F4200D815E3002545
S1134910AD4B9946A44E53465B5D4A465355515D93
S1134920C9B2A048B0470135EDB20134A742F2D86C
S1134930A54B9A460023524653559A4CA34920004E
S11349409B4EB0472F0028009A4B9B469847010086
S113495020009F4DA8479F492000B04750469E4BDA
S11349609847D84701002000A8470D2120008E4B0E
S113497098479A492000B047002F00D170E30025E2
S1134980914C894E615DC9B28648B0470135AF424A
S1134990F8D1844C20212000834DA84728212000F1
S11349A0A84720212000A8470024874D8C4E295D6C
S11349B0C9B27C48B04720217A487B4B98470134E0
S11349C0A742F4D1774D29212800774CA0470D2127
S11349D02800A04783496C486C4B984704006C4BF3
S11349E01B78002B00D19FE07F496748674B9847AD
S11349F0824674496B486E4B984700237B490022DA
S1134A00CA5401333C2BFBD1A31D99461D009A4582
S1134A1000D831E30024754F634E4B461B5D3B5574
S1134A20395DC9B25F48B0470134E4B20135AA45E3
S1134A30F3D86E4B9A46002352461355594D634999
S1134A4028005B4EB047270020005A4B9B469847EE
S1134A50010028005E4CA0475E492800B04750463C
S1134A605D4B9847D84701002800A0470D21280036
S1134A704D4B98475E492800B047002F00D127E3EB
S1134A8000245A4D484E295DC9B24648B047013406
S1134A90A742F8D1434D20212800434FB84728218D
S1134AA02800B84720212800B84700274F4D4C4E16
S1134AB0E95DC9B23B48B04720213A483A4B984790
S1134AC00137BC42F4D1374D29212800364CA04788
S1134AD00D212800A04747492B482C4B9847040038
S1134AE02B4B1B78002B25D043492748274B98474D
S1134AF0834634492B482E4B984700233F490022D4
S1134B00CA5401333C2BFBD1E31D9A461F009B453D
S1134B1000D8E9E200250024384E1FE031491A4844
S1134B201A4B98470700AAE62A211748344B98479E
S1134B3082465EE72A211448314B98478346D8E7DA
S1134B402E4B4A46995CC9B21648174B9847013414
S1134B50E4B20135EDB20137BB4555D9A146534600
S1134B605B5D3355335D252BEAD126490D48104B47
S1134B7098474022214B1A550235EDB20237DFE740
S1134B80ECF7FFFFC4B30000693F00209F9A0000C8
S1134B90A4490020CCB3000024AE00001849002032
S1134BA05C4A0020B003002049580000DCB3000038
S1134BB0B95E0000615B000081590000ECB30000A5
S1134BC0FCB3000010B40000DC48002014B4000062
S1134BD035590000D0AD0000919A00001CB40000CB
S1134BE0B9580000D4B300002CB40000A849002038
S1134BF034B4000040B4000048B40000E44900208C
S1134C00619A000054B40000E24B9A4600235246D5
S1134C101355E14DE1492800E14EB047270020003B
S1134C20E04B9B46984701002800DF4CA047DF4932
S1134C302800B0475046DE4B9847D847010028006B
S1134C40A0470D212800DB4B9847DB492800B047DB
S1134C50002F00D174E20025CE4CD64E615DC9B25E
S1134C60CD48B0470135AF42F8D1CB4C20212000CC
S1134C70D04DA84728212000A84720212000A8477C
S1134C800024C44ECD4D315DC9B2C348A84720218C
S1134C90C148C84B98470134A742F4D1BE4D2921DD
S1134CA02800C44CA0470D212800A04704ABFFA94D
S1134CB0143100221A7001338B42FBD1C04B1B7894
S1134CC0002B6CD0BF4FB44C39002000B44DA84722
S1134CD00D212000B74EB047BB492000A8470D2145
S1134CE02000B047B8493800B84B9847002800D096
S1134CF081E0B749A848AA4B9847B64FA64C39005B
S1134D002000A74DA8470D212000AA4EB047B24964
S1134D102000A8470D212000B047AF493800AB4B15
S1134D20984700286CD1AD499B489D4B9847AC4FA0
S1134D30994C390020009A4DA8470D2120009D4E22
S1134D40B04794492000A8470D212000B04791495D
S1134D5038009E4B9847002857D1A2498E48904B63
S1134D609847A14DA14928008D4CA047954928009A
S1134D70A0479F492800A04796492800A0479D497D
S1134D802800A0479C4B00225A609C495A509C48DA
S1134D909C4958501A729C4C934DA71E5DE09B4D44
S1134DA000958D4B884A9A4904A89A4CA0478E4C8A
S1134DB0994920007A4FB847984B197820007D4BC9
S1134DC0984797492000B84704A8794B9847754BF2
S1134DD0984701002000744B984729002000B847E9
S1134DE0FA256D0028008F4EB04704A92000B8476B
S1134DF02800B04766E78C4B98478C4B98477CE774
S1134E008B4B98478B4B984791E78B4B98478B4B31
S1134E109847A6E7039B012B02D0002303932EE0BF
S1134E20754B9B784B2B00D1CBE10023039326E0F9
S1134E30714B9B78412B00D1A6E1039B022B38D008
S1134E400023984600226C4B1A726B4B812212018C
S1134E509A586C495B589A4237D80122210028009D
S1134E60774B98473B7A002BEFD0039B002BD1D193
S1134E70614B9E784F3E73425E41F3B203934346C7
S1134E80002B00D0A3E15C4B9B78462BD5D10123AA
S1134E9098460AE04346032B00D078E1564B9B78B2
S1134EA04C2B00D158E100239846039B022BC9D117
S1134EB004E00023984601E00423984661493648FB
S1134EC0374B98470223039303E05F493248344B3E
S1134ED098473B4B1B78002B00D049E1424C4E498C
S1134EE020002F4B98474D4B19782000314B9847A1
S1134EF04346042B00D157E1039B022B10D03A4DBB
S1134F0052492800264CA047FA204000454B9847B8
S1134F104F492800A047FA204000424B98472BE114
S1134F20314D4C4928001E4CA047FA2040003D4B0F
S1134F30984749492800A047EDE7234B9A460023A8
S1134F4052461370144C15492000154FB8470020E1
S1134F50144EB04701002000134DA8471349200008
S1134F60B8475046124B9847B04701002000A84765
S1134F700D2120000F4DA84738492000B8472021B3
S1134F802000A84728212000A84720212000A84766
S1134F9018E5C046E4490020B003002014B4000022
S1134FA0B95E0000615B000035590000D0AD00001F
S1134FB0919A00004958000060B40000B9580000FC
S1134FC0A449002068490020DC4800207D9A0000A4
S1134FD078B40000204A0020A84900208CB40000C6
S1134FE02C490020A8B400001C480020C0B40000D4
S1134FF0D0B4000014B10000603F00200C08000091
S11350003075000014080000623F00207CB30000EB
S113501070B400001D9A0000C4AD000018490020BF
S113502028AE000001840000E1520000515200004B
S1135030FD53000069530000815400000555000031
S11350404D8B0000D4B4000048AE000010B5000041
S113505018B5000000B5000008B500001CB400003D
S1135060634D20212800634CA04728212800A04735
S113507020212800A047A5E45F4B9A46002352460E
S113508013705B4C5D4920005D4FB84700205D4EB6
S1135090B047010020005C4DA8475C492000B84798
S11350A050465B4B9847B04701002000A8470D21AC
S11350B02000504DA84757492000B8472021200020
S11350C0A84728212000A84720212000A847FAE467
S11350D0474D20212800474CA04728212800A047FD
S11350E020212800A047EEE44B4B9A460023524669
S11350F013703F4C41492000414FB8470020414EB6
S1135100B04701002000404DA84740492000B8475F
S113511050463F4B9847B04701002000A8470D2157
S11351202000344DA8473D492000B84720212000E5
S1135130A84728212000A84720212000A847ADE542
S11351402B4D202128002B4CA04728212800A047C4
S113515020212800A047A1E5039B022B00D1ABE648
S11351602F492348264B98472E4B1B78002B11D0F0
S11351702D4B98472D4B98472D4B9D443CBC904656
S11351809946A246AB46F0BD022398468DE600231D
S113519098468AE6274C28492000194B9847274B04
S11351A019782000134B9847224D25492800144CA8
S11351B0A047FA204000234B984723492800A047E2
S11351C0A9E64346002B00D178E602230393434625
S11351D0012B00D12CE64346022B00D05AE61B4B90
S11351E09B78492B00D028E6032398465DE6C04609
S11351F0B003002049580000A849002014B400005E
S1135200B95E0000615B000035590000D0AD0000BC
S1135210919A000034B40000E449002060B4000016
S1135220E0B40000A4490020B54000001943000088
S1135230140800001C480020C4AD000018490020D8
S1135240F0B4000001840000F8B40000603F0020C6
S1135250F0B591B01A491B481B4B98471B4D1C4C89
S11352604022694689208002A84720700528F7D08B
S1135270002318490022CA5401333C2BFBD16B464E
S11352801B78002B16D0134A13701178C9B20D483D
S1135290114B984701230F4D0A4C0F4F5E1C6A4671
S11352A0D25C002A06D0EA54E95CC9B22000B847AF
S11352B03300F3E709490348034B984711B0F0BDA5
S11352C04CB50000B0030020B95E0000D502000018
S11352D01948002068490020495800005CB50000C6
S11352E070B590B017491848184B9847184D194C89
S11352F04022694689208002A84720700528F7D0FB
S113530000231549CA5C6846C2540133402BF9D1C5
S11353108926B602114D0F4C3000A847207005288D
S1135320FAD00F4D0B4C4022694689208002A847D1
S113533020700528F7D00B490348044B984710B058
S113534070BDC046C4B50000B0030020B95E0000C3
S1135350D502000019480020DC4800204103000069
S11353602D020000D8B50000F0B591B01A491B48D1
S11353701B4B98471B4D1C4C402269461B48A847B1
S113538020700528F8D0002319490022CA5401339B
S11353903C2BFBD16B461B78002B16D0144A1370A0
S11353A01178C9B20D48134B98470123104D0B4C8B
S11353B0104F5E1C6A46D25C002A06D0EA54E95CAF
S11353C0C9B22000B8473300F3E70B490348044B44
S11353D0984711B0F0BDC04638B50000B0030020B6
S11353E0B95E0000D5020000194800200025020023
S11353F0204A0020495800005CB5000070B590B008
S113540015491648164B9847164D174C40226946C5
S11354101648A84720700528F8D000231449CA5C10
S11354206846C2540133402BF9D1104E114D0E4C35
S11354303000A84720700528FAD00F4D0A4C4022AE
S113544069460A48A84720700528F8D00B49034844
S1135450034B984710B070BD90B50000B003002016
S1135460B95E0000D50200001948002000250200A2
S1135470A8490020410300002D020000A8B5000047
S113548070B590B015491648164B9847164D174CF1
S1135490402269461648A84720700528F8D0002302
S11354A01449CA5C6846C2540133402BF9D1104EEA
S11354B0114D0E4C3000A84720700528FAD00F4D2E
S11354C00A4C402269460A48A84720700528F8D0AB
S11354D00B490348034B984710B070BD64B50000F6
S11354E0B0030020B95E0000D50200001948002076
S11354F000230200E4490020410300002D020000C3
S113550078B50000F0B591B01A491B481B4B984779
S11355101B4D1C4C402269461B48A8472070052897
S1135520F8D0002319490022CA5401333C2BFBD183
S11355306B461B78002B16D0144A13701178C9B22D
S11355400D48134B98470123104D0B4C104F5E1C14
S11355506A46D25C002A06D0EA54E95CC9B220004B
S1135560B8473300F3E70B490348044B984711B09D
S1135570F0BDC04624B50000B0030020B95E0000B1
S1135580D502000019480020002302002C49002005
S1135590495800005CB5000010B5034B9847431E02
S11355A09841C0B210BDC0469F9A000010B5144B7C
S11355B05A780C2A04D89300124AD3589F461249A9
S11355C01248134B9847002817D0124B0C4AD45C4E
S11355D0002C0ED10124200010BD0F49F0E70F4923
S11355E0EEE70F49ECE70F49EAE70F49E8E70E4910
S11355F0E6E70E480E4B9847EDE70024EBE7C0467C
S1135600603F0020F0B50000ECB80000693F0020C6
S11356109F9A000036080000FCB80000F0B80000B3
S1135620E0B80000D8B80000E4B8000024B60000D8
S1135630D95E000010B5054B054AD35C002B00D1A0
S113564010BD0448044B9847FAE7C04636080000EA
S1135650603F0020B4B80000D95E000010B55D4B77
S11356605D4AD35C002B54D00378002B4ED00378D2
S1135670022B4FD00378012B50D00378132B51D039
S11356800378062B52D00378072B53D00378082BCA
S113569054D00378052B55D00378032B56D00378C8
S11356A0042B57D003780D2B58D003780E2B59D0E8
S11356B003780C2B5AD003780F2B5BD00378102B74
S11356C05CD00378112B5DD00378142B5ED0037863
S11356D0152B5FD00378122B60D00378172B61D081
S11356E00378162B62D003781C2B63D003781A2B13
S11356F064D003781B2B65D00378182B66D003780D
S11357001D2B06D13548364B984702E03548344BBB
S1135710984710BD3448324B9847FAE73348304B2A
S11357209847F6E732482E4B9847F2E731482C4B1E
S11357309847EEE730482A4B9847EAE72F48284B2A
S11357409847E6E72E48264B9847E2E72D48244B36
S11357509847DEE72C48224B9847DAE72B48204B42
S11357609847D6E72A481E4B9847D2E729481C4B4E
S11357709847CEE728481A4B9847CAE72748184B5A
S11357809847C6E72648164B9847C2E72548144B66
S11357909847BEE72448124B9847BAE72348104B72
S11357A09847B6E722480E4B9847B2E721480C4B7E
S11357B09847AEE720480A4B9847AAE71F48084B8A
S11357C09847A6E71E48064B9847A2E71D48044B96
S11357D098479EE736080000603F002094B8000018
S11357E0D95E000044B6000058B6000070B6000050
S11357F084B6000098B60000B4B60000D0B600002D
S1135800E8B600000CB7000024B7000040B7000061
S11358105CB7000078B7000094B70000ACB7000094
S1135820C4B70000E0B70000F4B7000004B80000FB
S113583014B800002CB8000044B8000054B80000AC
S113584064B8000078B8000010B589B2014B9847DD
S113585010BDC046C98A0000092802D83030C0B241
S113586070473730C0B2FBE7F8B504000009074FB2
S1135870B84781B2064D2800064EB0472007000FF6
S1135880B84781B22800B047F8BDC0465958000057
S1135890B0030020C98A000070B50400000E054D55
S11358A0A8472002000EA8472004000EA847E0B233
S11358B0A84770BD69580000F8B505000C00080938
S11358C0064FB84781B22800054EB0472007000FA5
S11358D0B84781B22800B047F8BDC0465958000007
S11358E0C98A0000F8B50F4D5B2128000E4CA04773
S11358F020212800A04709240C4F0A4D0C4E3B6878
S11359001B19D97FC9B22800B04720212800064BB3
S1135910984701341B2CF2D15D210248024B984771
S1135920F8BDC046B0030020C98A0000283000201A
S1135930B9580000F0B583B001900C000804060EBD
S1135940000F0D4DA84781B201980C4FB84730079E
S1135950000FA84781B20198B8472006000FA84756
S113596081B20198B8472007000FA84781B2019877
S1135970B84703B0F0BDC04659580000C98A0000BA
S1135980F8B505000C000805000F094FB84781B2AF
S11359902800084EB0472006000FB84781B22800FF
S11359A0B0472007000FB84781B22800B047F8BDC0
S11359B059580000C98A0000302800D1C8E03128B5
S11359C000D1C8E00223322800D1C2E001333328D9
S11359D000D1BEE00133342800D1BAE001333528C8
S11359E000D1B6E00133362800D1B2E001333728C4
S11359F000D1AEE00133382800D1AAE001333928C0
S1135A0000D1A6E00133612800D1A2E0013362286D
S1135A1000D19EE00133632800D19AE00133642869
S1135A2000D196E00133652800D192E00133662865
S1135A3000D18EE0053B412800D18AE001334228A1
S1135A4000D186E00133432800D182E001334428A9
S1135A507FD0013345287CD00133462879D00133E7
S1135A60672876D00133682873D00133692870D051
S1135A7001336A286DD001336B286AD001336C2856
S1135A8067D001336D2864D001336E2861D00133AF
S1135A906F285ED0013370285BD00133712858D051
S1135AA00133722855D00133732852D0013374283E
S1135AB04FD0013375284CD00133762849D00133B7
S1135AC0772846D00133782843D00133792840D051
S1135AD001337A283DD0133B47283AD00133482874
S1135AE037D00133492834D001334A2831D0013327
S1135AF04B282ED001334C282BD001334D2828D0ED
S1135B0001334E2825D001334F2822D001335028A9
S1135B101FD0013351281CD00133522819D001332E
S1135B20532816D00133542813D00133552810D0EC
S1135B30013356280DD0013357280AD00133582891
S1135B4007D00133592804D05A2806D0DD3300E0A9
S1135B500023180070470123FBE72323F9E7000023
S1135B60F0B5CE4600B582B00600174B9946FA212F
S1135B70890098470F270401144DFA218900300049
S1135B80A8470B00642101931800C8473840044318
S1135B90E6B2360264210198A8470B000A2101935A
S1135BA01800C84700013C4004430A210198A84753
S1135BB0380008400F239C432043C0B2304302B056
S1135BC004BC9146F0BDC046719600007D9700006C
S1135BD0F0B5DE4657464E464546E0B583B03B4FEA
S1135BE03B490090B8470F2405013A4E38490098C4
S1135BF0B0470B00384900931800B84720400F22E3
S1135C0091460543AB462D0633490098B0470B0037
S1135C10324900931800B84700015B462340034310
S1135C209A462E490098B0470B002D49009318005E
S1135C30B847204053464A46934303439B461A1CA5
S1135C406B46DA71D3B21B041D4325490098B04753
S1135C500B00FA21890000931800B84700015B4645
S1135C60234003439B46FA2189000098B0470B0068
S1135C70642100931800B84720405B464A4693438A
S1135C80034398461A1C6B46DA71D3B21B021D43B8
S1135C9064210098B0470B000A2100931800B8470C
S1135CA000014746274007430A210098B047214096
S1135CB03C004B469C430C43E4B22543280003B00C
S1135CC03CBC90469946A246AB46F0BD7196000096
S1135CD0809698007D97000040420F00A086010046
S1135CE010270000F8B50C001500074EB047070058
