:1000000088680020418E00003D8E00003D8E00007B
:1000100000000000000000000000000000000000E0
:100020000000000000000000000000003D8E000005
:1000300000000000000000003D8E00003D8E00002A
:100040003D8E00003D8E00002D6A00003D8E0000B8
:10005000FD6300003D8E00003D8E00000584000021
:100060001584000025840000358400000000000095
:1000700000000000F9650000096600001966000034
:100080002966000039660000496600000000000093
:10009000000000003D8E00003D8E00003D8E0000FF
:1000A0003D8E000010B5064C2378002B07D1054B80
:1000B000002B02D0044800E000BF0123237010BDD4
:1000C0003403002000000000FCB80000084B10B50D
:1000D000002B03D00749084800E000BF0748036829
:1000E000002B00D110BD064B002BFBD09847F9E741
:1000F0000000000038030020FCB80000FCB800003D
:100100000000000010B51E4AD36904210B43D361DF
:100110001C4B2022FF321A831A7D0523D20701D4FB
:10012000180010BD03781B02C022920013404178D2
:10013000C901FF220A401343817849001E220A4068
:100140001343C27892048021C9020A401343027902
:100150001204C02189020A4013430A4A536093687B
:100160005B035B0F084908249C400C8093684B801C
:1001700043780B71138BDB05DB0F1B01D0E7C04607
:1001800000040040004000415003002030B504004E
:10019000224A1088538843438B4206D28022920120
:1001A00018201F4BCB1893420ED81E4B5D6880223F
:1001B000D2022A435A602022FF321A831B7DDB07BA
:1001C00003D4184B5D60052030BD452C22D8A30018
:1001D000154AD3589F46134B1B8BDB0503D5114B98
:1001E0005D601020F0E7890849000E4BD96103E0FB
:1001F000890849000B4BD961A52000020443094B33
:100200001C80190001220B7D1342FCD0054B5D6060
:100210000020D9E7034B5D601720D5E7500300208D
:1002200000C07FFF00400041F09D0000F8B5254B65
:100230001D885B886B431824834201D22000F8BDDF
:100240006B1E1842FAD1013C9542F7D31E4B1B7D21
:10025000123CDB07F2D51D4C1B4B1C801D000124FA
:100260002B7D2342FCD02024FF34174B1C83002A13
:1002700022D0012305009D430023571E09E0CE181C
:100280007678360234432C8002339BB202359A4290
:1002900004D9CC5CBB42F2DBA4B2F4E7094B1B7976
:1002A0000024002BCAD13F2AC8D800220100042014
:1002B000074B98470400C1E7024B1B790024002B31
:1002C000F3D0BBE7500300200040004144A5FFFFEE
:1002D0008D01000070B5184B1D885B886B43182496
:1002E000834201D2200070BD6B1E1842FAD1013C3E
:1002F0009542F7D3114B1B7D123CDB07F2D520242E
:10030000FF340E4B1C83002A14D001239843002392
:10031000561E04E002339BB202309A4208D9048888
:10032000A4B2CC54B342F5DACD18240A6C70F1E7CC
:100330000024D7E70024D5E7500300200040004107
:10034000134B1A885B8853431821834201D208005B
:1003500070479200013A1042F9D10E4B1B7D1339C0
:10036000DB07F4D50B4B2022FF321A8380084000B4
:10037000D861094A1A80190001220B7D1342FCD072
:10038000044B198B1C200140481E81418900DEE787
:10039000500300200040004102A5FFFFF8B5CE4603
:1003A000474680B5694B1878694B98470C2803D0AD
:1003B0000CBC90469946F8BD644B5878644B9847FE
:1003C0001528F5D1634B1B78032B03D05F4B9B782B
:1003D0000D2BEDD16048614B9847614C614B9846BD
:1003E000A044614D614F624B994602E0343444456C
:1003F000DED06378012BF9D14E212800B8476F2158
:100400002800B8472E212800B8472078C0B2C84736
:1004100001002800574B984720212800B847217F2A
:10042000C9B22800544EB047617FC9B22800B04716
:10043000A17FC9B22800B047E17FC9B22800B04708
:1004400020212800B8472023E15CC9B22800B0472A
:1004500020212800B8472123E15CC9B22800B04719
:1004600020212800B8472223E15CC9B22800B04708
:100470002323E15CC9B22800B04720212800B847F7
:100480002423E15CC9B22800B0472523E15CC9B24E
:100490002800B04720212800B8472623E15CC9B2D4
:1004A0002800B0472723E15CC9B22800B0472021CB
:1004B0002800B8472823E15CC9B22800B0472021B2
:1004C0002800B8472923E15CC9B22800B0472021A1
:1004D0002800B8472A23E15CC9B22800B047202190
:1004E0002800B8472B23E15CC9B22800B04720217F
:1004F0002800B8472C23E15CC9B22800B04720216E
:100500002800B8472D23E15CC9B22800B04720215C
:100510002800B84720212800B8472E23E15CC9B243
:100520002800B04720212800B8472F23E15CC9B23A
:100530002800B04720212800B8473023E15CC9B229
:100540002800B0470D212800B8474FE714040020C9
:10055000F55500006A040020089F0000155B0000AC
:100560008815002050140000B003002085540000BE
:100570009D570000BD550000F554000070B5384B84
:100580001878384B9847112800D070BD344B5878F4
:10059000344B98470E28F8D1314B9878314B984717
:1005A0001528F2D12E4BD8782E4B98471928ECD12C
:1005B0002D4B1B78052BE8D1294B1B790D2BE4D152
:1005C0002A4D28002A4CA04728001430A0472800B4
:1005D0003830A04728005C30A047264D2800103056
:1005E000A04728004430A04728007830A047224D7B
:1005F00028003030A04728005430A0472800683039
:10060000A0471E4D28001830A04728003C30A047C6
:1006100028006430A0471A4D281DA0472800243028
:10062000A04728003430A04728005830A0472800B1
:100630007830A047134D28001830A04728004430D8
:10064000A04728006830A0470F4D28000830A04779
:1006500028002C30A0470D210C480D4B984794E7FB
:1006600014040020F55500006A0400204C9F00008F
:10067000155B0000CC9F00004CA00000CCA0000047
:100680004CA10000CCA100004CA20000B00300204F
:1006900085540000F0B5C64600B5824B1878824BF1
:1006A0009847202802D004BC9046F0BD24237D4A00
:1006B000D05C7D4B984723282CD07A4B58787A4BC6
:1006C00098471228EFD1774B9878774B98470F28A7
:1006D000E9D1744BD878744B98471228E3D1714B09
:1006E0001B790D2BDFD1714B1B78052BDBD1704DA6
:1006F000704C2A5D043B53402B556F480C306F4BB8
:1007000098472B5D002B00D1C6E06B4820306B4B27
:100710009847C8E72523634AD35C0D2BCDD1634BA3
:100720001B78262BC9D16448644CA0470222644B35
:100730001A706448A0475D4B1B78002B10D0002432
:10074000584F614D614E395D2800B0472021280087
:100750005F4B98470134E4B2544B1B78A342F2D864
:100760000D2159485A4B98475A48544B98474F4B7C
:100770001B78042B19D904244A4B98464A4F564EED
:100780004346185DB8470100231FDBB2F0544E4DBD
:1007900028004E4B9847202128004D4B98470134A4
:1007A000E4B2424B1B78A342EAD80D214648484B9D
:1007B0009847494A494C15002635210013781B01FA
:1007C000507803430B7002320131AA42F6D1434EF6
:1007D0003323337473744248384B984712363B4D79
:1007E0003B4F21783848A84720213748B847013483
:1007F000A642F6D1344D0D212800354B9847294BA0
:100800009A7859783020374B98470400C1B22800B5
:100810002E4B984734236343334AD3182F4A117819
:1008200019775178597791789977D178D9771900D4
:1008300020311079087001315079087001319079B8
:1008400008700131D07908700131107A08700131D7
:10085000507A08700131907A08700131D07A0870AE
:100860000131107B08700131507B08700131907BA1
:1008700008700131D27B0A70013133220A700131D4
:100880000A701A002E320121117019002F31002236
:100890000A7030331A7010E707482830074B984722
:1008A00001E7C04614040020F55500006A0400204A
:1008B000303D0020360800009CA20000155B0000BF
:1008C0002C2E0020CCA20000B0030020F554000024
:1008D00085540000E4A200003C2A002020460020AD
:1008E000FCA200002159000088150020F0B5D64672
:1008F0004F4680B583B004003C4B18783C4B98477A
:100900000A2804D003B00CBC91469A46F0BD374B80
:100910005878374B98470D28F4D1344B9878344B9E
:1009200098470D28EED1334B1B78112BEAD12F4B72
:100930001B7C0D2BE6D12D4B9A79597918792E4BCA
:100940009847C0B26428DDD821002C4B9847060098
:10095000FF28D7D02A4B984721003000294B9A46D0
:100960009847294B9847342501967543651900230C
:100970006B701E4F387A1E4EB0478146787AB0476A
:100980004A4613010343DBB22B71B87AB047814664
:10099000F87AB0474A4613010343DBB26B71387BE8
:1009A000B0478146787BB0474A4613010343DBB228
:1009B000AB71B87BB0478146F87BB0474A4613011C
:1009C0000343DBB2EB712000104B98472000104B23
:1009D000984721000198D0470E4D0D2128000E4C5C
:1009E000A0470D212800A0478CE7C0461404002032
:1009F000F55500006A04002021590000C95A000082
:100A0000955B0000195C0000C55C0000392B0000FC
:100A1000D52B0000B00300208554000070B50A4DAE
:100A200044212800094CA04765212800A047422105
:100A30002800A04775212800A04767212800A0476B
:100A400020212800A04770BDB0030020855400007D
:100A500070B5054B9847054D4F212800044CA04721
:100A60004E212800A04770BD1D0A0000B0030020E1
:100A70008554000070B5074B9847074D4F2128005B
:100A8000064CA04746212800A04746212800A04741
:100A900070BDC0461D0A0000B00300208554000050
:100AA00010B504000C4B984788239B00E35C012B96
:100AB0000AD0012288239B00E254084B98470D215D
:100AC0000748084B984710BD002288239B00E2543A
:100AD000054B9847F3E7C046395B0000510A000018
:100AE000B003002085540000750A000010B5154BB6
:100AF0001878154B98470D2800D010BD134B1B7864
:100B0000032BFAD10F4B9B780D2BF6D10D4B587858
:100B10000D4B984701280DD00A4B58780A4B98473F
:100B20000228EAD10A4C20680A4B984720680A4BF1
:100B30009847E2E7094C2068064B98472068064B27
:100B40009847DAE714040020F55500006A040020F5
:100B500008130020A10A000049590000F82D0020C8
:100B600010B5064B1B68834203D00548054B9847D8
:100B700010BD0548034B9847FAE7C046F82D002002
:100B8000C8A30000155B0000BCA30000F0B5CE4672
:100B900000B50500294B98470D212948294EB0473B
:100BA00029482A4B99469847294BE85CC0B2294C02
:100BB000A04701002248284FB84709212048B047E4
:100BC0002648C847264BE85CC0B2A04701001C4835
:100BD000B84709211A48B0472248C847224BE85C69
:100BE000C0B2A04701001648B8472048C8478F2325
:100BF0009B00E858A04701001148B8470921104858
:100C0000B0471B48C8478A239B00E85CC0B2A04796
:100C100001000B48B84709210948B0471548C847A3
:100C20005B23E85CC0B2A04701000548B8470D212E
:100C30000348B04704BC9146F0BDC046610B0000BC
:100C4000B00300208554000068A30000155B00007D
:100C50001E0200009D5700007155000078A300009F
:100C60001D02000084A300001F02000094A30000E6
:100C7000A0A30000B0A30000F0B5DE4657464E46E4
:100C80004546E0B583B00400BA4B1878BA4B984794
:100C90000D2806D003B03CBC90469946A246AB4610
:100CA000F0BDB44B5878B44B98471528F2D1B34BEC
:100CB0001B78032BEED1AF4B9B780D2BEAD1B048BC
:100CC000B04B9847A046B04B9A46B04D002399468A
:100CD000AF4CB04E2AE03E21AD48AE4B984736E0CF
:100CE0002021AB48AB4B98471BE14E21A848A94BAC
:100CF00098472921A648A74B9847A74B1A685B231A
:100D0000D35CDBB24B4500D127E10D21A048A14BBC
:100D100098474B460133DBB2994634239C46E04466
:100D2000E24425354B46642B00D11BE1C3464346C4
:100D30005B78012BEDD15A33984A12680192D35C4B
:100D4000DBB24B45C7D020219148924B98474E21AA
:100D50002000B0476F212000B0472E212000B0476F
:100D60005B461878C0B28E4B9847010020008D4B2F
:100D7000984720212000B047297820008A4FB847A3
:100D800069782000B847A9782000B84720212000C2
:100D9000B047E9782000B84729792000B847697939
:100DA0002000B847A9792000B84720212000B0478B
:100DB000E9792000B84720212000B047297A200097
:100DC000B847697A2000B84720212000B047A97AA7
:100DD0002000B847E97A2000B84720212000B0471A
:100DE000297B2000B847697B2000B84720212000DC
:100DF000B047A97B2000B847E97B2000B8472021F5
:100E00002000B047297C2000B847697C2000B84703
:100E100020212000B047A97C2000B847E97C2000B1
:100E2000B84720212000B047297D2000B847697DC0
:100E30002000B84720212000B047A97D2000B847F6
:100E4000E97D2000B84720212000B047297E2000FE
:100E5000B84720212000B047697E2000B847A97E0E
:100E60002000B84720212000B047E97E2000B84785
:100E7000297F2000B84720212000B047697F20004B
:100E8000B84720212000B0477B212000B0475B46B7
:100E9000597AC9B22000B8475B46197AC9B2200016
:100EA000B84720212000B0473C212000B047202136
:100EB0002000B0475B46597BC9B22000B8475B466B
:100EC000197BC9B22000B8477D212000B0472021FE
:100ED0002000B0472B00243319782000B847202188
:100EE0002000B047EB7E287F1B021843C04380B22E
:100EF0002E4B984720212000B04753460193997903
:100F00002000B84720212000B0475B212000B047D7
:100F100053465B78002B00D0E2E658211C481D4B5D
:100F200098475D211A481B4FB8472D211848B847EC
:100F3000019B197816481C4B984720211448B84744
:100F400028211348B847019B9B78002B00D0CCE6A2
:100F500020210F480F4B9847CBE63C210C480D4B06
:100F60009847D2E60D4B1868114CA0470A4B1868F9
:100F7000A0478FE614040020F55500006A04002005
:100F800010A30000155B0000961500208C2E002099
:100F9000B00300208554000008130020F82D002025
:100FA0009D570000BD550000F5540000B9790000C0
:100FB0008D0B000070B50400204B1878204B98472B
:100FC000002803D01D4B5B78202B00D070BD1D4B3B
:100FD0001B78062BFAD1194B5B790D2BF6D1174BE9
:100FE0001A79D9789878184B9847C0B22100174BD6
:100FF00098470500FF28E9D0154B984721002800A5
:10100000144B9847144B984734236B43E3185A7892
:10101000002A10D101325A702000104B984720004E
:101020000F4B9847210028000A4B98470D210D4887
:101030000D4B9847CAE700225A70EDE714040020D0
:10104000F55500006A04002021590000C95A00002B
:10105000955B0000195C0000C55C0000392B0000A6
:10106000D52B0000B003002085540000F0B583B0FC
:101070000190002700240C4D0C4E08E00D210C4877
:101080000A4B984700270134E4B2642C0AD0019936
:101090002000A847032FF1D009210548B0470137A8
:1010A000FFB2F0E703B0F0BD195C0000855400000A
:1010B000B003002010B504000C4B18780C4B984777
:1010C000152800D010BD0B4B1B78022BFAD1074B13
:1010D0005B780D2BF6D12000074B98472000074B7B
:1010E00098470022064B1A70ECE7C0461404002013
:1010F000F55500006A040020D52B00006D1000009B
:10110000003D0020F0B5DE4657464E46C0B53A4B8E
:1011100018783A4B9847192804D01CBC91469A4637
:10112000A346F0BD344B5878344B98470D28F4D182
:10113000314B9878314B98471528EED1304B1B78BE
:10114000042BEAD12C4BDB780D2BE6D12D4B9946A5
:101150000024250008E00D212B482C4B984718232C
:101160009C46E1440C2DD8D029482A4B98474B4641
:1011700059682548284B98472848264B9847EB1C28
:101180009B464F46214E264B9A465B211E48B04750
:101190002800D04701001C481F4B98475D211A4882
:1011A000B04720211848B0477978C9B216481D4C7D
:1011B000A0473978C9B21448A04720211248B04747
:1011C0007B211148B047F978C9B20F48A047B978D8
:1011D000C9B20D48A0477D210B48B04720210A48DD
:1011E000B0472C210848B04720210748B0470135B7
:1011F00008375D45C9D1AEE714040020F55500005D
:101200006A0400204C460020B003002085540000F2
:10121000D4A30000155B000071550000DCA30000A2
:101220009D570000F5540000F8B5DE4657464E467F
:101230004546E0B58146254B9B461879244B984698
:1012400098470F2706015B465879C04738400F235F
:101250009A460643F3B24A4653705B469879C047B4
:1012600000013E4006435B46D879C04738405346AC
:101270009E4335000543EBB24A4693705B46187AAD
:10128000C04700013D4005435B46587AC04738409F
:1012900053469D432C000443E3B24A46D3705B4659
:1012A000987AC04700013C4004435B46D87AC04767
:1012B000384053469C432043C0B24B4618713CBC57
:1012C00090469946A246AB46F8BDC046140400209D
:1012D000F5550000F0B5CE46474680B583B0050011
:1012E000224B98461879224CA0470700434658796C
:1012F000A047204E7E43FA239B00584336184346AE
:101300009879A04781464346D879A04707004346CD
:10131000187AA04764244B465C438619A419BB0085
:10132000DB195B00E41823021B0E98466A46D37152
:10133000D1791148114B994698472604360EF1B2DF
:101340000D48C847E7B239000B48C8476C61C22353
:101350004246EA540133EE540133EF540422084B61
:10136000EA5403B00CBC90469946F0BD140400202A
:10137000F555000010270000B0030020F5540000D0
:101380001D020000F8B505000C4F38790C4EB0472F
:1013900004007879B0470238A300E418640000190B
:1013A000C0B2021C0F2800D90F22C523EA54EB5CFF
:1013B000DBB2AB730422034BEA54F8BD14040020E3
:1013C000F55500001D020000F8B505000F4F3879F3
:1013D0000F4EB04704007879B0470538A300E418F1
:1013E00064000019C0B2031C012800D802231A1C93
:1013F000DBB2072B00D90722DE23EA54EB5CDBB219
:10140000EB730422034BEA54F8BDC04614040020D9
:10141000F55500001D02000070B504000D4B984703
:101420000D4E0D2130000D4DA8470D4B9847200063
:101430000C4B984720213000A84720213000A847B6
:1014400020213000A8472000074B98472000074B79
:10145000984770BD395B0000B00300208554000040
:10146000655B0000A1760000F1270000797700009D
:1014700010B5604B1878604B98471C2800D010BD01
:101480005C4B58785C4B98471C28F8D880005B4B25
:101490001B589F465A4B1B78032BF0D1554B9B781A
:1014A0000D2BECD1574B1868574B9847E7E7544B37
:1014B0001B78032BE3D14F4B9B780D2BDFD1534B84
:1014C0001868514B9847DAE74D4B1B78072BD6D15C
:1014D000484B9B790D2BD2D1464B9878464B984779
:1014E00001280DD0434B9878434B98470228C6D12A
:1014F000464C2068464B98472068464B9847BEE7C5
:10150000404C2068424B98472068424B9847B6E7CA
:101510003B4B1B78072BB2D1364B9B790D2BAED1B1
:10152000344B9878344B984701280DD0314B98783C
:10153000314B98470228A2D1344C2068364B98474B
:101540002068344B98479AE72E4C2068324B9847D6
:101550002068304B984792E7294B1B780A2B00D024
:101560008DE7244B5B7A0D2B00D088E7214B9878D0
:10157000214B984701280ED01E4B98781E4B984758
:10158000022800D07BE7214C2068244B9847206834
:10159000204B984773E71B4C2068204B98472068E6
:1015A0001C4B98476BE7164B1B780D2B00D066E75A
:1015B000104B1B7B0D2B00D061E70E4B98780E4B28
:1015C000984701280ED00B4B98780B4B9847022870
:1015D00000D054E70D4C2068114B984720680D4B04
:1015E00098474CE7074C20680D4B98472068094BFB
:1015F000984744E714040020F5550000E4A30000D8
:101600006A040020F82D002019140000081300209F
:10161000C91300004959000085130000D5120000CD
:101620002912000010B5474B1878474B98471C28E3
:1016300000D010BD434B5878434B98471128F8D140
:10164000404B9878404B98471828F2D13D4BD878BA
:101650003D4B98472028ECD13C4B1B78052B29D0DB
:10166000062BE6D1374B1879374B9847202840D0C6
:10167000364B1B78062BDCD1324B1879324B98470E
:10168000122846D0314B1B78062BD2D12D4B18791E
:101690002D4B98470A28CCD12A4B5B790D2BC8D10A
:1016A0002B4B1B682B4A9A5C002A47D10121294AFF
:1016B0009954BEE7234B1B790D2BBAD1244B1B68E1
:1016C000254A9A5C002A0CD00021234A9954234BC6
:1016D0001B68214A9A5C002A07D000211E4A9954AF
:1016E000A7E701211C4A9954F1E701211A4A9954AC
:1016F0009FE7144B5B790D2BBAD1194B1B78002B4C
:1017000003D00022164B1A7093E70122144B1A7073
:101710008FE70C4B5B790D2BB4D10D4B1B689322DB
:1017200092009A5C002A04D00021932292009954DE
:101730007FE701219322920099547AE70021054A1C
:10174000995476E714040020F55500006A0400203F
:10175000F82D00204D020000260200000813002092
:10176000582E0020F0B5C64600B582B00400354BB7
:101770001878354B98471D2803D002B004BC90461A
:10178000F0BD304B5B78202BF7D1304B1B780B2B07
:10179000F3D12C4B9B7A0D2BEFD12A4EB0792A4DE9
:1017A000A847FA27BF004743B846F079A8476427FF
:1017B00047434744307AA8478046707AA847C719FC
:1017C00043469D0045446D00ED193279F178B078BB
:1017D0001F4B98470700C3B21E001E4B98472100BD
:1017E000019630001C4EB0471C4B9847FF231F400A
:1017F000CB3B7B43E3182A04120E5A72EDB21D72E2
:10180000FB00DB199B00DF19154BDB19DA771A0097
:10181000203215701900213100220A7022331A700B
:101820002000104B984720000F4B9847210001984B
:10183000B0470E4D0D2128000D4CA0470D2128006A
:10184000A0479AE714040020F55500006A04002020
:1018500021590000955B0000195C0000C55C000088
:101860008C2E0020F52600007D270000B00300200C
:1018700085540000F8B5DE4657464E464546E0B56D
:101880003D4B98473D4B98473D4B98473D4C8023F7
:101890001B049946636180231B059846636180277A
:1018A0007F056761384B9847384B9847384B9847C6
:1018B000384B9847384B9847384B9847384B9847A0
:1018C000384B9847384B98470122384B1A70BFF372
:1018D0005F8F62B6364EB0470020364B98470020E7
:1018E000354B9847FA204000344DA847FA20400075
:1018F000A847B047324B9847324B9847324B9847EE
:10190000324D2800324B98472800324B9847280028
:10191000314B98472800314B98473148314B984715
:10192000B047314B9847314B9B461868304DA8471C
:10193000304B9A461868A84700252F4B1D702F4B37
:101940001D702F4B9847B0475B461A688F239B004A
:10195000D55052461268D5502A4B1D704B46A36194
:101960004346A361A761284B98473CBC90469946E3
:10197000A246AB46F8BDC0461D1B0000118E0000FC
:10198000917F000000440041C97D0000397F0000C4
:10199000BD5E0000D57C0000D96A0000196B000014
:1019A000715E00009D5E0000092B0000CC0200204B
:1019B000E1690000111A00002D1A0000D17F00001B
:1019C000491A0000A51A0000795900008815002066
:1019D0001D5A0000E1590000D52B00007D270000B2
:1019E000F0040020612C0000795B0000F82D00203D
:1019F000F1270000081300200C130020003D0020F8
:101A00000D1A00006A0400206D45000070470000B8
:101A1000002804D180229202034B5A617047802231
:101A20009202014B9A61F9E700440041002804D179
:101A300080225202034B5A61704780225202014BAE
:101A40009A61F9E7004400410E4B0F4A13600F4AB8
:101A50009A6100228E2189005A54DE39FF395A5486
:101A600001315A540A495A5404200A495854023937
:101A70005A5409495A5409495A5417315A50084975
:101A80005A547047A02B0020F82D0020F0030020AE
:101A90001D0200002A0200002302000025020000AF
:101AA0002602000070B5154C15482060154B836167
:101AB00014228E239B00C254134B9C466044002189
:101AC000124DA8472368124A944663441800032124
:101AD000A84723688A229200944663441800002194
:101AE000A84723680B4A9446634418000021A8477E
:101AF00022680121084BD15470BDC0460813002054
:101B000010130020EC4500201D020000A56C000011
:101B10002A0200002302000026020000F0B5C6469B
:101B200000B582B001AC0123984663700027A7700E
:101B3000237021001720274EB047274D80231B0418
:101B4000AB6121001B20B04780231B05AB61210046
:101B50001C20B04780235B05AB6121001120B047FA
:101B600080239B02AB6121001020B04780235B02E1
:101B7000AB61277021000E20B0478023DB016B6131
:101B800021000F20B04780231B026B6121000B2036
:101B9000B04780231B016B61677021000720B047AD
:101BA00080236B614346637021001620B047802379
:101BB000DB036B6121000120B04702236B612770BA
:101BC00021000A20B0478023DB006B6102B004BC17
:101BD0009046F0BD718000000044004110B50548FA
:101BE000054B98476920054B984701000448054B71
:101BF000984710BD58A40000155B00009D570000D9
:101C0000B0030020BD55000010B50400194B1B683F
:101C1000834204D0184B1B6898421DD010BD8F23FF
:101C20009B00C258154B9A420DD8154BC35C012B33
:101C3000F4D180221205134B5A61134B98470622A8
:101C4000124BE254EAE7124B98478A229200A35CB7
:101C50000133DBB2A354E1E7094BC35C012BDDD1B7
:101C600080225205074B5A61074B98470622074BC3
:101C7000E254D3E7F82D002008130020DC05000013
:101C80002302000000440041E16900001D02000041
:101C9000B96C000010B5194B1B78012B13D0002B29
:101CA00002D0022B1ED010BD154A9C23D35C9D216F
:101CB000515C1B021943F6D01248134B984701227E
:101CC0000E4B1A70EFE70E4A9E23D35C9F21515CA6
:101CD0001B021943E7D00D480B4B98470022074BD6
:101CE0001A70E0E700230A480A49CA5CC25401336B
:101CF000122BFAD10222014B1A70D4E72C2E0020AD
:101D00008C2E00202B1800007D1E00002F180000D4
:101D1000043D00202046002070B504003B4BC35C0E
:101D2000DBB2732B51D0742B40D0662B00D070BD2A
:101D30000B3BC25C34204243354952189289E35C24
:101D400043435B18198992B28A422BD95B23E35C27
:101D5000342253432E4A9B1800229A8120002D4B97
:101D600098472D4BE35C012B02D02C4B9847DEE7C4
:101D700020002B4B984720002A4B98472A4C0921DA
:101D800020002A4DA8472A482A4B98472A4B9847B3
:101D90002A4B19783031C9B22000A8470D21200004
:101DA000A847E2E72000264B9847C0E7254B984715
:101DB000194BE35C012B03D06622144BE254B6E7C7
:101DC00013492000204B9847F6E78A239B00C35C09
:101DD000DBB2012BABD900218A239B00C154CE3B3F
:101DE000FF3BC35C34225A43094B9B18D9730A4BFF
:101DF000C35C012B06D02000114B98476622034B91
:101E0000E25494E70249114B9847F4E71D020000A1
:101E100088150020B96C000026020000951C000007
:101E2000395B0000E95D0000B0030020855400002C
:101E300068A40000155B0000215500002C2E002036
:101E4000B91E0000FD250000415D0000D95C0000C6
:101E5000F8B505000C000809064FB8470100280036
:101E6000054EB0472007000FB84701002800B047D3
:101E7000F8BDC046955400008554000010B50D4BC8
:101E800055221A705A709A70DA7000221A715A71BB
:101E900001249C710534DC71040A1C725872080A12
:101EA0009872D9721A735A739A73DA7333321A7436
:101EB0005A7410BD043D0020F0B5D6464F46464644
:101EC000C0B582465B23C45C0134E4B26425324F62
:101ED0003426B946314B984627E00023EA18117F93
:101EE000C9B25246D218FD3211700133122BF5D10E
:101EF000223343432848C0182E3002230370284D54
:101F000028492800284B984721002800274B98474C
:101F10000D212800264B984739E001306421C04745
:101F2000CCB2013DEDB2002D31D02000330063432F
:101F3000FB185B78012BF0D1330063434B441B7CCF
:101F4000002BEAD15B335246D4543422150065434A
:101F5000114BED182979C9B2F7265746B955697959
:101F6000C9B20136B955A979C9B20136B955E9796D
:101F7000C9B20136B955B97BC9B20136B955033674
:101F8000FC217E542B002E331B78012BA5D01CBCCA
:101F900090469946A246F0BD881500208594000021
:101FA000B00300207CA40000F55A0000F5540000A6
:101FB00085540000F0B5CE4600B505005321944885
:101FC000944B994698475B27EA5DD2B2924CD30076
:101FD0009B189B009B18E318D9788D488F4EB0470B
:101FE000EA5DD2B2D3009B189B009B18E3181979C5
:101FF0008748B047EA5DD2B2D3009B189B009B187C
:10200000E31859798248B047EA5DD2B2D3009B18F1
:102010009B009B18E31899797D48B047EA5DD2B2DE
:10202000D3009B189B009B18E318D9797848B047D8
:10203000EA5DD2B2D3009B189B009B18E318197A73
:102040007348B047EA5DD2B2D3009B189B009B183F
:10205000E318597A6E48B047EA5DD2B2D3009B18B4
:102060009B009B18E318997A6948B047EA5DD2B2A1
:10207000D3009B189B009B18E318D97A6448B0479B
:10208000EA5DD2B2D3009B189B009B18E318197B22
:102090005F48B047EA5DD2B2D3009B189B009B1803
:1020A000E318597B5A48B047EA5DD2B2D3009B1877
:1020B0009B009B18E318997B5548B047EA5DD2B264
:1020C000D3009B189B009B18E318D97B5048B0475E
:1020D000EA5DD2B2D3009B189B009B18E318197CD1
:1020E0004B48B047EA5DD2B2D3009B189B009B18C7
:1020F000E318597C4648B047EA5DD2B2D3009B183A
:102100009B009B18E318997C4148B047EA5DD2B226
:10211000D3009B189B009B18E318D97C3C48B04720
:10212000EA5DD2B2D3009B189B009B18E318197D7F
:102130003748B047EA5DD2B2D3009B189B009B188A
:10214000E318597D3248B047EA5DD2B2D3009B18FC
:102150009B009B18E318997D2D48B047EA5DD2B2E9
:10216000D3009B189B009B18E318D97D2848B047E3
:10217000EA5DD2B2D3009B189B009B18E318197E2E
:102180002348B047EA5DD2B2D3009B189B009B184E
:10219000E318597E1E48B047EA5DD2B2D3009B18BF
:1021A0009B009B18E318997E1948B047EA5DD2B2AC
:1021B000D3009B189B009B18E318D97E1448B047A6
:1021C000EA5DD2B2D3009B189B009B18E318197FDD
:1021D0000F48B047EA5DD2B2D3009B189B009B1812
:1021E000E318D97F0A48B047EA5DD2B2D3009B1802
:1021F0009B009B18E418203421780548B0475A21E9
:102200000348C8470D210248C84704BC9146F0BDA9
:10221000B0030020855400008C2E0020511E0000C9
:10222000F0B5DE4657464E464546E0B585B00290CD
:10223000DF4A17002D3700235B2188461AE00298F9
:102240004546405D6D46A873A87B8246C000844623
:10225000D444604680008446D444CC44917F8A466E
:10226000614689798A4550D0013334323437642B42
:1022700000D196E1DEB21C001578012DF4D17878FA
:1022800001900028F0D138780228EDD10298454617
:10229000405DC0B2C500AC4684446546AD00AC4666
:1022A0008444C4488146CC44D07E82466046C0788F
:1022B0008245D9D102984546405D6D46A873A87BFA
:1022C0008246C0008446D444604680008446D4449C
:1022D000CC44107F8246604600798245C4D1029882
:1022E0004546405D6D46A873A87B8246C000844683
:1022F000D444604680008446D444CC44507F824617
:10230000604640798245AFD199E7AB49AB48AC4BC9
:1023100098473100A948AB4B98470D21A748AA4FD1
:10232000B84734226243A94B9B181A002232127814
:10233000233319781202114388465B21029D685CA1
:10234000C0B29C4AC3001B189B001B18D318987C72
:10235000695CC9B2CB005B189B005B18D318DB7CAF
:102360000002184383B29A4619009448984B9B4642
:10237000984720219148B84743466A46D381D3897C
:10238000984619008D48D84720218C48B847C24547
:1023900000D0DCE08F498948894B984701231E0013
:1023A00034226243894B9B181A0024321278253359
:1023B0001B781202134398465B21029D685CC0B2F1
:1023C0007C4AC3001B189B001B18D318187D695C3E
:1023D000C9B2CB005B189B005B18D3185B7D000271
:1023E000184383B29946754F19003800784B9B46C5
:1023F000984720213800744B9A46984743466A46CE
:10240000D381D389984619003800D8472021380055
:10241000D047C14500D0A0E06F496848684B984755
:1024200034226243694B9B181A00263212782733F4
:102430001B781202134398465B21029D685CC0B270
:102440005C4AC3001B189B001B18D318987D695C5D
:10245000C9B2CB005B189B005B18D318DB7D000270
:10246000184383B29946554F19003800584B9B4684
:10247000984720213800544B9A46984743466A466D
:10248000D381D389984619003800D84720213800D5
:10249000D047C14567D151494848494B98470196B3
:1024A00034226243494B9B1828331B7898465B20A3
:1024B000029D295CC9B23F4ACB005B189B005B18A8
:1024C000D3181F7C295CC9B2CB005B189B005B183A
:1024D000D3185B7C3F021F43384E390030003C4B21
:1024E0009B46984720213000374B9A4698474346F1
:1024F0006A46D381D389984619003000D8472021F5
:102500003000D047474533D135492C482C4B9847AC
:10251000019B002B3AD0342363432C4CE418230056
:102520002E3303221A7022002F320123137030340D
:10253000237008330021029AD218F432117001334B
:102540001B2BF8D127491D481D4B984729E02649E8
:102550001A481B4B9847019E22E724491748184BFD
:102560009847019E5CE722491448154B984797E726
:102570004346032B06D1042F04D11E490F48104BAC
:102580009847C5E71C490D480D4B984734236343D2
:102590000E4CE41823002F3300221A702E3402232D
:1025A000237005B03CBC90469946A246AB46F0BDB0
:1025B000891500208C2E002094A40000B003002078
:1025C000F55A0000F55400008554000088150020DD
:1025D00071550000A4A40000CCA40000F4A40000E5
:1025E0001CA500006CA50000B8A40000E0A4000039
:1025F00008A5000030A5000058A5000070B5040033
:10260000314BC35C012B07D02223E35CF722A25C91
:10261000DBB2934220D070BD2C4B98472C482D4BF9
:1026200098472223E15CC9B22B4D28002B4EB047BE
:102630002323E15CC9B22800B0472423E15CC9B27E
:102640002800B0472523E15CC9B22800B0470D211E
:102650002800234B9847D7E72323E35CF822A25CAA
:10266000DBB29342D7D12423E35CF922A25CDBB234
:102670009342D0D12523E35CFA22A25CDBB29342E1
:10268000C9D100215B26174DA25DD2B26318D87F55
:10269000D3009B189B009B18EB18585401311E293E
:1026A000F2D12000104B98475B25635D0F4A342020
:1026B0004343D3180121D973635D4343D218117486
:1026C00020000B4B9847A6E726020000395B00006C
:1026D00074A40000155B0000B0030020F554000056
:1026E000855400008C2E0020212200008815002037
:1026F000B51F0000F0B5D646474680B5D3B002AE50
:1027000034A93300427A1A70027A5A703430023394
:102710008B42F7D1144B019342AC144B9846144FA3
:102720000023F25C1A550133402BFAD10198C047BF
:1027300038700528FAD00F4B9A460D4D40222100E3
:102740000198D04728700528F8D0019B0133FF334A
:102750001A0001934036084B9A42E1D153B00CBCA9
:1027600090469A46F0BDC046000E020041030000AC
:10277000E94500202D02000000120200F0B5C64617
:1027800000B5D2B0019002AF3C00154B009342ADB2
:10279000144E154B9846402229000098B0474346F6
:1027A00018700528F7D000235A5DE2540133402BFE
:1027B000FAD14034009B0133FF331A0000930B4BD6
:1027C0009A42E8D1019C34AA3B7863727B782372E9
:1027D000023734349742F7D152B004BC9046F0BD72
:1027E000000E0200D5020000E945002000120200A0
:1027F000F0B591B00400844E844D4022694684486F
:10280000B04728700528F8D08E218900635CDBB2C0
:102810006A46D25C635C6B445B78A373552A00D034
:10282000B8E0A37BDBB27439FF3963548E239B007D
:10283000E35C6B449B78E373E37BDBB21931635455
:102840008E239B00E15C6944C978A175E15C694411
:1028500009796175E35C6B445B792375552A00D077
:10286000A7E0A37DDBB2C2216354637DDBB20131FB
:102870006354237DDBB2013163548E208000235CDE
:102880006B449B795D31FF316354235C6B449B79CE
:1028900063548E239B00E15C6944C8795D490870EC
:1028A000E15C6944097A6171E15C6944497AA1712A
:1028B000E15C6944897AE171E15C6944C97A217219
:1028C000E35C6B441B7B2374552A00D08DE08E2380
:1028D0009B00E35C6B445B7B63744F4B1B689C42C7
:1028E00000D18CE04D494E484E4B98478E27BF0093
:1028F000E35DDBB26A46D15C49484B4EB0472021CC
:1029000047484A4DA847E35D6B4459784448B0476F
:1029100020214348A847E35D6B4499784048B0477D
:1029200020213F48A847E35D6B44D9783C48B04735
:10293000E35D6B4419793A48B047E35D6B445979DC
:102940003748B04720213648A847E35D6B44997962
:102950003348B04720213248A847E35D6B44D9791A
:102960002F48B04720212E48A8476179C9B22C488A
:10297000B047A179C9B22A48B047E179C9B228481D
:10298000B047217AC9B22648B0470D212448A8474C
:1029900011B0F0BDC523E35CDBB2A3738E239B00B3
:1029A000E35C6B449B78E373DE23E35CDBB2E373AD
:1029B00046E7C223E35CDBB2A375C323E35CDBB26F
:1029C0006375C423E35CDBB223758E218900635CED
:1029D0006B44987988239B00E0540120E054615CAB
:1029E00069448979E154E05453E7002222748E232C
:1029F0009B00E35C6B445B7B637462746DE70C4922
:102A00000748084B984771E7D5020000E9450020C8
:102A1000000D02001C460020F82D0020A0A500009B
:102A2000B0030020F55A0000F55400008554000062
:102A300090A5000070B590B004002D4E2D4D4022A1
:102A400069462D48B04728700528F8D08E239B0092
:102A5000E25CD2B2552168468154E25CA17B6A44B3
:102A60005170E25CE17B6A449170E25CA17D6A4452
:102A7000D170E25C617D6A441171E25C217D6A443F
:102A80005171E25C88218900615C6A449171E25C69
:102A90006A441A4909780131D171E25C61786A446B
:102AA0001172E25CA1786A445172E25CE1786A4496
:102AB0009172E25C21796A44D172E25C217C6A44C1
:102AC0001173E35C627C6B445A730B4E0C4D094CE2
:102AD0003000A84720700528FAD00A4D054C402246
:102AE00069460548A84720700528F8D010B070BD89
:102AF000D5020000E9450020000D02001C46002020
:102B0000410300002D02000000B583B000226B4697
:102B10001A70074B5B68DB061B0F69468B70CA7027
:102B20000A714A706846034B984703B000BDC0461F
:102B30000040004105010000F0B5D646474680B58B
:102B4000204CA54402AE98A9330002781A7042784E
:102B50005A7002799A704279DA7082791A71C27960
:102B60005A71343006338B42EFD1FA235B02019362
:102B7000A2AC154B9846154F0023F25C1A55013351
:102B8000402BFAD10198C04738700528FAD0104B75
:102B90009A460E4D402221000198D0472870052802
:102BA000F8D0019B0133FF331A0001934036FF2315
:102BB0005B029A42E0D1B3239B009D440CBC90463B
:102BC0009A46F0BD34FDFFFF41030000E9450020B7
:102BD0002D020000F0B5C64600B51E4CA54401907C
:102BE00002AF3C00FA235B020093A2AD1A4E1B4BCE
:102BF0009846402229000098B0474346187005289F
:102C0000F7D000235A5DE2540133402BFAD140340F
:102C1000009B0133FF331A000093FF235B029A42AB
:102C2000E7D1019C98AA3B7823707B786370BB78CE
:102C30002371FB7863713B79A3717B79E37106376C
:102C400034349742EFD1B2239B009D4404BC90469C
:102C5000F0BDC04638FDFFFFD5020000E945002069
:102C6000F0B5D64600B51D4CA544019002AE370024
:102C70001B4B009398242401B4466444194B9A4694
:102C8000194D402221000098D04728700528F8D01F
:102C900000231A5DFA540133402BFAD14037009BD0
:102CA0000133FF331A000093104B9A42E9D1019D82
:102CB0009622120102AB9C46624433786B707378A3
:102CC0002B70B378AB70F378EB7004360635964210
:102CD000F3D1074B9D4404BC9246F0BD38F6FFFF8C
:102CE00000170200D5020000E9450020003D020067
:102CF000C809000010B53B4C3B4920003B4B9847AE
:102D0000093C01223A4BE25400282AD0394B3A4A76
:102D1000D35C002B21D10021354B374AD1543749A0
:102D20003048324B9847002828D0324B324AD35C87
:102D3000002B1FD100212E4B2F4AD1543049294856
:102D40002A4B9847002822D02A4B2B4AD35C002BD1
:102D500026D02C482C4B984722E02C482A4B9847E9
:102D6000D9E7244B244AD35C002BD8D02848264BE3
:102D70009847D4E72748244B9847DBE71D4B1E4A6A
:102D8000D35C002BDAD024481F4B9847D6E7194B69
:102D9000194AD35C002B13D10021154B164AD1548C
:102DA0001E491048114B9847002811D0114B124A68
:102DB000D35C002B08D101210D4B0F4AD15410BD1B
:102DC0001748114B9847E7E716480F4B9847F2E72B
:102DD000084B094AD35C002BF1D013480A4B9847A3
:102DE000EDE7C046393D002010A70000DD5100008E
:102DF0003708000036080000303D002024A70000FE
:102E000008A7000060A60000155B000024A60000D3
:102E100030A6000040A6000050A60000F4A6000066
:102E200074A6000088A60000A4A6000010B51F4CE0
:102E30001F4920001F4B9847093C01221E4BE254BA
:102E400000281CD01D4B1E4AD35C002B13D100213F
:102E5000194B1B4AD1541B491448164B984700285C
:102E60001AD0164B164AD35C002B11D10021124BFD
:102E7000134AD15410BD1448144B9847E7E70F4B41
:102E80000F4AD35C002BE6D01148104B9847E2E77D
:102E900010480E4B9847E9E7084B094AD35C002BD2
:102EA000E8D00D48094B9847E4E7C046393D00207B
:102EB00010A70000DD5100003708000036080000B0
:102EC000303D002018A7000024A60000155B00007C
:102ED00030A60000C0A60000CCA6000010B5254B0F
:102EE0005B78033BDAB2082A3AD89300224AD358D7
:102EF0009F4622492248234B984700280DD0224B59
:102F00001C4AD35C002B04D10121204B194AD15417
:102F100026E01F481F4B9847F6E71B4B154AD35C2A
:102F2000002B1DD01C481B4B984719E01B49144827
:102F3000144B9847002808D0134B0E4AD35C002B43
:102F40000ED01748134B98470AE00F4B094AD35C41
:102F5000002B05D013480F4B984701E0124B9847C0
:102F600010BD114B9847FBE7104B9847F8E70F4B04
:102F70009847F5E7303D0020B0A500002CA70000E1
:102F8000393D0020DD510000360800003508000002
:102F9000D4A50000155B0000E4A50000DCA600003D
:102FA000F8A500000CA60000F52C00002D2E000056
:102FB00010B50649064B0A0013CB13C213CB13C23C
:102FC00013CB13C21B88138010BDC0460000002025
:102FD00000A80000F8B5B04B5A78112A14D8930015
:102FE000AE4AD3589F46AE49AE48AF4B9847AA4B1E
:102FF0000021812212019950FA21C900AB4A99504F
:10300000FA218900AA4A9950F8BDAA49A548A64BB9
:103010009847A14B0021812212019950FA21C90041
:10302000A24A9950FA218900A14A9950ECE7A24995
:103030009C489D4B9847984B002181221201995042
:103040009E499A4A99509E49994A9950DCE79D4970
:103050009448954B9847904B00218122120199503A
:10306000FA21C900914A9950FA218900904A995051
:10307000CAE795498B488C4B9847874B00218122A2
:1030800012019950FA21C900884A9950FA21890001
:10309000874A9950B8E78D498248834B98477E4BC1
:1030A0000021812212019950FA21C9007F4A9950CA
:1030B000FA2189007E4A9950A6E7854979487A4BDA
:1030C0009847754B0021812212019950FA21C900BD
:1030D000764A9950FA218900754A995094E77D49BA
:1030E0007048714B98476C4B002181221201995016
:1030F000FA21C9006D4A9950FA2189006C4A995009
:1031000082E775496748684B9847634B00218122E5
:1031100012019950FA21C900644A9950FA21890094
:10312000634A995070E76D495E485F4B98475A4B28
:103130000021812212019950FA21C9005B4A99505D
:10314000FA2189005A4A99505EE7564D6449280091
:10315000554CA04763492800A04763492800A04771
:1031600062492800A04762492800A0474A4B002135
:1031700081221201995051494C4A995050494C4A68
:10318000995041E75B494748474B9847424B0021DC
:103190008122120199504949444A99504849444A68
:1031A000995031E7544B98475448554B9847050080
:1031B0003C4C544920003C4EB04728006030524BF4
:1031C000984701002000514B984751492000B047D3
:1031D000504B314AD35C002B0DD12F4B0021812263
:1031E00012019950FA21C900304A9950FA218900F8
:1031F0002F4A995008E7484D484C290020002A4E94
:10320000B0473E483E4B9847010020003F4FB8472B
:1032100043492000B04729000C312000B04760210D
:103220002000B847290018312000B047D5E7394BB6
:10323000194AD35C002B13D11A4D304928001A4C7F
:10324000A04738492800A047134B002181221201D2
:1032500099501A49154A99501949154A9950D3E677
:103260002E4D26492800104CA0472E492800A04783
:10327000E2E72D490B480C4B9847074B0021812270
:1032800012019950FA21C900084A9950FA2189007F
:10329000074A9950B8E6C046303D002038A70000E4
:1032A00028A80000EC450020F55A00001408000092
:1032B0001808000030A8000040A80000C832000034
:1032C000641900004CA8000058A800006CA8000079
:1032D00080A8000094A80000CCA80000DCA8000092
:1032E000F0A80000FC46002000A90000784700205C
:1032F0004CAC000024A90000B12F00000000002009
:10330000C595000004A900009D57000071550000FC
:1033100074A900003608000080A70000B003002058
:1033200010A900009CA7000014A90000F0B5DE461B
:1033300057464646C0B56D4CA5446D4D6D492800B5
:103340006D4CA04706006D492800A04742796C4BA0
:103350001A70002E00D1BBE000246A4B1C706A4931
:103360006A486B4B98476B4B5C606B4A9C506B494F
:103370006B4A99506B496C4A99501C7200276B4CF0
:10338000624DA61E10E0634B9B784B2B1CD0002790
:10339000604B812212019A5863495B589A4200D9C6
:1033A0009EE000225B4B1A72012221002800604B34
:1033B0009847337A002BF7D0002FE4D1554B9B78F8
:1033C0004F2BE5D10127E3E75A495B48504B98471B
:1033D000504B5B680024002B0AD04E4D564E574F81
:1033E0006319597A3000B84701346B68A342F7D8A3
:1033F000514E53493000464FB84752493C483E4C25
:10340000A047050050493A48A04701900D213000DF
:103410004A4CA0474D493000B84728004C4A9346D3
:103420009047010030004B4A924690472C213000D3
:10343000A04749493000B8470198D84701003000FB
:10344000D0470D213000A0473D493000B847019BCF
:103450005C1B02ABFFA80C3000221A7001339842AB
:10346000FBD1002C06D00023EA5C02A95A54013398
:103470009C42F9D1304C02A92000254DA84702A852
:10348000364B98469847324FB84701002000314EDE
:10349000B0471E4C32492000A847194B197820002C
:1034A000264B98472F492000A84702A8C047B84795
:1034B00001002000B0472C492000A847FA277F00D0
:1034C00038002A4EB04702A92000A8473800B0476C
:1034D0008123DB009D441CBC90469A46A346F0BD68
:1034E000234915480A4B984772E7C046F8FBFFFF8F
:1034F000393D002058A90000D395000064A90000C0
:10350000E8460020B44700206CA90000EC450020EC
:10351000F55A0000303D00200C0800001027000084
:10352000140800008813000018080000323D002035
:103530001D87000078A90000B0030020855400001A
:1035400094A90000ACA90000B4A90000BCA9000027
:103550009D57000071550000C8A90000C5950000E6
:1035600004A9000068A9000074A90000D17F000030
:1035700088A90000F0B5D6464F464646C0B582B091
:1035800000236A461370042269468A700832CA70A2
:103590000B714B714B7068466C4B98476C496D488A
:1035A0006D4B98476D4B9946002398469A466C4B55
:1035B0009F1EA3E0012B09D0022B33D1674B9B78D0
:1035C000542B07D10322674B1A7006E0634B9B789C
:1035D000542B23D0634B42461A70634B1B78002B4D
:1035E00051D15E4B42461A72604B5C4AD35C002B51
:1035F00000D0A4E001225A4920005D4B98473B7A55
:10360000002BF1D0574B1B78002BD3D1534B9B7819
:10361000482BDFD10122534B1A70DEE70222514BB7
:103620001A70DAE7032B07D14C4B9B78502BD1D182
:1036300004224C4B1A70D0E7042B07D1474B9B78E0
:103640002F2BC7D10522474B1A70C6E7052B07D190
:10365000424B9B78312BBDD10622424B1A70BCE7FE
:10366000062B07D13D4B9B782E2BB3D107223D4B28
:103670001A70B2E7072BADD1384B9B78312BA9D10B
:103680000122394B1A70394B344AD35C002B56D186
:10369000304C38492000304DA847324B1978303132
:1036A000C9B22000344B984734492000A8472B4B1F
:1036B0005B68002B0AD00024284E2F4DA319597A9D
:1036C0002448A84701347368A342F7D82C4A234BF7
:1036D0009A7001222B4B1A702B491E481E4B98479B
:1036E0002A4B98472A4B98472A4B98471E4B1B78E2
:1036F000002B03D1234B1B78002B0BD1494652469C
:103700004A60254BCA50174B42461A70164B1A7026
:10371000224C6FE7214C224920000F4DA847214B36
:1037200019782000144B98471F492000A847FA2019
:1037300040001E4B98471E492000A847DEE702B014
:103740001CBC90469946A246F0BDC046E168000008
:10375000D0A90000B0030020F55A0000303D002041
:10376000323D0020FB460020384700203B08000087
:103770001D870000DCA9000085540000FCA90000A2
:1037800030AF0000B447002094A900004D4800006D
:103790002D330000314500000C080000EC450020EE
:1037A00004A90000E846002008AA0000D17F00001C
:1037B00010AA000010B53B4B3B4AD358C82B08D089
:1037C0003A4B98473A4B9847374B1B781E2B65D09E
:1037D00010BD13000021334A99501B781C2BEFD1E8
:1037E000344B314AD358312B06D80020324950543B
:1037F000013330495350E3E72B4B01212E4A9954B2
:103800002E4A9B5C002B22D1274B0531173A995445
:1038100005392A4A99540021294A9954294A9B5C1E
:10382000032B07D00133274A1F498B541E221E4BFE
:103830001A70C5E713001C4AD15400221A4B1A70A3
:10384000002301338222120117498B54B8E78223E7
:103850001B01154AD35C002BEFD0012B05D0022BA6
:1038600007D10E21104A1170EBE700210E4A1170AA
:10387000E7E7032B03D10F210B4A1170E1E7042B7B
:1038800003D11021084A1170DBE7052B03D1112168
:10389000054A1170D5E7062BD3D1C7E70A4B9847E5
:1038A00096E7C0462C080000303D0020E16900008A
:1038B000A13C000024080000340800003708000084
:1038C000350800002808000075350000F0B5C64630
:1038D00000B5002800D000E1CD49CE48CE4B984736
:1038E0008046444647462E37CC4ECD4D2178300099
:1038F000A8470134BC42F9D10D21C848C84B9847AC
:1039000043465879C74EB047C74C20704346987914
:10391000B04760704346D879B047A0704346187AE4
:10392000B047E0704346587AB04720714346987AD2
:10393000B04760714346D87AB047A0714346187BC0
:10394000B047E071B94D23781B01627813432B70A7
:10395000A3781B01E27813436B7023791B01627912
:103960001343AB70A3791B011843E8704346987B5F
:10397000B04720704346D87BB047607023781B0166
:10398000184328714346587CB04720704346987CC2
:10399000B047607023781B01184368714346187D57
:1039A000B04720704346587DB04760704346987DCD
:1039B000B047A0704346D87DB047E07023781B0124
:1039C00062781343AB71A3781B011843E871434637
:1039D000587EB04720704346987EB047607043469B
:1039E000D87EB047A0704346187FB047E070237878
:1039F0001B01627813432B72A3781B011843687272
:103A00004346987FB04720704346D87FB0476070E8
:103A100020234246D05CB047A07021234246D05CB0
:103A2000B047E07023781B0162781343AB72A37830
:103A30001B011843E87223234246D05CB047207034
:103A400024234246D05CB047607023781B011843A2
:103A5000287326234246D05CB04720702723424675
:103A6000D05CB047607023781B011843687329232A
:103A70004246D05CB04720702A234246D05CB04713
:103A8000607023781B011843A8732C234246D05C36
:103A9000B04720702D234246D05CB0476070237839
:103AA0001B011843E8732C001035614E5C4F2178E0
:103AB0005A48B04720215948B8470134AC42F6D1A2
:103AC0000D215648564B9847584B1D785E789F7885
:103AD000DB789C46574B002215E0012808D00228CD
:103AE00000D0FEE654494B484B4B98478046F8E6D9
:103AF00052494848484B98478046F2E601323433F1
:103B0000642A00D181E014001978A942F6D15978CD
:103B1000B142F3D19978B942F0D1D9786145EDD16C
:103B20004748484B9847484D34235C43605D474BBA
:103B3000984701003948464B984720213748384E6E
:103B4000B0472C1921793548394FB8476179334846
:103B5000B847A1793148B847E1793048B8472021C2
:103B60002E48B0473D212D48B04720212B48B04773
:103B70002E4D29782948B84769782848B847A97848
:103B80002648B847E9782548B8472B7823776B78DB
:103B90006377AB78A377EB78E377230020332A7938
:103BA0001A7001336A791A700133AA791A700133D5
:103BB000EA791A7001332A7A1A7001336A7A1A7014
:103BC0000133AA7A1A700133EA7A1A7001332A7B18
:103BD0001A7001336A7B1A700133AA7B1A700133A1
:103BE000EA7B1A7022002C323323137001321370D7
:103BF00023002E3301221A7022002F32002313706B
:103C0000303423700D210548B04704BC9046F0BD08
:103C10009CAA0000393D0020D3950000B00300208D
:103C200085540000F555000004480020F4470020AA
:103C3000F55400008C150020ACAA0000A4AA0000D6
:103C400094AA0000155B0000881500209D57000015
:103C5000BD550000F8B50B490B480C4B98470028A0
:103C60000FD00B4F0B4E390030000B4DA8470020F2
:103C70000A4CA0470120A0470220A047390030008D
:103C8000A847F8BD9CAA0000393D0020D39500004C
:103C9000B4AA0000B0030020F55A0000CD3800009F
:103CA000F0B5CE4600B5CE4B1A781D2A0DD893003C
:103CB000CC4AD3589F46CC4B9847C94C2000CB4B9D
:103CC0009847002363701233237004BC9146F0BD03
:103CD000C54B9847C24C2000C44B984702236370E1
:103CE00010332370F1E7C04B9847BD4C2000BF4B09
:103CF00098470123637011332370E6E7BA4B984766
:103D0000B74C2000B94B9847032363700F332370DF
:103D1000DBE7B54B9847B24C2000B44B98470423DF
:103D200063700E332370D0E7AF4B9847AC4C200044
:103D3000AE4B98470D23637005332370C5E7AA4B3C
:103D40009847A74C2000A94B98470E236370043373
:103D50002370BAE7A44B9847A14C2000A34B984787
:103D60000F23637003332370AFE79F4B98479C4C3E
:103D700020009E4B98471023637002332370A4E702
:103D8000994B9847964C2000984B984711236370A5
:103D90000133237099E7944B9847914C2000934B43
:103DA0009847052363700D3323708EE78E4B984739
:103DB0008B4C20008D4B9847062363700C33237087
:103DC00083E7894B9847864C2000884B9847072308
:103DD00063700B33237078E7834B9847804C200047
:103DE000824B9847082363700A3323706DE77C4C3D
:103DF00020007E4B98470C2363700633237064E7E2
:103E00007B4B8022120199187A4A1A700133994229
:103E1000FBD1734C2000754B9847774B9847002394
:103E20006360764AA350764DAE1E6D4F12E0754C1E
:103E3000012229002000744B9847744B6F4AB258F6
:103E40009A42F5D9664B812212019A5870495B5803
:103E50009A420DD881231B01FA586E4BFB589A42A7
:103E60000AD26A4B654A5E498A589A42DFD9E9E725
:103E7000694B98470028D8D0684B594AD35C002B2F
:103E800003D11422564B1A701FE765496548664DE9
:103E9000A847534C81263601A059644B9946984750
:103EA00063496048A8475B4FE059C84761495D488E
:103EB000A847A259E3599A42E3D95F4959485A4B56
:103EC0009847DEE7464C2000484B98476368002B34
:103ED0000DD1524B424AD35C002B03D11222404BEE
:103EE0001A70F2E655494F484F4B9847F6E74B4B4F
:103EF0003B4AD35C002B03D11622394B1A70E4E6FF
:103F00004F494848484B9847F6E7354C2000374B17
:103F10009847424BE35C002B03D11922304B1A70B7
:103F2000D3E6484B98472E4B5B68002B0BD0002400
:103F30002B4D3C4E444F6319597A3000B847013439
:103F40006B68A342F7D80D2136483F4B98473D4B4D
:103F50009847E2E73D4B98471822214B1A70B4E688
:103F60001F4C2000214B9847394B98471A23237048
:103F7000ABE61B4C20001D4B9847364B9847274B10
:103F8000E35C002B18D0164B5B68002B10D000248C
:103F9000134E244D304F3319597A2800B847202149
:103FA0002800294B98470134E4B273689C42F2D34D
:103FB0000D211C48244B98471A22094B1A7084E69D
:103FC000074C2000094DA847002281231B01E25025
:103FD000C832224BE2501B2323702000A84774E60E
:103FE000303D00201CAA00007152000099520000D0
:103FF000393D002030AF0000D52F00000C08000034
:10400000323D0020EC4500201D87000057020000D3
:104010001808000014080000F151000036080000E4
:10402000D0AA0000B0030020F55A0000D5540000CB
:10403000D4AA0000DCAA0000E0AA0000F0AA000058
:104040000CAB0000655B000085540000553C00008F
:10405000DD2E0000C55C0000F55400001C080000C7
:104060000C4B812212019A580B495B589A4200D896
:104070002BE60848002281231B01C2501C23037039
:10408000064B984721E6034C2000044B98471C231D
:1040900023701AE6303D00201C08000099520000F1
:1040A000F0B5D6464F464646C0B57A497A487B4B6E
:1040B00098477B4B00225A607A495A507A487B498C
:1040C00058501A727A4C744DA71E22E04346012BB9
:1040D00002D0002398462EE0714B9B784B2B00D1E9
:1040E000C7E00023984626E06D4B9B78522B00D109
:1040F000BBE04346022B29D000260022684B1A72EF
:10410000674B812212019A5868495B589A4200D93C
:1041100088E0012221002800664B98473B7A002B5B
:10412000EED04346002BD1D15D4B9B784F3B59429B
:104130005941CBB29846002E00D09FE0584B9B7857
:10414000452BD6D101264346022BD6D15A495B488E
:10415000524B9847524B5B6802229046002B69D124
:10416000564C574920004D4DA84756492000A847B6
:1041700055495648564FB847060056495348B84720
:10418000070055492000A8473000544B99469847EE
:1041900001002000524B9846984752492000A847FA
:1041A0003800C84701002000C047202120004E4BA6
:1041B0009847BE4257D2350000244C4B9A464A4B92
:1041C0009946315D534619553C48C8470134E4B21D
:1041D0000135AF42F5D8BF1BFFB20022434BDA5581
:1041E000434936482D4B984738E0032E06D12C4BD7
:1041F0009B784F2B00D07CE70426A4E7042E36D111
:10420000274B9B78522B01D000269CE74346022B7C
:104210009CD038492948214B9847214B5B68002B9B
:1042200008D116E0344925481C4B98471C4B5B6865
:10423000002B0BD000241A4D204E2B4F6319597AB6
:104240003000B84701346B68A342F7D84346022BCD
:1042500086D00A2229492548294B98471CBC9046FC
:104260009946A246F0BD0027B7E702266BE7002675
:1042700069E7002E00D169E702239846012E00D19C
:1042800032E7022EB1D1064B9B78522B00D030E79B
:10429000032658E73CAC0000EC450020F55A00002E
:1042A000303D00200C0800003075000014080000AC
:1042B000323D00201D87000050AC0000B0030020FC
:1042C0007CAC000088AC000094AC0000393D0020BC
:1042D000D3950000B4A9000098AC00009D570000E1
:1042E000BD550000A0AC000085540000B847002078
:1042F000A8AC00005CAC00006CAC00001CAB000083
:104300002D950000F0B5DE4657464E464546E0B5D1
:10431000664CA5449F252D016D44654B19682960A5
:104320009A88AA809B79AB719E2424016C44A24692
:10433000604B220043CB43C2198811809B78937055
:1043400098231B016B44984660225B4918005B4F21
:10435000B8475B4B6B44994635225A491800B84719
:10436000594E6E44594B320013CB13C213CB13C2B8
:1043700013CB13C2196811601B7913714922544978
:104380000C3154486844B847B72200215248684469
:10439000524FB84700239B46FFAB20335A461A6062
:1043A000FF2292000021FFA82430B8475B46079304
:1043B000FF229200002108A8B847FFAF20370596DA
:1043C000474B04934B460393464B0293434601935A
:1043D000454B009353462A0044493800444CA047BB
:1043E0003800444B9946984703000097394A6A447D
:1043F000414907A8A04741494148424CA047424E85
:1044000031783F48414FB8472C213D48B84707A86D
:10441000C8473F4B9B469847010039483D4B9A4659
:1044200098473D493648A0473C4D34492800A047AD
:1044300031782800B8472C212800B84707A8C8477A
:10444000D84701002800D04733492800A047FA2068
:104450004000334B9946984707A92948A04707A928
:104460002800A047FA204000C8472E492448A0470A
:1044700031782348B84728492148A04729492800CE
:10448000A04731782800B84723492800A047FA20E0
:104490004000C84724490C312800A047234B9D44C5
:1044A0003CBC90469946A246AB46F0BD04F6FFFFE1
:1044B00000AD000008AD000018AD00002D95000013
:1044C0004809000078AD00001C090000B0AD0000F4
:1044D0001CAB00001C080000650800003F950000B0
:1044E00078470020FC460020B8470020C8AC0000F8
:1044F00051950000C5950000E4AC000004A900003F
:10450000EC450020F55A0000E846002085540000E4
:104510009D5700007155000074A90000B0030020F1
:10452000D17F0000F0AC00001CAC0000FC090000D2
:1045300070B5084D08492800084CA04706000849F6
:104540002800A0474279074B1A70002E01D0064B75
:10455000984770BD393D0020B8AC0000D3950000ED
:1045600064A90000E84600200543000010B5114B87
:104570001C221A700121104A995432200F4A985077
:1045800000220F481A540F481A500F481A540F4867
:104590001A540F4819540F495A540F495A540F4A84
:1045A000126A1206D20F0E495A540E4B98470E4B00
:1045B000984710BD303D0020370800002408000057
:1045C000280800002C08000034080000350800000E
:1045D0003608000039080000380800000044004197
:1045E0003B08000005500000F1500000F0B5C64641
:1045F00000B5804B804AD358C82B06D07F4B9847D4
:104600007F4B984704BC9046F0BD13000021794AC7
:1046100099501B781C2BF1D17A4B774AD358952BA4
:1046200006D8002078495054013376495350E5E7C5
:10463000714B0121744A9954744A9B5C002B25D11B
:104640006D4B0531173A99540539704A9954002138
:104650006F4A99546F4A9B5C032B0FD001336D4A0C
:1046600065498B546C4B1B78002B49D06B496C48C7
:104670006C4B98470022684B1A7018E05E4B002282
:10468000822109015A5463495A5410E082231B01C4
:10469000594AD35C092B04D1023B0721564A1170B9
:1046A0000DE082231B01544AD35C062BDAD082230F
:1046B0001B01514AD35C002B27D1002111704E4AB7
:1046C0000133822109015354574BD35C002B66D12F
:1046D00082231B01484AD35C092B7BD00E2B00D0D0
:1046E0008CE7454B062182221201995400224F4942
:1046F0005A5444495A504E4949484A4B98477DE7D5
:104700004C494748474B98477CE7012B07D0022B81
:1047100009D0032B0BD10021374A1170CFE70121BB
:10472000354A1170CBE70421334A1170C7E7042BD7
:1047300003D10021304A1170C1E7052B03D10521B7
:104740002D4A1170BBE7062B03D106212A4A1170AE
:10475000B5E7072BA1D0082B0DD0092B0FD00A2BC2
:1047600011D00B2B13D00C2B15D00D2BA7D10C2156
:10477000214A1170A3E708211F4A11709FE7092100
:104780001D4A11709BE70A211B4A117097E70B2104
:10479000194A117093E71D21174A11708FE7204CB9
:1047A0000D212000244DA847244920001D4B984688
:1047B0009847114F1D4BF95C2000214EB04721490D
:1047C0002000C047204BF95C2000B0470D2120009D
:1047D000A8477DE71C4BD35C002B04D00721822324
:1047E0001B01D1540AE70D2182231B01024AD15437
:1047F00004E7C0462C080000303D0020E1690000BD
:10480000A13C000024080000340800003708000024
:10481000350800002808000094030020F0AD0000D7
:10482000B0030020F55A00003608000038080000E8
:1048300030AE0000DCAD00008554000004AE000086
:10484000F554000014AE00003A080000F0B5DE4652
:1048500057464E464546E0B5E94CA544E949EA4885
:10486000EA4B98470500EA4B1B78002B00D18EE1FC
:10487000E849E548E54B98478246E749E248E34B7B
:1048800098474279E54B1A70002D00D13FE353461B
:10489000002B00D13BE30022E14B1A70E14C0D21CB
:1048A0002000E14EB047E1492000E14FB847280021
:1048B000E04B9946984701002000DF4B9B46984704
:1048C0002C212000B047DD492000B8475046C8479A
:1048D00001002000D847DA492000B847CF4B1978AB
:1048E0002000B0470D212000B047D6492000B8472E
:1048F000D54C21003C31230000221A7001338B4239
:10490000FBD1AB1D99461F009A4500D879E20025DE
:10491000CD4B9B46C44E4B46595D5B465955C148ED
:10492000B0470135EDB20137BA45F4D8C64B9B46C6
:1049300000235A465355BB4FC4493800BC4EB047BC
:104940002800BC4B9A46984701003800C04B994656
:104950009847C0493800B0475846BF4B9847D047A2
:1049600001003800C8470D213800AF4B9847BB49BC
:104970003800B047002D00D16FE2B34B5D1926001F
:10498000A94F3178A748B8470136AE42F9D1A54DB5
:1049900020212800A44FB84728212800B84720210B
:1049A0002800B8479F4DAE4B99469F4F217828006D
:1049B000C84720212800B8470134B442F6D1994DA8
:1049C00029212800984CA0470D212800A047A5497F
:1049D0008D488E4B984705008D4B1B78002B00D1DE
:1049E000DBE0A1498848894B9847824695498D4824
:1049F0008F4B98479D4C21003C31230000221A70B8
:104A000001339942FBD1AB1D99461F009A4500D84E
:104A10002FE20025954B9B46834E4B46595D5B46E6
:104A200059558048B0470135EDB20137BA45F4D841
:104A30008E4B9B4600235A4653557A4F8349380084
:104A40007B4EB04728007B4B9A46984701003800C0
:104A50007F4B994698477F493800B04758467E4B70
:104A60009847D04701003800C8470D2138006E4BE9
:104A700098477F493800B047002D00D125E27B4B95
:104A80005D192600684F31786648B8470136AE4256
:104A9000F9D1644D20212800634FB8472821280010
:104AA000B84720212800B8476D4D5F4F21785D48F9
:104AB000A84720215B48B8470134A642F6D1594D9A
:104AC00029212800584CA0470D212800A04704ABFD
:104AD000FFA9143100221A7001339942FBD14C4BCB
:104AE0001B78002B5FD0634F4E4C39002000504D97
:104AF000A8470D2120004C4EB04753492000A8473D
:104B00000D212000B047504938005B4B98470028E2
:104B100000D0D9E059494348454B9847584F414C3C
:104B200039002000424DA8470D2120003E4EB047DD
:104B30004E492000A8470D212000B0474B493800BE
:104B40004D4B9847002800D0C3E04E493548384BBC
:104B500098474D4D4D492800354CA0474549280000
:104B6000A0474B492800A04745492800A04749498C
:104B70002800A047484B00225A6048495A504848EC
:104B8000484958501A72484C3F4DA71EC9E0354954
:104B90001D481E4B984782466FE62A211A48434B10
:104BA0009847824622E7424D0095304B264A4149BC
:104BB00004A8414CA047344C404920001C4FB84742
:104BC000164B19782000184B98473D492000B847EC
:104BD00004A8214B9847174B9847010020001C4B15
:104BE000984729002000B847FA256D002800354E67
:104BF000B04704A92000B8472800B04773E7C04673
:104C0000ECF7FFFF48AE0000393D0020D3950000CF
:104C10003847002050AE000064A90000E84600209C
:104C2000B4470020B00300208554000060AE0000AF
:104C3000F55A00009D570000BD55000070AE000001
:104C400080AE000094AE0000AC46002098AE00009C
:104C50007155000010A90000C5950000A0AE00002D
:104C6000F554000058AE0000B0AE00003C470020F4
:104C7000BCAE0000FC460020B1950000D0AE0000A4
:104C800078470020E4AE0000EC450020F0A80000CA
:104C900000A900004CAC0000303D00200C080000D2
:104CA0003075000014080000323D0020959500008A
:104CB00074A90000C8AE00005195000004A90000CE
:104CC00068A90000D17F0000AB4B9847AB4B9847D9
:104CD00024E7AB4B9847AB4B98473AE7039B012B34
:104CE00002D0002303932EE0A74B9B784B2B00D1DF
:104CF0002CE10023039326E0A34B9B78412B00D1AA
:104D0000EFE0039B022B38D00023984600229E4BF5
:104D10001A729D4B812212019A589C495B589A4203
:104D200037D8012221002800994B98473B7A002B65
:104D3000EFD0039B002BD1D1934B9E784F3E734213
:104D40005E41F3B203934346002B00D004E18E4B47
:104D50009B78462BD5D1012398460AE04346032B86
:104D600000D0C1E0884B9B784C2B00D1BFE00023E2
:104D70009846039B022BC9D104E00023984601E02A
:104D80000423984683498448844B9847022303931D
:104D900003E083498048814B9847824B1B78002B66
:104DA00000D0B0E0804C814920007C4B9847804B7C
:104DB000197820007F4B98474346042B00D1B8E078
:104DC000039B022B10D0784D7B492800734CA047E1
:104DD000FA204000794B984779492800A047FA20EB
:104DE0004000764B984792E06F4D764928006B4C17
:104DF000A047FA204000714B984773492800A0470C
:104E0000EDE7724B9A46002352461370624C70498C
:104E10002000624FB84700206E4EB04701002000CE
:104E20006D4DA8476D492000B84750466C4B9847D8
:104E3000B04701002000A8470D2120005D4DA84784
:104E400068492000B84720212000A84728212000D9
:104E5000A84720212000A847B1E54F4D2021280078
:104E6000544CA04728212800A04720212800A04713
:104E7000A5E55D4B9A46002352461370464C5449B3
:104E80002000464FB8470020524EB0470100200096
:104E9000514DA84751492000B8475046504B9847BC
:104EA000B04701002000A8470D212000414DA84730
:104EB0004E492000B84720212000A8472821200083
:104EC000A84720212000A847F9E5334D20212800DC
:104ED000384CA04728212800A04720212800A047BF
:104EE000EDE50223984644E70023984641E7039BFB
:104EF000022B00D144E73E492748284B9847294BCD
:104F00001B78002B0BD03B4B98473B4B98471F4BD4
:104F10009D443CBC90469946A246AB46F0BD224C0F
:104F2000224920001D4B9847214B19782000214B26
:104F300098471D4D31492800184CA047FA204000E1
:104F40001E4B98472E492800A04748E74346002BB0
:104F500000D117E7022303934346012B00D1CBE690
:104F60004346022B00D0F9E6074B9B78492B00D033
:104F7000C7E603239846FCE6695000000550000090
:104F800059510000F1500000303D0020140800008D
:104F90001D87000000AF0000B0030020F55A00009C
:104FA00088A9000038470020EC45002004A9000033
:104FB000E8460020855400003CAF0000D17F00008F
:104FC00044AF00002CAF000034AF0000AC4600201E
:104FD00098AE00009D5700007155000010A9000018
:104FE000C5950000A0AE00003C470020BCAE00000C
:104FF0000CAF0000A1400000054300001CAF000002
:1050000024AF0000F0B591B00F491048104B9847FD
:10501000104D114C4022694689208002A84720701B
:105020000528F7D000240D4F084E0D4D6B46E15C6E
:1050300039553000A8470134402CF7D109490348BD
:10504000034B984711B0F0BD64AF0000B0030020DF
:10505000F55A0000D5020000E9450020FC4600207A
:105060008554000074AF000070B590B0174918481F
:10507000184B9847184D194C4022694689208002E8
:10508000A84720700528F7D000231549CA5C684658
:105090001A540133402BF9D18926B602114D0F4C19
:1050A0003000A84720700528FAD00F4D0B4C402245
:1050B000694689208002A84720700528F7D00B494F
:1050C0000348044B984710B070BDC046B0AF000015
:1050D000B0030020F55A0000D5020000E945002089
:1050E000AC460020410300002D020000C4AF0000C8
:1050F000F0B591B00F491048104B9847104D114C26
:10510000402269461048A84720700528F8D000249E
:105110000E4F094E0E4D6B46E15C39553000A847E5
:105120000134402CF7D10B490348044B984711B088
:10513000F0BDC04650AF0000B0030020F55A00009B
:10514000D5020000E9450020002502007847002034
:105150008554000074AF000070B590B01549164832
:10516000164B9847164D174C402269461648A847DB
:1051700020700528F8D000231449CA5C68461A54E8
:105180000133402BF9D1104E114D0E4C3000A84781
:1051900020700528FAD00F4D0A4C402269460A4873
:1051A000A84720700528F8D00B490348034B9847BF
:1051B00010B070BD7CAF0000B0030020F55A0000B5
:1051C000D5020000E9450020002502003C470020F0
:1051D000410300002D02000094AF000010B5034B06
:1051E0009847431E9841C0B210BDC046D3950000F9
:1051F00010B5134B5A780C2A04D89300114AD3588F
:105200009F4611491148124B9847002815D0114B61
:105210000B4AD45C002C0CD10124200010BD0E4997
:10522000F0E70E49EEE70E49ECE70E49EAE70D49D3
:10523000E8E70D480D4B9847EFE70024EDE7C0463F
:10524000303D0020DCAF0000D4B20000393D00202A
:10525000D395000036080000E4B20000D8B2000088
:10526000C4B20000CCB2000010B00000155B00001A
:1052700010B5054B054AD35C002B00D110BD044886
:10528000044B9847FAE7C04636080000303D00203E
:10529000A0B20000155B000010B55D4B5D4AD35C09
:1052A000002B54D00378002B4ED00378022B4FD024
:1052B0000378012B50D00378132B51D00378062BA1
:1052C00052D00378072B53D00378082B54D003789F
:1052D000052B55D00378032B56D00378042B57D0D9
:1052E00003780D2B58D003780E2B59D003780C2B54
:1052F0005AD003780F2B5BD00378102B5CD0037847
:10530000112B5DD00378142B5ED00378152B5FD062
:105310000378122B60D00378172B61D00378162BFB
:1053200062D003781C2B63D003781A2B64D00378E7
:105330001B2B65D00378182B66D003781D2B06D164
:105340003548364B984702E03548344B984710BDF6
:105350003448324B9847FAE73348304B9847F6E7E2
:1053600032482E4B9847F2E731482C4B9847EEE7EE
:1053700030482A4B9847EAE72F48284B9847E6E7FA
:105380002E48264B9847E2E72D48244B9847DEE706
:105390002C48224B9847DAE72B48204B9847D6E712
:1053A0002A481E4B9847D2E729481C4B9847CEE71E
:1053B00028481A4B9847CAE72748184B9847C6E72A
:1053C0002648164B9847C2E72548144B9847BEE736
:1053D0002448124B9847BAE72348104B9847B6E742
:1053E00022480E4B9847B2E721480C4B9847AEE74E
:1053F00020480A4B9847AAE71F48084B9847A6E75A
:105400001E48064B9847A2E71D48044B98479EE765
:1054100036080000303D002080B20000155B00001F
:1054200030B0000044B000005CB0000070B000007C
:1054300084B00000A0B00000BCB00000D4B00000F8
:10544000F8B0000010B100002CB1000048B100001D
:1054500064B1000080B1000098B10000B0B100005C
:10546000CCB10000E0B10000F0B1000000B20000DB
:1054700018B2000030B2000040B2000050B200008C
:1054800064B2000010B589B2014B984710BDC04608
:1054900099860000092802D83030C0B270473730F2
:1054A000C0B2FBE7F8B504000009074FB84781B266
:1054B000064D2800064EB0472007000FB84781B2BE
:1054C0002800B047F8BDC04695540000B003002046
:1054D0009986000070B50400000E054DA847200213
:1054E000000EA8472004000EA847E0B2A84770BDF0
:1054F000A5540000F8B505000C000809064FB84790
:1055000081B22800054EB0472007000FB84781B28E
:105510002800B047F8BDC0469554000099860000A9
:10552000F8B50F4D5B2128000E4CA0472021280024
:10553000A04709240C4F0A4D0C4E3B681B19D97F1C
:10554000C9B22800B04720212800064B98470134F3
:105550001B2CF2D15D210248024B9847F8BDC04692
:10556000B003002099860000F82D0020F5540000BB
:10557000F0B583B001900C000804060E000F0D4D2D
:10558000A84781B201980C4FB8473007000FA847D1
:1055900081B20198B8472006000FA84781B2019850
:1055A000B8472007000FA84781B20198B84703B059
:1055B000F0BDC0469554000099860000F8B505007E
:1055C0000C000805000F094FB84781B22800084EAB
:1055D000B0472006000FB84781B22800B047200727
:1055E000000FB84781B22800B047F8BD95540000BD
:1055F00099860000302800D1C8E0312800D1C8E0E9
:105600000223322800D1C2E00133332800D1BEE0AA
:105610000133342800D1BAE00133352800D1B6E097
:105620000133362800D1B2E00133372800D1AEE093
:105630000133382800D1AAE00133392800D1A6E08F
:105640000133612800D1A2E00133622800D19EE03D
:105650000133632800D19AE00133642800D196E039
:105660000133652800D192E00133662800D18EE035
:10567000053B412800D18AE00133422800D186E071
:105680000133432800D182E0013344287FD0013325
:1056900045287CD00133462879D00133672876D05D
:1056A0000133682873D00133692870D001336A2828
:1056B0006DD001336B286AD001336C2867D0013379
:1056C0006D2864D001336E2861D001336F285ED01D
:1056D000013370285BD00133712858D00133722810
:1056E00055D00133732852D0013374284FD0013381
:1056F00075284CD00133762849D00133772846D01D
:105700000133782843D00133792840D001337A28F7
:105710003DD0133B47283AD00133482837D00133D6
:10572000492834D001334A2831D001334B282ED0B8
:1057300001334C282BD001334D2828D001334E287B
:1057400025D001334F2822D0013350281FD00133F8
:1057500051281CD00133522819D00133532816D0B8
:105760000133542813D00133552810D00133562863
:105770000DD0013357280AD00133582807D0013300
:10578000592804D05A2806D0DD3300E00023180041
:1057900070470123FBE72323F9E70000F0B5CE466D
:1057A00000B582B00600174B9946FA218900984748
:1057B0000F270401144DFA2189003000A8470B007F
:1057C000642101931800C84738400443E6B236020A
:1057D00064210198A8470B000A2101931800C847CB
:1057E00000013C4004430A210198A84738000840C2
:1057F0000F239C432043C0B2304302B004BC914607
:10580000F0BDC046A5910000B1920000F0B5DE46A3
:1058100057464E464546E0B583B03B4F3B49009066
:10582000B8470F2405013A4E38490098B0470B009D
:10583000384900931800B84720400F22914605438D
:10584000AB462D0633490098B0470B003249009310
:105850001800B84700015B46234003439A462E498F
:105860000098B0470B002D4900931800B84720401E
:1058700053464A46934303439B461A1C6B46DA71D0
:10588000D3B21B041D4325490098B0470B00FA21F1
:10589000890000931800B84700015B46234003438A
:1058A0009B46FA2189000098B0470B0064210093C1
:1058B0001800B84720405B464A4693430343984646
:1058C0001A1C6B46DA71D3B21B021D436421009887
:1058D000B0470B000A2100931800B8470001474663
:1058E000274007430A210098B04721403C004B461F
:1058F0009C430C43E4B22543280003B03CBC9046D3
:105900009946A246AB46F0BDA5910000809698004E
:10591000B192000040420F00A08601001027000055
:10592000F8B50C001500074EB04707002000B0473F
:1059300064247C4383001818400024182800B047D2
:105940000019F8BDF555000010B50400054B984747
:105950002000054B98472000044B98470022044B39
:105960001A7010BD395B0000352A0000F1270000D5
:10597000003D002070470000F0B5154B1F68154B27
:105980001B689C4600231448195CFA185D3211709C
:105990006246D2185D32117001330F2BF4D10F49DA
:1059A000002600237400A419E200A4183D196444E1
:1059B000C85CEA186D321070C85CE2186D32107065
:1059C00001331C2BF4D101361B310F2EE9D1F0BD70
:1059D000F82D002008130020B4020020040100204C
:1059E00010B50400094B984723899BB2084A93429B
:1059F00000D010BD2300074AA218198934339342FE
:105A0000FBD12000044B9847F3E7C0467D270000F8
:105A1000FFFF000050140000F526000010B5040040
:105A20000A4B98472378DBB2FF2B00D010BD220031
:105A3000002300211370517051600133DBB2343206
:105A4000642BF7D12000024B9847EFE7D52B0000DD
:105A5000392B000010B5884217D23422130043437B
:105A60000C330A4C1B190139091AC9B209185143E0
:105A700040310919064802E034338B4205D01A88B8
:105A80008242F9D801321A80F6E710BD881500204D
:105A90008713000010B50400084B1A68084BD35C4C
:105AA000012B00D010BD64210020064B9847002335
:105AB000034AA3541932A350F4E7C046F82D00203E
:105AC00027020000555A0000084B1B7883420AD079
:105AD000074A01231178814206D001333432642B06
