:1000000060520020B1670000AD670000AD670000DE
:1000100000000000000000000000000000000000E0
:10002000000000000000000000000000AD670000BC
:100030000000000000000000AD670000AD67000098
:10004000AD670000AD670000ED3E0000AD67000049
:10005000BD380000AD670000AD670000755D0000B1
:10006000855D0000955D0000A55D000000000000BA
:1000700000000000B93A0000C93A0000D93A000077
:10008000E93A0000F93A0000093B000000000000D6
:1000900000000000AD670000AD670000AD67000024
:1000A000AD67000010B5064C2378002B07D1054B37
:1000B000002B02D0044800E000BF0123237010BDD4
:1000C0003002002000000000508E0000084B10B5E8
:1000D000002B03D00749084800E000BF0748036829
:1000E000002B00D110BD064B002BFBD09847F9E741
:1000F0000000000034020020508E0000508E0000EE
:100100000000000010B51E4AD36904210B43D361DF
:100110001C4B2022FF321A831A7D0523D20701D4FB
:10012000180010BD03781B02C022920013404178D2
:10013000C901FF220A401343817849001E220A4068
:100140001343C27892048021C9020A401343027902
:100150001204C02189020A4013430A4A536093687B
:100160005B035B0F084908249C400C8093684B801C
:1001700043780B71138BDB05DB0F1B01D0E7C04607
:1001800000040040004000414C02002030B5040053
:10019000224A1088538843438B4206D28022920120
:1001A00018201F4BCB1893420ED81E4B5D6880223F
:1001B000D2022A435A602022FF321A831B7DDB07BA
:1001C00003D4184B5D60052030BD452C22D8A30018
:1001D000154AD3589F46134B1B8BDB0503D5114B98
:1001E0005D601020F0E7890849000E4BD96103E0FB
:1001F000890849000B4BD961A52000020443094B33
:100200001C80190001220B7D1342FCD0054B5D6060
:100210000020D9E7034B5D601720D5E74C02002092
:1002200000C07FFF0040004150860000F8B5254B1C
:100230001D885B886B431824834201D22000F8BDDF
:100240006B1E1842FAD1013C9542F7D31E4B1B7D21
:10025000123CDB07F2D51D4C1B4B1C801D000124FA
:100260002B7D2342FCD02024FF34174B1C83002A13
:1002700022D0012305009D430023571E09E0CE181C
:100280007678360234432C8002339BB202359A4290
:1002900004D9CC5CBB42F2DBA4B2F4E7094B1B7976
:1002A0000024002BCAD13F2AC8D800220100042014
:1002B000074B98470400C1E7024B1B790024002B31
:1002C000F3D0BBE74C0200200040004144A5FFFFF3
:1002D0008D01000070B5184B1D885B886B43182496
:1002E000834201D2200070BD6B1E1842FAD1013C3E
:1002F0009542F7D3114B1B7D123CDB07F2D520242E
:10030000FF340E4B1C83002A14D001239843002392
:10031000561E04E002339BB202309A4208D9048888
:10032000A4B2CC54B342F5DACD18240A6C70F1E7CC
:100330000024D7E70024D5E74C020020004000410C
:10034000134B1A885B8853431821834201D208005B
:1003500070479200013A1042F9D10E4B1B7D1339C0
:10036000DB07F4D50B4B2022FF321A8380084000B4
:10037000D861094A1A80190001220B7D1342FCD072
:10038000044B198B1C200140481E81418900DEE787
:100390004C0200200040004102A5FFFFF0B5D64608
:1003A0004F4680B583B004003B4B18783B4B9847D1
:1003B0000A2804D003B00CBC91469A46F0BD364BD7
:1003C0005878364B98470D28F4D1334B9878334BF7
:1003D00098470D28EED1324B1B78112BEAD12E4BCA
:1003E0001B7C0D2BE6D12C4B9A79597918792D4B22
:1003F0009847C0B26428DDD821002B4B98470500F0
:10040000FF28D7D0294B984721002800284B9A462F
:100410009847284B984701952F01E71900237B70D7
:100420001D4E307A1D4DA8478146707AA8474A462E
:1004300013010343DBB23B71B07AA8478146F07ADF
:10044000A8474A4613010343DBB27B71307BA847C0
:100450008146707BA8474A4613010343DBB2BB7158
:10046000B07BA8478146F07BA8474A461301034367
:10047000DBB2FB712000104B984720000F4B9847D0
:1004800021000198D0470E4D0D2128000D4CA047AA
:100490000D212800A0478DE7580300204D5600008D
:1004A000A6030020511B00006D27000081310000D1
:1004B000FD310000B132000049250000E1260000B6
:1004C000F002002035550000F0B5DE4657464E4696
:1004D0004546E0B583B06A4B18786A4B98470C28BC
:1004E00006D003B03CBC90469946A246AB46F0BD50
:1004F000634B5878634B98471128F2D1624B1B78B5
:10050000092B33D0032BECD15D4B9B780D2BE8D11D
:10051000002430265D4F5E48B84731005D485E4D8F
:10052000A8473A215B48A8475C4B18595C4B984751
:10053000010058485B4B9B46984720215548A847E7
:1005400028215448A847584B19595248D8472921BF
:100550005048A8475548B8470136F6B20434102C25
:10056000D9D10D214B484C4B9847BAE7444B1B7AE5
:100570000D2BB6D1424BDB78202BB2D1404EB07858
:10058000404DA84781463079A847FA27BF00474326
:100590007079A84764244443E419B079A847070058
:1005A000F079A84704190A2078430319019300241D
:1005B0003026364F3648B84731003648364DA847C2
:1005C0003A213448A847354B1859354B9847010014
:1005D0003048344B9A46984720212E48A847282176
:1005E0002C48A847304B19592A48D0472921294877
:1005F000A8472E48B8470136F6B20434102CD9D19A
:10060000244C0D212000244DA84721481F4B9B4618
:1006100098471B4B9A4699782000A8473A2120001A
:10062000A8471E4F4B469E00F0591D4B99469847D0
:10063000010020001B4B984698471D4B9847019B93
:10064000F3511348D847534699782000A8473A21D8
:100650002000A847F059C84701002000C0470D21DD
:100660002000A8470D212000A847124E3068124BE9
:1006700098473068114B98470D212000A84730E774
:10068000580300204D560000A60300200131000051
:1006900068870000F002002035550000481900204E
:1006A000F5570000C9550000E41600206C870000D3
:1006B000B132000044190020392400004921000013
:1006C00070B50A4D44212800094CA0476521280037
:1006D000A04742212800A04775212800A047672194
:1006E0002800A04720212800A04770BDF00200206C
:1006F0003555000070B5054B9847054D4F21280032
:10070000044CA0474E212800A04770BDC106000040
:10071000F00200203555000070B5074B9847074D93
:100720004F212800064CA04746212800A04746211B
:100730002800A04770BDC046C1060000F00200209E
:100740003555000010B504000C4B984788239B00DA
:10075000E35C012B0AD0012288239B00E254084B62
:1007600098470D210748084B984710BD0022882361
:100770009B00E254054B9847F3E7C0462531000043
:10078000F5060000F00200203555000019070000B2
:1007900010B5154B1878154B98470D2800D010BD93
:1007A000134B1B78032BFAD10F4B9B780D2BF6D1F3
:1007B0000D4B58780D4B984701280DD00A4B5878AF
:1007C0000A4B98470228EAD10A4C20680A4B9847FE
:1007D00020680A4B9847E2E7094C2068064B984787
:1007E0002068064B9847DAE7580300204D56000072
:1007F000A6030020180D002045070000791B00000B
:1008000044190020F0B5D6464F464646C0B506000E
:100810009B4B18789B4B98470D2804D01CBC9046E6
:100820009946A246F0BD964B5878964B98471528A6
:10083000F4D1954B1B78032BF0D1914B9B780D2B6A
:10084000ECD1924D09212800914CA047202128008D
:10085000A04720212800A04720212800A0472021D0
:100860002800A04720212800A04720212800A047D9
:1008700020212800A04720212800A047202128006F
:10088000A04720212800A04749212800A047442153
:100890002800A04720212800A04720212800A047A9
:1008A00020212800A04720212800A047542128000B
:1008B000A04750212800A04720212800A047202140
:1008C0002800A04752212800A04730212800A04737
:1008D00020212800A04720212800A047202128000F
:1008E000A04752212800A04731212800A0472021FD
:1008F0002800A04720212800A04720212800A04749
:1009000052212800A04732212800A047202128009A
:10091000A04720212800A04720212800A0475221DD
:100920002800A04733212800A04720212800A04705
:1009300020212800A04720212800A047522128007C
:10094000A04734212800A04720212800A0472021CB
:100950002800A04720212800A04752212800A047B6
:1009600035212800A04720212800A0472021280069
:10097000A04720212800A04752212800A047362167
:100980002800A04720212800A04720212800A047B8
:1009900020212800A04752212800A0473721280005
:1009A000A04720212800A04720212800A047562149
:1009B0002800A04752212800A04720212800A04756
:1009C00052212800A04753212800A0475321280086
:1009D000A04749212800A04720212800A0475221F4
:1009E0002800A04753212800A04753212800A047F2
:1009F00049212800A04720212800A04720212800C5
:100A0000A04720212800A04720212800A04720211E
:100A10002800A04720212800A04720212800A04727
:100A200020212800A04754212800A0476921280040
:100A3000A0476D212800A04765212800A04772210A
:100A40002800A04720212800A04720212800A047F7
:100A500020212800A04720212800A0470D212800A0
:100A6000A0470C4D23239946A9440B4B9A46AA4410
:100A7000074C26E020210548054B984700E1C04679
:100A8000580300204D560000A6030020F00200206D
:100A900035550000A4190020740E00004E2197481F
:100AA000974B984729219548954FB8470D21934872
:100AB000B8471036253525239C46E144554500D1DD
:100AC000F2E07378012BF4D14E218C48A0476F21BE
:100AD0008A48A0472E218948A0473078C0B2894B68
:100AE000984701008548884B984709218348A047CB
:100AF00029788248854FB84769788048B847A978EF
:100B00007E48B84720217D48A047E9787B48B84710
:100B100029797A48B84769797848B847A9797748F0
:100B2000B84720217548A047E9797448B847202183
:100B30007248A047297A7148B847697A6F48B84720
:100B400020216E48A047A97A6C48B847E97A6B48DB
:100B5000B84720216948A047297B6848B847697B86
:100B60006648B84720216548A047A97B6348B84735
:100B7000E97B6248B84720216048A047297C5F484C
:100B8000B847697C5D48B84720215C48A047A97CEC
:100B90005A48B847E97C5948B84720215748A047E8
:100BA000297D5648B847697D5448B84720215348A5
:100BB000A047A97D5148B847E97D5048B847202152
:100BC0004E48A047297E4D48B84720214B48A047B2
:100BD000697E4A48B847A97E4848B8472021474817
:100BE000A047E97E4548B847297F4448B8472021B7
:100BF0004248A047697F4148B84720213F48A04765
:100C00007B213E48A047717AC9B23C48B847317A47
:100C1000C9B23A48B84720213848A0473C21374854
:100C2000A04720213548A047717BC9B23348B84757
:100C3000317BC9B23148B8477D213048A0472021D7
:100C40002E48A047C8464B4659782C48B847202123
:100C50002A48A047EB7E287F1B021843404280B2FF
:100C60002B4B984720212548A0475B212348A047CC
:100C7000AB7F002B00D0FDE658212048204B984741
:100C80005D211E481E4FB84720211C48B847282127
:100C90001A48B84743461B78002B00D0FEE62021B7
:100CA0001648174B9847FDE61A4F1B4B3A68D15C24
:100CB000C9B2124C2000154EB04720212000104D23
:100CC000A847164B3A68D15CC9B22000B047202132
:100CD0002000A847124B3A68D15CC9B22000B04747
:100CE00020212000A8473A680E4BD15CC9B22000F1
:100CF000B0470D212000A84790E5C046F002002033
:100D000035550000F55700001556000055550000F8
:100D100009500000441900201E0200001D020000BE
:100D20001F0200002A02000070B50400204B187852
:100D3000204B9847002803D01D4B5B78202B00D018
:100D400070BD1D4B1B78062BFAD1194B5B790D2B0F
:100D5000F6D1174B1A79D9789878184B9847C0B2C2
:100D60002100174B98470500FF28E9D0154B9847FD
:100D700021002800144B9847144B98472B01E31887
:100D80005A78002A10D101325A702000104B98472F
:100D90002000104B9847210028000B4B98470D214D
:100DA0000D480E4B9847CBE700225A70EDE7C0463E
:100DB000580300204D560000A6030020511B0000E0
:100DC0006D27000081310000FD310000B1320000CC
:100DD00049250000E1260000F00200203555000002
:100DE000F0B583B00190002700240C4D0C4E08E0B4
:100DF0000D210C480A4B984700270134E4B2642CBB
:100E00000AD001992000A847032FF1D009210548F5
:100E1000B0470137FFB2F0E703B0F0BDFD3100008D
:100E200035550000F002002010B504000C4B187876
:100E30000C4B9847152800D010BD0B4B1B78022B8C
:100E4000FAD1074B5B780D2BF6D12000074B984762
:100E50002000074B98470022064B1A70ECE7C0466B
:100E6000580300204D560000A6030020E126000094
:100E7000E10D000018280020F8B504000F00544DC3
:100E80004E212800534EB0476F212800B0472E2135
:100E90002800B04728212800B04738004E4B98471B
:100EA000010028004D4B984729212800B0472021F8
:100EB0002800B0475B212800B047BF00E419238811
:100EC0009BB2474A934200D169E0E378002B00D0FF
:100ED00068E0444B98473E4E5D2130003D4DA847A9
:100EE00020213000A84728213000A84723889BB242
:100EF0003B4A934259D0208880B2374B9847010033
:100F00003348364B984729213148324FB847202182
:100F10002F48B8472288D2B2D3009B189B009B1859
:100F2000314EF618F1782A48304DA84731792848D3
:100F3000A84771792648A847B1792548A8472D21A7
:100F40002348B84752212248B847238823889BB2B8
:100F5000072B36D95F211E481E4B98472688B6B20C
:100F6000A478E4B21A4D202128001A4FB8473A213C
:100F70002800B84720212800B847F6B26400E4B240
:100F8000F3009B199B009B19174AD3181C19217A4F
:100F90002800164EB047617A2800B047F8BD0023FC
:100FA000E37092E7124B984795E7094E5F213000B6
:100FB000084DA8475F213000A8475F213000A847AF
:100FC000A1E7A1783031C9B20148024B9847C5E783
:100FD000F002002035550000F557000015560000BE
:100FE000FFFF0000A9310000A419002055550000A2
:100FF00095310000F0B5D646474680B583B0774BB3
:101000001878774B984719280BD0744B1878744B85
:101010009847192800D19FE003B00CBC90469A462F
:10102000F0BD6E4B58786E4B98471528EDD16D4B3F
:101030001B78082B47D00E2B0AD0032BE5D1674B2A
:101040009B780D2BE1D100270024674D674E77E098
:10105000624B5B7B0D2BD8D1604C62792179E078B3
:10106000634DA847604E0190010030005F4FB847C4
:10107000604B9847019B9B009846B044627A217A66
:10108000E079A84780B242461080E07A544A9246FE
:1010900090470500207BD047AB00ED186D00451947
:1010A000EDB2424695700023D3703000524B984702
:1010B0003000524B984701993000B8470D215048F5
:1010C000504B9847A1E7454B9878454B98470E28D9
:1010D0009BD1424BDB790D2B97D1404B9A795979B3
:1010E0001879434B984705003F4C010020003F4BC7
:1010F0009847404B9847AB001B19DA78002A11D16A
:101100000132DA70384C20003B4B984720003B4BB3
:10111000984729002000354B98470D213848394B16
:10112000984772E70022DA70ECE70D213448354B1E
:1011300098470024013796239B009F4200D164E723
:1011400039002800B047022CEFD009212C482D4B44
:1011500098470134E4B2EDE7224B1B78042B00D012
:101160005AE71E4B18781E4B9847192800D053E7B2
:101170001A4B58781A4B9847152800D04CE7174B54
:101180009878174B98470C2800D045E7134BDB782D
:101190000D2B00D040E71C481C4B98471C4B1B688C
:1011A0001B7C012B10D018481030184B9847184B57
:1011B0001B6801221A740D211148124B9847144BD9
:1011C0001868144B984727E70F4808300F4B98478B
:1011D0000F4B1B6800221A74EDE7C046580300202D
:1011E0004D560000A6030020AC030020790E00003D
:1011F000511B0000B1320000DD1F000085200000FF
:10120000F002002035550000708700000131000019
:10121000180D0020791B0000F8B5CE46474680B572
:101220002B4B18782B4B9847192803D00CBC9046B1
:101230009946F8BD264B5878264B98470D28F5D18E
:10124000234B9878234B98471528EFD1224B1B78D6
:10125000042BEBD11E4BDB780D2BE7D100239946F5
:101260001E4B98460EE01E4B4A46995C1D4C2000D2
:101270001D4B98470D2120001C4B98474B465F1C87
:10128000FBB299461A48C04749461648164B98473C
:1012900020211448154B98474B46DB004A469B1AC1
:1012A000DEB2B400134AA4180736B600B6180E4FC3
:1012B0000E4D6178C9B20B48B8472178C9B20948C8
:1012C000B84720210748A8470434B442F1D1CAE7FF
:1012D000580300204D560000A603002001310000F5
:1012E00084020020F0020020555500003555000012
:1012F000848700008028002010B5254B1878254BE6
:101300009847192800D010BD214B5878214B984799
:101310001C28F8D11E4B98781E4B98471128F2D103
:101320001B4BD8781B4B98471828ECD1184B1879D1
:10133000184B98472028E6D1174B1B78072BE2D192
:10134000134B9B790D2BDED1114B5879114B9847DC
:1013500020280BD1114B1B78002B03D000220F4B00
:101360001A70D0E701220D4B1A70CCE7084B587960
:10137000084B98471B28C6D1094B1B78002B03D07C
:101380000022074B1A70BEE70122054B1A70BAE71C
:10139000580300204D560000A60300200E0D00202B
:1013A00048280020F8B5DE4657464E464546E0B58B
:1013B0008146254B9B461879244B984698470F2722
:1013C00006015B465879C04738400F239A460643CA
:1013D000F3B24A4653705B469879C04700013E40DD
:1013E00006435B46D879C047384053469E43350094
:1013F0000543EBB24A4693705B46187AC04700013A
:101400003D4005435B46587AC047384053469D43AC
:101410002C000443E3B24A46D3705B46987AC04737
:1014200000013C4004435B46D87AC04738405346ED
:101430009C432043C0B24B4618713CBC9046994631
:10144000A246AB46F8BDC046580300204D560000EA
:10145000F0B5CE46474680B583B00500224B98468E
:101460001879224CA047070043465879A047204EE0
:101470007E43FA239B005843361843469879A04789
:1014800081464346D879A04707004346187AA047CB
:1014900064244B465C438619A419BB00DB195B002E
:1014A000E41823021B0E98466A46D371D17911487D
:1014B000114B994698472604360EF1B20D48C8479D
:1014C000E7B239000B48C8476C61C2234246EA5470
:1014D0000133EE540133EF540422084BEA5403B0B5
:1014E0000CBC90469946F0BD580300204D560000B4
:1014F00010270000F0020020555500001D020000DA
:10150000F8B505000A4F38790A4EB04704007879DB
:10151000B047A300E418640002382018C0B2C52305
:10152000E854EB5CDBB2AB730422034BEA54F8BD26
:10153000580300204D5600001D020000F8B50500BC
:101540000A4F38790A4EB04704007879B047A300B3
:10155000E418640005382018C0B2DE23E854EB5CC0
:10156000DBB2EB730422034BEA54F8BD58030020AE
:101570004D5600001D02000070B504000D4B984749
:101580000D4E0D2130000D4DA8470D4B9847200002
:101590000C4B984720213000A84720213000A84755
:1015A00020213000A8472000074B98472000074B18
:1015B000984770BD25310000F0020020355500002D
:1015C00051310000C94C000049210000A14D00002C
:1015D00010B5604B1878604B98471C2800D010BDA0
:1015E0005C4B58785C4B98471C28F8D880005B4BC4
:1015F0001B589F465A4B1B78032BF0D1554B9B78B9
:101600000D2BECD1574B1868574B9847E7E7544BD5
:101610001B78032BE3D14F4B9B780D2BDFD1534B22
:101620001868514B9847DAE74D4B1B78072BD6D1FA
:10163000484B9B790D2BD2D1464B9878464B984717
:1016400001280DD0434B9878434B98470228C6D1C8
:10165000464C2068464B98472068464B9847BEE763
:10166000404C2068424B98472068424B9847B6E769
:101670003B4B1B78072BB2D1364B9B790D2BAED150
:10168000344B9878344B984701280DD0314B9878DB
:10169000314B98470228A2D1344C2068364B9847EA
:1016A0002068344B98479AE72E4C2068324B984775
:1016B0002068304B984792E7294B1B780A2B00D0C3
:1016C0008DE7244B5B7A0D2B00D088E7214B98786F
:1016D000214B984701280ED01E4B98781E4B9847F7
:1016E000022800D07BE7214C2068244B98472068D3
:1016F000204B984773E71B4C2068204B9847206885
:101700001C4B98476BE7164B1B780D2B00D066E7F8
:10171000104B1B7B0D2B00D061E70E4B98780E4BC6
:10172000984701280ED00B4B98780B4B984702280E
:1017300000D054E70D4C2068114B984720680D4BA2
:1017400098474CE7074C20680D4B98472068094B99
:10175000984744E7580300204D5600008C8700004E
:10176000A60300204419002079150000180D002060
:101770003D150000791B0000011500005114000008
:10178000A513000010B51A4B18781A4B98471C285F
:1017900000D010BD164B5878164B98471128F8D139
:1017A000134B9878134B98471828F2D1104BD878E0
:1017B000104B98472028ECD10F4B1B78052BE8D114
:1017C0000B4B1B790D2BE4D10C4B1B680C4A9A5C1C
:1017D000012A06D00A4A012199540A4B1B689954E0
:1017E000D7E7074A00219954064B1B689954D0E764
:1017F000580300204D560000A60300204419002085
:1018000026020000180D0020F0B5C64600B582B0D3
:101810000400354B1878354B98471D2803D002B08B
:1018200004BC9046F0BD304B5B78202BF7D1304B99
:101830001B780B2BF3D12C4B9B7A0D2BEFD12A4E1F
:10184000B0792A4DA847FA27BF004743B846F07938
:10185000A847642747434744307AA8478046707AB0
:10186000A847C71943469D0045446D00ED193279DC
:10187000F178B0781F4B98470700C3B21E001E4B8B
:1018800098472100019630001C4EB0471C4B9847EA
:10189000FF231F403B01E3182A04120E5A72EDB2D7
:1018A0001D72FB00DB199B00DF19164BDB19DA7781
:1018B0001A00203215701900213100220A702233DB
:1018C0001A702000104B98472000104B98472100B9
:1018D0000198B0470E4D0D2128000E4CA0470D2158
:1018E0002800A0479BE7C046580300204D56000043
:1018F000A6030020511B000081310000FD310000D3
:10190000B1320000A4190020E52500006D2600007A
:10191000F00200203555000070470000002804D177
:1019200080229202034B5A61704780229202014B3F
:101930009A61F9E700440041002804D18022520254
:10194000034B5A61704780225202014B9A61F9E7BA
:101950000044004170B51C4C1C4820601C4B836146
:1019600000258E239B00C554DE3BFF3BC55401334D
:10197000C554184B9C4660440021174EB04723685D
:10198000164A9446634418000321B04723688A220C
:1019900092009446634418000021B0472368104A1F
:1019A0009446634418000021B04723680D4A9446CA
:1019B000634418000021B04723688F2292009D5095
:1019C000094A9D5470BDC04644190020F4160020F9
:1019D0005C1900201D020000F94000002A020000EE
:1019E00023020000250200002602000070B5154CFD
:1019F00015482060154B836114228E239B00C2542E
:101A0000134B9C4660440021124DA8472368124A9C
:101A10009446634418000321A84723688A22920051
:101A20009446634418000021A84723680B4A944653
:101A3000634418000021A84722680121084BD154B3
:101A400070BDC046180D0020200D00204C2800203D
:101A50001D020000F94000002A02000023020000DD
:101A600026020000F0B5C64600B582B001AC0127E1
:101A7000677000239846A3702770210017201B4E23
:101A8000B0471B4D80231B04AB6121001B20B047D6
:101A900080231B05AB6121001C20B04780235B0520
:101AA000AB6121001120B04780239B026B6143464C
:101AB000237021000020B0476F6121000120B04752
:101AC00002236B6121000B20B04780231B016B6157
:101AD00021000A20B0478023DB006B612100002039
:101AE000B0476F6102B004BC9046F0BDE159000000
:101AF0000044004170B5124C53212000114DA847FD
:101B000065212000A8476E212000A84773212000EE
:101B1000A8476F212000A84772212000A847202154
:101B20002000A8473A212000A84720212000A847EC
:101B30006E20054B984701002000044B984770BD6C
:101B4000F002002035550000F55700001556000042
:101B5000F8B50C001500074EB04707002000B0474D
:101B600064247C4383001818400024182800B047E0
:101B70000019F8BD4D56000010B50400084BC35CB9
:101B8000012B00D010BD074B98472000064B98470B
:101B90002000064B98470022054B1A70F2E7C0461A
:101BA00021020000253100003924000049210000F5
:101BB00018280020F0B5C64600B5154B1B780C2B35
:101BC00022D1144C144D16339846A044134F144E92
:101BD0002078B84728702670013401354445F7D184
:101BE000104A11491400223413781B015078034322
:101BF0000B7002320131A242F6D10B4B33221A7420
:101C00005A740022024B1A7004BC9046F0BDC046C4
:101C10001828002058030020800300204D560000A3
:101C200000880000810300201C280020F8B5DE4653
:101C300057464E464546E0B55D241E4B98461E4F1E
:101C40001E4E25005D3D454429783B681819B04774
:101C500029781B4B18680019B04701346C2CF0D15F
:101C600000239946174B9A466D22D31A984654463C
:101C70004C444E461C365644B3460F4F43461E193D
:101C800021783B6898190D4DA84721780C4B1868AE
:101C90008019A84701345C45F0D11B239C46E144E0
:101CA0009623FF339945E2D13CBC90469946A24623
:101CB000AB46F8BDB001002044190020F9400000F7
:101CC000180D002000000020F8B506005C23C35C5E
:101CD000DBB25B228354835CDBB2632B76D81D00BE
:101CE000DA00D2189200D21850498A18233212789A
:101CF000012A13D05C1CE4B2E200121992001219FE
:101D000023324A49521800210133DBB2642B5DD0E3
:101D10000D191078013125320128F5D1EA00521948
:101D200092005519414A5219D078F7217054107910
:101D300001317054507901317054907901317054EF
:101D4000D07901317054107A01317054507A0131D8
:101D50007054907A01317054D07A01317054107BF4
:101D600001317054507B0221FF317054907B01315E
:101D70007054D07B0421FF317054107C01317054B9
:101D8000507C0621FF317054907C01317054D07C1E
:101D90000821FF317054107D01317054507D0A21AB
:101DA000FF317054907D01317054D07D0C21FF3192
:101DB0007054107E01317054D07E0E21FF3170546A
:101DC000117F87225200B154B33AB3545B23F05CC5
:101DD0000130C0B2FF2823D0C3001B189B001B1882
:101DE000124AD31823331B78012B1BD001306421F6
:101DF0000F4B9847C8B263240C4D0D4FC3001B18FE
:101E00009B001B18EB1823331B78012B0AD00130E1
:101E10006421B847C8B2013CE4B2002CEED103E023
:101E20000020D9E75C23F054F8BDC046A419002077
:101E3000D974000030B55C23C35CDBB25B228354F1
:101E4000855CEDB2632D25D82B01C9180B79DBB267
:101E50009C3283544B79DBB2013283548B79DBB2F1
:101E600001328354CB79DBB201328354837BDBB202
:101E7000013283540332FC23C254F33B0B4C1A004F
:101E8000093AA15CC218F432117001331B2BF6D150
:101E90004033C5545B23C35C0133DBB2642B02D0F7
:101EA0005C22835430BD0023FAE7C0461C28002082
:101EB00010B50400094B984723899BB2084A934206
:101EC00000D010BD2300C822D200A21819891033F7
:101ED0009342FBD12000034B9847F2E76D260000A8
:101EE000FFFF0000E525000010B504000A4B9847ED
:101EF0002378DBB2FF2B00D010BD2200002300218D
:101F00001370517051600133DBB21032642BF7D182
:101F10002000024B9847EFE7E1260000492500002A
:101F2000884216D20301D3180139091AC9B2013007
:101F3000081800011218074802E01033934208D035
:101F4000998989B28142F8D89989013189B29981F8
:101F5000F3E770470F27000070B504000A000E4D2C
:101F6000405D01388300C0188300C018C0B2010072
:101F70001931C9B2094B9847635DDBB2032B05D910
:101F80000023054AA3541932A35070BD635D013389
:101F9000DBB26355F9E7C04627020000211F0000AD
:101FA00010B50A4B1B7820229343572B00D010BD4D
:101FB000363B064AD35C202293435A2BF7D1143A7E
:101FC000034B1A700348044B9847F0E7580300206E
:101FD000182800200488000001310000F0B5D64622
:101FE000474680B5204CA54402AE96210901330036
:101FF000B446614442781A7002785A7082789A70B6
:10200000C278DA70043004338B42F3D1174B01935A
:102010009824240102AB9C466444154B9846154F06
:102020000023F25C1A550133402BFAD10198C047C6
:1020300038700528FAD0104B9A460E4D40222100E8
:102040000198D04728700528F8D0019B0133FF3351
:102050001A0001934036094B9A42E1D1084B9D4446
:102060000CBC90469A46F0BD34F6FFFF0017020004
:1020700041030000492800202D020000003D02001D
:10208000CC090000F0B5D64600B51D4CA544019022
:1020900002AE37001B4B009398242401B4466444DD
:1020A000194B9A46194D402221000098D0472870BC
:1020B0000528F8D000231A5DFA540133402BFAD1D9
:1020C0004037009B0133FF331A000093104B9A42B4
:1020D000E9D1019D9622120102AB9C4662443378FD
:1020E0006B7073782B70B378AB70F378EB70043649
:1020F00004359642F3D1074B9D4404BC9246F0BD93
:1021000038F6FFFF00170200D50200004928002022
:10211000003D0200C809000000B583B000226B46F4
:102120001A70074B5B68DB061B0F69468B70CA7021
:102130000A714A706846034B984703B000BDC04619
:102140000040004105010000F0B5DE4657464E460E
:102150004546E0B593B00400AA4EAB4D402202A91B
:10216000AA48B04728700528F8D08E218900635C02
:10217000DBB202AAD25C635C02A98C4663445B7842
:10218000A373552A00D0DAE0A37BDBB2C5216354E8
:102190008E239B00E35C63449B78E373E37BDBB2B9
:1021A000DE2163548E239B00E15C02A884466144D7
:1021B000C978A175E15C614409796175E35C6344A8
:1021C0005B792375552A00D0CAE0A37DDBB2C2211A
:1021D0006354637DDBB201316354237DDBB2013193
:1021E00063548E208000235C63449B79882189009E
:1021F0006354235C63449B7963548E239B00E15CAE
:1022000002A884466144C87981490870E15C614450
:10221000097A6171E15C6144497AA171E15C6144D0
:10222000897AE171E15C6144C97A2172E35C6344BB
:102230001B7B2374552A00D0B0E0764B1B689C4270
:1022400000D1AEE04E217448744EB047562172481A
:10225000B0474D217048B0473A216F48B047202120
:102260006D48B0478E25AD00635DDBB202AAD15C3C
:1022700069486B4FB84720216748B047635D02AAA1
:102280009446634459786448B84720216248B0476F
:10229000635D02AA9446634499785F48B847202159
:1022A0005D48B047635D02AA94466344D9785A48B2
:1022B000B847635D02AA9446634419795648B84703
:1022C000635D02AA9446634459795348B847202174
:1022D0005148B047635D02AA9446634499794E48D9
:1022E000B84720214C48B047635D02AA9446634436
:1022F000D9794948B84720214748B0476179C9B2E0
:102300004548B847A179C9B24348B847E179C9B24D
:102310004148B847217AC9B23F48B84720213E48D2
:10232000B047217CC9B23C48B8470D213A48B04774
:1023300013B03CBC90469946A246AB46F0BDC523BF
:10234000E35CDBB2A3738E239B00E35C02A98C46A3
:1023500063449B78E373DE23E35CDBB2E37321E742
:10236000C223E35CDBB2A375C323E35CDBB263751A
:10237000C423E35CDBB223758E218900635C02A871
:1023800084466344987988239B00E0540120E054FC
:10239000615C61448979E154E0542EE700232374A1
:1023A0004BE7322602AB9C4666440025FF271D4BB7
:1023B0009B461D4B9A461D4B9946A0460FE01C4B71
:1023C000EB1800221A605346EC181A4B5843C821E8
:1023D000C900C847206002360435102D0FD0307870
:1023E000009BBB43184373781B02384018436B466D
:1023F000188080B25845E2D00D4B5851E3E744466F
:1024000020E7C046D502000049280020000D020048
:102410007C28002044190020F002002035550000DF
:1024200055550000FFFF0000E4160020F971000080
:10243000481900201027000070B590B004003A4EF3
:102440003A4D402269463A48B04728700528F8D0EE
:102450008E239B00E25CD2B2552168468154E25C37
:10246000A17B6A445170E25CE17B6A449170E25C5A
:10247000A17D6A44D170E25C617D6A441171E25CC5
:10248000217D6A445171E25C88218900615C6A4463
:102490009171E25C6A44274909780131D171E25CAB
:1024A00061786A441172E25CA1786A445172E25C1C
:1024B000E1786A449172E25C21796A44D172E35C0A
:1024C000227C6B441A731C4B1B689C4212D0184E22
:1024D0001A4D164C3000A84720700528FAD0184D28
:1024E000124C402269461248A84720700528F8D0AF
:1024F00010B070BD134B1A6832214254120A0131D8
:1025000042545A6801314254120A013142549A68C5
:1025100001314254120A01314254DB68382283549B
:102520001B0A01328354D2E7D5020000492800205B
:10253000000D02007C280020441900204103000007
:102540002D02000048190020F0B5D646474680B558
:10255000204CA54402AE98A9330002781A70427844
:102560005A7002799A704279DA7082791A71C27956
:102570005A71103006338B42EFD1FA235B0201937C
:10258000A2AC154B9846154F0023F25C1A55013347
:10259000402BFAD10198C04738700528FAD0104B6B
:1025A0009A460E4D402221000198D04728700528F8
:1025B000F8D0019B0133FF331A0001934036FF230B
:1025C0005B029A42E0D1B3239B009D440CBC904631
:1025D0009A46F0BD34FDFFFF41030000492800206A
:1025E0002D020000F0B5D646474680B5D3B002AE06
:1025F00034A93300427A1A70027A5A7010300233CA
:102600008B42F7D1144B019342AC144B9846144FB4
:102610000023F25C1A550133402BFAD10198C047D0
:1026200038700528FAD00F4B9A460D4D40222100F4
:102630000198D04728700528F8D0019B0133FF335B
:102640001A0001934036084B9A42E1D153B00CBCBA
:1026500090469A46F0BDC046000E020041030000BD
:10266000492800202D02000000120200F0B5C646E5
:1026700000B5D2B0019002AF3C00154B009342ADC3
:10268000144E154B9846402229000098B047434607
:1026900018700528F7D000235A5DE2540133402B0F
:1026A000FAD14034009B0133FF331A0000930B4BE7
:1026B0009A42E8D1019C34AA3B7863727B782372FA
:1026C000023710349742F7D152B004BC9046F0BDA7
:1026D000000E0200D502000049280020001202006E
:1026E000F0B5C64600B51E4CA544019002AF3C00B3
:1026F000FA235B020093A2AD1A4E1B4B9846402270
:1027000029000098B047434618700528F7D00023E9
:102710005A5DE2540133402BFAD14034009B01331F
:10272000FF331A000093FF235B029A42E7D1019C1A
:1027300098AA3B7823707B786370BB782371FB7811
:1027400063713B79A3717B79E3710637103497424B
:10275000EFD1B2239B009D4404BC9046F0BDC0461F
:1027600038FDFFFFD5020000492800200B78DBB2BE
:1027700098420BD0103101220B78DBB2834206D095
:1027800001321031642AF7D1FF2001E00022D0B2DB
:1027900070470000F0B5C64600B584B00400437829
:1027A000DBB2F72283548378DBB201328354C378DF
:1027B000DBB2013283540379DBB20132835400224D
:1027C000FB23C254D53BC35CDBB2C5328354835C6C
:1027D000DBB28373D94BC35C012B00D1EEE0D84B45
:1027E0001D682B041B0CD74A1360D44BE35C012BF0
:1027F00000D1FAE0D34ED44D3068A847D34FB84744
:1028000001903068A847B84702903068A847B84799
:102810000390CF4FCF490198B847011CCE48CF4B0A
:102820009847051C03990298B847CD49B847011C41
:10283000281CCC4B9847CC4B9847306003041B0EA8
:10284000D9B2FC22A354C5B2FD23E554BB4BE35CD3
:10285000012B00D1DEE0C54B1D682B041B0CC44AC4
:102860001360B64BE35C012B00D1DFE0B54B1B6876
:10287000CB22D200934200D9EDE0BD4DBD482B687C
:102880005843BD4B9C4660446421BC4B984728602C
:10289000B74B1D682A04120ED1B2FE202254EDB2AD
:1028A000FF23E554A54BE35C012B00D1D3E1B44BEE
:1028B0001D682A04120ED1B2802040002254EDB2CD
:1028C0000223FF33E5549D4BE35C012B00D1CEE1A5
:1028D000AC4B1D682A04120ED1B281204000225454
:1028E000EDB20423FF33E554944BE35C012B00D19C
:1028F000C9E1A54B1D682A04120ED1B28220400006
:102900002254EDB20623FF33E5548C4BE35C012BDC
:1029100000D1C4E19D4B1D682A04120ED1B2832060
:1029200040002254EDB20823FF33E554834BE35CAF
:10293000012B00D1BFE1964B1D682B041B0EDEB2AC
:1029400084225200A354EDB20A23FF33E5547B4B9B
:10295000E35C012B00D1BAE1794B1D682A04120E09
:10296000D1B2852040002254EDB20C23FF33E55450
:10297000724BE35C012B00D1BBE16E2286235B002E
:10298000E25400250E23FF33E5540133E5542000C3
:10299000804B98476A4B1D60744B1D60784B1D60DF
:1029A000784B1D60784B1D60784B1D60784B1D6027
:1029B000794B1D6004B004BC9046F0BD774E0D21EC
:1029C0003000774DA84759213000A84765213000D5
:1029D000A84773213000A84709213000A847714B50
:1029E00098470D213000A847F9E66C4E5B21300076
:1029F0006B4FB8472904090E30006B4B9846984737
:102A0000E9B23000C0475D213000B84720213000D6
:102A1000B847EFE6614E3000634FB84729003000F9
:102A2000B847202130005E4B984714E75B4E5B218E
:102A300030005B4FB8472904090E30005A4B9846C6
:102A40009847E9B23000C0475D213000B8472021E7
:102A50003000B8470AE7554A93420CD8444D2B68DA
:102A6000D800C01AC000524B9C4660440A21434B18
:102A7000984728600CE74F4A93420DD83C4D2B688D
:102A8000D800C01AC000C01A4B4B9C4660440A21B3
:102A90003A4B98472860FBE6484A93420BD8344D9E
:102AA00036202B685843464B9C4660440A21334BE2
:102AB00098472860ECE6A422120193420DD82C4DD1
:102AC0002B681801C0184001C01A3E4B9C46604458
:102AD00064212A4B98472860DAE63B4A93420BD898
:102AE000234D35202B685843384B9C4660440A21BF
:102AF000224B98472860CBE6354A93420DD81C4DAF
:102B00002B685800C0180301C018324B9C46604423
:102B10000A211A4B98472860BAE62F4A93425DD89B
:102B2000134D32202B685843C823DB009C46604479
:102B30000A21124B98472860AAE6C04626020000E8
:102B400044280020EC310020698300006D6D0000F6
:102B5000E17C000000441D4700F65147217F000042
:102B60000090EC45DD750000AD7500006C0F002095
:102B7000E83100203D020000A01BFEFFF9710000BB
:102B8000D4160020DC160020E0160020702800205B
:102B9000801900200D410000A0190020F002002043
:102BA00035550000815500005555000052070000C2
:102BB00060D7FFFF4C080000F8DFFFFF4609000068
:102BC0004AE3FFFF4403FFFF3A0B0000FCEFFFFF67
:102BD000340C0000EEF8FFFF2E0D00004C4A93422B
:102BE0000DD84C4D2B68D800C31AD800C01A4A4BD8
:102BF0009C4660440A21494B9847286048E6484A69
:102C000093420DD8434D2B68D800C31AD800C01A80
:102C1000444B9C4660440A21404B9847286037E665
:102C2000414A93420BD83B4D30202B6858433F4BD1
:102C30009C4660440A21394B9847286028E6354D68
:102C400030202B685843394B9C4660440A21334B53
:102C5000984728601CE6364E3000364FB8472900AA
:102C60003000B84720213000334B98471FE6304EE4
:102C70003000304FB84729003000B84720213000DD
:102C80002D4B984724E62A4E30002A4FB84729009A
:102C90003000B84720213000274B984729E6244EC2
:102CA0003000244FB84729003000B84720213000B9
:102CB000214B98472EE61E4E30001E4FB847290084
:102CC0003000B847202130001B4B984733E62821BD
:102CD0001748194FB84731001548164EB04729001C
:102CE0001348B04729211248B84720211048B84757
:102CF00032E60F4E30000F4FB84729003000B8477A
:102D00000D2130000C4DA8470D213000A84734E6B6
:102D1000280E0000E83100202A080000F9710000A8
:102D2000220F0000A60900001C100000540B000038
:102D3000F0020020555500003555000010B5040084
:102D4000084BC35C012B00D010BD80221205064B3E
:102D50005A61064B9847064BE0180621054B9847E9
:102D6000F2E7C0462302000000440041A13E0000FB
:102D70001D020000F940000010B5084B5843FA212D
:102D80008900074B9847C8235B00984200D218007F
:102D9000FA23DB00984200D9180010BD0D02000094
:102DA000F9710000F0B5D6464F464646C0B5B44D61
:102DB00030212800B34CA0470D212800A047002354
:102DC000B14A1360B14A1370B14DAD4CB14E0122FE
:102DD00029002000B047AC4B1B68052B00D1E1E077
:102DE000AA4B1B78182BF2D1AB4C27001837AB4EEF
:102DF000A44D21783000A8470134BC42F9D10D21FF
:102E0000A648A04B98470020A54CA047A54B1860AA
:102E10000120A047A44B18600420A047A34B1860D2
:102E20000520A047A24B18600620A047A14B1860C0
:102E30000720A047A04B1860A04B1A68A04BD35C9A
:102E4000012B00D1BDE09F4B1B68002B00D008E197
:102E5000944B1A689B4B1A609B4B1B68002B00D04D
:102E600006E1914B1A68984B1A60904F3868974E5C
:102E7000B0479138FF38964D2B685843954C96498A
:102E8000A047814638608A4F3868B0479138FF388C
:102E90006B6858439049A04780463860854B9A46F6
:102EA0001868B0479138FF38AB6858438A49A04743
:102EB000070053461860804B9A461868B0470300D5
:102EC000913BFF3BE86858438349A047534618604D
:102ED000824B1B68994502D9804B4A461A60804B49
:102EE0001B68984502D97E4B42461A607D4B1B6891
:102EF0009F4201D97B4B1F607B4B1B68984201D9D5
:102F0000794B18606D4B1A686D4BD35C012B4FD118
:102F1000644B1868754FB8470100604C2000744E30
:102F2000B04720212000574DA8475F4B1868B8478D
:102F300001002000B04720212000A8475B4B186803
:102F4000B84701002000B04720212000A847584B77
:102F50001868B84701002000B04720212000A8478A
:102F6000544B1868B84701002000B04720212000CA
:102F7000A847514B1868B84701002000B0472021EE
:102F80002000A8477B212000A8475A4B1868B84763
:102F900001002000B0477D212000A8470D2120001E
:102FA000A84705E0454B1A68454BD35C012B04D07C
:102FB0001CBC90469946A246F0BD4F484F4B9847DF
:102FC000F6E7384B1868494FB8470100334C2000EA
:102FD000474EB047202120002A4DA847324B1868A1
:102FE000B84701002000B04720212000A8472F4B00
:102FF0001868B84701002000B04720212000A847EA
:103000002B4B1868B84701002000B0472021200052
:10301000A847284B1868B84701002000B047202176
:103020002000A847244B1868B84701002000B0478B
:1030300020212000A8477B212000A8472D4B18689D
:10304000B84701002000B0477D212000A84720217B
:103050002000A8477C212000A84720212000A84765
:10306000F1E6104A12689B185B08164A1360F3E6F3
:103070000D4A12689B185B08134A1360F5E6C046B8
:103080004C28002035550000680F0020D81600207D
:10309000A80300208D60000084190020F0020020A9
:1030A00065330000B415002014030020B015002083
:1030B0003C190020100D0020581900204419002050
:1030C00026020000442800206C0F0020792D00000B
:1030D000E4160020F971000010270000D41600202B
:1030E000DC160020E016002070280020F5570000B4
:1030F000C9550000A019002010880000013100000F
:1031000070B50178002908D00400044E044D300049
:10311000A847013421780029F9D170BDF0020020C0
:103120003555000010B5064B1B68834203D0054897
:10313000054B984710BD0548034B9847FAE7C04632
:103140004419002074880000013100006C880000E0
:1031500010B50248024B984710BDC0464088000099
:103160000131000010B50348034B9847034B9847C3
:1031700010BDC0467C8800000131000051310000C4
:1031800010B50248024B984710BDC0465C8800004D
:103190000131000010B545210148024B984710BD90
:1031A000F00200203555000010B520210148024BE7
:1031B000984710BDF002002035550000F8B5070013
:1031C0000C000A4D20212800094EB0473901611832
:1031D0004B7A087A1B021843064B984701002800D7
:1031E000054B984720212800B047F8BDF002002089
:1031F00035550000F5570000C9550000F0B583B003
:1032000004000E002048214B9847009425010196A8
:10321000B44665442878C0B21D4B984701001D4C48
:1032200020001D4B9847202120001C4EB0472979D3
:10323000C9B220001A4FB8476979C9B22000B8470F
:10324000A979C9B22000B847E979C9B22000B847C6
:1032500020212000B04701990098124B9847202167
:103260002000B0475B212000B0476B78012B07D0CE
:103270000D4B98475D210748084B984703B0F0BDB8
:103280000A4B9847F6E7C04620880000013100004D
:10329000F5570000F00200201556000035550000DB
:1032A00055550000BD310000A931000095310000E6
:1032B00010B50248024B984710BDC0463888000040
:1032C000013100007047000000B583B000236A465A
:1032D0001370012269464A7003328A700B710B33F6
:1032E000CB70023B4B716846014B984703B000BD61
:1032F000A13D000010B500210348044B9847002071
:10330000034B984710BDC046C5320000B93E0000CF
:10331000CD3E000010B58CB068460E4B98470E4C61
:103320006A460E4920000E4B98472268537E5BB2D6
:10333000002BFBDB0F2393751376137802210B43CD
:103340001370054B1A68537E5BB2002BFBDB0CB08D
:1033500010BDC046F1330000742800200040004238
:103360003934000030B5204B19680B691F22934394
:103370000B610B69184308614B7E5BB2002BFBDBD2
:103380000B7B022213430B734B7E5BB2002BFBDBE8
:1033900001200425022401E010420AD10B7EDBB299
:1033A00002001A401D4200D022431C42F4D02A439E
:1033B000F2E74B7E5BB2002BFBDB488B80B20B4B02
:1033C000188001230B760A7ED2B21340540701D530
:1033D00002242343920701D5042213435B0701D53E
:1033E00002230B7630BDC046742800205202002014
:1033F00010B500220023027042700021428001714A
:1034000003760262C261826007240473C0246401EF
:10341000C481037443748374C37403752A240355ED
:1034200043758375063C0355C2840285C1752B2301
:10343000C1540133C15410BDF0B5DE4657464E4667
:103440004546E0B597B0070016000160C94A106A0A
:1034500080235B02034313620B780520DB0706D54C
:1034600017B03CBC90469946A246AB46F0BD0B78DF
:1034700017309B07F4D473783B71002B04D1BE4AFC
:10348000136C04210B431364BC4B1B681B041B0F00
:1034900098463B689B4633786A4613706946172006
:1034A000B74B98471720B74B98472C23F25C002A5C
:1034B0005AD0013BF55C337BEB18DBB2D118C9B2B3
:1034C0008B4227D25219D3B29946AF4B9A4633005A
:1034D0004E46B9461F0003E00135EDB2AE4217D0AB
:1034E0000F242C403B7BE4185022A84902A8D04767
:1034F000132CF1D8A40002ABE05801A900234B70B3
:10350000CB708B7001330B70C0B2A14B9847E3E7CF
:103510003E004F46F48950229C4902A89A4B984796
:10352000132C13D9737D9B00DBB25A461370B37D05
:10353000DB0172781343DBB25A4653703379342B74
:1035400000D98CE19B00934AD3589F46A40002AB5C
:10355000E05801A900234B70CB708B7001330B70C6
:10356000C0B28B4B9847DDE7347B5022874902A8D5
:10357000854B9847132C15D9F4895022834902A80A
:10358000814B9847132CCDD8A40002ABE05801A979
:1035900000234B70CB708B7001330B70C0B27C4B2F
:1035A0009847BFE7A40002ABE05801A900234B7085
:1035B000CB708B7001330B70C0B2754B9847DBE753
:1035C00004231024022122E0717C337C10241EE0AD
:1035D0004346022B00D8C4E006231024012116E044
:1035E0004346022B00D8C0E00823102400210EE03F
:1035F0000023302400210AE000232024002106E0DB
:1036000000230024002102E00223102401210901EB
:1036100070220A4013435A469370F37D17203F2BC4
:1036200000D91DE7D3703A68537E5BB2002BFBDBF9
:10363000F37C728813432422B25CD2001343327DA0
:1036400092001343B27C5200134323435A469380A3
:10365000337E002B20D0102C00D1E2E000D8A1E076
:10366000202C00D1BFE0302C16D1F27C002A0AD0E9
:10367000F26980321720FF2A00D9F1E6326A8032DF
:10368000FF2A00D9ECE61720F269FF2A00DDE7E601
:10369000326AFF2A00DDE3E639684A7E52B2002A28
:1036A000FBDB5A4613723A68537E5BB2002BFBDB9E
:1036B000B38B5A4693833A68537E5BB2002BFBDB95
:1036C000338C5A4613842C23F35C002B05D0013B2A
:1036D000DBB217200F2B00D9C2E62B22B15C1720DA
:1036E0000F2900D9BCE63868427E52B2002AFBDBC3
:1036F000F289307B0243B068024309050A431B0488
:1037000013435A4613612A23F35C13750F239375F1
:103710001533F35C002B12D0F38C1F4A1720934211
:1037200000D99DE65A469384328D80231B01D3181D
:1037300019499BB28B4200D992E65B46DA84174B5B
:103740001B685B01E022D2001340154A5168490111
:103750001268D20E0A43D2B213435A461385002090
:103760007EE606231024032151E7082310240421B8
:103770004DE7C0460004004000080040182000410A
:1037800025660000996500003D8600006489000000
:103790004D67000090880000FF0F0000246080004B
:1037A00020608000002C00D076E7F27C002A0FD049
:1037B000F269802109018C4662442A4917208A4215
:1037C00000D94DE6326A624426498A4200D947E66A
:1037D000244A1720F169914200DD41E6316A9142A5
:1037E00000DD3DE658E7F27C002A0FD0F269802127
:1037F00089008C4662441C4917208A4200D92FE672
:10380000326A624418498A4200D929E6164A1720CA
:10381000F169914200DD23E6316A914200DD1FE645
:103820003AE7F27C002A0FD0F269802109028C4627
:1038300062440E4917208A4200D911E6326A624476
:103840000A498A4200D90BE6084A1720F1699142D9
:1038500000DD05E6316A914200DD01E61CE7172034
:10386000FEE5C046FF0F0000FF030000FFFF000061
:103870001723002A01D0180070478B00064A9B5876
:10388000002B03D0834205D01D23F4E78900885024
:103890000023F0E70023EEE7F4310020172300298E
:1038A00001D01800704700221F2800D8024A0123C7
:1038B0008340D3600023F4E70018004070B5002275
:1038C000104B1A70002310491F25104E0D4C0AE0B2
:1038D0000D4908E023780133DBB223700F2B10D899
:1038E00000211F2BF4D928001840012282400869CA
:1038F0001042EFD00A619B009B59002BEAD09847F9
:10390000E8E770BDF031002000180040F4310020DD
:10391000044A137802210B43137053785BB2002BD7
:10392000FBDB70470018004000B583B0124A936972
:1039300040210B43936101A900230B7003200F4B1F
:10394000984703200E4B98470E4A137801210B43EA
:10395000137053785BB2002BFBDB0B4B190040312B
:10396000002204C39942FCD11022084B1A60084B74
:10397000984703B000BDC046000400402566000023
:103980009965000000180040F431002000E100E0DB
:103990001139000000230360436001220272427269
:1039A00083720233C3727047F0B583B005000C0018
:1039B00001A900234B70CB7023790B70237A8B7095
:1039C0002078154B984700201F2D00D81348072258
:1039D0002A409200E77AA37A002B01D008231F43E4
:1039E000EB089B00C31899690F269640B143974096
:1039F0003A000A439A61637A002B06D14369012297
:103A0000AA409343436103B0F0BD42690123AB4038
:103A100013434361F7E7C0464D67000000180040BC
:103A2000931C9B001950022A09D0032A0CD00123B1
:103A300093401A00037E1343037600207047037EF1
:103A4000102213430376F8E7037E20221343037604
:103A5000F3E7000070B58000164BC45823689D7BC7
:103A6000227E637E13401D40EB0706D4AB070BD4C8
:103A7000EB0610D4AB0615D470BD2000A3689847A0
:103A8000012322689373F1E72000E368984702233B
:103A900022689373ECE7200023699847102322687B
:103AA0009373E7E7200063699847236820229A739D
:103AB000E2E7C0463432002010B50020014B9847A1
:103AC00010BDC046553A000010B50120014B984783
:103AD00010BDC046553A000010B50220014B984772
:103AE00010BDC046553A000010B50320014B984761
:103AF00010BDC046553A000010B50420014B984750
:103B000010BDC046553A000010B50520014B98473E
:103B100010BDC046553A000030B587B00B4B6A4621
:103B200032CB32C232CB32C2009B98420BD001233F
:103B30009A0069465258824206D00133062BF7D1CB
:103B4000002007B030BD0023D8B2FAE7B4890000E6
:103B5000F0B5C64600B588B004000D001600080098
:103B6000884B9847804606AB13221A705A70013270
:103B70009A70DA7001321A715A7103AA824B1833A3
:103B800083CB83C20023A360E36023616361237658
:103B9000637643469A007D4BD4502560B378082B5A
:103BA00008D023712B880520DB0708D508B004BC9A
:103BB0009046F0BD17204246D207F7D4F1E7EB7BE1
:103BC0001730DB06F2D42B889B07EFD4337C002B15
:103BD00000D07BE0337F002B00D083E06C49086A83
:103BE00043465A0003ABD35A03430B62B378082B06
:103BF00000D187E001A933780B7006AB42469F5C89
:103C00003800644B98473800634B98473189B38834
:103C10000B43B178B279114319437378002B02D06A
:103C200080231B0119432268D37B5BB2002BFBDB93
:103C30002980717B4B1E99418900B37B002B01D0F9
:103C4000012319432268D37B5BB2002BFBDBFF23EC
:103C50002B71002905D02268D37B5BB2002BFBDBE4
:103C60006971B17AF37A002B01D010231943337BA9
:103C7000002B01D0202319432268D37B5BB2002B99
:103C8000FBDBA9712268D37B5BB2002BFBDB2379C2
:103C9000042B40D0082B5FD01720002B00D085E7E5
:103CA000D37B5BB2002BFBDB338D2B822268D37B73
:103CB0005BB2002BFBDB738D2B832268D37B5BB263
:103CC000002BFBDBB38D6B8300206FE702A9012380
:103CD0008B700022CA70327E0A704B70307D2F4B81
:103CE000984777E702A901238B700022CA7024321B
:103CF000B21812780A704B701F33F3181878274BDC
:103D000098476BE7086A43465A1C520003ABD35AE4
:103D100003430B626EE7D37B5BB2002BFBDB2823F4
:103D2000F35C2B742268D37B5BB2002BFBDB292373
:103D3000F35C2B752268D37B5BB2002BFBDB2A2361
:103D4000F35C2B762268D37B5BB2002BFBDB2B234F
:103D5000F35C6B76002029E7D37B5BB2002BFBDBA7
:103D6000B36A2B612268D37B5BB2002BFBDBF36A67
:103D7000AB612268D37B5BB2002BFBDB336BEB6167
:103D8000002013E7193B0000B48900003432002002
:103D90000004004025660000996500004D670000A2
:103DA00010B582B00400394A936910210B43936126
:103DB000374B1B785BB21020002B03DBE378073016
:103DC000002B01D102B010BD22799A42FAD8627953
:103DD0009A42F7D82E4A13780E398B431370D37951
:103DE0005BB2002BFBDB63780020002BEAD001A93B
:103DF000A3780B700130274B98470120264B98473A
:103E00002378002B27D1E378013B2279002A26D0A2
:103E10001F490A78042002430A702279013A82403D
:103E200013431B49CA7952B2002AFBDBDBB2184AA2
:103E300053706379002B18D12378002B1FD0144ABC
:103E4000137880210B431370114AD3795BB2002B96
:103E5000FBDB0020B6E70120104B9847D3E70C4965
:103E60000A78042082430A70DBE71100CA7952B253
:103E7000002AFBDB013BDBB2054A9370DCE7044A16
:103E8000137802210B431370DEE7C04600040040A4
:103E900000100040256600009965000041660000A2
:103EA000A522044B1A721A00D3795BB2002BFBDBFC
:103EB0007047C04600100040002901D0172070470D
:103EC000014B18600020FAE74C320020002801D096
:103ED000172070470122034B5A710332024B1A60BC
:103EE000F7E7C0460010004000E100E010B50122F5
:103EF000034B9A71034B1B68002B00D0984710BDF1
:103F0000001000404C32002010B5074B1868074BDA
:103F1000C35C002B00D010BD044B9C4660440121C3
:103F2000034B9847F7E7C0464419002023020000DE
:103F3000F940000010B5074B1868074BC35C002B15
:103F400000D010BD044B9C4660440121034B9847B0
:103F5000F7E7C046180D002023020000F9400000DA
:103F6000F0B585B001AC20000B4B98470B230193B3
:103F70000025656025720127E77221000B20074E9E
:103F8000B0470723019365602572E772210007207F
:103F9000B04705B0F0BDC04695390000A939000012
:103FA00070B500220B210748074DA84700210B20C0
:103FB000064CA047002207210548A84700210720FA
:103FC000A04770BD093F0000713800009D38000017
:103FD000353F0000F8B504003F4B1B68834204D016
:103FE0003E4B1B6898423BD0F8BD00203C4FB84781
:103FF000FA26760030003B4DA8470120B847300034
:10400000A84700228F239B00E250374BE35C002B34
:1040100005D0354B0021E154E25C002AFBD1334B43
:10402000E35C032B05D0314B0321E154E25C032A0E
:10403000FBD18A239B00E35C002B06D08A239B00E4
:104040000021E154E25C002AFBD1294BE35C002B08
:10405000CAD0274B0021E154E25C002AFBD1C3E720
:104060000020244FB847FA26760030001D4DA8479F
:104070000120B8473000A8471B4BE35C002B05D05C
:10408000194B0021E154E25C002AFBD1174BE35CA1
:10409000032B05D0154B0321E154E25C032AFBD12D
:1040A0008A239B00E35C002B06D08A239B0000211F
:1040B000E154E25C002AFBD10D4BE35C002B05D000
:1040C0000B4B0021E154E25C002AFBD100228F233C
:1040D0009B00E25088E7C04644190020180D0020DC
:1040E0001D190000415900001D0200002A020000B5
:1040F00023020000391900000378DBB2994204D092
:1041000001700378DBB28B42FAD170470422044B72
:10411000C254023A034BC2540022063BC2547047B9
:104120001D0200002A020000F8B5040000228F23BF
:104130009B00C25005001C35264F1E00A0690122BD
:104140002900B847A259F423FF339A4215D8A37F18
:10415000627FDBB29342F1D300238D229200A35001
:104160000832A3501C4BE35C682B2ED01A4B6821FD
:10417000E154E25C682AFBD127E08D239B00E258E2
:104180000132E250E250E358022B1FD8134BE25C9D
:10419000D2B2114BE35CDBB2934205D00E496254BC
:1041A000635CDBB29A42FAD10D4E282130000D4DEE
:1041B000A84754213000A84729213000A8472000F3
:1041C000094B98472000094B9847F8BD2000084B41
:1041D0009847F4E78D6000001D0200001E020000F9
:1041E000F002002035550000054C0000A94C0000ED
:1041F000D53F0000F0B5CE46474680B583B00700F6
:10420000884643185D331B78DBB26A46D371D57993
:10421000EDB2002D12D00023002548004044C2001A
:10422000801838186A46D11DC2186D321278554070
:104230000133DBB20A78D2B29A42F5D84346FB1872
:104240005D331A78D2B26B4607331B78DBB29A42E1
:1042500006D06B46D91D0A700B78DBB29A42FAD1B0
:104260006B4607331B78002B16D0002443465E00B4
:104270004644F300F618BE192C4B9946B869331919
:104280006D331978C9B2C8470134E4B26B460733BD
:104290001B78DBB2A342F1D8B8692900234B9847B9
:1042A00088239B00FB5C012B04D003B00CBC904620
:1042B0009946F0BD4346FB185D331A78D2B26B467F
:1042C00007331B78DBB29A4206D06B46D91D0A70C1
:1042D0000B78DBB29A42FAD16B4607331B78002B7E
:1042E0001AD0002443465B004344DA009B18FF18B1
:1042F0000F4E3B196D331978C9B230000D4B9847FA
:1043000020213000094B98470134E4B26B46073353
:104310001B78DBB2A342ECD8054C29002000054BEA
:1043200098470D212000014B9847BEE73555000006
:10433000F00200205555000010B50400837F002BCB
:1043400004D00022A277A37F002BFBD1637F042B34
:1043500004D004226277637F042BFBD10521200067
:10436000024B98472000024B984710BDF5410000D2
:104370002941000010B50400837F002B04D00022E7
:10438000A277A37F002BFBD1637F1D2B04D01D22BE
:104390006277637F1D2BFBD106212000024B9847DB
:1043A0002000024B984710BDF54100002941000054
:1043B00010B50400837F002B04D00022A277A37FD6
:1043C000002BFBD1637F042B04D004226277637F30
:1043D000042BFBD1C123E35CDBB28B4205D0C122AD
:1043E000A154A35CDBB29942FAD103212000034B14
:1043F00098472000024B984710BDC046F541000089
:104400002941000010B50400837F002B04D0002256
:10441000A277A37F002BFBD1637F042B04D004225F
:104420006277637F042BFBD104212000024B984765
:104430002000024B984710BDF541000029410000C3
:1044400010B50400837F002B04D00022A277A37F45
:10445000002BFBD1637F092B04D009226277637F95
:10446000092BFBD100212000024B98472000024B72
:10447000984710BDF54100002941000010B5040027
:10448000837F002B04D00022A277A37F002BFBD1D7
:10449000637F042B04D004226277637F042BFBD15B
:1044A00001212000024B98472000024B984710BD85
:1044B000F54100002941000030B52323C35CDBB285
:1044C00003702425435DDBB243702524035DDBB21A
:1044D00083702621435CDBB2C3702722835CDBB28E
:1044E0000371435DDBB24372035DDBB28372435CF5
:1044F000DBB2C372835CDBB203734379DBB2FF2BA5
:1045000011D043794278DBB2934219D04379DBB2C0
:1045100043708379DBB28370C379DBB2C370037AF3
:10452000DBB2037130BD8379DBB2FF2BE9D1C379F4
:10453000DBB2FF2BE5D1037ADBB2FF2BE1D1F1E750
:1045400083798278DBB29342E0D1C379C278DBB25F
:104550009342DBD1037A0279DBB29342D6D1E1E711
:10456000F0B583B00400806921001C310122BD4BED
:104570009847BD4B9847BD4BE35CDBB2732B68D8C3
:104580009B00BB4AD3589F46BA4BE35C012B05D036
:10459000B84B0121E154E25C012AFBD100228F23B8
:1045A0009B00E250B44BE35CDBB2032B00D163E22F
:1045B000042B00D154E2022B4BD1AC4BE35C052B16
:1045C00047D0AA4B0521E154E25C052AFBD140E02B
:1045D000A84BE35C002B05D0A64B0021E154E25C24
:1045E000002AFBD12000A54B98472000A44B9847F8
:1045F0009E4BE35C012B05D09C4B0121E154E25C16
:10460000012AFBD19B4BE35C002B05D0994B002189
:10461000E154E25C002AFBD19A4BE35C012B05D00C
:10462000984B0121E154E25C012AFBD1964BE35CFB
:10463000042B05D0944B0421E154E25C042AFBD105
:1046400020008F4B98472000904B98472000904BBC
:10465000984703B0F0BD8F4BE35C002B05D08D4B2A
:104660000021E154E25C002AFBD12000844B9847F2
:104670002000894B98477D4BE35C742B05D07B4B26
:104680007421E154E25C742AFBD100228F239B0049
:10469000E25080221205814B9A61DAE7794BE35CA4
:1046A000062B05D0774B0621E154E25C062AFBD1AC
:1046B000754BE35C642B05D0734B6421E154E25CE1
:1046C000642AFBD120006E4B98472000744B98471A
:1046D0002000744B9847BCE7664BE35C002B05D089
:1046E000644B0021E154E25C002AFBD1654BE35CA2
:1046F000042B05D0634B0421E154E25C042AFBD176
:10470000614BE35C032B05D05F4B0321E154E25C7A
:10471000032AFBD120005A4B98472000624B984750
:104720002000624B984794E7524BE35C002B05D086
:10473000504B0021E154E25C002AFBD1514BE35C79
:10474000032B05D04F4B0321E154E25C032AFBD13C
:104750004D4BE35C722B05D04B4B7221E154E25C74
:10476000722AFBD12000464B98472000504B9847B7
:10477000414BE35CDBB2032B00D167E1042B00D19A
:1047800069E1022B00D064E702212000494B9847E1
:104790005FE720003A4B98472000474B9847334B40
:1047A000E35C6B2B00D154E7304B6B21E154E25CAE
:1047B0006B2AFBD14DE78F239B00E358142B00D8C5
:1047C00047E73E4BE35C002B2DD03D4BE25C0132D2
:1047D000D2B2E254E35CDBB29A4205D0384962546B
:1047E000635CDBB29A42FAD1354BE35CDBB2022B5D
:1047F00033D8244BE25CD2B21C4BE35CDBB29A426E
:1048000005D01A496254635CDBB29A42FAD12D4D4D
:10481000282128002C4CA04743212800A04729210B
:104820002800A04715E7184BE25CD2B20F4BE35CBF
:10483000DBB29A4205D00D496254635CDBB29A4206
:10484000FAD11F4BE35C002B00D102E71C4B002187
:10485000E154E25C002AFBD1FBE620001B4B9847A9
:10486000F7E6C0468D600000A13E00001D0200007A
:10487000D8890000210200002A020000B94400008B
:10488000054C00001E0200001F020000E94E00005F
:104890007D44000023020000694F000000440041F5
:1048A000494F000075430000294F000005440000F7
:1048B000094F0000B1430000894C000022020000B3
:1048C00029020000F002002035550000D53F00000D
:1048D0002000A54B984788239B00E35C012B09D05F
:1048E00000226B46DA71A37F013B002B25DD0026F9
:1048F000002512E009219D489D4B9847F0E7A61935
:10490000F17F6B46DA1DDB794B4013700135EDB258
:104910002E00A37F013B9D420FDA88239B00E35CBE
:10492000012BECD1A319D97FC9B29048914B98477C
:1049300020218E488E4B9847E1E788239B00E35C5B
:10494000012B26D0A37F013BE318DB7F6A460732A9
:104950001278DBB293423FD02000874B9847874BB9
:10496000E35C012B05D0854B0121E154E25C012A77
:10497000FBD100228F239B00E250814BE35C712B23
:1049800000D166E67E4B7121E154E25C712AFBD1D5
:104990005FE6764D2D212800754EB0472021280076
:1049A000B047A37F013BE318D97FC9B22800714FFC
:1049B000B84720212800B047A17FC9B22800B847D6
:1049C00020212800B0476B46D979C9B22800B847E2
:1049D00020212800B047B5E720006A4B9847674B75
:1049E000E35C002BC5D0654B0021E154E25C002A5A
:1049F000FBD1BEE700228F239B00E250624BE35CB9
:104A0000002B05D0604B0021E154E25C002AFBD171
:104A10005E4BE35C002B05D05C4B0021E154E25C73
:104A2000002AFBD15A4BE35C692B05D0584B692116
:104A3000E154E25C692AFBD120004B4B98472000EF
:104A4000544B98472000544B984702E6032120001E
:104A5000524B9847FDE503212000504B9847F8E55D
:104A6000474BE35C662B00D1F3E5454B6621E154EF
:104A7000E25C662AFBD1ECE5414BE35C732B00D191
:104A8000E7E53F4B7321E154E25C732AFBD1E0E59B
:104A90002000434B9847DCE580221204414B5A61C9
:104AA0003A4BE35C052B05D0384B0521E154E25C21
:104AB000052AFBD1364BE35C6C2B05D0344B6C21C3
:104AC000E154E25C6C2AFBD12000274B9847200080
:104AD000354B98472000354B9847BAE5344BE35C9B
:104AE000012B00D0B5E5334B984720001E4B98476B
:104AF0002000314B98472E4BE35C002B05D02C4B0C
:104B00000021E154E25C002AFBD11D4BE35C652BE4
:104B100005D01B4B6521E154E25C652AFBD10022E4
:104B20008F239B00E25094E5802212041D4B9A6172
:104B300020000D4B98472000204B9847104BE35C1A
:104B4000042B05D00E4B0421E154E25C042AFBD176
:104B50001B4BE35C032B00D17BE5194B0321E15494
:104B6000E25C032AFBD174E5054C0000F002002052
:104B70003555000055550000C94F000022020000C5
:104B80001D020000E94F0000210200001E0200008B
:104B90001F020000694C000041440000B1430000C6
:104BA0003D2D000000440041894F000039430000C2
:104BB00023020000A13E000059500000A94F000050
:104BC0002A02000010B5064B1B68834203D005483B
:104BD000054B984710BD0548034B9847FAE7C04678
:104BE00044190020548C000001310000408C00006A
:104BF00010B50248024B984710BDC046748C0000A7
:104C00000131000010B5114B1B68834204D0104BDA
:104C10001B6898420DD010BD882292009B5C002B2F
:104C2000F9D023210B480C4B98470C480C4B984764
:104C3000F1E788239B00C35C002BECD023210548BF
:104C4000054B98470748064B9847E4E7441900206E
:104C5000180D0020F0020020355500006C8800007F
:104C6000013100007488000010B588239B00C35CEC
:104C7000002B00D110BD0248024B9847FAE7C0460E
:104C8000BC8C00000131000010B588239B00C35C80
:104C9000002B00D110BD0248024B9847FAE7C046EE
:104CA000CC8B00000131000010B588239B00C35C51
:104CB000002B00D110BD0248024B9847FAE7C046CE
:104CC000D08C000001310000F0B5C64600B50600EA
:104CD0002A482B4B984698473178C9B2294C200076
:104CE000294DA84709212000284FB847284B98474D
:104CF0000D212000B8472748C0477178C9B220006D
:104D0000A847B178C9B22000A847F178C9B22000FD
:104D1000A8473179C9B22000A84709212000B84727
:104D20001D48C0477179C9B22000A847B179C9B2FE
:104D30002000A847F179C9B22000A847317AC9B24A
:104D40002000A84709212000B8471448C047717ABD
:104D5000C9B22000A847B17AC9B22000A847F17AA9
:104D6000C9B22000A847317BC9B22000A8470D2155
:104D70002000B84704BC9046F0BDC046108C00002F
:104D800001310000F00200205555000035550000AB
:104D9000F51A00001C8C0000DC8C0000688C000000
:104DA000F0B5D6464F464646C0B582B005004048ED
:104DB000404B98472B7C012B6CD03F4804303D4B37
:104DC00098470D213D483E4B98473E48394B984700
:104DD00088239B00EB5C012B60D037480430354BB7
:104DE00098470D213548364B98473748314B9847FF
:104DF0006B7B022B56D0304810302E4B98472F4CEF
:104E00000D2120002E4EB04730482A4FB847686920
:104E10002F4B984780460102090E20002D4B9946E2
:104E2000984743461904090E2000C8472E21200048
:104E3000B04743466A46D371D1792000C8471E4B1C
:104E4000984618001430B8470D212000B04722487A
:104E5000B847A87B0230214B9A46984701002000B2
:104E60001F4B9946984740461C30B8470D212000FB
:104E7000B0471C48B847E87B0530D0470100200008
:104E8000C8470D212000B04702B01CBC904699468F
:104E9000A246F0BD0848074B984792E70648054BE5
:104EA00098479EE704480C30024B9847A7E7C04656
:104EB0008C8C000001310000A88B0000F002002063
:104EC00035550000F08B0000808C0000048C000041
:104ED0006558000055550000988C0000F5570000FB
:104EE000C9550000C48C000010B588239B00C35C2A
:104EF000002B00D110BD0248024B9847FAE7C0468C
:104F0000288C00000131000010B588239B00C35C91
:104F1000002B00D110BD0248024B9847FAE7C0466B
:104F2000008D00000131000010B588239B00C35C98
:104F3000002B00D110BD0248024B9847FAE7C0464B
:104F4000088D00000131000010B588239B00C35C70
:104F5000002B00D110BD0248024B9847FAE7C0462B
:104F6000B48C00000131000010B588239B00C35CA5
:104F7000002B00D110BD0248024B9847FAE7C0460B
:104F8000A88C00000131000010B588239B00C35C91
:104F9000002B00D110BD0248024B9847FAE7C046EB
:104FA000F88C00000131000010B588239B00C35C21
:104FB000002B00D110BD0248024B9847FAE7C046CB
:104FC000348C00000131000010B588239B00C35CC5
:104FD000002B00D110BD0248024B9847FAE7C046AB
:104FE000D88B00000131000010B588239B00C35C02
:104FF000002B00D110BD0248024B9847FAE7C0468B
:10500000E48B00000131000030B583B001900E4CFC
:10501000202120000D4DA8472D212000A8470198F0
:105020000B4B9847010020000A4B98472021200095
:10503000A84764212000A84742212000A8476D21ED
:105040002000A84703B030BDF00200203555000015
:10505000F5570000C955000010B588239B00C35CBC
:10506000002B00D110BD0248024B9847FAE7C0461A
:10507000E88C000001310000124B1B68124A9A5C58
:10508000002A07D1902292009A58042A14D90121AB
:105090000D4A9954912292009A58082A04D89121D5
:1050A00089005A5801325A50084B1B68042B02D809
:1050B0000133064A13607047902189005A58013223
:1050C0005A50E7E74419002027020000EC020020B4
:1050D00010B501220F491048104B9847104B1B6820
:1050E0008F22920099580F4A914204D88F2189004B
:1050F0005A5801325A500C4B1B688F229200995813
:10510000084A914204D88F2189005A5801325A50D6
:1051100010BDC046E8020020F00200208D600000B3
:10512000441900201F4E0000180D002010B58EB04D
:1051300001AA002300219370138100205070917206
:10514000D17211739173517311745361936111771B
:10515000136253621385013313708023DB00938045
:1051600020239371123353859385134C13492000E8
:10517000134B98472268D37B5BB2002BFBDB138871
:1051800002210B43138001AAE023DB00938020233C
:1051900093711233538593850A4C0B492000084BB9
:1051A00098472268D37B5BB2002BFBDB138802217C
:1051B0000B4313800EB010BD1803002000280042DE
:1051C000513B0000B816002000240042F0B5D6463E
:1051D0004F464646C0B51A4C03221A4920001A4BC6
:1051E0009A4698472068194B99469847184B984615
:1051F0001B5C1F26334001252A009A40154F3A6058
:10520000637E202213436376236820225A73124C54
:105210001E3A12492000D0472068C84743461B5C0D
:105220001E40B5403D60637E1022134363762368C1
:1052300010225A731CBC90469946A246F0BDC04647
:1052400018030020D1500000213A0000193B000053
:10525000108D000000E100E0B81600207950000039
:1052600010B5024B9847024B984710BD2D510000D6
:10527000CD510000104B1B78182B0ED800210F4A7F
:1052800011600F4A1278532A08D00133DBB20A4961
:105290000B700C49CA54182B07D070470022064BDC
:1052A0001A705332074B1A70F7E70D2AF5D0002217
:1052B000054B1A70F1E7C046D8160020680F002091
:1052C000A8030020841900200D0D0020174B1B7827
:1052D000002B10D1164B1B78164A12781649CA5467
:1052E000212B02D8013312490B700D2A04D0082A51
:1052F0000ED00A2A14D070470D4B1B78012B03D90E
:105300000C3A0A4B1A70F6E70022094B1A70F2E7C2
:10531000074B1B78022BEED9023B054A1370EAE7D4
:10532000034A1378013B1370E5E7C0461C0D0020CB
:10533000A6030020E80200205803002010B50C4B03
:105340001868837F427FDBB2934200D910BD837F10
:10535000017FC9B21F33C018064CA047044B186820
:10536000817F0131C9B281771E30A047EEE7C04688
:1053700044190020F940000030B58DB08023DB05D2
:10538000009300230193FF2269460A818B72CB723E
:1053900001220A754A758B75CB7506930B774B778F
:1053A000E1235B020493C4239B03039301235B4229
:1053B000089309933A4B0A933A4B0B933A4D3B4C63
:1053C0006A463B492800A0470028F9D1364D2C6891
:1053D0002000384B98471F2318401E3B8340364A15
:1053E00013602A68138A1BB2002BFBDB236802229E
:1053F00013432360E1235B020493C4239B030393C1
:1054000001235B42089309932C4B0A932C4B0B937B
:105410002C4D264C6A462C492800A0470028F9D17B
:10542000284D2C682000234B98471F2318401E3B13
:105430008340214A13602A68138A1BB2002BFBDBCE
:105440002368022213432360E1235B020493802339
:105450005B0303931D4B08931D4B099301235B4290
:105460000A930B931B4D114C6A461B492800A04719
:105470000028F9D1174D2C6820000E4B98471F23A8
:1054800018401E3B83400C4A13602A68138A1BB2E3
:10549000002BFBDB23680222134323600DB030BDD9
:1054A0000200120002001300F0020020B55D0000AF
:1054B000000C0042515D000000E100E002000E001F
:1054C00002000F005C1900200010004202000800DA
:1054D000020009004C28002000080042F8B50E4EDA
:1054E00001220E4930000E4FB8470E4D01220E49E1
:1054F0002800B8470D4C01220D492000B847212350
:105500000221F25C0A43F254EA5C0A43EA54E25C88
:105510000A43E254F8BDC046F0020020CD5200001C
:10552000756000005C1900203D5300004C280020ED
:105530007552000010B589B2014B984710BDC046A6
:1055400009600000092802D83030C0B270473730F7
:10555000C0B2FBE7F8B505000C000809064FB847D4
:1055600081B22800054EB0472007000FB84781B22E
:105570002800B047F8BDC04645550000096000004E
:10558000F8B50D4D5B2128000C4CA04720212800C8
:10559000A0470B4C250012350A4F084E21780648CB
:1055A000B84720210448B0470134A542F6D15D2117
:1055B0000148024B9847F8BDF00200200960000046
:1055C0001C28002055550000F0B583B001900C0058
:1055D0000804060E000F0D4DA84781B201980C4F2C
:1055E000B8473007000FA84781B20198B847200696
:1055F000000FA84781B20198B8472007000FA847BD
:1056000081B20198B84703B0F0BDC04645550000CF
:1056100009600000F8B505000C000805000F094FEF
:10562000B84781B22800084EB0472006000FB8479F
:1056300081B22800B0472007000FB84781B2280088
:10564000B047F8BD4555000009600000302800D182
:10565000C8E0312800D1C8E00223322800D1C2E0DE
:105660000133332800D1BEE00133342800D1BAE041
:105670000133352800D1B6E00133362800D1B2E03D
:105680000133372800D1AEE00133382800D1AAE039
:105690000133392800D1A6E00133612800D1A2E00E
:1056A0000133622800D19EE00133632800D19AE0E3
:1056B0000133642800D196E00133652800D192E0DF
:1056C0000133662800D18EE0053B412800D18AE0F5
:1056D0000133422800D186E00133432800D182E023
:1056E000013344287FD0013345287CD0013346283C
:1056F00079D00133672876D00133682873D001331D
:10570000692870D001336A286DD001336B286AD0C4
:1057100001336C2867D001336D2864D001336E28C3
:1057200061D001336F285ED0013370285BD0013324
:10573000712858D00133722855D00133732852D0C4
:10574000013374284FD0013375284CD001337628AB
:1057500049D00133772846D00133782843D001332C
:10576000792840D001337A283DD0133B47283AD0DE
:105770000133482837D00133492834D001334A282F
:1057800031D001334B282ED001334C282BD001339C
:105790004D2828D001334E2825D001334F2822D060
:1057A000013350281FD0013351281CD00133522817
:1057B00019D00133532816D00133542813D00133A4
:1057C000552810D0013356280DD0013357280AD060
:1057D0000133582807D00133592804D05A2806D05D
:1057E000DD3300E00023180070470123FBE723238B
:1057F000F9E70000F0B5CE4600B582B00600174BC1
:105800009946FA21890098470F270401144DFA217F
:1058100089003000A8470B00642101931800C84795
:1058200038400443E6B2360264210198A8470B00D1
:105830000A2101931800C84700013C4004430A2193
:105840000198A847380008400F239C432043C0B26A
:10585000304302B004BC9146F0BDC046F97100006F
:1058600005730000F0B5CE46474680B583B00F23E0
:1058700099460F241F4B98461F49019098470700EF
:1058800027403D041D4E1C490198B0470B00FA21EA
:10589000890001931800C04700010743FA218900DD
:1058A0000198B0470B00642101931800C0472040C5
:1058B0004A4697430743FBB21B021D4364210198EC
:1058C000B0470B000A2101931800C0470001274090
:1058D00007430A210198B04721403C004B469C43B6
:1058E0000C43E4B22543280003B00CBC9046994613
:1058F000F0BDC046F97100001027000005730000DC
:1059000070B50020084B98470500084CFA21890023
:10591000A047074B186007492800A047064B1860AE
:105920000522064B1A6070BD0D650000F97100007C
:10593000C001002040420F00C401002010E000E040
:1059400030B5084B1C68084A0025802149020138FF
:1059500007D3002CFBD05460956013680B42FCD039
:10596000F5E730BDC001002010E000E00C4B1B68E3
:10597000002B06D1EFF31083002B07D00022094B38
:105980001A70074A136801331360704772B6BFF389
:105990005F8F0022044B1A700132024B1A70F0E73D
:1059A0005402002058020020C8010020084B1A6849
:1059B000013A1A601B68002B09D1064B1B78002B9B
:1059C00005D00122044B1A70BFF35F8F62B6704797
:1059D0005402002058020020C80100207047000037
:1059E00000B583B001AB80221A700A785A704A78E9
:1059F0009A708A78DA701900014B984703B000BD9D
:105A00004D670000F0B5DE4657464E464546E0B5C8
:105A100087B08046049116001F0000220023002159
:105A20008B463F2401202100009601975C46039499
:105A30004446059413E02024641A0500E540A84676
:105A400014E0009C019D121BAB415C464D462C436B
:105A5000A346039C45462C430394013925D32024B7
:105A600064420C19E7D40500A540A84604008C4008
:105A7000A14692185B4114001D00059E4F463E4012
:105A8000B446049E47463E40B246664657463E43AD
:105A900003D00600264332002B00009C019D9D424E
:105AA000DBD8CED19442D8D8CBE7039B5846190017
:105AB00007B03CBC90469946A246AB46F0BD10B537
:105AC000490840230024814202D2180010BD1C0066
:105AD000091A631C9BB28842F9D94023FF2CF4D8E1
