S01200005348485F53454E534F522E73726563F6
S1130000D8620020792700007527000075270000BA
S113001000000000000000000000000000000000DC
S11300200000000000000000000000007527000030
S11300300000000000000000752700007527000084
S1130040752700007527000075270000752700003C
S1130050210600007527000075270000A51C00007C
S1130060B51C0000C51C0000D51C0000E51C0000E8
S1130070F51C00001D0800002D0800003D080000CC
S11300804D0800005D0800006D0800007D080000B8
S11300908D080000752700007527000075270000F3
S11300A07527000010B5064C2378002B07D1054BAB
S11300B0002B02D0044800E000BF0123237010BDD0
S11300C05C01002000000000FC300000084B10B56B
S11300D0002B03D00749084800E000BF0748036825
S11300E0002B00D110BD064B002BFBD09847F9E73D
S11300F00000000060010020FC300000FC30000023
S11301000000000010B58CB068460E4B98470E4CAA
S11301106A460E4920000E4B98472268537E5BB214
S1130120002BFBDB0F2393751376137802210B430B
S11301301370054B1A68537E5BB2002BFBDB0CB0CB
S113014010BDC046550100004C4200200040004252
S11301509D01000010B500220023027042700021AE
S11301604280017103760262C26182600373C0241B
S11301706401C481037443748374C37403752A24AF
S1130180035543758375063C0355C2840285C175C6
S11301902B23C1540133C15410BD0000F0B5DE4619
S11301A057464E464546E0B597B007001600016035
S11301B0C94A106A80235B02034313620B7805204B
S11301C0DB0706D517B03CBC90469946A246AB4621
S11301D0F0BD0B7817309B07F4D473783B71002B78
S11301E004D1BE4A136C04210B431364BC4B1B683B
S11301F01B041B0F98463B689B4633786A46137072
S113020069461720B74B98471720B74B98472C23BC
S1130210F25C002A5AD0013BF55C337BEB18DBB26D
S1130220D118C9B28B4227D25219D3B29946AF4BD7
S11302309A4633004E46B9461F0003E00135EDB23D
S1130240AE4217D00F242C403B7BE4185022A8491F
S113025002A8D047132CF1D8A40002ABE05801A99E
S113026000234B70CB708B7001330B70C0B2A14B69
S11302709847E3E73E004F46F48950229C4902A880
S11302809A4B9847132C13D9737D9B00DBB25A46C3
S11302901370B37DDB0172781343DBB25A4653709B
S11302A03379342B00D98CE19B00934AD3589F4671
S11302B0A40002ABE05801A900234B70CB708B70F3
S11302C001330B70C0B28B4B9847DDE7347B50226F
S11302D0874902A8854B9847132C15D9F4895022D5
S11302E0834902A8814B9847132CCDD8A40002ABB4
S11302F0E05801A900234B70CB708B7001330B7055
S1130300C0B27C4B9847BFE7A40002ABE05801A9F8
S113031000234B70CB708B7001330B70C0B2754BE4
S11303209847DBE704231024022122E0717C337C0C
S113033010241EE04346022B00D8C4E006231024F8
S1130340012116E04346022B00D8C0E00823102404
S113035000210EE00023302400210AE000232024A1
S1130360002106E000230024002102E002231024DF
S11303700121090170220A4013435A469370F37D08
S113038017203F2B00D91DE7D3703A68537E5BB228
S1130390002BFBDBF37C728813432422B25CD20073
S11303A01343327D92001343B27C52001343234320
S11303B05A469380337E002B20D0102C00D1E2E0EB
S11303C000D8A1E0202C00D1BFE0302C16D1F27C63
S11303D0002A0AD0F26980321720FF2A00D9F1E6F8
S11303E0326A8032FF2A00D9ECE61720F269FF2A2C
S11303F000DDE7E6326AFF2A00DDE3E639684A7E7B
S113040052B2002AFBDB5A4613723A68537E5BB23F
S1130410002BFBDBB38B5A4693833A68537E5BB263
S1130420002BFBDB338C5A4613842C23F35C002B08
S113043005D0013BDBB217200F2B00D9C2E62B22DB
S1130440B15C17200F2900D9BCE63868427E52B24D
S1130450002AFBDBF289307B0243B06802430905C2
S11304600A431B0413435A4613612A23F35C13758E
S11304700F2393751533F35C002B12D0F38C1F4AB2
S11304801720934200D99DE65A469384328D8023E7
S11304901B01D31819499BB28B4200D992E65B46E3
S11304A0DA84174B1B685B01E022D2001340154A23
S11304B0516849011268D20E0A43D2B213435A4614
S11304C0138500207EE606231024032151E7082328
S11304D0102404214DE7C0460004004000080040F9
S11304E0182000411D26000091250000B52B0000B6
S11304F09C2C000015270000C82B0000FF0F0000F3
S11305002460800020608000002C00D076E7F27C1C
S1130510002A0FD0F269802109018C4662442A49DD
S113052017208A4200D94DE6326A624426498A423B
S113053000D947E6244A1720F169914200DD41E6DB
S1130540316A914200DD3DE658E7F27C002A0FD083
S1130550F269802189008C4662441C4917208A4232
S113056000D92FE6326A624418498A4200D929E642
S1130570164A1720F169914200DD23E6316A91425F
S113058000DD1FE63AE7F27C002A0FD0F2698021F1
S113059009028C4662440E4917208A4200D911E6AA
S11305A0326A62440A498A4200D90BE6084A172093
S11305B0F169914200DD05E6316A914200DD01E610
S11305C01CE71720FEE5C046FF0F0000FF030000F4
S11305D0FFFF00001723002A01D0180070478B008A
S11305E0064A9B58002B03D0834205D01D23F4E711
S11305F0890088500023F0E70023EEE758420020EA
S11306001723002901D01800704700221F2800D8A2
S1130610024A01238340D3600023F4E7001800401A
S113062070B50022104B1A70002310491F25104E7C
S11306300D4C0AE00D4908E023780133DBB2237046
S11306400F2B10D800211F2BF4D9280018400122A9
S1130650824008691042EFD00A619B009B59002B2D
S1130660EAD09847E8E770BD5442002000180040E3
S113067058420020044A137802210B431370537824
S11306805BB2002BFBDB70470018004000B583B061
S1130690124A936940210B43936101A900230B7013
S11306A003200F4B984703200E4B98470E4A1378AC
S11306B001210B43137053785BB2002BFBDB0B4B14
S11306C019004031002204C39942FCD11022084B86
S11306D01A60084B984703B000BDC04600040040B0
S11306E01D260000912500000018004058420020FB
S11306F000E100E07506000000230360436001226E
S11307000272427283720233C3727047F0B583B0CF
S113071005000C0001A900234B70CB7023790B70EA
S1130720237A8B702078154B984700201F2D00D812
S1130730134807222A409200E77AA37A002B01D0BB
S113074008231F43EB089B00C31899690F269640A2
S1130750B14397403A000A439A61637A002B06D169
S113076043690122AA409343436103B0F0BD426947
S11307700123AB4013434361F7E7C046152700004C
S113078000180040931C9B001950022A09D0032A28
S11307900CD0012393401A00037E134303760020F8
S11307A07047037E102213430376F8E7037E20226A
S11307B013430376F3E7000070B58000164BC4586A
S11307C023689D7B227E637E13401D40EB0706D485
S11307D0AB070BD4EB0610D4AB0615D470BD2000C8
S11307E0A3689847012322689373F1E72000E36824
S11307F09847022322689373ECE720002369984703
S1130800102322689373E7E72000636998472368FD
S113081020229A73E2E7C0469842002010B50020D7
S1130820014B984710BDC046B907000010B5012020
S1130830014B984710BDC046B907000010B502200F
S1130840014B984710BDC046B907000010B50320FE
S1130850014B984710BDC046B907000010B50420ED
S1130860014B984710BDC046B907000010B50520DC
S1130870014B984710BDC046B907000010B50620CB
S1130880014B984710BDC046B907000010B50720BA
S1130890014B984710BDC046B907000030B589B078
S11308A00C4B6A4632CB32C232CB32C212CB12C2AA
S11308B0009B98420BD001239A0069465258824209
S11308C006D00133082BF7D1002009B030BD002336
S11308D0D8B2FAE7EC2C0000F0B589B004000D00A2
S11308E016000800874B9847070006AB13221A70BE
S11308F05A7001329A70DA7001321A715A710132E7
S11309009A71DA71063A8049203102A87F4B9847E0
S11309100023A360E3602361636123766376BA00F6
S11309207B4BD4502560B378082B06D023712B88D9
S11309300520DB0705D509B0F0BD1720FA07FAD466
S1130940F4E7EB7B1730DB06F5D42B889B07F2D456
S1130950337C002B00D07AE0337F002B00D082E080
S11309606C49086A7A0002ABD35A03430B62B3782A
S1130970082B00D187E033786A46137006ABDF5D3D
S113098069463800644B98473800644B984731896E
S1130990B3880B43B178B279114319437378002BB0
S11309A002D080231B0119432268D37B5BB2002B46
S11309B0FBDB2980717B4B1E99418900B37B002BA3
S11309C001D0012319432268D37B5BB2002BFBDBEC
S11309D0FF232B71002905D02268D37B5BB2002B47
S11309E0FBDB6971B17AF37A002B01D01023194330
S11309F0337B002B01D0202319432268D37B5BB2C5
S1130A00002BFBDBA9712268D37B5BB2002BFBDBE1
S1130A102379042B3FD0082B5ED01720002B00D065
S1130A2089E7D37B5BB2002BFBDB338D2B822268FF
S1130A30D37B5BB2002BFBDB738D2B832268D37BD0
S1130A405BB2002BFBDBB38D6B83002073E701A942
S1130A5001238B700022CA70327E0A704B70307D85
S1130A602F4B984778E701A901238B700022CA70A5
S1130A702432B21812780A704B701F33F3181878A6
S1130A80274B98476CE7086A7A1C520002ABD35A8A
S1130A9003430B626FE7D37B5BB2002BFBDB2823A2
S1130AA0F35C2B742268D37B5BB2002BFBDB292322
S1130AB0F35C2B752268D37B5BB2002BFBDB2A2310
S1130AC0F35C2B762268D37B5BB2002BFBDB2B23FE
S1130AD0F35C6B7600202EE7D37B5BB2002BFBDB51
S1130AE0B36A2B612268D37B5BB2002BFBDBF36A16
S1130AF0AB612268D37B5BB2002BFBDB336BEB6116
S1130B00002018E79D080000EC2C0000B52B000025
S1130B1098420020000400401D260000912500009A
S1130B2015270000034B1B78002B02D10122014B37
S1130B301A7070472442002010B584B001AC200024
S1130B40074B98470B2301930023636023720133FF
S1130B50E37221000B20034B984704B010BDC0463C
S1130B60F90600000D07000010B500220B2104480F
S1130B70044B984700210B20034B984710BDC046F7
S1130B80250B0000D505000001060000F8B5A04BB8
S1130B901A78692A17D893009E4AD3589F469E4DC7
S1130BA0522128009D4CA04764212800A047202101
S1130BB02800A04749212800A04744212800A04735
S1130BC009212800A047F8BD934C43212000934DF0
S1130BD0A84761212000A84774212000A847632169
S1130BE02000A84768212000A84720212000A8470A
S1130BF044212000A84761212000A8477421200037
S1130C00A84761212000A8472E212000A8472E21B3
S1130C102000A84720212000A84746212000A847FB
S1130C2057212000A8473A212000A8477C4B197877
S1130C3020007C4EB04720212000A84749212000F5
S1130C40A84744212000A8473A212000A847764F0E
S1130C5039782000B04779782000B047B97820006F
S1130C60B047F9782000B0470D212000A847AAE733
S1130C70694D52212800694CA04753212800A04700
S1130C8054212800A04709212800A0479BE7624D72
S1130C9052212800614CA04764212800A04720214C
S1130CA02800A04753212800A04774212800A0470A
S1130CB009212800A04786E7574D57212800574CA3
S1130CC0A04772212800A04720212800A0474621E0
S1130CD02800A04751212800A04709212800A04747
S1130CE071E74D4D572128004C4CA0477221280034
S1130CF0A04720212800A04753212800A0477421A1
S1130D002800A04709212800A0475CE7424D522152
S1130D102800424CA04764212800A0472021280035
S1130D20A04743212800A04754212800A0470921B7
S1130D302800A04747E7384D52212800374CA047E8
S1130D4064212800A04720212800A0474221280030
S1130D50A04746212800A04709212800A04732E7E0
S1130D602D4D522128002D4CA04753212800A04787
S1130D7054212800A04720212800A0474921280009
S1130D80A0476E212800A04774212800A0470D2108
S1130D902800A04717E7204D572128001F4CA047E3
S1130DA072212800A04720212800A04742212800C2
S1130DB0A04746212800A04709212800A04702E7B0
S1130DC0154D4C212800154CA04765212800A0474B
S1130DD076212800A04720212800A047542128007C
S1130DE0A04758212800A0470D212800A047EAE683
S1130DF0094D4E212800094CA0474F212800A04747
S1130E0050212800A0470D212800A047DBE6C0465A
S1130E103C4000201C2D0000844000200D170000E1
S1130E20D84100202D170000A8400020F8B5D64670
S1130E30474680B58246204B1E5C002E2CD0810094
S1130E40081880001D490B180130013EF6B28019C4
S1130E50091800261A78564001339942FAD1002421
S1130E6053469B0053449B00144A90469844144FA5
S1130E704346195D1348B8474346195D124D28008F
S1130E80124B984720212800B8470134E4B20A4B9A
S1130E9052469B5CA342EBD831000A48084CA04759
S1130EA0094D31002800094B98470D212800A0471F
S1130EB00CBC90469A46F8BD40010020000000207A
S1130EC00D17000000420020844000202D17000070
S1130ED010B504000022054B1A700432044B1A703A
S1130EE00520044B9847044B1C7010BDAC400020F7
S1130EF0254200202D0E00003C40002010B50400C7
S1130F000022054B1A701532044B1A700620044B4C
S1130F109847044B1C7010BDAC40002025420020B3
S1130F202D0E00003C40002010B504000022054BAB
S1130F301A700532044B1A700720044B9847044B6F
S1130F401C7010BDAC400020254200202D0E000076
S1130F503C40002010B504000022074B1A700432F4
S1130F60064B1A703F23064AD1540320054B984779
S1130F70054B1C7010BDC046AC400020254200202B
S1130F80000000202D0E00003C40002010B504009D
S1130F900022054B1A700432044B1A700420044BCF
S1130FA09847044B1C7010BDAC4000202542002023
S1130FB02D0E00003C40002010B504000022054B1B
S1130FC01A700B32044B1A700220044B9847044BDE
S1130FD01C7010BDAC400020254200202D0E0000E6
S1130FE03C40002010B504000022054B1A70093261
S1130FF0044B1A700020044B9847044B1C7010BD1E
S1131000AC400020254200202D0E00003C40002072
S113101010B504000022054B1A700432044B1A70F8
S11310200120044B9847044B1C7010BDAC400020B9
S1131030254200202D0E00003C400020F0B5CE4695
S1131040474680B583B0CB4B1A78692A00D9D5E0DE
S11310509300C94AD3589F46F423FF33C74A126802
S11310609A420AD8C64B1A78C64B1B789A4200D0CB
S1131070C4E06822BF4B1A70C0E0C34B1A78BD4B62
S11310801A70C24D54212800C14CA0476921280080
S1131090A0476D212800A04765212800A0472021F2
S11310A02800A0474F212800A04775212800A04709
S11310B074212800A0470D212800A0479EE00921A3
S11310C0B248B34B984700226B46DA71AC4B1B789D
S11310D0013B002B1BDD00250024AE4EAE4F715D9D
S11310E0AA48B8472021A948A94B98476B46DA1D5E
S11310F0DB79715D4B4013700A20A84B984701348B
S1131100E4B225009E4B1B78013B9C42E7DB9F4CDD
S11311102D2120009E4EB04720212000B0479D4D38
S1131120974B98461B78EB18013B197820009A4B93
S11311309946984720212000B0474346197820005B
S1131140C84720212000B0476B46DF1DD979C9B2BA
S11311502000C84720212000B0473B78DBB242463C
S11311601278AD18013D2A789A421ED0864B1A781F
S1131170804B1A70854D43212800854CA04752218D
S11311802800A04743212800A04720212800A04789
S113119045212800A04772212800A0477221280079
S11311A0A0470D212800A04728E0784D43212800BE
S11311B0774CA04752212800A04743212800A0478C
S11311C020212800A0474F212800A0474B212800B8
S11311D0A0470D212800A047714B1A78654B1A705F
S11311E00CE00023684A137069216D4A1170634A48
S11311F013606C4B984767206B4B984703B00CBC4B
S113120090469946F0BD634B1979684A1170684A53
S11312105979117099795170D97991701B7AD37079
S1131220604B98470122534B1A70E7E70122564B53
S11312301A7001325A4B1A700022504B1A60594BE3
S1131240984767205B4B9847D8E702224E4B1A70A9
S11312500232534B1A700022484B1A60514B984784
S11312606720554B9847C9E70422474B1A70013A47
S11312704B4B1A700022414B1A604A4B9847672027
S11312804E4B9847BAE703223F4B1A7000223B4B60
S11312901A60444B98474A4B1B78032B07D005220E
S11312A03F4B1A7002216720464B9847A6E7072256
S11312B03B4B1A7003216720424B98479EE7424BF1
S11312C01B78012B9AD107222F4B1A70013A344B09
S11312D01A700022294B1A60324B984767203B4B07
S11312E098478BE70622284B1A705E322C4B1A70F3
S11312F00022224B1A602B4B98476720344B9847A7
S11313007CE70022304B1A700432324B1A70254BA2
S113131098470722174B1A7070E705221A4B1A7068
S113132060321F4B1A700022144B1A601D4B9847F1
S11313306720294B984761E7284B1B68002B10D086
S1131340FA235B000D4A12689A4200D856E7F23B32
S1131350FF3B084A13701A4A137000221F4B1A608D
S11313604CE7104B98470022044B1A6001321B4B88
S11313701A6043E73C400020C42E0000FC410020DA
S1131380AC40002025420020AD40002084400020D5
S11313900D170000DC4100202D17000099170000F4
S11313A0B94000208D0B0000E50F0000D84100205B
S11313B0A840002011100000B90F00008D0F00009C
S11313C0D9410020550F000024420020290F0000BD
S11313D0FD0E000080400020D10E0000B44000202B
S11313E0044B1B68044A934202D80133014A136038
S11313F07047C046FC410020E703000070B58EB082
S113140001AC00230022A370238100216170A27229
S1131410E2722273A273627322746361A3612277FE
S11314202362636223850133237080239B00A3809E
S1131430E13BFF3BA37112336385193BA3850F4D39
S113144022000F4928000F4EB04722000E490F48D2
S1131450B0472A68D37B5BB2002BFBDB13880221E5
S11314600B431380094B1A68D37B5BB2002BFBDB65
S1131470138802210B4313800EB070BDBC410020C1
S113148000240042D90800000028004264400020E3
S113149010B50C4C03220C4920000C4B98472068D3
S11314A00B4B98470B4B1B5C1F221A4001239340A4
S11314B0094A1360637E2022134363762368202243
S11314C05A7310BD64400020E1130000850700003A
S11314D09D0800006C30000000E100E010B5024BF4
S11314E09847024B984710BDFD130000911400006B
S11314F0064B1B78064A12789A4206D3054A11789D
S1131500054AD1540133014A13707047AC4000209E
S113151025420020B8400020DC41002030B58DB0C9
S11315208023DB05009300230193FF2269460A818F
S11315308B72CB7201220A754A758B75CB75069333
S11315400B774B77E1235B020493C4239B03039340
S113155001235B42089309934F4B0A934F4B0B9320
S11315604F4D504C6A4650492800A0470028F9D1F5
S11315704B4D2C6820004D4B98471F2318401E3BB1
S113158083404B4A13602A68138A1BB2002BFBDB8F
S1131590236802221343236096239B010493C423EC
S11315A09B03039301235B4208930993414B0A93E2
S11315B0414B0B93414D3B4C6A4641492800A0479F
S11315C00028F9D13D4D2C682000384B98471F2343
S11315D018401E3B8340364A13602A68138A1BB2A4
S11315E0002BFBDB2368022213432360E1235B020D
S11315F00493C4239B03039301235B42089309933D
S1131600304B0A93304B0B93304D264C6A4630498D
S11316102800A0470028F9D12C4D2C682000234B2A
S113162098471F2318401E3B8340214A13602A68B1
S1131630138A1BB2002BFBDB2368022213432360B3
S113164096239B01049380235B030393214B08930C
S1131650214B099301235B420A930B931F4D114CB9
S11316606A461F492800A0470028F9D11B4D2C6861
S113167020000E4B98471F2318401E3B83400C4A02
S113168013602A68138A1BB2002BFBDB2368022237
S1131690134323600DB030BD02001800020019008E
S11316A084400020051D000000140042751C000049
S11316B000E100E00200120002001300404000209C
S11316C0000C004202000E0002000F000042002045
S11316D00010004202000800020009002842002015
S11316E00008004210B5064C012206492000064BB2
S11316F098472122A35C02210B43A35410BDC0468A
S113170000420020F11400008920000010B589B2C5
S1131710014B984710BDC046591F0000092802D844
S11317203030C0B270473730C0B2FBE7F8B50500BF
S11317300C000809064FB84781B22800054EB0478F
S11317402007000FB84781B22800B047F8BDC04653
S11317501D170000591F000070B50020084B984762
S11317600500084CFA218900A047074B1860074977
S11317702800A047064B18600522064B1A6070BD6E
S113178005250000012A00005001002040420F00FE
S11317905401002010E000E030B5084B1C68084AF2
S11317A0002580214902013807D3002CFBD0546066
S11317B0956013680B42FCD0F5E730BD540100205E
S11317C010E000E00C4B1B68002B06D1EFF31083F4
S11317D0002B07D00022094B1A70074A1368013303
S11317E01360704772B6BFF35F8F0022044B1A7008
S11317F00132024B1A70F0E7780100207C010020CE
S113180058010020084B1A68013A1A601B68002B23
S113181009D1064B1B78002B05D00122044B1A700A
S1131820BFF35F8F62B67047780100207C0100200F
S11318305801002070B582B001AC0023237001224E
S11318406270A37021000220124EB047124D04238F
S11318506B6121000320B04708236B612100042041
S1131860B04710236B6121000520B04720236B6132
S113187021000620B04740236B6121000720B047B8
S113188080236B6121000B20B04780231B016B6117
S113189002B070BD9D1800000044004100B583B043
S11318A001AB80221A700A785A704A789A708A7842
S11318B0DA701900014B984703B000BD15270000EA
S11318C0F0B5DE4657464E464546E0B587B08046FD
S11318D0049116001F000022002300218B463F24A0
S11318E001202100009601975C4603944446059428
S11318F013E02024641A0500E540A84614E0009C87
S1131900019D121BAB415C464D462C43A346039CF0
S113191045462C430394013925D3202464420C19F1
S1131920E7D40500A540A84604008C40A1469218BF
S11319305B4114001D00059E4F463E40B446049E84
S113194047463E40B246664657463E4303D00600ED
S1131950264332002B00009C019D9D42DBD8CED152
S11319609442D8D8CBE7039B5846190007B03CBC37
S113197090469946A246AB46F0BD10B549084023AF
S11319800024814202D2180010BD1C00091A631CF5
S11319909BB28842F9D94023FF2CF4D81480002349
S11319A0F1E70000F0B583B00F00160008AA117823
S11319B004004C434022BC4202D9100003B0F0BDE5
S11319C0002B14D1020008000021194CA04701008B
S11319D03A0000230020174CA04700220123121ACA
S11319E08B41120C1B041A4332800022E5E70022CB
S11319F0012BF9D10A00002300210D4CA04702005D
S1131A000B0000920193380000210A4CA047050006
S1131A1080239B0140229842CFD8790FF800009A86
S1131A20019BA047EA00821AD2B252032A43DBE7A1
S1131A30192B0000C118000010B582B004000E4B31
S1131A401B78002B07D0002905D10B4B5B78834210
S1131A5010D01D200CE001A90C700C20074B9847F6
S1131A600C20074B9847044B5C7001221A7000202D
S1131A7002B010BD0020FBE7800100201D260000FD
S1131A8091250000404B984231D00AD93F4B9842EF
S1131A904DD03F4B98425AD03E4B984237D000200D
S1131AA070473D4B98420CD03C4B9842F7D10129EA
S1131AB017D000295DD0022915D0032915D00020A4
S1131AC0EEE7012907D0002951D0022905D00329C6
S1131AD005D00020E4E73248E2E73248E0E7324844
S1131AE0DEE73248DCE73248DAE73248D8E7012952
S1131AF007D000293FD0022905D0032905D00020B2
S1131B00CEE72D48CCE72D48CAE72D48C8E7012980
S1131B1007D0002931D0022905D0032905D000209F
S1131B20BEE72848BCE72848BAE72848B8E70129AF
S1131B3007D0002923D0022905D0032905D000208D
S1131B40AEE72348ACE72348AAE72348A8E70129DE
S1131B5007D0002915D0022905D0032905D000207B
S1131B609EE71E489CE71E489AE71E4898E71E48D1
S1131B7096E7032094E71D4892E71D4890E71D4827
S1131B808EE71D488CE7C046001000420018004252
S1131B90001C00420014004200080042000C0042F5
S1131BA00300050003000600030007000300010012
S1131BB003001E0003001F000300090003000A00C5
S1131BC003000B00030011000300120003001300C4
S1131BD003000D0003000E0003000F0003001700B4
S1131BE003001800030019000300040003000800A8
S1131BF00300100003000C000300160030B587B08A
S1131C000B4B6A4632CB32C232CB32C2009B834288
S1131C100BD001239A0069465258824206D0013300
S1131C20062BF7D1002007B030BD0023D8B2FAE765
S1131C307430000070470000F0B50A4B1B78002B8D
S1131C400CD1094F094E0A4D0024DE515A19146073
S1131C500433182BF9D10122024B1A708000024B75
S1131C60C150F0BD8201002084010020351C000019
S1131C70B842002000B583B007236A4613700133CD
S1131C805370013393700133D370013313710133F3
S1131C905371034B98476B46185603B000BDC046BA
S1131CA0FD1B000010B5024B1B680020984710BDB7
S1131CB08401002010B5024B5B680120984710BDD9
S1131CC08401002010B5024B9B680220984710BD88
S1131CD08401002010B5024BDB680320984710BD37
S1131CE08401002010B5024B1B690420984710BDE5
S1131CF08401002010B5024B5B690520984710BD94
S1131D0084010020F0B5DE4657464E464546E0B510
S1131D108DB005000C00160029600800804B984720
S1131D20020023680520DB0706D50DB03CBC9046B5
S1131D309946A246AB46F0BD236817309B07F4D4FE
S1131D407849086A971C0123BB4003430B620BA923
S1131D50737F0B700D32D7B23800734B984738003D
S1131D60724B9847707F0021714B9847F37A6B71DF
S1131D70337DAB71737DEB712B6898461800684B0B
S1131D8098470D3000220E2302A98C4663441A8022
S1131D9033680393F3689A46B37D9B467368994608
S1131DA0002B14D080235B05994530D1F37D002BA3
S1131DB031D133691F00C0B25E4B984701000E2237
S1131DC002AB9C46624438005B4B984720E0F37DAD
S1131DD0002B0BD01023009300230E2202A98C4663
S1131DE06244B1693069554FB84711E033691F0047
S1131DF0C0B2504B984701001023009300230E22D9
S1131E0002A88446624438004C4FB84700E00020E2
S1131E10002800D089E72A68039F138A1BB2002B8D
S1131E20FBDB0E2302AA944663441B88424653817B
S1131E3053461F434B461F435B465B071F43F37DDB
S1131E40002B01D104331F43317D4904737D1B04EE
S1131E500B43B17AF27A114319433389FF2B03D030
S1131E608022520417431943337F002B03D1344B90
S1131E709B789B0701D580231F432A68138A1BB2D2
S1131E80002BFBDB434659602A68138A1BB2002BE4
S1131E90FBDB43461F600AAB80221A7000225A7093
S1131EA0DA709A70336A0693736A0793B36A089375
S1131EB0F36A03930993002706AE06E02000214B42
S1131EC0984707E00137042F0DD0F9B2BB009859A9
S1131ED00028F3D0431CF5D00AA90870000CC0B246
S1131EE0194B9847EEE70023AB60EB602B61AB61C5
S1131EF06B610022EB83AB832033EA540133EA5451
S1131F000133EA540133EA542868054B9847040026
S1131F100E490F4B9847A4000E4BE550002004E7F0
S1131F20FD1B0000000400401D2600009125000058
S1131F30391A0000392600007B190000A519000099
S1131F4000200041851A000015270000C120000070
S1131F50391C0000B8420020C2791C23002A01D198
S1131F6018007047C28B92B2173B002AF8D102685E
S1131F70138A1BB2002BFBDB11830221937B0B42E0
S1131F80FCD00023ECE70000F0B5CE46474680B510
S1131F9083B0050001911720002A04D103B00CBCC2
S1131FA090469946F0BDEB790530002BF6D02C68AD
S1131FB0238A1BB2002BFBDB013A93B2994600261D
S1131FC00127204B984611E0731C9BB2019A915D46
S1131FD06A79012A17D089B21E0028001A4B984743
S1131FE04B46013B9BB29946434513D0A37B3B42EE
S1131FF0EAD1144BA27B3A42E6D1012B19D0013B22
S1132000002BF7D1E0E70236B6B2019AD35C1B028B
S11320101943E2E7A37B9B070DD40A4B0221A27B61
S11320200A420AD1012B0AD0013B002BF7D1002030
S1132030B4E71220B2E70020B0E70020AEE7122098
S1132040ACE7C046FFFF0000591F0000F8B50600CA
S11320500C00150007680A4B9847B38B9BB2002B02
S113206003D0084B98470520F8BDB583054B984726
S1132070746105222223F2541E3B7B730020F3E794
S1132080C517000005180000931C9B00195020215F
S1132090012393401A00435C1343435470470000E8
S11320A010B51723002A01D1180010BD8479053317
S11320B0002CF9D0014B98470300F5E74D200000B0
S11320C0F8B58000464BC5582C68238A1BB2002BF8
S11320D0FBDBA37B667B1E402023EB5C2122AF5CF1
S11320E01F40F30722D5EB8B9BB2002B1CD0AA69AF
S11320F01378DBB2511CA961697901290ED09BB216
S1132100DB05DB0D2383EB8B013B9BB2EB83002BC5
S11321100CD1013323730133637307E0517809024F
S11321200B430232AA61EBE701232373B30706D5FD
S11321300223237300222133EA54FB0716D47307C6
S11321404DD5AB8B9BB2002B47D0238ADBB25A0709
S113215020D09A070ED51A222223EA54203B238248
S11321607B073CD52B692800984738E02800AB68EA
S11321709847E4E75A0705D51E222223EA541E3B5A
S11321802382EDE7DB07EBD513222223EA54213B1C
S11321902382E5E7238BDB05DB0DDAB269690A707C
S11321A06A69511C69616979012910D0AB8B013BC3
S11321B09BB2AB83002B12D10433237300221E3352
S11321C0EA54BB070BD5EB682800984707E01B0AC5
S11321D053706B6901336B61E8E704232373F8BD23
S11321E0B842002010B5072803D88000164B1B58AE
S11321F09F46002027E0154BD86824E0144B1B6A47
S11322009B059B0F1348D8401DE0104B18691AE03A
S11322100E4B1B6800209B0715D50D491022CB6877
S11322201A42FCD0094B1B685B0701D40A480AE038
S113223000200A4B9847054B9B681B041B0C584312
S113224001E08020000210BD8C3000009C010020C1
S11322500008004000127A00006CDC0239260000FD
S113226070B50C490B6A04788578407801221040D7
S113227080014026B34303432A40D2018020834394
S113228013430322224012020348034013430B6208
S113229070BDC04600080040FFFCFFFF072803D8BC
S11322A080001E4B1B589F46172036E01C4A136AB9
S11322B002210B43136200202FE0194A9369022183
S11322C00B439361002028E0154A138A02210B4333
S11322D01382002021E0124A938A02210B43938245
S11322E000201AE00F4B1A6802210A431A601B6887
S11322F00D4A13400A4A938411001022CB681A42F3
S1132300FCD0084A9168064BD962516899621268F8
S113231092B29A84002000E000207047AC300000A4
S1132320000800409C0100207FFF0000F0B5C64675
S113233000B584B0C222D200214B9A60214A53686E
S11323401E218B43536002236A46137000241E4DE2
S1132350E0B26946A84701341C2CF9D103A8002433
S113236044700123984683700470184B98470620E4
S1132370174B9847174B98476B465C7006271F709E
S11323801C725C720823019369460120124EB04707
S11323900120124DA847124B1C725C729C72DC72B5
S11323A0434601936B465C701F701C725C726946F5
S11323B00020B0470020A84704B004BC9046F0BDFC
S11323C000080040004000411D260000612200007A
S11323D09D220000E523000009240000C124000020
S11323E000040040064A936908210B4393610122CB
S11323F0044B1A7019000B781342FCD17047C04685
S113240000040040000C004070B5060004000D7884
S11324102D0205434B78002B02D08023DB021D43A1
S11324204B7A002B02D080231B031D4348680128EC
S113243010D9431E184234D1022830D90223002275
S113244001325B009842FBD812023243140080230D
S11324505B031D430B7A002B02D080239B031D4397
S1132460134A53785BB2002BFBDB124B9847124B99
S11324701E700F4A53785BB2002BFBDB0C4B9C6045
S11324801A0053785BB2002BFBDB094A53688021A6
S113249049020B401D435560084B984770BD00220C
S11324A0D2E70402344380239B021D43D2E7C04693
S11324B0000C0040C5170000080C0040051800007F
S11324C010B504000B4A53785BB2002BFBDB0A4BBC
S11324D098470A4B1C70074A53785BB2002BFBDB0E
S11324E0044A516880235B020B435360044B9847B2
S11324F010BDC046000C0040C5170000040C00408D
S11325000518000070B504001A4A53785BB2002B1A
S1132510FBDB194B9847194B1C70164A53785BB276
S1132520002BFBDB134E7068C004C00E144B98479D
S11325300500124B1C707668F602F60F114B1C70E6
S11325400C4A53785BB2002BFBDB0A4B9C682402D9
S1132550240C0D4B9847002E07D1012C07D92100DC
S113256028000A4B9847050001E00134E5402800A3
S113257070BDC046000C0040C5170000040C0040AC
S1132580E5210000080C004005180000012A0000A5
S113259010B50400064B9847064B1C70064A538836
S11325A08021C9010B435380044B984710BDC0469A
S11325B0C5170000020C0040000C00400518000084
S11325C010B504000F4B98470F4B1C700F4A5388EB
S11325D01B05180F53880E490B40538053880D492F
S11325E00B40538011008022D2014B881342FCD14E
S11325F006494A8803020648024013434B80064BAF
S1132600984710BDC5170000020C0040000C0040A4
S1132610FFF0FFFFFFBFFFFF0518000010B50C78A7
S113262024020443024B9847A4B2024B5C8010BDC1
S1132630C1250000000C004010B50400064B98476B
S1132640064B1C70064B5C882405240F054B9847E9
S11326502000054B984710BDC5170000020C004030
S1132660000C0040051800000525000030B5D378A3
S1132670002B35D11378802B29D01B0680246402CB
S1132680234354780225AC4306D19478002C20D1FE
S11326908024A402234341605478013C012C1CD9BA
S11326A00D042D0CA024E4052C431C4384620D0C62
S11326B0D02424062C431C438462D478002C22D1D9
S11326C05B031CD59378012B1ED0416117E00023D6
S11326D0D7E7C024E4022343DDE70D4C2340DFE7C2
S11326E041600C04240CA023DB05234383620C0CFF
S11326F0D0231B0623438362D378002B03D1537862
S1132700013B012B02D930BD8161F8E78160FAE712
S1132710FFFFFBFF10B50A00C1090023002904D103
S11327204309DB0105498C4663441F2420400121F1
S113273081401800024B984710BDC0460044004138
S11327406D2600007047000010B5054B9847054BF7
S11327509847054B9847054B9847054B984710BD3C
S11327602D23000035180000452700008D060000C9
S113277045270000FEE7000010B51A4A1A4B9A429A
S113278011D01A00194B9A420DD2194A03339B1ADD
S11327909B0801339B000022134812498C58845033
S11327A004329A42FAD1134A134B9A420AD2D343BF
S11327B011495B1803218B4304339B18002102C287
S11327C09342FCD10D4AFF210D4B8B4393600D4A7C
S11327D053687F390B4353600B4B98470B4B984717
S11327E0FEE7C046FC300000000000205C01002031
S11327F0040000205C010020D442002000ED00E031
S113280000000000004000416D2B00003128000052
S1132810054BDA7C1B7D12021A4380235B029B1A50
S1132820024A13607047C046DC410020D0420020B9
S1132830F0B5DE4657464E464546E0B585B0574BA3
S11328409847574B9847574B9847574B9847574B80
S11328509847574B9847574B9847574B98470122EF
S1132860564B1A70BFF35F8F62B6554C0D21200092
S1132870544DA8470D212000A8470D212000A8474A
S11328800D212000A8470D212000A8470D2120007C
S1132890A84769464C4B6A4661CB61C21B881380CA
S11328A00E222000494B98470022494B1A700332EC
S11328B0484B1A70484AFA239B01D018302102E091
S11328C01032904205D00023D1540133102BFBD198
S11328D0F6E7424BA02292461A70A12291465A7002
S11328E0A22290469A70A3229446DA70A4271F71FC
S11328F0A5265E71A6259D71A724DC71A8201872F7
S1132900A9225A72AA229A72AB229346DA72344BE3
S11329106B22514699540132494699540132414639
S1132920995401326146995401329F54343FDE5523
S1132930343E9D55343D5C55343C185534383A3258
S11329401A547521AA225A54762259469954254D6F
S1132950254C264E012229002000B047244B9847DD
S11329601F4B244A10786721585450780131585429
S1132970907801315854D1786A2299541E4B1B78AF
S1132980042BE7D11D4B98470322114B1A70013ACF
S1132990104B1A700332184B1A70DBE749270000FA
S11329A01D150000E516000005010000DD140000FF
S11329B0390B0000690B0000591700005801002072
S11329C0844000200D170000CC300000891F000057
S11329D03C400020D9410020BC010020B00100206F
S11329E000000020B840002000420020A120000088
S11329F03D100000A8400020804000201128000065
S1132A00002243088B4274D303098B425FD3030A29
S1132A108B4244D3030B8B4228D3030C8B420DD33C
S1132A20FF22090212BA030C8B4202D312120902CA
S1132A3065D0030B8B4219D300E0090AC30B8B4208
S1132A4001D3CB03C01A5241830B8B4201D38B03B6
S1132A50C01A5241430B8B4201D34B03C01A52415B
S1132A60030B8B4201D30B03C01A5241C30A8B429E
S1132A7001D3CB02C01A5241830A8B4201D38B0289
S1132A80C01A5241430A8B4201D34B02C01A52412D
S1132A90030A8B4201D30B02C01A5241CDD2C3099F
S1132AA08B4201D3CB01C01A524183098B4201D31B
S1132AB08B01C01A524143098B4201D34B01C01A06
S1132AC0524103098B4201D30B01C01A5241C3087E
S1132AD08B4201D3CB00C01A524183088B4201D3ED
S1132AE08B00C01A524143088B4201D34B00C01AD9
S1132AF05241411A00D20146524110467047FFE745
S1132B0001B5002000F006F802BDC0460029F7D048
S1132B1076E770477047C046F0B5CE464746150481
S1132B202D0C2E0080B50704140C3F0C9946030CA1
S1132B307E435D43674363437F19340CE4199C4629
S1132B40A54203D980235B029846C4444B465143B3
S1132B5043433604360C250C24046544A41959183F
S1132B60491920000CBC90469946F0BD70B500266A
S1132B700C4D0D4C641BA410A64209D1002600F094
S1132B80ADFA0A4D0A4C641BA410A64205D170BDCF
S1132B90B300EB5898470136EEE7B300EB5898477B
S1132BA00136F2E7E8300000E8300000E8300000C9
S1132BB0EC300000002310B59A4200D110BDCC5C6B
S1132BC0C4540133F8E7000064030000C2050000A8
S1132BD0C2050000C2050000C2050000C2050000D5
S1132BE0C2050000C2050000C2050000C2050000C5
S1132BF0C2050000C2050000C2050000C2050000B5
S1132C00C2050000C205000044030000C205000024
S1132C10C2050000C2050000C2050000C205000094
S1132C20C2050000C2050000C2050000C205000084
S1132C30C2050000C2050000C2050000C205000074
S1132C40C2050000C20500005C030000C2050000CC
S1132C50C2050000C2050000C2050000C205000054
S1132C60C2050000C2050000C2050000C205000044
S1132C70C2050000C2050000C2050000C205000034
S1132C80C2050000C2050000540300006C030000EC
S1132C9024030000340300002C03000002000000A1
S1132CA003000000280000002900000004000000C8
S1132CB005000000060000000700000020000000DE
S1132CC02100000022000000230000002400000076
S1132CD02500000026000000270000000800000076
S1132CE0090000000A0000000B0000000020004260
S1132CF00024004200280042002C00420030004220
S1132D000034004200380042003C0042000100024E
S1132D100004000800100020004000809E0B00000A
S1132D20700C00008E0C0000B80C0000E20C0000D7
S1132D30960D0000360D00000C0D0000C60B0000BF
S1132D40C60B0000C60B0000C60B0000C60B00003B
S1132D50C60B0000C60B0000C60B0000C60B00002B
S1132D60C60B0000C60B0000C60B0000C60B00001B
S1132D70C60B0000C60B0000C60B0000C60B00000B
S1132D80C60B0000C60B0000C60B0000C60B0000FB
S1132D90C60B0000C60B0000C60B0000C60B0000EB
S1132DA0C60B0000C60B0000C60B0000C60B0000DB
S1132DB0C60B0000C60B0000C60B0000C60B0000CB
S1132DC0C60B0000C60B0000C60B0000C60B0000BB
S1132DD0C60B0000C60B0000C60B0000C60B0000AB
S1132DE0C60B0000C60B0000C60B0000C60B00009B
S1132DF0C60B0000C60B0000C60B0000C60B00008B
S1132E00C60B0000C60B0000C60B0000C60B00007A
S1132E10C60B0000C60B0000C60B0000C60B00006A
S1132E20C60B0000C60B0000C60B0000C60B00005A
S1132E30C60B0000C60B0000C60B0000C60B00004A
S1132E40C60B0000C60B0000C60B0000C60B00003A
S1132E50C60B0000C60B0000C60B0000C60B00002A
S1132E60C60B0000C60B0000C60B0000C60B00001A
S1132E70C60B0000C60B0000C60B0000C60B00000A
S1132E80C60B0000C60B0000C60B0000C60B0000FA
S1132E90C60B0000C60B0000C60B0000C60B0000EA
S1132EA0C60B0000C60B0000C60B0000600D00003E
S1132EB0C00D0000F00D0000C60B0000C60B0000A2
S1132EC0C80B0000E21100002C1200004A1200009E
S1132ED086120000681200001A130000E4120000B9
S1132EE0BE120000FC110000FC110000FC110000E7
S1132EF0FC110000FC110000FC110000FC1100009A
S1132F00FC110000FC110000FC110000FC11000089
S1132F10FC110000FC110000FC110000FC11000079
S1132F20FC110000FC110000FC110000FC11000069
S1132F30FC110000FC110000FC110000FC11000059
S1132F40FC110000FC110000FC110000FC11000049
S1132F50FC110000FC110000FC110000FC11000039
S1132F60FC110000FC110000FC110000FC11000029
S1132F70FC110000FC110000FC110000FC11000019
S1132F80FC110000FC110000FC110000FC11000009
S1132F90FC110000FC110000FC110000FC110000F9
S1132FA0FC110000FC110000FC110000FC110000E9
S1132FB0FC110000FC110000FC110000FC110000D9
S1132FC0FC110000FC110000FC110000FC110000C9
S1132FD0FC110000FC110000FC110000FC110000B9
S1132FE0FC110000FC110000FC110000FC110000A9
S1132FF0FC110000FC110000FC110000FC11000099
S1133000FC110000FC110000FC110000FC11000088
S1133010FC110000FC110000FC110000FC11000078
S1133020FC110000FC110000FC110000FC11000068
S1133030FC110000FC110000FC110000FC11000058
S1133040FC110000FC110000FC110000FC11000048
S1133050FC1100000213000038130000FC110000F2
S113306058100000BE100000061200000D0E0F10D4
S11330701112131400080042000C00420010004218
S11330800014004200180042001C0042F621000017
S1133090F2210000F221000042220000422200003E
S11330A00A220000FC21000010220000C8220000B7
S11330B0A8220000A822000018230000BA22000061
S11330C0D6220000AC220000E422000048656C6CAB
S11330D06F20576F726C64210A000000F8B5C04677
S11330E0F8BC08BC9E467047CD000000F8B5C04649
S10F30F0F8BC08BC9E467047A500000018
S11330FC800000FFFFFFFFFFFFFFFFFFFFFFFFFF4D
S113310CFFFFFFFFC10100FFFFFFFFFFFFFFFFFFFA
S113311CFFFFFFFFFFFFFFFFC10200FFFFFFFFFFE9
S113312CFFFFFFFFFFFFFFFFFFFFFFFFC1030503CF
S113313C01656C00FFFFFFFFFFFFFFFFFFFFFFFFB9
S113314CC10403030104FFFFFFFFFFFFFFFFFFFFA9
S113315CFFFFFFFFC1051000010203040506070869
S113316C090A0B0C0D0E0F00C10600FFFFFFFFFF39
S113317CFFFFFFFFFFFFFFFFFFFFFFFFC10700FF84
S113318CFFFFFFFFFFFFFFFFFFFFFFFFFFFFFFFF3F
S113319C000000000000000000000000000000001F
S11331AC000000000000000000000000000000000F
S11331BC00000000000000000000000000000000FF
S11331CC00000000000000000000000000000000EF
S11331DC00000000000000000000000000000000DF
S11331EC00000000000000000000000000000000CF
S11331FC00000000000000000000000000000000BF
S113320C00000000000000000000000000000000AE
S113321C000000000000000000000000000000009E
S113322C000000000000000000000000000000008E
S113323C030303080613030300000000000000004E
S10F324C401F000008000000010000000A
S90327795C
