:1000000070630020712C00006D2C00006D2C00002E
:1000100000000000000000000000000000000000E0
:100020000000000000000000000000006D2C000037
:1000300000000000000000006D2C00006D2C00008E
:100040006D2C00006D2C0000F10700006D2C0000ED
:10005000A10100006D2C00006D2C00001522000095
:100060002522000035220000452200005522000014
:10007000652200009D030000AD030000BD030000E9
:10008000CD030000DD030000ED030000FD030000D0
:100090000D0400006D2C00006D2C00006D2C000084
:1000A0006D2C000010B5064C2378002B07D1054BB2
:1000B000002B02D0044800E000BF0123237010BDD4
:1000C000CC0100200000000068340000084B10B58F
:1000D000002B03D00749084800E000BF0748036829
:1000E000002B00D110BD064B002BFBD09847F9E741
:1000F00000000000D00100206834000068340000D7
:10010000000000007047000000B583B000236A467D
:100110001370012269464A7003328A700B710A33E8
:10012000CB70013B4B716846014B984703B000BD53
:10013000A506000010B500210348044B9847002095
:10014000034B984710BDC04605010000BD070000E5
:10015000D10700001723002A01D0180070478B0038
:10016000064A9B58002B03D0834205D01D23F4E799
:10017000890088500023F0E70023EEE7F0420020DA
:100180001723002901D01800704700221F2800D82B
:10019000024A01238340D3600023F4E700180040A3
:1001A00070B50022104B1A70002310491F25104E05
:1001B0000D4C0AE00D4908E023780133DBB22370CF
:1001C0000F2B10D800211F2BF4D928001840012232
:1001D000824008691042EFD00A619B009B59002BB6
:1001E000EAD09847E8E770BDEC42002000180040D4
:1001F000F0420020044A137802210B431370537815
:100200005BB2002BFBDB70470018004000B583B0E9
:10021000124A936940210B43936101A900230B709B
:1002200003200F4B984703200E4B98470E4A137834
:1002300001210B43137053785BB2002BFBDB0B4B9C
:1002400019004031002204C39942FCD11022084B0E
:100250001A60084B984703B000BDC0460004004038
:10026000E52A0000592A000000180040F042002052
:1002700000E100E0F501000000230360436001227B
:100280000272427283720233C3727047F0B583B058
:1002900005000C0001A900234B70CB7023790B7073
:1002A000237A8B702078154B984700201F2D00D89B
:1002B000134807222A409200E77AA37A002B01D044
:1002C00008231F43EB089B00C31899690F2696402B
:1002D000B14397403A000A439A61637A002B06D1F2
:1002E00043690122AA409343436103B0F0BD4269D0
:1002F0000123AB4013434361F7E7C0460D2C0000D8
:1003000000180040931C9B001950022A09D0032AB0
:100310000CD0012393401A00037E13430376002080
:100320007047037E102213430376F8E7037E2022F2
:1003300013430376F3E7000070B58000164BC458F2
:1003400023689D7B227E637E13401D40EB0706D40D
:10035000AB070BD4EB0610D4AB0615D470BD200050
:10036000A3689847012322689373F1E72000E368AC
:100370009847022322689373ECE72000236998478B
:10038000102322689373E7E7200063699847236886
:1003900020229A73E2E7C0463043002010B50020C7
:1003A000014B984710BDC0463903000010B501202D
:1003B000014B984710BDC0463903000010B502201C
:1003C000014B984710BDC0463903000010B503200B
:1003D000014B984710BDC0463903000010B50420FA
:1003E000014B984710BDC0463903000010B50520E9
:1003F000014B984710BDC0463903000010B50620D8
:10040000014B984710BDC0463903000010B50720C6
:10041000014B984710BDC0463903000030B589B084
:100420000C4B6A4632CB32C232CB32C212CB12C232
:10043000009B98420BD001239A0069465258824291
:1004400006D00133082BF7D1002009B030BD0023BE
:10045000D8B2FAE700320000F0B589B004000D0010
:1004600016000800874B9847070006AB13221A7046
:100470005A7001329A70DA7001321A715A7101326F
:100480009A71DA71063A8049203102A87F4B984769
:100490000023A360E3602361636123766376BA007F
:1004A0007B4BD4502560B378082B06D023712B8862
:1004B0000520DB0705D509B0F0BD1720FA07FAD4EF
:1004C000F4E7EB7B1730DB06F5D42B889B07F2D4DF
:1004D000337C002B00D07AE0337F002B00D082E009
:1004E0006C49086A7A0002ABD35A03430B62B378B3
:1004F000082B00D187E033786A46137006ABDF5DC6
:1005000069463800644B98473800644B98473189F6
:10051000B3880B43B178B279114319437378002B38
:1005200002D080231B0119432268D37B5BB2002BCE
:10053000FBDB2980717B4B1E99418900B37B002B2B
:1005400001D0012319432268D37B5BB2002BFBDB74
:10055000FF232B71002905D02268D37B5BB2002BCF
:10056000FBDB6971B17AF37A002B01D010231943B8
:10057000337B002B01D0202319432268D37B5BB24D
:10058000002BFBDBA9712268D37B5BB2002BFBDB6A
:100590002379042B3FD0082B5ED01720002B00D0EE
:1005A00089E7D37B5BB2002BFBDB338D2B82226888
:1005B000D37B5BB2002BFBDB738D2B832268D37B59
:1005C0005BB2002BFBDBB38D6B83002073E701A9CB
:1005D00001238B700022CA70327E0A704B70307D0E
:1005E0002F4B984778E701A901238B700022CA702E
:1005F0002432B21812780A704B701F33F31818782F
:10060000274B98476CE7086A7A1C520002ABD35A12
:1006100003430B626FE7D37B5BB2002BFBDB28232A
:10062000F35C2B742268D37B5BB2002BFBDB2923AA
:10063000F35C2B752268D37B5BB2002BFBDB2A2398
:10064000F35C2B762268D37B5BB2002BFBDB2B2386
:10065000F35C6B7600202EE7D37B5BB2002BFBDBD9
:10066000B36A2B612268D37B5BB2002BFBDBF36A9E
:10067000AB612268D37B5BB2002BFBDB336BEB619E
:10068000002018E71D04000000320000ED310000DA
:100690003043002000040040E52A0000592A0000F1
:1006A0000D2C000010B582B00400394A9369102166
:1006B0000B439361374B1B785BB21020002B03DB9D
:1006C000E3780730002B01D102B010BD22799A42A5
:1006D000FAD862799A42F7D82E4A13780E398B43AA
:1006E0001370D3795BB2002BFBDB63780020002B07
:1006F000EAD001A9A3780B700130274B984701205D
:10070000264B98472378002B27D1E378013B2279A9
:10071000002A26D01F490A78042002430A70227951
:10072000013A824013431B49CA7952B2002AFBDBCB
:10073000DBB2184A53706379002B18D12378002B51
:100740001FD0144A137880210B431370114AD379B8
:100750005BB2002BFBDB0020B6E70120104B984773
:10076000D3E70C490A78042082430A70DBE71100C2
:10077000CA7952B2002AFBDB013BDBB2054A937017
:10078000DCE7044A137802210B431370DEE7C0460E
:100790000004004000100040E52A0000592A000033
:1007A000012B0000A522044B1A721A00D3795BB208
:1007B000002BFBDB7047C04600100040002901D031
:1007C00017207047014B18600020FAE750430020C3
:1007D000002801D0172070470122034B5A710332C1
:1007E000024B1A60F7E7C0460010004000E100E04D
:1007F00010B50122034B9A71034B1B68002B00D0EC
:10080000984710BD0010004050430020034B1B7858
:10081000002B02D10122014B1A707047BC4200200C
:1008200010B584B001AC2000074B98470B2301930F
:100830000023636023720133E37221000B20034B1A
:10084000984704B010BDC046790200008D02000038
:1008500010B500220B210448044B984700210B20BF
:10086000034B984710BDC0460D080000550100001D
:100870008101000070B5012822D008221A4B5A616C
:100880000422194B5A61CB071ED50C32164B9A61C4
:100890008B071DD52022144B9A614B071CD5402293
:1008A000114B9A610B071BD480220F4B5A610E4CDF
:1008B00080256D00A5610F200C4B9847656170BDC8
:1008C0000822094B9A61DBE71022074B5A61DFE7E8
:1008D0002022054B5A61E0E74022034B5A61E1E7D1
:1008E0008022014B9A61E2E700440041951C000020
:1008F00070B505000C000909034EB0472107090F28
:100900002800B04770BDC0467508000010B503212F
:1009100000200C4CA04703210020A0470321002009
:10092000A04702210020A04728210020064CA04714
:1009300008210020A04706210020A0470C2100200C
:10094000A04710BD75080000F1080000F8B5DE46AC
:10095000474680B58046274B1D5C002D33D04100B3
:100960000818C100401824490B180130013DEDB2B0
:100970004019091800251A78554001339942FAD1D7
:10098000002443465B004344DA009B181A4FFF18CB
:100990001A4EBB4606E00134E4B2164B42469B5C5D
:1009A000A34210D9395D1648B047164B1B781B0778
:1009B000F1D55B46195D1448144B98472021124825
:1009C0000E4B9847E7E729000D480C4B98470D4B15
:1009D0001B781B0703D40CBC90469B46F8BD0A4C01
:1009E00029002000094B98470D212000034B984710
:1009F000F1E7C046B0010020000000204D1B0000C0
:100A00009842002044410020AC4000206D1B0000B3
:100A100010B50024064B1C700422064B1A700520EA
:100A2000054B98476722054B1A70054B1C6010BD9B
:100A300041410020BD4200204D090000A44000209B
:100A40009442002010B50024064B1C701D22064B5A
:100A50001A700620054B98476722054B1A70054B04
:100A60001C6010BD41410020BD4200204D09000026
:100A7000A44000209442002010B50024064B1C70B6
:100A80000522064B1A700720054B98476722054B35
:100A90001A70054B1C6010BD41410020BD42002072
:100AA0004D090000A44000209442002010B500240D
:100AB000084B1C700422084B1A705423074AD05468
:100AC0000320074B98476722064B1A70064B1C60A1
:100AD00010BDC04641410020BD4200200000002062
:100AE0004D090000A44000209442002010B50024CD
:100AF000064B1C700422064B1A700420054B9847C5
:100B00006722054B1A70054B1C6010BD4141002047
:100B1000BD4200204D090000A44000209442002066
:100B200010B50024064B1C700B22064B1A700220D5
:100B3000054B98476722054B1A70054B1C6010BD8A
:100B400041410020BD4200204D090000A44000208A
:100B50009442002010B50024064B1C700922064B5D
:100B60001A700020054B98476722054B1A70054BF9
:100B70001C6010BD41410020BD4200204D09000015
:100B8000A44000209442002010B50024064B1C70A5
:100B90000422064B1A700120054B98476722054B2B
:100BA0001A70054B1C6010BD41410020BD42002061
:100BB0004D090000A440002094420020034BDA7845
:100BC0001B7912021343024A1360704774420020DB
:100BD000A0400020F0B583B0D64B1A786D2A00D91A
:100BE0008CE09300D44AD3589F46D44B1A68FA231A
:100BF0009B009A4200D881E0D14B9847D14B1B789B
:100C00005B0704D4D04B1A78CA4B1A7076E0CF4BEE
:100C10001A78C84B1A7071E0C84B1A68F423FF3376
:100C20009A420CD8CA4B1A78CA4B1B789A4265D1A3
:100C30000022C94B1A606832BE4B1A705EE0C64B88
:100C40001A6801321A601B68032B05D90022B94BC0
:100C50001A70C24B984751E0BC4B1A78B54B1A70CA
:100C6000F7E7B84B1B781B070CD400226B46DA71F0
:100C7000B74B1B78013B002B24DD00270024B14E2D
:100C8000B74D13E00921B748B74B9847EDE76B46DE
:100C9000DA1DDB79B249C95D4B4013700134E4B20F
:100CA0002700AB4B1B78013B9C420BDA33781B07C8
:100CB000EDD5E95DAB48AD4B98472021A948AA4B3B
:100CC0009847E4E79F4B1B781B0719D46B46DA79EA
:100CD000D2B29F4B1978A24B5B18013B1B78934211
:100CE00031D0A34B9847974A137804210B431370D4
:100CF0000022924B1A606B328E4B1A7003B0F0BD1B
:100D0000984C2D212000984DA84720212000A8476D
:100D10008F4F3A78924B9B18013B19782000934EE5
:100D2000B04720212000A84739782000B047202173
:100D30002000A8476B46D979C9B22000B0472021CE
:100D40002000A847C2E78B4B98477E4A13780421BE
:100D50008B431370CCE77B4A137802218B431370CB
:100D600000227A4B1A706932774B1A70824B98477F
:100D7000824B9847C2E7734A137802218B43137062
:100D8000774B19797E4A11707E4A59791170997999
:100D90005170D97991701B7AD3707B4B984701229F
:100DA000644B1A70AAE767490B78022293430B70D1
:100DB0000121664B1970644B1A70744B9847744B41
:100DC00098479BE75F490B78022293430B705F4B78
:100DD0001A7002325C4B1A706E4B98476E4B9847F4
:100DE0008CE7584A137802218B4313700422574B27
:100DF0001A70013A544B1A70684B9847684B9847E1
:100E00007CE7504A137802218B43137003224F4B27
:100E10001A70644B9847644B1B78032B06D005224D
:100E2000494B1A700220614B984767E70722464BEF
:100E30001A7003205D4B984760E7424A13780221FD
:100E40000B4313705A4B1B78012B00D056E78022BE
:100E50001205584B5A61584B984707223B4B1A7062
:100E60006632394B1A70554B9847554B984745E7B2
:100E7000544B984706222F4B1A703FE780221205E9
:100E80004C4B9A610622314B1A705E322E4B1A700F
:100E90004D4B98474D4B984730E70022444B1A7012
:100EA00004324B4B1A704B4B98470722214B1A7058
:100EB00024E7244A137802210B4313700522234BA5
:100EC0001A706732204B1A70434B9847434B984730
:100ED00014E7374B1B78012B00D00FE78022520517
:100EE000344B9A613E4B98470022314B1A70653261
:100EF000104B1A7002E73B4B1B68002B10D00F4BB6
:100F00001A68FA23DB009A4200D8F7E66A22094BF6
:100F10001A70673A244B1A700022324B1A60EDE6C1
:100F2000314B98470022054B1A6001322D4B1A6055
:100F3000E4E6C046A4400020303200009442002085
:100F4000E9100000444100204D41002042410020B2
:100F500041410020BD4200207042002045110000A8
:100F600074420020AC4000204D1B00006D1B0000AF
:100F70001114000061140000A5100000550B0000C2
:100F80006C42002038410020D91400009911000063
:100F9000890B0000E1110000210B00006912000024
:100FA000ED0A0000251200006D420020AD0A00008D
:100FB000BC42002000440041A5070000AD12000023
:100FC000790A0000BD0B0000F1120000450A000084
:100FD000EC4000203513000085130000110A0000CA
:100FE000C517000048410020C91300000422014B2E
:100FF0001A7083E6A4400020F0B5C64600B5224F23
:10100000FB7E387F1B02034380204002C01A1F4B27
:1010100018601F4B984706000404240E8721002007
:101020001C4DA8472006000F1B4B9846984701000F
:101030000120A8472407200FC04701000120A8472E
:101040003006000FC04701000120A8473007000FFD
:10105000C04701000120A847CE210020A847F97908
:101060000120A8470D4B1B6ADB0706D50C4B1B78EC
:10107000102B05D902220A4B1A7004BC9046F0BD11
:101080000133074A1370F8E7744200203C41002006
:10109000E51B0000F10800005D1B0000004400415A
:1010A0006E42002070B50D4B1B781B0700D470BD3D
:1010B0000B4D522128000B4CA04764212800A0476B
:1010C00020212800A04749212800A04744212800CA
:1010D000A04709212800A047E9E7C0464441002075
:1010E000AC4000204D1B000070B5134B1B781B0754
:1010F00000D470BD114D43212800114CA0474D2153
:101100002800A04744212800A04720212800A0470C
:1011100044212800A04765212800A0476C21280011
:10112000A04761212800A04779212800A0470D2170
:101130002800A047DDE7C04644410020AC40002025
:101140004D1B000070B5114B1B781B0700D470BD00
:101150000F4D542128000F4CA04769212800A047BB
:101160006D212800A04765212800A04720212800E4
:10117000A0474F212800A04775212800A0477421CF
:101180002800A0470D212800A047E0E744410020A7
:10119000AC4000204D1B000070B50E4B1B781B07A8
:1011A00000D470BD0C4D4C2128000C4CA04752219E
:1011B0002800A04720212800A04752212800A0474E
:1011C00053212800A04754212800A04709212800C6
:1011D000A047E6E744410020AC4000204D1B000042
:1011E00070B50D4B1B781B0700D470BD0B4D522101
:1011F00028000B4CA04764212800A047202128008C
:10120000A04753212800A04774212800A0470921A6
:101210002800A047E9E7C04644410020AC40002038
:101220004D1B000070B50D4B1B781B0700D470BD23
:101230000B4D572128000B4CA04772212800A047D6
:1012400020212800A04746212800A047512128003E
:10125000A04709212800A047E9E7C04644410020F3
:10126000AC4000204D1B000070B50D4B1B781B07D8
:1012700000D470BD0B4D572128000B4CA0477221A4
:101280002800A04720212800A04753212800A0477C
:1012900074212800A04709212800A047E9E7C0469B
:1012A00044410020AC4000204D1B000070B50D4BA8
:1012B0001B781B0700D470BD0B4D522128000B4C2E
:1012C000A04764212800A04720212800A0474321EF
:1012D0002800A04754212800A04709212800A04742
:1012E000E9E7C04644410020AC4000204D1B00000F
:1012F00070B50D4B1B781B0700D470BD0B4D5221F0
:1013000028000B4CA04764212800A047202128007A
:10131000A04742212800A04746212800A0470921D4
:101320002800A047E9E7C04644410020AC40002027
:101330004D1B000070B5104B1B781B0700D470BD0F
:101340000E4D522128000E4CA04753212800A047E3
:1013500054212800A04720212800A0474921280027
:10136000A04752212800A04751212800A0470D2165
:101370002800A047E3E7C04644410020AC400020DD
:101380004D1B000070B50D4B1B781B0700D470BDC2
:101390000B4D572128000B4CA04772212800A04775
:1013A00020212800A04742212800A04746212800EC
:1013B000A04709212800A047E9E7C0464441002092
:1013C000AC4000204D1B000070B50E4B1B781B0776
:1013D00000D470BD0C4D4C2128000C4CA047652159
:1013E0002800A04776212800A04720212800A047F8
:1013F00054212800A04758212800A0470D2128008B
:10140000A047E6E744410020AC4000204D1B00000F
:1014100070B5104B1B781B0700D470BD0E4D4321D7
:1014200028000E4CA04752212800A0474321280045
:10143000A04720212800A04745212800A04772216D
:101440002800A04772212800A0470D212800A047AE
:10145000E3E7C04644410020AC4000204D1B0000A3
:1014600070B50E4B1B781B0700D470BD0C4D43218B
:1014700028000C4CA04752212800A04743212800F7
:10148000A04720212800A0474F212800A0474B213A
:101490002800A0470D212800A047E6E7444100208E
:1014A000AC4000204D1B000070B50F24084E094DC4
:1014B0002D213000A84720213000A847013CE4B28C
:1014C000002CF5D10D210248024B984770BDC04653
:1014D000AC4000204D1B0000F0B5C64600B5244BC3
:1014E00098469847234C5B212000234DA8474C2168
:1014F0002000A8476F212000A84752212000A847BC
:1015000061212000A8475D212000A8470D2120006F
:10151000A84746212000A84757212000A8473A2184
:101520002000A847154B19782000154EB0470D2113
:101530002000A84749212000A84744212000A847AF
:101540003A212000A8470F4F39782000B04779781A
:101550002000B047B9782000B047F9782000B047A4
:101560000D212000A847C04704BC9046F0BDC046EE
:10157000A9140000AC4000204D1B00006C4200206C
:101580006D1B00003841002070B5244B1B781B07F1
:1015900000D470BD224D0D212800224CA0470D2102
:1015A0002800A0470D212800A0470D212800A047B2
:1015B0000D212800A0470D212800A0470D2128005B
:1015C000A0470D212800A0470D212800A047532146
:1015D0002800A04748212800A04748212800A0470C
:1015E00020212800A04753212800A0477921280066
:1015F000A04773212800A04774212800A047652137
:101600002800A0476D212800A0470D212800A047F1
:10161000054B98470D212800A047BAE74441002018
:10162000AC4000204D1B0000A914000070B5174C01
:1016300052212000164DA84773212000A84773218E
:101640002000A84769212000A8473A212000A84788
:1016500020212000A8472D212000A8470D4B186805
:101660000D4B9847010020000C4B9847202120008B
:10167000A84764212000A84742212000A8476D21E7
:101680002000A8470D212000A84770BDAC400020D5
:101690004D1B00003C410020E51B0000991B000091
:1016A000F8B51A4B1E681A4C52212000194DA84754
:1016B00058212000A84720212000A84743212000CE
:1016C000A8476F212000A84775212000A8476E2158
:1016D0002000A84774212000A8473A212000A847ED
:1016E00020212000A84730212000A8477821200091
:1016F000A8473104090E2000074FB847F1B2200077
:10170000B8470D212000A847F8BDC046A0400020E2
:10171000AC4000204D1B00006D1B000070B5104E4A
:10172000B047104D442128000F4CA04765212800E8
:10173000A04742212800A04775212800A047672123
:101740002800A04720212800A0474F212800A047BB
:101750004E212800A0470D212800A047B04770BDAA
:10176000A9140000AC4000204D1B000070B5124EC3
:10177000B047124D44212800114CA0476521280094
:10178000A04742212800A04775212800A0476721D3
:101790002800A04720212800A0474F212800A0476B
:1017A00046212800A04746212800A0470D212800F7
:1017B000A047B04770BDC046A9140000AC4000204F
:1017C0004D1B000070B5164B1B781B0700D470BD75
:1017D000144D57212800144CA04761212800A04730
:1017E00069212800A04754212800A0472021280073
:1017F000A04754212800A04758212800A0472021B5
:101800002800A04749212800A04752212800A047CE
:1018100051212800A0470D212800A047D7E7C04646
:1018200044410020AC4000204D1B0000044B1A68CE
:10183000044B9A4203D8024A13680133136070477D
:10184000944200206F17000070B58EB001AC0023E9
:101850000022A370238100216170A272E2722273C0
:10186000A273627322746361A3612277236263624D
:1018700023850133237080239B00A380E13BFF3B42
:10188000A37112336385A3850F4D22000F492800F1
:101890000F4EB04722000F490F48B0472A68D37B4C
:1018A0005BB2002BFBDB138802210B4313800A4B36
:1018B0001A68D37B5BB2002BFBDB138802210B433E
:1018C00013800EB070BDC04650420020002400427C
:1018D0005904000000280042D040002010B50C4CF4
:1018E00003220C4920000C4B984720680B4B98476B
:1018F0000B4B1B5C1F221A4001239340094A1360C3
:10190000637E202213436376236820225A7310BD1E
:10191000D04000202D180000050300001D04000029
:10192000E833000000E100E010B5024B9847024B9D
:10193000984710BD49180000DD180000064B1B78C1
:10194000064A12789A4206D3054A1178054AD154BC
:101950000133014A1370704741410020BD4200200D
:101960004C410020744200200B4B1B78002B0ED101
:101970000A4B1B781D2B06D8094A1178094AD15405
:101980000133064A1370064B1B780D2B00D07047AD
:101990000122014B1A70FAE7464100204041002025
:1019A000A84000201441002030B58DB08023DB0515
:1019B000009300230193FF2269460A818B72CB7248
:1019C00001220A754A758B75CB7506930B774B7799
:1019D000E1235B020493C4239B03039301235B4233
:1019E000089309933A4B0A933A4B0B933A4D3B4C6D
:1019F0006A463B492800A0470028F9D1364D2C689B
:101A00002000384B98471F2318401E3B8340364A1E
:101A100013602A68138A1BB2002BFBDB23680222A7
:101A200013432360E1235B020493C4239B030393CA
:101A300001235B42089309932C4B0A932C4B0B9385
:101A40002C4D264C6A462C492800A0470028F9D185
:101A5000284D2C682000234B98471F2318401E3B1D
:101A60008340214A13602A68138A1BB2002BFBDBD8
:101A70002368022213432360E1235B020493C423FF
:101A80009B03039301235B42089309931B4B0A9327
:101A90001B4B0B931B4D114C6A461B492800A0475A
:101AA0000028F9D1174D2C6820000E4B98471F23B2
:101AB00018401E3B83400C4A13602A68138A1BB2ED
:101AC000002BFBDB23680222134323600DB030BDE3
:101AD0000200180002001900F040002075220000EA
:101AE00000140042E521000000E100E002001200C5
:101AF00002001300AC400020000C004202000E0067
:101B000002000F00984200200010004270B50A4DFC
:101B100001220A4928000A4EB0470A4C01220A490C
:101B20002000B04721230220E95C0143E954E25C34
:101B30000243E25470BDC046AC4000206919000069
:101B400035250000984200203D19000010B589B2EB
:101B5000014B984710BDC046C9240000092802D88F
:101B60003030C0B270473730C0B2FBE7F8B505007F
:101B70000C000809064FB84781B22800054EB0474F
:101B80002007000FB84781B22800B047F8BDC04613
:101B90005D1B0000C9240000F0B583B001900C006B
:101BA0000804060E000F0D4DA84781B201980C4F96
:101BB000B8473007000FA84781B20198B847200600
:101BC000000FA84781B20198B8472007000FA84727
:101BD00081B20198B84703B0F0BDC0465D1B00005C
:101BE000C9240000F0B5CE4600B582B00600174B00
:101BF0009946FA21890098470F270401144DFA21CC
:101C000089003000A8470B00642101931800C847E1
:101C100038400443E6B2360264210198A8470B001D
:101C20000A2101931800C84700013C4004430A21DF
:101C30000198A847380008400F239C432043C0B2B6
:101C4000304302B004BC9146F0BDC04639300000BC
:101C50004531000070B50020084B98470500084C3E
:101C6000FA218900A047074B186007492800A047C0
:101C7000064B18600522064B1A6070BDCD29000086
:101C800039300000C001002040420F00C401002094
:101C900010E000E030B5084B1C68084A00258021A0
:101CA0004902013807D3002CFBD0546095601368BB
:101CB0000B42FCD0F5E730BDC401002010E000E08D
:101CC0000C4B1B68002B06D1EFF31083002B07D0C1
:101CD0000022094B1A70074A1368013313607047DA
:101CE00072B6BFF35F8F0022044B1A700132024BB1
:101CF0001A70F0E7E8010020EC010020C801002084
:101D0000084B1A68013A1A601B68002B09D1064B70
:101D10001B78002B05D00122044B1A70BFF35F8F94
:101D200062B67047E8010020EC010020C8010020E5
:101D3000F0B5C64600B582B001AC0127677000233C
:101D40009846A3702770210017202E4EB0472E4DC5
:101D500080231B04AB6121001B20B04780231B059F
:101D6000AB6121001C20B04780235B05AB612100E3
:101D70000220B04704236B6121000320B0470823F1
:101D80006B6121000420B04710236B612100052006
:101D9000B04720236B6121000620B04740236B61D0
:101DA00021000720B04780236B6121000820B04745
:101DB00080235B006B614346237021000B20B047FA
:101DC00080231B016B6121001620B0478023DB03B9
:101DD0006B6121001120B04780239B026B612100C1
:101DE0001020B04780235B026B6121000120B047C7
:101DF00002236B6121000020B0476F6102B004BC78
:101E00009046F0BD0D1E00000044004100B583B0B7
:101E100001AB80221A700A785A704A789A708A78D0
:101E2000DA701900014B984703B000BD0D2C00007B
:101E3000F0B5DE4657464E464546E0B587B080468B
:101E4000049116001F000022002300218B463F242E
:101E500001202100009601975C46039444460594B6
:101E600013E02024641A0500E540A84614E0009C15
:101E7000019D121BAB415C464D462C43A346039C7F
:101E800045462C430394013925D3202464420C1980
:101E9000E7D40500A540A84604008C40A14692184E
:101EA0005B4114001D00059E4F463E40B446049E13
:101EB00047463E40B246664657463E4303D006007C
:101EC000264332002B00009C019D9D42DBD8CED1E1
:101ED0009442D8D8CBE7039B5846190007B03CBCC6
:101EE00090469946A246AB46F0BD10B5490840233E
:101EF0000024814202D2180010BD1C00091A631C84
:101F00009BB28842F9D94023FF2CF4D814800023D7
:101F1000F1E70000F0B583B00F00160008AA1178B1
:101F200004004C434022BC4202D9100003B0F0BD73
:101F3000002B14D1020008000021194CA047010019
:101F40003A0000230020174CA04700220123121A58
:101F50008B41120C1B041A4332800022E5E7002259
:101F6000012BF9D10A00002300210D4CA0470200EB
:101F70000B0000920193380000210A4CA047050095
:101F800080239B0140229842CFD8790FF800009A15
:101F9000019BA047EA00821AD2B252032A43DBE730
:101FA00051310000311E000010B582B004000E4B0C
:101FB0001B78002B07D0002905D10B4B5B7883429F
:101FC00010D01D200CE001A90C700C20074B984785
:101FD0000C20074B9847044B5C7001221A700020BC
:101FE00002B010BD0020FBE7F0010020E52A000050
:101FF000592A0000404B984231D00AD93F4B9842B1
:102000004DD03F4B98425AD03E4B984237D000209B
:1020100070473D4B98420CD03C4B9842F7D1012978
:1020200017D000295DD0022915D0032915D0002032
:10203000EEE7012907D0002951D0022905D0032954
:1020400005D00020E4E73248E2E73248E0E73248D2
:10205000DEE73248DCE73248DAE73248D8E70129E0
:1020600007D000293FD0022905D0032905D0002040
:10207000CEE72D48CCE72D48CAE72D48C8E701290F
:1020800007D0002931D0022905D0032905D000202E
:10209000BEE72848BCE72848BAE72848B8E701293E
:1020A00007D0002923D0022905D0032905D000201C
:1020B000AEE72348ACE72348AAE72348A8E701296D
:1020C00007D0002915D0022905D0032905D000200A
:1020D0009EE71E489CE71E489AE71E4898E71E4860
:1020E00096E7032094E71D4892E71D4890E71D48B6
:1020F0008EE71D488CE7C0460010004200180042E1
:10210000001C00420014004200080042000C004283
:1021100003000500030006000300070003000100A0
:1021200003001E0003001F000300090003000A0053
:1021300003000B0003001100030012000300130052
:1021400003000D0003000E0003000F000300170042
:102150000300180003001900030004000300080036
:102160000300100003000C000300160030B587B018
:102170000B4B6A4632CB32C232CB32C2009B834217
:102180000BD001239A0069465258824206D001338F
:10219000062BF7D1002007B030BD0023D8B2FAE7F4
:1021A000F033000070470000F0B50A4B1B78002B9D
:1021B0000CD1094F094E0A4D0024DE515A19146002
:1021C0000433182BF9D10122024B1A708000024B04
:1021D000C150F0BDF2010020F4010020A521000053
:1021E0005443002000B583B007236A4613700133BF
:1021F0005370013393700133D37001331371013382
:102200005371034B98476B46185603B000BDC04648
:102210006D21000010B5024B1B680020984710BDCF
:10222000F401002010B5024B5B680120984710BDF7
:10223000F401002010B5024B9B680220984710BDA6
:10224000F401002010B5024BDB680320984710BD55
:10225000F401002010B5024B1B690420984710BD03
:10226000F401002010B5024B5B690520984710BDB2
:10227000F4010020F0B5DE4657464E464546E0B52F
:102280008DB005000C00160029600800804B9847AF
:10229000020023680520DB0706D50DB03CBC904644
:1022A0009946A246AB46F0BD236817309B07F4D48D
:1022B0007849086A971C0123BB4003430B620BA9B2
:1022C000737F0B700D32D7B23800734B98473800CC
:1022D000724B9847707F0021714B9847F37A6B716E
:1022E000337DAB71737DEB712B6898461800684B9A
:1022F00098470D3000220E2302A98C4663441A80B1
:1023000033680393F3689A46B37D9B467368994696
:10231000002B14D080235B05994530D1F37D002B31
:1023200031D133691F00C0B25E4B984701000E22C5
:1023300002AB9C46624438005B4B984720E0F37D3B
:10234000002B0BD01023009300230E2202A98C46F1
:102350006244B1693069554FB84711E033691F00D5
:10236000C0B2504B984701001023009300230E2267
:1023700002A88446624438004C4FB84700E0002071
:10238000002800D089E72A68039F138A1BB2002B1C
:10239000FBDB0E2302AA944663441B88424653810A
:1023A00053461F434B461F435B465B071F43F37D6A
:1023B000002B01D104331F43317D4904737D1B047D
:1023C0000B43B17AF27A114319433389FF2B03D0BF
:1023D0008022520417431943337F002B03D1344B1F
:1023E0009B789B0701D580231F432A68138A1BB261
:1023F000002BFBDB434659602A68138A1BB2002B73
:10240000FBDB43461F600AAB80221A7000225A7021
:10241000DA709A70336A0693736A0793B36A089303
:10242000F36A03930993002706AE06E02000214BD0
:10243000984707E00137042F0DD0F9B2BB00985937
:102440000028F3D0431CF5D00AA90870000CC0B2D4
:10245000194B9847EEE70023AB60EB602B61AB6153
:102460006B610022EB83AB832033EA540133EA54DF
:102470000133EA540133EA542868054B98470400B5
:102480000E490F4B9847A4000E4BE550002004E77F
:102490006D21000000040040E52A0000592A0000D8
:1024A000A91F0000312B0000EB1E0000151F0000CB
:1024B00000200041F51F00000D2C00006D250000DC
:1024C000A921000054430020C2791C23002A01D115
:1024D00018007047C28B92B2173B002AF8D10268ED
:1024E000138A1BB2002BFBDB11830221937B0B426F
:1024F000FCD00023ECE70000F8B506000C00150046
:1025000007680A4B9847B38B9BB2002B03D0084B4C
:1025100098470520F8BDB583054B9847746105229F
:102520002223F2541E3B7B730020F3E7C11C000002
:10253000011D0000931C9B00195020210123934092
:102540001A00435C134343547047000010B517232F
:10255000002A01D1180010BD84790533002CF9D070
:10256000014B98470300F5E7F9240000F8B5800017
:10257000464BC5582C68238A1BB2002BFBDBA37B80
:10258000667B1E402023EB5C2122AF5C1F40F307DB
:1025900022D5EB8B9BB2002B1CD0AA691378DBB23F
:1025A000511CA961697901290ED09BB2DB05DB0DB5
:1025B0002383EB8B013B9BB2EB83002B0CD10133CC
:1025C00023730133637307E0517809020B4302322E
:1025D000AA61EBE701232373B30706D50223237314
:1025E00000222133EA54FB0716D473074DD5AB8B79
:1025F0009BB2002B47D0238ADBB25A0720D09A0720
:102600000ED51A222223EA54203B23827B073CD595
:102610002B692800984738E02800AB689847E4E722
:102620005A0705D51E222223EA541E3B2382EDE7DA
:10263000DB07EBD513222223EA54213B2382E5E773
:10264000238BDB05DB0DDAB269690A706A69511CFC
:1026500069616979012910D0AB8B013B9BB2AB83D7
:10266000002B12D10433237300221E33EA54BB071C
:102670000BD5EB682800984707E01B0A53706B697D
:1026800001336B61E8E704232373F8BD5443002052
:1026900010B5072803D88000164B1B589F46002012
:1026A00027E0154BD86824E0144B1B6A9B059B0F51
:1026B0001348D8401DE0104B18691AE00E4B1B68F8
:1026C00000209B0715D50D491022CB681A42FCD07B
:1026D000094B1B685B0701D40A480AE000200A4B3B
:1026E0009847054B9B681B041B0C584301E0802056
:1026F000000210BD083400000C0200200008004059
:1027000000127A00006CDC02312B000070B50C491D
:102710000B6A0478857840780122104080014026B9
:10272000B34303432A40D20180208343134303224F
:10273000224012020348034013430B6270BDC0469F
:1027400000080040FFFCFFFF072803D880001E4B55
:102750001B589F46172036E01C4A136A02210B4380
:10276000136200202FE0194A936902210B43936101
:10277000002028E0154A138A02210B43138200200F
:1027800021E0124A938A02210B43938200201AE02F
:102790000F4B1A6802210A431A601B680D4A134046
:1027A0000A4A938411001022CB681A42FCD0084ACE
:1027B0009168064BD96251689962126892B29A8404
:1027C000002000E00020704728340000000800408E
:1027D0000C0200207FFF0000F0B5C64600B584B0B3
:1027E000C222D200284B9A60284A53681E218B438C
:1027F000536002236A4613700024254DE0B26946F7
:10280000A84701341C2CF9D103A8002444700123EB
:102810009846837004701F4B984706201E4B9847BC
:102820001E4B98476B465C7006271F701C725C72CB
:102830000823019369460120194EB0470120194D24
:10284000A8476B465C701C725C7203236A46137067
:102850001D33019369460420B0470420A847124B5A
:102860001C725C729C72DC72434601936B465C7016
:102870001F701C725C7269460020B0470020A84798
:1028800004B004BC9046F0BD000800400040004188
:10289000E52A00000D27000049270000AD280000B0
:1028A000D12800008929000000040040064A9369ED
:1028B00008210B4393610122044B1A7019000B7815
:1028C0001342FCD17047C04600040040000C004099
:1028D00070B5060004000D782D0205434B78002BDF
:1028E00002D08023DB021D434B7A002B02D08023D1
:1028F0001B031D434868012810D9431E184234D1D8
:10290000022830D90223002201325B009842FBD812
:1029100012023243140080235B031D430B7A002B09
:1029200002D080239B031D43134A53785BB2002BD4
:10293000FBDB124B9847124B1E700F4A53785BB269
:10294000002BFBDB0C4B9C601A0053785BB2002B16
:10295000FBDB094A5368802149020B401D43556047
:10296000084B984770BD0022D2E70402344380230D
:102970009B021D43D2E7C046000C0040C11C000072
:10298000080C0040011D000010B504000B4A5378EC
:102990005BB2002BFBDB0A4B98470A4B1C70074AC3
:1029A00053785BB2002BFBDB044A516880235B0247
:1029B0000B435360044B984710BDC046000C0040C9
:1029C000C11C0000040C0040011D000070B5040093
:1029D0001A4A53785BB2002BFBDB194B9847194B13
:1029E0001C70164A53785BB2002BFBDB134E7068E9
:1029F000C004C00E144B98470500124B1C7076683B
:102A0000F602F60F114B1C700C4A53785BB2002B88
:102A1000FBDB0A4B9C682402240C0D4B9847002ECC
:102A200007D1012C07D9210028000A4B984705003F
:102A300001E00134E540280070BDC046000C0040B4
:102A4000C11C0000040C004091260000080C00404E
:102A5000011D00003930000010B50400064B9847F6
:102A6000064B1C70064A53888021C9010B435380D2
:102A7000044B984710BDC046C11C0000020C00402A
:102A8000000C0040011D000010B504000F4B9847DA
:102A90000F4B1C700F4A53881B05180F53880E49A3
:102AA0000B40538053880D490B4053801100802206
:102AB000D2014B881342FCD106494A8803020648DA
:102AC000024013434B80064B984710BDC11C0000C9
:102AD000020C0040000C0040FFF0FFFFFFBFFFFFB3
:102AE000011D000010B50C7824020443024B9847E6
:102AF000A4B2024B5C8010BD892A0000000C00408B
:102B000010B50400064B9847064B1C70064A5388C4
:102B1000C02109020B435380044B984710BDC046A7
:102B2000C11C0000020C0040000C0040011D000010
:102B300010B50400064B9847064B1C70064B5C888A
:102B40002405240F054B98472000054B984710BDDE
:102B5000C11C0000020C0040000C0040011D0000E0
:102B6000CD29000030B5D378002B35D11378802BD8
:102B700029D01B0680246402234354780225AC43E9
:102B800006D19478002C20D18024A40223434160F4
:102B90005478013C012C1CD90D042D0CA024E40513
:102BA0002C431C4384620D0CD02424062C431C436C
:102BB0008462D478002C22D15B031CD59378012B3E
:102BC0001ED0416117E00023D7E7C024E40223436D
:102BD000DDE70D4C2340DFE741600C04240CA0230B
:102BE000DB05234383620C0CD0231B062343836243
:102BF000D378002B03D15378013B012B02D930BD90
:102C00008161F8E78160FAE7FFFFFBFF10B50A007A
:102C1000C1090023002904D14309DB0105498C4681
:102C200063441F242040012181401800024B984733
:102C300010BDC04600440041652B000070470000F5
:102C400010B5054B9847054B9847054B9847054BE2
:102C50009847054B984710BDD9270000311D00004B
:102C60003D2C00000D0200003D2C0000FEE700009E
:102C700010B51A4A1A4B9A4211D01A00194B9A42AF
:102C80000DD2194A03339B1A9B0801339B00002283
:102C9000134812498C58845004329A42FAD1134A8C
:102CA000134B9A420AD2D34311495B1803218B4339
:102CB00004339B18002102C29342FCD10D4AFF212C
:102CC0000D4B8B4393600D4A53687F390B43536020
:102CD0000B4B98470B4B9847FEE7C0466834000003
:102CE00000000020CC01002004000020CC010020C6
:102CF0006C43002000ED00E00000000000400041B7
:102D0000A5310000092D0000F8B5A24B9847A24B51
:102D10009847A24B9847A24B9847A24B9847A24B83
:102D20009847A24B9847A24B9847A24B984701223D
:102D3000A14B1A70BFF35F8F62B6A04DA847A04B9E
:102D40009847802100209F4CA04752210120A04796
:102D500053210120A04753210120A04749210120F0
:102D6000A0473A210120A04720210120A0472D2182
:102D70000120A0478B210020A04720210120A0474F
:102D800064210120A04742210120A0476D2101209C
:102D9000A047C0210020A04753210120A047462181
:102DA0000120A0473A210120A04720210120A0476F
:102DB000C8210020A04744210120A0476121012013
:102DC000A04774210120A04761210120A0473A219A
:102DD0000120A04720210120A047A8477A4A137864
:102DE00008210B431370794B98470023784A1370DE
:102DF000784A13700322784B1A70784AFA239B01A1
:102E0000D018302102E01032904205D00023D15476
:102E10000133102BFBD1F6E7714E14E02021012085
:102E2000684CA0476F4B19783031C9B20120A047D8
:102E30006D4B1B78042B61D0654B1B78012B63D045
:102E4000022B00D1A1E0012268496948B047012264
:102E500068496948B047694B9847694B694A107897
:102E60008A2158545078013158549078013158547F
:102E7000D1788D2299545B4900230B70624C226AF1
:102E8000920D01331A400A70226A520C1A40520005
:102E900008780225A84302430A70226A120C1340E4
:102EA0009B000A780420824313439A1DD2B20A7011
:102EB000454909788907BBD5544909789142B7D06B
:102EC000013371214E4843546D39424B19704F4BB9
:102ED0001A70C03100203B4B9847424B1B780C2B9B
:102EE000A6D8092B9AD931210120364CA0473D4B59
:102EF00019782631C9B20120A04799E7444B984779
:102F00000522394B1A7097E7424B1B78002B0AD0E9
:102F10000024414D414F295D3548B84701343D4BB0
:102F20001B78A342F7D800223A4B1A703A4B1B7811
:102F3000642B0BD0384B1B78732B1BD0364B1B7874
:102F4000722B1AD00022224B1A707CE71E4B1B7882
:102F50001B0707D51C4A137808218B431370304B8D
:102F60009847E7E7184A137808210B4313702D4B55
:102F70009847DFE72C4B9847E0E72C4CA0472C4BB9
:102F800098472C4B9847A047DCE70022104B1A705B
:102F900059E7C046412C0000A91900000D1B000094
:102FA000291900002108000051080000551C0000EC
:102FB0000901000035010000C8010020A50700003C
:102FC0000D090000F10800004441002089150000AF
:102FD00046410020A44000206D4200202002002035
:102FE0004D25000034410020EC400020A840002086
:102FF000AC4000204C41002098420020D50B00003E
:1030000000000020384100200044004145410020DC
:10301000F90F000040410020144100204D1B00002A
:103020006D1700001D170000D9140000A91400003E
:103030002D160000A1160000002243088B4274D315
:1030400003098B425FD3030A8B4244D3030B8B42A9
:1030500028D3030C8B420DD3FF22090212BA030CB2
:103060008B4202D31212090265D0030B8B4219D393
:1030700000E0090AC30B8B4201D3CB03C01A5241B3
:10308000830B8B4201D38B03C01A5241430B8B42FB
:1030900001D34B03C01A5241030B8B4201D30B03E4
:1030A000C01A5241C30A8B4201D3CB02C01A52410B
:1030B000830A8B4201D38B02C01A5241430A8B42CE
:1030C00001D34B02C01A5241030A8B4201D30B02B7
:1030D000C01A5241CDD2C3098B4201D3CB01C01AD1
:1030E000524183098B4201D38B01C01A52414309DB
:1030F0008B4201D34B01C01A524103098B4201D3C9
:103100000B01C01A5241C3088B4201D3CB00C01A35
:10311000524183088B4201D38B00C01A52414308AD
:103120008B4201D34B00C01A5241411A00D20146D2
:10313000524110467047FFE701B5002000F006F845
:1031400002BDC0460029F7D076E770477047C046F9
:10315000F0B5CE46474615042D0C2E0080B5070469
:10316000140C3F0C9946030C7E435D436743634355
:103170007F19340CE4199C46A54203D980235B02D5
:103180009846C4444B46514343433604360C250C01
:1031900024046544A4195918491920000CBC904610
:1031A0009946F0BD70B500260C4D0D4C641BA41063
:1031B000A64209D1002600F047F90A4D0A4C641BCB
:1031C000A410A64205D170BDB300EB589847013654
:1031D000EEE7B300EB5898470136F2E754340000AD
:1031E000543400005434000058340000002310B55B
:1031F0009A4200D110BDCC5CC4540133F8E7000002
:10320000002000420024004200280042002C00421E
:10321000003000420034004200380042003C0042CE
:10322000000100020004000800100020004000809F
:10323000560D0000A60D0000C40D0000020E000097
:10324000E20D0000B20E00007C0E00003A0E0000FD
:10325000FC0C0000FC0C0000FC0C0000FC0C00004E
:10326000FC0C0000FC0C0000FC0C0000FC0C00003E
:10327000FC0C0000FC0C0000FC0C0000FC0C00002E
:10328000FC0C0000FC0C0000FC0C0000FC0C00001E
:10329000FC0C0000FC0C0000FC0C0000FC0C00000E
:1032A000FC0C0000FC0C0000FC0C0000FC0C0000FE
:1032B000FC0C0000FC0C0000FC0C0000FC0C0000EE
:1032C000FC0C0000FC0C0000FC0C0000FC0C0000DE
:1032D000FC0C0000FC0C0000FC0C0000FC0C0000CE
:1032E000FC0C0000FC0C0000FC0C0000FC0C0000BE
:1032F000FC0C0000FC0C0000FC0C0000FC0C0000AE
:10330000FC0C0000FC0C0000FC0C0000FC0C00009D
:10331000FC0C0000FC0C0000FC0C0000FC0C00008D
:10332000FC0C0000FC0C0000FC0C0000FC0C00007D
:10333000FC0C0000FC0C0000FC0C0000FC0C00006D
:10334000FC0C0000FC0C0000FC0C0000FC0C00005D
:10335000FC0C0000FC0C0000FC0C0000FC0C00004D
:10336000FC0C0000FC0C0000FC0C0000FC0C00003D
:10337000FC0C0000FC0C0000FC0C0000FC0C00002D
:10338000FC0C0000FC0C0000FC0C0000FC0C00001D
:10339000FC0C0000FC0C0000FC0C0000FC0C00000D
:1033A000FC0C0000FC0C0000FC0C0000FC0C0000FD
:1033B000FC0C0000FC0C0000FC0C0000FC0C0000ED
:1033C0009A0E0000F60E0000FC0C0000180C000025
:1033D000620C0000760D0000EC0F0000EA0B00000C
:1033E000D20E0000700E00000D0E0F1011121314FB
:1033F00000080042000C004200100042001400428D
:1034000000180042001C0042A22600009E26000078
:103410009E260000EE260000EE260000B6260000E4
:10342000A8260000BC2600007427000054270000D6
:1034300054270000C42700006627000082270000F0
:103440005827000090270000F8B5C046F8BC08BC1B
:103450009E467047CD000000F8B5C046F8BC08BCD9
:083460009E467047A500000024
:10346800800000FFFFFFFFFFFFFFFFFFFFFFFFFFE1
:10347800FFFFFFFFFFFFFFFFFFFFFFC10100FFFF8F
:10348800FFFFFFFFFFFFFFFFFFFFFFFFFFFFFFFF44
:10349800FFFFFFFFFFFFC10200FFFFFFFFFFFFFF6E
:1034A800FFFFFFFFFFFFFFFFFFFFFFFFFFFFFFFF24
:1034B800FFC103050301656C00FFFFFFFFFFFFFF6E
:1034C800FFFFFFFFFFFFFFFFFFFFFFFFC104030335
:1034D8000104FFFFFFFFFFFFFFFFFFFFFFFFFFFFED
:1034E800FFFFFFFFFFFFFFC10518000102030405EE
:1034F800060708090A0B0C0D0E0F101112131415EC
:103508001617C10600FFFFFFFFFFFFFFFFFFFFFFCA
:10351800FFFFFFFFFFFFFFFFFFFFFFFFFFC10700E8
:10352800FFFFFFFFFFFFFFFFFFFFFFFFFFFFFFFFA3
:10353800FFFFFFFFFFFFFFFF00000000000000008B
:103548000000000000000000000000000000000073
:103558000000000000000000000000000000000063
:103568000000000000000000000000000000000053
:103578000000000000000000000000000000000043
:103588000000000000000000000000000000000033
:103598000000000000000000000000000000000023
:1035A8000000000000000000000000000000000013
:1035B8000000000000000000000000000000000003
:1035C80000000000000000000000000000000000F3
:1035D80000000000000000000000000000000000E3
:1035E80000000000000000000000000000000000D3
:1035F80000000000000000000000000000000000C3
:1036080000000000000000000000000000000000B2
:1036180003030308061B030300000000000000006A
:0C362800401F000008000000010000002E
:0400000300002C715C
:00000001FF
