S01500005348485F4D61737465725F30322E73726563A0
S1130000B8630020C92E0000C52E0000C52E0000D4
S113001000000000000000000000000000000000DC
S1130020000000000000000000000000C52E0000D9
S11300300000000000000000C52E0000C52E0000D6
S1130040C52E0000C52E0000890A0000C52E000040
S113005039040000C52E0000C52E00006D240000E8
S11300607D2400008D2400009D240000AD240000A8
S1130070BD240000350600004506000055060000BA
S11300806506000075060000850600009506000060
S1130090A5060000C52E0000C52E0000C52E0000D8
S11300A0C52E000010B5064C2378002B07D1054B54
S11300B0002B02D0044800E000BF0123237010BDD0
S11300C0CC01002000000000DC380000084B10B513
S11300D0002B03D00749084800E000BF0748036825
S11300E0002B00D110BD064B002BFBD09847F9E73D
S11300F000000000D0010020DC380000DC380000E3
S11301000000000010B51E4AD36904210B43D361DB
S11301101C4B2022FF321A831A7D0523D20701D4F7
S1130120180010BD03781B02C022920013404178CE
S1130130C901FF220A401343817849001E220A4064
S11301401343C27892048021C9020A4013430279FE
S11301501204C02189020A4013430A4A5360936877
S11301605B035B0F084908249C400C8093684B8018
S113017043780B71138BDB05DB0F1B01D0E7C04603
S11301800004004000400041E801002030B50400B4
S1130190224A1088538843438B4206D2802292011C
S11301A018201F4BCB1893420ED81E4B5D6880223B
S11301B0D2022A435A602022FF321A831B7DDB07B6
S11301C003D4184B5D60052030BD452C22D8A30014
S11301D0154AD3589F46134B1B8BDB0503D5114B94
S11301E05D601020F0E7890849000E4BD96103E0F7
S11301F0890849000B4BD961A52000020443094B2F
S11302001C80190001220B7D1342FCD0054B5D605C
S11302100020D9E7034B5D601720D5E7E8010020F3
S113022000C07FFF004000415C350000F8B5254B5D
S11302301D885B886B431824834201D22000F8BDDB
S11302406B1E1842FAD1013C9542F7D31E4B1B7D1D
S1130250123CDB07F2D51D4C1B4B1C801D000124F6
S11302602B7D2342FCD02024FF34174B1C83002A0F
S113027022D0012305009D430023571E09E0CE1818
S11302807678360234432C8002339BB202359A428C
S113029004D9CC5CBB42F2DBA4B2F4E7094B1B7972
S11302A00024002BCAD13F2AC8D800220100042010
S11302B0074B98470400C1E7024B1B790024002B2D
S11302C0F3D0BBE7E80100200040004144A5FFFF54
S11302D08D01000070B5184B1D885B886B43182492
S11302E0834201D2200070BD6B1E1842FAD1013C3A
S11302F09542F7D3114B1B7D123CDB07F2D520242A
S1130300FF340E4B1C83002A14D00123984300238E
S1130310561E04E002339BB202309A4208D9048884
S1130320A4B2CC54B342F5DACD18240A6C70F1E7C8
S11303300024D7E70024D5E7E8010020004000416D
S1130340134B1A885B8853431821834201D2080057
S113035070479200013A1042F9D10E4B1B7D1339BC
S1130360DB07F4D50B4B2022FF321A8380084000B0
S1130370D861094A1A80190001220B7D1342FCD06E
S1130380044B198B1C200140481E81418900DEE783
S1130390E80100200040004102A5FFFF7047000073
S11303A000B583B000236A461370012269464A707F
S11303B003328A700B710A33CB70013B4B71684670
S11303C0014B984703B000BD3D09000010B5002162
S11303D00348044B98470020034B984710BDC04680
S11303E09D030000550A0000690A00001723002A33
S11303F001D0180070478B00064A9B58002B03D08D
S1130400834205D01D23F4E7890088500023F0E7D8
S11304100023EEE7384300201723002901D01800F9
S1130420704700221F2800D8024A01238340D3606A
S11304300023F4E70018004070B50022104B1A7036
S1130440002310491F25104E0D4C0AE00D4908E009
S113045023780133DBB223700F2B10D800211F2B1C
S1130460F4D9280018400122824008691042EFD0D4
S11304700A619B009B59002BEAD09847E8E770BDBE
S1130480344300200018004038430020044A137805
S113049002210B43137053785BB2002BFBDB7047D4
S11304A00018004000B583B0124A936940210B4301
S11304B0936101A900230B7003200F4B984703207D
S11304C00E4B98470E4A137801210B43137053784F
S11304D05BB2002BFBDB0B4B19004031002204C341
S11304E09942FCD11022084B1A60084B984703B07C
S11304F000BDC046000400403D2D0000B12C0000AA
S1130500001800403843002000E100E08D040000A2
S11305100023036043600122027242728372023339
S1130520C3727047F0B583B005000C0001A9002325
S11305304B70CB7023790B70237A8B702078154B1A
S1130540984700201F2D00D8134807222A40920004
S1130550E77AA37A002B01D008231F43EB089B0002
S1130560C31899690F269640B14397403A000A434D
S11305709A61637A002B06D143690122AA4093430E
S1130580436103B0F0BD42690123AB4013434361AF
S1130590F7E7C046652E000000180040931C9B003E
S11305A01950022A09D0032A0CD0012393401A00BF
S11305B0037E1343037600207047037E1022134307
S11305C00376F8E7037E202213430376F3E7000063
S11305D070B58000164BC45823689D7B227E637ED1
S11305E013401D40EB0706D4AB070BD4EB0610D425
S11305F0AB0615D470BD2000A36898470123226878
S11306009373F1E72000E368984702232268937309
S1130610ECE7200023699847102322689373E7E7E7
S1130620200063699847236820229A73E2E7C04652
S11306307843002010B50020014B984710BDC046F8
S1130640D105000010B50120014B984710BDC046EC
S1130650D105000010B50220014B984710BDC046DB
S1130660D105000010B50320014B984710BDC046CA
S1130670D105000010B50420014B984710BDC046B9
S1130680D105000010B50520014B984710BDC046A8
S1130690D105000010B50620014B984710BDC04697
S11306A0D105000010B50720014B984710BDC04686
S11306B0D105000030B589B00C4B6A4632CB32C24A
S11306C032CB32C212CB12C2009B98420BD0012310
S11306D09A0069465258824206D00133082BF7D15A
S11306E0002009B030BD0023D8B2FAE77436000008
S11306F0F0B589B004000D0016000800874B984738
S1130700070006AB13221A705A7001329A70DA701D
S113071001321A715A7101329A71DA71063A8049BA
S1130720203102A87F4B98470023A360E360236134
S1130730636123766376BA007B4BD4502560B3782B
S1130740082B06D023712B880520DB0705D509B0BB
S1130750F0BD1720FA07FAD4F4E7EB7B1730DB0679
S1130760F5D42B889B07F2D4337C002B00D07AE09D
S1130770337F002B00D082E06C49086A7A0002AB18
S1130780D35A03430B62B378082B00D187E0337844
S11307906A46137006ABDF5D69463800644B9847C0
S11307A03800644B98473189B3880B43B178B279E8
S11307B0114319437378002B02D080231B01194382
S11307C02268D37B5BB2002BFBDB2980717B4B1E41
S11307D099418900B37B002B01D00123194322687E
S11307E0D37B5BB2002BFBDBFF232B71002905D0ED
S11307F02268D37B5BB2002BFBDB6971B17AF37A9D
S1130800002B01D010231943337B002B01D020236C
S113081019432268D37B5BB2002BFBDBA9712268EE
S1130820D37B5BB2002BFBDB2379042B3FD0082B5B
S11308305ED01720002B00D089E7D37B5BB2002B5E
S1130840FBDB338D2B822268D37B5BB2002BFBDB7B
S1130850738D2B832268D37B5BB2002BFBDBB38DC0
S11308606B83002073E701A901238B700022CA70F7
S1130870327E0A704B70307D2F4B984778E701A980
S113088001238B700022CA702432B21812780A70C5
S11308904B701F33F3181878274B98476CE7086A96
S11308A07A1C520002ABD35A03430B626FE7D37B2B
S11308B05BB2002BFBDB2823F35C2B742268D37B15
S11308C05BB2002BFBDB2923F35C2B752268D37B03
S11308D05BB2002BFBDB2A23F35C2B762268D37BF1
S11308E05BB2002BFBDB2B23F35C6B7600202EE743
S11308F0D37B5BB2002BFBDBB36A2B612268D37B17
S11309005BB2002BFBDBF36AAB612268D37B5BB287
S1130910002BFBDB336BEB61002018E7B50600000E
S1130920743600004935000078430020000400407C
S11309303D2D0000B12C0000652E000010B582B0E2
S11309400400394A936910210B439361374B1B7898
S11309505BB21020002B03DBE3780730002B01D1BE
S113096002B010BD22799A42FAD862799A42F7D835
S11309702E4A13780E398B431370D3795BB2002B54
S1130980FBDB63780020002BEAD001A9A3780B706D
S11309900130274B98470120264B98472378002B9A
S11309A027D1E378013B2279002A26D01F490A780F
S11309B0042002430A702279013A824013431B49FE
S11309C0CA7952B2002AFBDBDBB2184A537063794E
S11309D0002B18D12378002B1FD0144A13788021C0
S11309E00B431370114AD3795BB2002BFBDB00205D
S11309F0B6E70120104B9847D3E70C490A78042046
S1130A0082430A70DBE71100CA7952B2002AFBDB89
S1130A10013BDBB2054A9370DCE7044A13780221F8
S1130A200B431370DEE7C046000400400010004092
S1130A303D2D0000B12C0000592D0000A522044BCF
S1130A401A721A00D3795BB2002BFBDB7047C046E5
S1130A5000100040002901D017207047014B186096
S1130A600020FAE798430020002801D0172070479F
S1130A700122034B5A710332024B1A60F7E7C04656
S1130A800010004000E100E010B50122034B9A7110
S1130A90034B1B68002B00D0984710BD001000408A
S1130AA098430020034B1B78002B02D10122014BF9
S1130AB01A7070470443002010B584B001AC2000C4
S1130AC0074B98470B230193002363602372013380
S1130AD0E37221000B20034B984704B010BDC046BD
S1130AE0110500002505000010B500220B21044863
S1130AF0044B984700210B20034B984710BDC04678
S1130B00A50A0000ED0300001904000070B50128D7
S1130B1022D008221A4B5A610422194B5A61CB077E
S1130B201ED50C32164B9A618B071DD52022144B0F
S1130B309A614B071CD54022114B9A610B071BD4B9
S1130B4080220F4B5A610E4C80256D00A5610F2049
S1130B500C4B9847656170BD0822094B9A61DBE72D
S1130B601022074B5A61DFE72022054B5A61E0E768
S1130B704022034B5A61E1E78022014B9A61E2E78C
S1130B8000440041ED1E000070B505000C00090989
S1130B90034EB0472107090F2800B04770BDC04677
S1130BA00D0B0000F8B5DE46474680B58046274B5E
S1130BB01D5C002D33D041000818C10040182449A1
S1130BC00B180130013DEDB24019091800251A78BF
S1130BD0554001339942FAD1002443465B00434413
S1130BE0DA009B181A4FFF181A4EBB4606E0013470
S1130BF0E4B2164B42469B5CA34210D9395D1648B9
S1130C00B047164B1B781B07F1D55B46195D14489A
S1130C10144B9847202112480E4B9847E7E72900C8
S1130C200D480C4B98470D4B1B781B0703D40CBC89
S1130C3090469B46F8BD0A4C29002000094B984772
S1130C400D212000034B9847F1E7C046B001002076
S1130C5000000020A51D0000E04200204C410020BF
S1130C60B4400020C51D000010B50024064B1C70C4
S1130C700422064B1A700520054B98476722054B42
S1130C801A70054B1C6010BD49410020054300202B
S1130C90A50B0000AC400020DC42002010B500246D
S1130CA0064B1C701D22064B1A700620054B9847F4
S1130CB06722054B1A70054B1C6010BD494100208A
S1130CC005430020A50B0000AC400020DC420020BE
S1130CD010B50024064B1C700522064B1A70072021
S1130CE0054B98476722054B1A70054B1C6010BDD5
S1130CF04941002005430020A50B0000AC40002022
S1130D00DC42002010B50024084B1C700422084B60
S1130D101A705423074AD0540320074B984767227C
S1130D20064B1A70064B1C6010BDC046494100209A
S1130D300543002000000020A50B0000AC4000206B
S1130D40DC42002010B50024064B1C700422064B24
S1130D501A700420054B98476722054B1A70054BFF
S1130D601C6010BD4941002005430020A50B000074
S1130D70AC400020DC42002010B50024064B1C705F
S1130D800B22064B1A700220054B98476722054B2D
S1130D901A70054B1C6010BD49410020054300201A
S1130DA0A50B0000AC400020DC42002010B500245C
S1130DB0064B1C700922064B1A700020054B9847FD
S1130DC06722054B1A70054B1C6010BD4941002079
S1130DD005430020A50B0000AC400020DC420020AD
S1130DE010B50024064B1C700422064B1A70012017
S1130DF0054B98476722054B1A70054B1C6010BDC4
S1130E004941002005430020A50B0000AC40002010
S1130E10DC420020034BDA781B7912021343024AA6
S1130E2013607047BC420020A8400020F0B583B096
S1130E30D64B1A786D2A00D98CE09300D44AD35843
S1130E409F46D44B1A68FA239B009A4200D881E04B
S1130E50D14B9847D14B1B785B0704D4D04B1A78FD
S1130E60CA4B1A7076E0CF4B1A78C84B1A7071E0EF
S1130E70C84B1A68F423FF339A420CD8CA4B1A7829
S1130E80CA4B1B789A4265D10022C94B1A6068325A
S1130E90BE4B1A705EE0C64B1A6801321A601B68BA
S1130EA0032B05D90022B94B1A70C24B984751E065
S1130EB0BC4B1A78B54B1A70F7E7B84B1B781B0775
S1130EC00CD400226B46DA71B74B1B78013B002B24
S1130ED024DD00270024B14EB74D13E00921B748A3
S1130EE0B74B9847EDE76B46DA1DDB79B249C95D2C
S1130EF04B4013700134E4B22700AB4B1B78013B29
S1130F009C420BDA33781B07EDD5E95DAB48AD4B5A
S1130F1098472021A948AA4B9847E4E79F4B1B78A0
S1130F201B0719D46B46DA79D2B29F4B1978A24BBE
S1130F305B18013B1B78934231D0A34B9847974AE7
S1130F40137804210B4313700022924B1A606B3206
S1130F508E4B1A7003B0F0BD984C2D212000984D93
S1130F60A84720212000A8478F4F3A78924B9B181E
S1130F70013B19782000934EB04720212000A84758
S1130F8039782000B04720212000A8476B46D97942
S1130F90C9B22000B04720212000A847C2E78B4BEC
S1130FA098477E4A137804218B431370CCE77B4A1D
S1130FB0137802218B43137000227A4B1A70693222
S1130FC0774B1A70824B9847824B9847C2E7734A13
S1130FD0137802218B431370774B19797E4A117071
S1130FE07E4A5979117099795170D97991701B7A27
S1130FF0D3707B4B98470122644B1A70AAE7674968
S11310000B78022293430B700121664B1970644BD9
S11310101A70744B9847744B98479BE75F490B7859
S1131020022293430B705F4B1A7002325C4B1A70AE
S11310306E4B98476E4B98478CE7584A13780221B9
S11310408B4313700422574B1A70013A544B1A7095
S1131050684B9847684B98477CE7504A13780221BD
S11310608B43137003224F4B1A70644B9847644BA5
S11310701B78032B06D00522494B1A700220614BC2
S1131080984767E70722464B1A7003205D4B984741
S113109060E7424A137802210B4313705A4B1B78C2
S11310A0012B00D056E780221205584B5A61584B49
S11310B0984707223B4B1A706632394B1A70554BCE
S11310C09847554B984745E7544B984706222F4B72
S11310D01A703FE7802212054C4B9A610622314B6D
S11310E01A705E322E4B1A704D4B98474D4B9847F1
S11310F030E70022444B1A7004324B4B1A704B4BAE
S113110098470722214B1A7024E7244A13780221B6
S11311100B4313700522234B1A706732204B1A704D
S1131120434B9847434B984714E7374B1B78012BA5
S113113000D00FE780225205344B9A613E4B98470A
S11311400022314B1A706532104B1A7002E73B4B88
S11311501B68002B10D00F4B1A68FA23DB009A424D
S113116000D8F7E66A22094B1A70673A244B1A70C2
S11311700022324B1A60EDE6314B98470022054BB2
S11311801A6001322D4B1A60E4E6C046AC400020E0
S1131190A4360000DC420020411300004C41002032
S11311A0554100204A4100204941002005430020C8
S11311B0B84200209D130000BC420020B44000202F
S11311C0A51D0000C51D000069160000B916000029
S11311D0FD120000AD0D00007442002040410020CB
S11311E031170000F1130000E10D00003914000074
S11311F0790D0000C1140000450D00007D140000AD
S113120075420020050D0000044300200044004105
S11312103D0A000005150000D10C0000150E000069
S1131220491500009D0C0000F44000208D150000BD
S1131230DD150000690C00001D1A0000504100205B
S1131240211600000422014B1A7083E6AC400020F2
S1131250F0B5C64600B5224FFB7E387F1B02034320
S113126080204002C01A1F4B18601F4B984706008D
S11312700404240E872100201C4DA8472006000FDB
S11312801B4B9846984701000120A8472407200FCC
S1131290C04701000120A8473006000FC0470100E5
S11312A00120A8473007000FC04701000120A847CC
S11312B0CE210020A847F9790120A8470D4B1B6ACD
S11312C0DB0706D50C4B1B78102B05D902220A4BE1
S11312D01A7004BC9046F0BD0133074A1370F8E756
S11312E0BC420020444100203D1E0000890B000048
S11312F0B51D0000004400417642002070B50D4B3E
S11313001B781B0700D470BD0B4D522128000B4CD9
S1131310A04764212800A04720212800A047492194
S11313202800A04744212800A04709212800A047FD
S1131330E9E7C0464C410020B4400020A51D000050
S113134070B5134B1B781B0700D470BD114D43219E
S11313502800114CA0474D212800A0474421280013
S1131360A04720212800A04744212800A047652148
S11313702800A0476C212800A04761212800A0472D
S113138079212800A0470D212800A047DDE7C046A9
S11313904C410020B4400020A51D000070B5114B45
S11313A01B781B0700D470BD0F4D542128000F4C2F
S11313B0A04769212800A0476D212800A047652186
S11313C02800A04720212800A0474F212800A0473B
S11313D075212800A04774212800A0470D2128006A
S11313E0A047E0E74C410020B4400020A51D0000C8
S11313F070B50E4B1B781B0700D470BD0C4D4C21EF
S113140028000C4CA04752212800A0472021280086
S1131410A04752212800A04753212800A047542167
S11314202800A04709212800A047E6E74C410020F6
S1131430B4400020A51D000070B50D4B1B781B07A0
S113144000D470BD0B4D522128000B4CA0476421E1
S11314502800A04720212800A04753212800A047A6
S113146074212800A04709212800A047E9E7C046C5
S11314704C410020B4400020A51D000070B50D4B68
S11314801B781B0700D470BD0B4D572128000B4C53
S1131490A04772212800A04720212800A047462108
S11314A02800A04751212800A04709212800A0476F
S11314B0E9E7C0464C410020B4400020A51D0000CF
S11314C070B50D4B1B781B0700D470BD0B4D572115
S11314D028000B4CA04772212800A0472021280097
S11314E0A04753212800A04774212800A0470921C0
S11314F02800A047E9E7C0464C410020B440002042
S1131500A51D000070B50D4B1B781B0700D470BDE2
S11315100B4D522128000B4CA04764212800A04702
S113152020212800A04743212800A0475421280057
S1131530A04709212800A047E9E7C0464C41002004
S1131540B4400020A51D000070B50D4B1B781B078F
S113155000D470BD0B4D522128000B4CA0476421D0
S11315602800A04720212800A04742212800A047A6
S113157046212800A04709212800A047E9E7C046E2
S11315804C410020B4400020A51D000070B5104B54
S11315901B781B0700D470BD0E4D522128000E4C41
S11315A0A04753212800A04754212800A047202108
S11315B02800A04749212800A04752212800A0471D
S11315C051212800A0470D212800A047E3E7C04689
S11315D04C410020B4400020A51D000070B50D4B07
S11315E01B781B0700D470BD0B4D572128000B4CF2
S11315F0A04772212800A04720212800A0474221AB
S11316002800A04746212800A04709212800A04718
S1131610E9E7C0464C410020B4400020A51D00006D
S113162070B50E4B1B781B0700D470BD0C4D4C21BC
S113163028000C4CA04765212800A04776212800EB
S1131640A04720212800A04754212800A047582162
S11316502800A0470D212800A047E6E74C410020C0
S1131660B4400020A51D000070B5104B1B781B076B
S113167000D470BD0E4D432128000E4CA0475221CA
S11316802800A04743212800A04720212800A04784
S113169045212800A04772212800A0477221280074
S11316A0A0470D212800A047E3E7C0464C41002095
S11316B0B4400020A51D000070B50E4B1B781B071D
S11316C000D470BD0C4D432128000C4CA04752217E
S11316D02800A04743212800A04720212800A04734
S11316E04F212800A0474B212800A0470D212800A6
S11316F0A047E6E74C410020B4400020A51D0000AF
S113170070B50F24084E094D2D213000A847202123
S11317103000A847013CE4B2002CF5D10D21024869
S1131720024B984770BDC046B4400020A51D000080
S1131730F0B5C64600B5244B98469847234C5B2128
S11317402000234DA8474C212000A8476F212000EA
S1131750A84752212000A84761212000A8475D2105
S11317602000A8470D212000A84746212000A847B3
S113177057212000A8473A212000A847154B197883
S11317802000154EB0470D212000A8474921200014
S1131790A84744212000A8473A212000A8470F4F1A
S11317A039782000B04779782000B047B978200014
S11317B0B047F9782000B0470D212000A847C04762
S11317C004BC9046F0BDC04601170000B4400020A0
S11317D0A51D000074420020C51D000040410020EA
S11317E070B5244B1B781B0700D470BD224D0D210E
S11317F02800224CA0470D212800A0470D212800D5
S1131800A0470D212800A0470D212800A0470D2145
S11318102800A0470D212800A0470D212800A0473B
S11318200D212800A04753212800A0474821280063
S1131830A04748212800A04720212800A047532181
S11318402800A04779212800A04773212800A04739
S113185074212800A04765212800A0476D21280095
S1131860A0470D212800A047054B98470D212800CB
S1131870A047BAE74C410020B4400020A51D000059
S11318800117000070B5174C52212000164DA847CF
S113189073212000A84773212000A8476921200054
S11318A0A8473A212000A84720212000A8472D213D
S11318B02000A8470D4B18680D4B984701002000E5
S11318C00C4B984720212000A84764212000A847FA
S11318D042212000A8476D212000A8470D212000A7
S11318E0A84770BDB4400020A51D0000444100205D
S11318F03D1E0000F11D0000F8B51A4B1E681A4C7D
S113190052212000194DA84758212000A847202122
S11319102000A84743212000A8476F212000A847A2
S113192075212000A8476E212000A84774212000BB
S1131930A8473A212000A84720212000A8473021A9
S11319402000A84778212000A8473104090E200070
S1131950074FB847F1B22000B8470D212000A8472F
S1131960F8BDC046A8400020B4400020A51D0000DA
S1131970C51D000070B5104EB047104D442128001D
S11319800F4CA04765212800A04742212800A0470A
S113199075212800A04767212800A047202128009E
S11319A0A0474F212800A0474E212800A0470D2121
S11319B02800A047B04770BD01170000B4400020C4
S11319C0A51D000070B5124EB047124D44212800E9
S11319D0114CA04765212800A04742212800A047B8
S11319E075212800A04767212800A047202128004E
S11319F0A0474F212800A04746212800A0474621A0
S1131A002800A0470D212800A047B04770BDC0465C
S1131A1001170000B4400020A51D000070B5164B4E
S1131A201B781B0700D470BD144D57212800144C9B
S1131A30A04761212800A04769212800A04754211C
S1131A402800A04720212800A04754212800A047AF
S1131A5058212800A04720212800A0474921280018
S1131A60A04752212800A04751212800A0470D215A
S1131A702800A047D7E7C0464C410020B4400020CE
S1131A80A51D0000044B1A68044B9A4203D8024A6D
S1131A901368013313607047DC4200206F170000A5
S1131AA070B58EB001AC00230022A3702381002105
S1131AB06170A272E2722273A27362732274636110
S1131AC0A361227723626362238501332370802319
S1131AD09B00A380E13BFF3BA37112336385A38585
S1131AE00F4D22000F4928000F4EB04722000F4926
S1131AF00F48B0472A68D37B5BB2002BFBDB13880B
S1131B0002210B4313800A4B1A68D37B5BB2002B70
S1131B10FBDB138802210B4313800EB070BDC0465B
S1131B205842002000240042F10600000028004230
S1131B30D840002010B50C4C03220C4920000C4B5B
S1131B40984720680B4B98470B4B1B5C1F221A408D
S1131B5001239340094A1360637E20221343637672
S1131B60236820225A7310BDD8400020851A000033
S1131B709D050000B50600005C38000000E100E0AF
S1131B8010B5024B9847024B984710BDA11A0000AC
S1131B90351B0000064B1B78064A12789A4206D37E
S1131BA0054A1178054AD1540133014A137070472C
S1131BB0494100200543002054410020BC4200203C
S1131BC00B4B1B78002B0ED10A4B1B781D2B06D810
S1131BD0094A1178094AD1540133064A1370064B55
S1131BE01B780D2B00D070470122014B1A70FAE7C5
S1131BF04E41002048410020B04000201C410020FC
S1131C0030B58DB08023DB05009300230193FF22C0
S1131C1069460A818B72CB7201220A754A758B75EB
S1131C20CB7506930B774B77E1235B020493C423B4
S1131C309B03039301235B42089309933A4B0A9352
S1131C403A4B0B933A4D3B4C6A463B492800A0471C
S1131C500028F9D1364D2C682000384B98471F23B3
S1131C6018401E3B8340364A13602A68138A1BB20D
S1131C70002BFBDB2368022213432360E1235B0276
S1131C800493C4239B03039301235B4208930993A6
S1131C902C4B0A932C4B0B932C4D264C6A462C4907
S1131CA02800A0470028F9D1284D2C682000234B98
S1131CB098471F2318401E3B8340214A13602A681B
S1131CC0138A1BB2002BFBDB23680222134323601D
S1131CD0E1235B020493C4239B03039301235B422C
S1131CE0089309931B4B0A931B4B0B931B4D114CED
S1131CF06A461B492800A0470028F9D1174D2C68D3
S1131D0020000E4B98471F2318401E3B83400C4A6B
S1131D1013602A68138A1BB2002BFBDB23680222A0
S1131D20134323600DB030BD0200180002001900F7
S1131D30F8400020CD240000001400423D2400009F
S1131D4000E100E00200120002001300B440002091
S1131D50000C004202000E0002000F00E0420020CE
S1131D600010004270B50A4D01220A4928000A4EAB
S1131D70B0470A4C01220A492000B047212302201F
S1131D80E95C0143E954E25C0243E25470BDC0469D
S1131D90B4400020C11B00008D270000E042002059
S1131DA0951B000010B589B2014B984710BDC04681
S1131DB021270000092802D83030C0B270473730DC
S1131DC0C0B2FBE7F8B505000C000809064FB84798
S1131DD081B22800054EB0472007000FB84781B2F2
S1131DE02800B047F8BDC046B51D000021270000FB
S1131DF0F0B583B001900C000804060E000F0D4DE1
S1131E00A84781B201980C4FB8473007000FA84784
S1131E1081B20198B8472006000FA84781B2019803
S1131E20B8472007000FA84781B20198B84703B00C
S1131E30F0BDC046B51D000021270000F0B5CE4618
S1131E4000B582B00600174B9946FA2189009847DD
S1131E500F270401144DFA2189003000A8470B0014
S1131E60642101931800C84738400443E6B236029F
S1131E7064210198A8470B000A2101931800C84760
S1131E8000013C4004430A210198A8473800084057
S1131E900F239C432043C0B2304302B004BC91469C
S1131EA0F0BDC04695330000A134000070B5002099
S1131EB0084B98470500084CFA218900A047074BB6
S1131EC0186007492800A047064B18600522064BF6
S1131ED01A6070BD252C000095330000C00100205D
S1131EE040420F00C401002010E000E030B5084B70
S1131EF01C68084A002580214902013807D3002CB8
S1131F00FBD05460956013680B42FCD0F5E730BDFC
S1131F10C401002010E000E00C4B1B68002B06D12C
S1131F20EFF31083002B07D00022094B1A70074AE5
S1131F30136801331360704772B6BFF35F8F0022DA
S1131F40044B1A700132024B1A70F0E7F0010020C2
S1131F50F4010020C8010020084B1A68013A1A60F5
S1131F601B68002B09D1064B1B78002B05D00122DE
S1131F70044B1A70BFF35F8F62B67047F001002004
S1131F80F4010020C8010020F0B5C64600B582B0B7
S1131F9001AC0127677000239846A37027702100C5
S1131FA017202E4EB0472E4D80231B04AB61210019
S1131FB01B20B04780231B05AB6121001C20B047C8
S1131FC080235B05AB6121000220B04704236B61D1
S1131FD021000320B04708236B6121000420B0478F
S1131FE010236B6121000520B04720236B61210081
S1131FF00620B04740236B6121000720B0478023AF
S11320006B6121000820B04780235B006B6143466D
S1132010237021000B20B04780231B016B6121003A
S11320201620B0478023DB036B6121001120B047E9
S113203080239B026B6121001020B04780235B0248
S11320406B6121000120B04702236B612100002055
S1132050B0476F6102B004BC9046F0BD652000003B
S11320600044004100B583B001AB80221A700A78A5
S11320705A704A789A708A78DA701900014B984736
S113208003B000BD652E0000F0B5DE4657464E464F
S11320904546E0B587B08046049116001F00002233
S11320A0002300218B463F24012021000096019744
S11320B05C4603944446059413E02024641A050006
S11320C0E540A84614E0009C019D121BAB415C4610
S11320D04D462C43A346039C45462C4303940139A7
S11320E025D3202464420C19E7D40500A540A84652
S11320F004008C40A14692185B4114001D00059E0B
S11321004F463E40B446049E47463E40B24666466D
S113211057463E4303D00600264332002B00009C62
S1132120019D9D42DBD8CED19442D8D8CBE7039B06
S11321305846190007B03CBC90469946A246AB46A7
S1132140F0BD10B5490840230024814202D2180092
S113215010BD1C00091A631C9BB28842F9D94023A4
S1132160FF2CF4D814800023F1E70000F0B583B00D
S11321700F00160008AA117804004C434022BC4208
S113218002D9100003B0F0BD002B14D102000800E6
S11321900021194CA04701003A0000230020174CED
S11321A0A04700220123121A8B41120C1B041A436C
S11321B032800022E5E70022012BF9D10A00002336
S11321C000210D4CA04702000B000092019338003F
S11321D000210A4CA047050080239B01402298421D
S11321E0CFD8790FF800009A019BA047EA00821A21
S11321F0D2B252032A43DBE7AD3400008920000049
S113220010B582B004000E4B1B78002B07D00029B8
S113221005D10B4B5B78834210D01D200CE001A943
S11322200C700C20074B98470C20074B9847044B25
S11322305C7001221A70002002B010BD0020FBE780
S1132240F80100203D2D0000B12C0000404B9842C5
S113225031D00AD93F4B98424DD03F4B98425AD087
S11322603E4B984237D0002070473D4B98420CD0EB
S11322703C4B9842F7D1012917D000295DD002299F
S113228015D0032915D00020EEE7012907D0002935
S113229051D0022905D0032905D00020E4E73248B3
S11322A0E2E73248E0E73248DEE73248DCE732482A
S11322B0DAE73248D8E7012907D000293FD00229BC
S11322C005D0032905D00020CEE72D48CCE72D48C2
S11322D0CAE72D48C8E7012907D0002931D00229CF
S11322E005D0032905D00020BEE72848BCE72848CC
S11322F0BAE72848B8E7012907D0002923D00229E2
S113230005D0032905D00020AEE72348ACE72348D5
S1132310AAE72348A8E7012907D0002915D00229F4
S113232005D0032905D000209EE71E489CE71E48DF
S11323309AE71E4898E71E4896E7032094E71D484D
S113234092E71D4890E71D488EE71D488CE7C0467C
S11323500010004200180042001C00420014004219
S113236000080042000C00420300050003000600C0
S1132370030007000300010003001E0003001F0008
S11323800300090003000A0003000B00030011000E
S1132390030012000300130003000D0003000E00ED
S11323A003000F00030017000300180003001900C6
S11323B003000400030008000300100003000C00E5
S11323C00300160030B587B00B4B6A4632CB32C2DD
S11323D032CB32C2009B83420BD001239A00694660
S11323E05258824206D00133062BF7D1002007B0A1
S11323F030BD0023D8B2FAE764380000704700000B
S1132400F0B50A4B1B78002B0CD1094F094E0A4D2D
S11324100024DE515A1914600433182BF9D1012217
S1132420024B1A708000024BC150F0BDFA0100202B
S1132430FC010020FD2300009C43002000B583B074
S113244007236A46137001335370013393700133C9
S1132450D3700133137101335371034B98476B46A7
S1132460185603B000BDC046C523000010B5024B8A
S11324701B680020984710BDFC01002010B5024BDA
S11324805B680120984710BDFC01002010B5024B89
S11324909B680220984710BDFC01002010B5024B38
S11324A0DB680320984710BDFC01002010B5024BE7
S11324B01B690420984710BDFC01002010B5024B95
S11324C05B690520984710BDFC010020F0B5DE468D
S11324D057464E464546E0B58DB005000C00160043
S11324E029600800804B9847020023680520DB0719
S11324F006D50DB03CBC90469946A246AB46F0BD0D
S1132500236817309B07F4D47849086A971C012381
S1132510BB4003430B620BA9737F0B700D32D7B220
S11325203800734B98473800724B9847707F0021EE
S1132530714B9847F37A6B71337DAB71737DEB719B
S11325402B6898461800684B98470D3000220E23DC
S113255002A98C4663441A8033680393F3689A464D
S1132560B37D9B4673689946002B14D080235B058A
S1132570994530D1F37D002B31D133691F00C0B2AE
S11325805E4B984701000E2202AB9C466244380021
S11325905B4B984720E0F37D002B0BD01023009376
S11325A000230E2202A98C466244B1693069554F5A
S11325B0B84711E033691F00C0B2504B984701007F
S11325C01023009300230E2202A88446624438009C
S11325D04C4FB84700E00020002800D089E72A6863
S11325E0039F138A1BB2002BFBDB0E2302AA944623
S11325F063441B884246538153461F434B461F4343
S11326005B465B071F43F37D002B01D104331F435B
S1132610317D4904737D1B040B43B17AF27A114373
S113262019433389FF2B03D08022520417431943E3
S1132630337F002B03D1344B9B789B0701D5802338
S11326401F432A68138A1BB2002BFBDB43465960E5
S11326502A68138A1BB2002BFBDB43461F600AABBC
S113266080221A7000225A70DA709A70336A0693C4
S1132670736A0793B36A0893F36A03930993002771
S113268006AE06E02000214B984707E00137042FEF
S11326900DD0F9B2BB0098590028F3D0431CF5D0F3
S11326A00AA90870000CC0B2194B9847EEE7002342
S11326B0AB60EB602B61AB616B610022EB83AB839E
S11326C02033EA540133EA540133EA540133EA541F
S11326D02868054B984704000E490F4B9847A400FF
S11326E00E4BE550002004E7C52300000004004021
S11326F03D2D0000B12C000001220000892D0000B6
S1132700432100006D210000002000414D22000003
S1132710652E0000C5270000012400009C43002012
S1132720C2791C23002A01D118007047C28B92B2CF
S1132730173B002AF8D10268138A1BB2002BFBDB7B
S113274011830221937B0B42FCD00023ECE70000B1
S1132750F8B506000C00150007680A4B9847B38BC0
S11327609BB2002B03D0084B98470520F8BDB583D6
S1132770054B9847746105222223F2541E3B7B7358
S11327800020F3E7191F0000591F0000931C9B0051
S113279019502021012393401A00435C13434354EE
S11327A07047000010B51723002A01D1180010BD8E
S11327B084790533002CF9D0014B98470300F5E7E1
S11327C051270000F8B58000464BC5582C68238A71
S11327D01BB2002BFBDBA37B667B1E402023EB5C40
S11327E02122AF5C1F40F30722D5EB8B9BB2002B59
S11327F01CD0AA691378DBB2511CA961697901293B
S11328000ED09BB2DB05DB0D2383EB8B013B9BB22C
S1132810EB83002B0CD1013323730133637307E083
S1132820517809020B430232AA61EBE701232373B7
S1132830B30706D50223237300222133EA54FB078E
S113284016D473074DD5AB8B9BB2002B47D0238A8C
S1132850DBB25A0720D09A070ED51A222223EA5453
S1132860203B23827B073CD52B692800984738E01E
S11328702800AB689847E4E75A0705D51E222223AF
S1132880EA541E3B2382EDE7DB07EBD51322222318
S1132890EA54213B2382E5E7238BDB05DB0DDAB227
S11328A069690A706A69511C69616979012910D0E2
S11328B0AB8B013B9BB2AB83002B12D1043323734C
S11328C000221E33EA54BB070BD5EB682800984757
S11328D007E01B0A53706B6901336B61E8E704235B
S11328E02373F8BD9C43002010B5072803D880004B
S11328F0164B1B589F46002027E0154BD86824E050
S1132900144B1B6A9B059B0F1348D8401DE0104BCA
S113291018691AE00E4B1B6800209B0715D50D495A
S11329201022CB681A42FCD0094B1B685B0701D408
S11329300A480AE000200A4B9847054B9B681B0491
S11329401B0C584301E08020000210BD7C380000BD
S1132950140200200008004000127A00006CDC021F
S1132960892D000070B50C490B6A0478857840788D
S11329700122104080014026B34303432A40D20180
S1132980802083431343032222401202034803405E
S113299013430B6270BDC04600080040FFFCFFFFFC
S11329A0072803D880001E4B1B589F46172036E08B
S11329B01C4A136A02210B43136200202FE0194AB8
S11329C0936902210B439361002028E0154A138A7E
S11329D002210B431382002021E0124A938A022130
S11329E00B43938200201AE00F4B1A6802210A431A
S11329F01A601B680D4A13400A4A9384110010227E
S1132A00CB681A42FCD0084A9168064BD9625168D7
S1132A109962126892B29A84002000E00020704704
S1132A209C38000000080040140200207FFF0000D2
S1132A30F0B5C64600B584B0C222D200284B9A60D5
S1132A40284A53681E218B43536002236A4613703D
S1132A500024254DE0B26946A84701341C2CF9D165
S1132A6003A80024447001239846837004701F4B0C
S1132A70984706201E4B98471E4B98476B465C7040
S1132A8006271F701C725C7208230193694601209B
S1132A90194EB0470120194DA8476B465C701C7253
S1132AA05C7203236A4613701D3301936946042044
S1132AB0B0470420A847124B1C725C729C72DC72F3
S1132AC0434601936B465C701F701C725C726946CE
S1132AD00020B0470020A84704B004BC9046F0BDD5
S1132AE000080040004000413D2D00006529000021
S1132AF0A1290000052B0000292B0000E12B000078
S1132B0000040040064A936908210B4393610122A3
S1132B10044B1A7019000B781342FCD17047C0465D
S1132B2000040040000C004070B5060004000D785D
S1132B302D0205434B78002B02D08023DB021D437A
S1132B404B7A002B02D080231B031D4348680128C5
S1132B5010D9431E184234D1022830D9022300224E
S1132B6001325B009842FBD81202324314008023E6
S1132B705B031D430B7A002B02D080239B031D4370
S1132B80134A53785BB2002BFBDB124B9847124B72
S1132B901E700F4A53785BB2002BFBDB0C4B9C601E
S1132BA01A0053785BB2002BFBDB094A536880217F
S1132BB049020B401D435560084B984770BD0022E5
S1132BC0D2E70402344380239B021D43D2E7C0466C
S1132BD0000C0040191F0000080C0040591F0000A1
S1132BE010B504000B4A53785BB2002BFBDB0A4B95
S1132BF098470A4B1C70074A53785BB2002BFBDBE7
S1132C00044A516880235B020B435360044B98478A
S1132C1010BDC046000C0040191F0000040C004009
S1132C20591F000070B504001A4A53785BB2002B98
S1132C30FBDB194B9847194B1C70164A53785BB24F
S1132C40002BFBDB134E7068C004C00E144B984776
S1132C500500124B1C707668F602F60F114B1C70BF
S1132C600C4A53785BB2002BFBDB0A4B9C682402B2
S1132C70240C0D4B9847002E07D1012C07D92100B5
S1132C8028000A4B9847050001E00134E54028007C
S1132C9070BDC046000C0040191F0000040C004029
S1132CA0E9280000080C0040591F0000953300007B
S1132CB010B50400064B9847064B1C70064A53880F
S1132CC08021C9010B435380044B984710BDC04673
S1132CD0191F0000020C0040000C0040591F0000A6
S1132CE010B504000F4B98470F4B1C700F4A5388C4
S1132CF01B05180F53880E490B40538053880D4908
S1132D000B40538011008022D2014B881342FCD126
S1132D1006494A8803020648024013434B80064B87
S1132D20984710BD191F0000020C0040000C004021
S1132D30FFF0FFFFFFBFFFFF591F000010B50C7825
S1132D4024020443024B9847A4B2024B5C8010BD9A
S1132D50E12C0000000C004010B50400064B98471D
S1132D60064B1C70064A5388C02109020B4353804A
S1132D70044B984710BDC046191F0000020C0040C8
S1132D80000C0040591F000010B50400064B984782
S1132D90064B1C70064B5C882405240F054B984792
S1132DA02000054B984710BD191F0000020C00407D
S1132DB0000C0040591F0000252C000030B5D378CA
S1132DC0002B35D11378802B29D01B068024640274
S1132DD0234354780225AC4306D19478002C20D1A7
S1132DE08024A402234341605478013C012C1CD963
S1132DF00D042D0CA024E4052C431C4384620D0C0B
S1132E00D02424062C431C438462D478002C22D181
S1132E105B031CD59378012B1ED0416117E000237E
S1132E20D7E7C024E4022343DDE70D4C2340DFE76A
S1132E3041600C04240CA023DB05234383620C0CA7
S1132E40D0231B0623438362D378002B03D153780A
S1132E50013B012B02D930BD8161F8E78160FAE7BB
S1132E60FFFFFBFF10B50A00C1090023002904D1AC
S1132E704309DB0105498C4663441F24204001219A
S1132E8081401800024B984710BDC04600440041E1
S1132E90BD2D00007047000010B5054B9847054B49
S1132EA09847054B9847054B9847054B984710BDE5
S1132EB0312A0000891F0000952E0000A50400009F
S1132EC0952E0000FEE7000010B51A4A1A4B9A42EC
S1132ED011D01A00194B9A420DD2194A03339B1A86
S1132EE09B0801339B000022134812498C588450DC
S1132EF004329A42FAD1134A134B9A420AD2D34368
S1132F0011495B1803218B4304339B18002102C22F
S1132F109342FCD10D4AFF210D4B8B4393600D4A24
S1132F2053687F390B4353600B4B98470B4B9847BF
S1132F30FEE7C046DC38000000000020CC01002081
S1132F4004000020CC010020B443002000ED00E088
S1132F50000000000040004101350000912F0000F6
S1132F6000B583B000226B461A70074B5B68DB0622
S1132F701B0F69468B70CA700A714A706846034B0E
S1132F80984703B000BDC046004000410501000061
S1132F90F8B5DE4657464E464546E0B5CB4B984716
S1132FA0CB4B9847CB4B9847CB4B9847CB4B984749
S1132FB0CB4B9847CB4B9847CB4B9847CB4B984739
S1132FC0CB4B98470122CB4B1A70BFF35F8F62B68D
S1132FD0C94B9847C94C0025012399460026C84B84
S1132FE09846C84F25704B466370A670E670FF2163
S1132FF02800C0472071FF212800B84761710135BE
S113300006340B2DEED1C825ED01BF4C2800A04796
S11330100528FBD0B94EC825ED01BC4C4022310037
S11330202800A0470528F9D0B44EF025ED01B74C8F
S1133030402231002800A0470528F9D0B44AAF4BFC
S11330409946002349460B7001218C46E144914581
S1133050F8D1A94B9847AF4A137808210B43137052
S1133060AD4B98470023AD4A1370AD4A1370032249
S1133070AC4B1A70AC4AFA239B01D018302106E0FD
S1133080D1540133102BFBD11032904201D00023D4
S1133090F6E7002497E020210120A44FB847A44B71
S11330A019783031C9B20120B847A24B1B78042BE0
S11330B05DD09A4B1B78012B5FD001229E499F481B
S11330C0A84701229E499F48A8479F4B98479F4B7A
S11330D09F4A10788A215854507801315854907876
S11330E001315854D1788D22995491490C709948E2
S11330F0026A920D01231A400A70026A520C1A40A5
S113310052000F780226B7433A430A70026A120C3F
S113311013409B000A780420824313439A1DD2B2C1
S11331200A707C4909788907BFD58B49097891428F
S1133130BBD001337121854843546D39784B1970E4
S1133140854B1A70C0312000784B9847784B1B7818
S11331500C2BAAD8092B9ED931210120734FB847D3
S1133160734B19782631C9B20120B8479DE77B4BD0
S1133170984705226F4B1A709BE7794B1B78002BFD
S11331800DD00027774B9A466C4E774D5346D95D48
S11331903000A8470137724B1B78BB42F6D8704BFE
S11331A01C70704B1B78642B0FD06E4B1B78732BE9
S11331B01FD06C4B1B78722B1ED06A4B1B786C2B68
S11331C022D0564B1C70694D77E7524B1B781B0776
S11331D007D5504A137808218B431370644B9847E2
S11331E0E3E74C4A137808210B431370614B98476B
S11331F0DBE7614B9847DCE7604DA847604B984795
S1133200604B9847A847D8E73C4DC826F6015E4F67
S1133210402229003000B8470528F9D05B4B9B4673
S1133220364D464E5A4B98464F4F29783000C0478A
S113323020213000B84769783000C0472021300091
S1133240B847A9783000C047E9783000C0472979E9
S11332503000C04769793000C0470D213000B847BD
S113326006355D45E1D1254B1C7001334B45FBD13F
S1133270224E454F40223100F020C001B8470528B6
S1133280F8D01E4F2D4E424B9A46374B984639780C
S11332903000D04720213000C04779783000D04733
S11332A020213000C047B9783000D047F978300089
S11332B0D04739793000D04779793000D0470D2193
S11332C03000C0470637BD42E1D17AE7992E0000AD
S11332D0011C0000651D0000811B0000B90A0000EC
S11332E0E90A0000AD1E0000A1030000CD030000A8
S11332F0612F0000C80100203D0A00007842002030
S113330095330000A1340000410300002D020000A9
S1133310B84200204C410020E11700004E4100203B
S1133320AC4000207542002028020020890B0000D8
S11333303C410020F4400020B0400020B440002074
S113334054410020E04200202D0E00000000002027
S113335040410020004400414D4100205112000032
S1133360484100201C410020A51D0000A5270000A5
S1133370C51900007519000031170000011700007D
S113338085180000F9180000D5020000BA42002098
S1133390C51D0000002243088B4274D303098B42ED
S11333A05FD3030A8B4244D3030B8B4228D3030C11
S11333B08B420DD3FF22090212BA030C8B4202D3B3
S11333C01212090265D0030B8B4219D300E0090ADB
S11333D0C30B8B4201D3CB03C01A5241830B8B42E4
S11333E001D38B03C01A5241430B8B4201D34B03CD
S11333F0C01A5241030B8B4201D30B03C01A524132
S1133400C30A8B4201D3CB02C01A5241830A8B42B6
S113341001D38B02C01A5241430A8B4201D34B029F
S1133420C01A5241030A8B4201D30B02C01A524103
S1133430CDD2C3098B4201D3CB01C01A52418309B7
S11334408B4201D38B01C01A524143098B4201D3F1
S11334504B01C01A524103098B4201D30B01C01A1C
S11334605241C3088B4201D3CB00C01A5241830896
S11334708B4201D38B00C01A524143088B4201D3C3
S11334804B00C01A5241411A00D201465241104623
S11334907047FFE701B5002000F006F802BDC04602
S11334A00029F7D076E770477047C046F0B5CE469E
S11334B0474615042D0C2E0080B50704140C3F0C50
S11334C09946030C7E435D43674363437F19340C81
S11334D0E4199C46A54203D980235B029846C44460
S11334E04B46514343433604360C250C24046544AF
S11334F0A4195918491920000CBC90469946F0BDEE
S113350070B500260C4D0D4C641BA410A64209D1C5
S1133510002600F0D3F90A4D0A4C641BA410A642FD
S113352005D170BDB300EB5898470136EEE7B30000
S1133530EB5898470136F2E7C8380000C838000055
S1133540C8380000CC380000002310B59A4200D1DE
S113355010BDCC5CC4540133F8E700001402000031
S113356014020000F001000014020000F001000049
S1133570D6010000D601000014020000140200006D
S113358014020000140200001402000014020000DF
S113359014020000140200001402000014020000CF
S11335A014020000140200001402000014020000BF
S11335B014020000140200001402000014020000AF
S11335C0140200001402000014020000140200009F
S11335D0140200001402000014020000140200008F
S11335E0140200001402000014020000140200007F
S11335F0140200001402000014020000140200006F
S1133600140200001402000014020000140200005E
S1133610140200001402000014020000140200004E
S1133620140200001402000014020000140200003E
S1133630140200001402000014020000140200002E
S1133640140200001402000014020000140200001E
S1133650140200001402000014020000F001000033
S1133660F0010000F8010000F8010000F80100007A
S1133670F80100000020004200240042002800421B
S1133680002C004200300042003400420038004266
S1133690003C004200010002000400080010002069
S11336A000400080AE0F0000FE0F00001C10000060
S11336B05A1000003A1000000A110000D410000053
S11336C092100000540F0000540F0000540F00002B
S11336D0540F0000540F0000540F0000540F00005A
S11336E0540F0000540F0000540F0000540F00004A
S11336F0540F0000540F0000540F0000540F00003A
S1133700540F0000540F0000540F0000540F000029
S1133710540F0000540F0000540F0000540F000019
S1133720540F0000540F0000540F0000540F000009
S1133730540F0000540F0000540F0000540F0000F9
S1133740540F0000540F0000540F0000540F0000E9
S1133750540F0000540F0000540F0000540F0000D9
S1133760540F0000540F0000540F0000540F0000C9
S1133770540F0000540F0000540F0000540F0000B9
S1133780540F0000540F0000540F0000540F0000A9
S1133790540F0000540F0000540F0000540F000099
S11337A0540F0000540F0000540F0000540F000089
S11337B0540F0000540F0000540F0000540F000079
S11337C0540F0000540F0000540F0000540F000069
S11337D0540F0000540F0000540F0000540F000059
S11337E0540F0000540F0000540F0000540F000049
S11337F0540F0000540F0000540F0000540F000039
S1133800540F0000540F0000540F0000540F000028
S1133810540F0000540F0000540F0000540F000018
S1133820540F0000540F0000540F0000540F000008
S1133830540F0000F21000004E110000540F00005D
S1133840700E0000BA0E0000CE0F000044120000FB
S1133850420E00002A110000C81000000D0E0F10C7
S11338601112131400080042000C00420010004220
S11338700014004200180042001C0042FA28000014
S1133880F6280000F628000046290000462900001A
S11338900E2900000029000014290000CC29000092
S11338A0AC290000AC2900001C2A0000BE2900003D
S11338B0DA290000B0290000E8290000F8B5C04664
S11338C0F8BC08BC9E467047CD000000F8B5C04661
S10F38D0F8BC08BC9E467047A500000030
S11338DC800000FFFFFFFFFFFFFFFFFFFFFFFFFF65
S11338ECFFFFFFFFFFFFFFFFFFFFFFC10100FFFF13
S11338FCFFFFFFFFFFFFFFFFFFFFFFFFFFFFFFFFC8
S113390CFFFFFFFFFFFFC10200FFFFFFFFFFFFFFF1
S113391CFFFFFFFFFFFFFFFFFFFFFFFFFFFFFFFFA7
S113392CFFC103050301656C00FFFFFFFFFFFFFFF1
S113393CFFFFFFFFFFFFFFFFFFFFFFFFC1040303B8
S113394C0104FFFFFFFFFFFFFFFFFFFFFFFFFFFF70
S113395CFFFFFFFFFFFFFFC1051800010203040571
S113396C060708090A0B0C0D0E0F1011121314156F
S113397C1617C10600FFFFFFFFFFFFFFFFFFFFFF4E
S113398CFFFFFFFFFFFFFFFFFFFFFFFFFFC107006C
S113399CFFFFFFFFFFFFFFFFFFFFFFFFFFFFFFFF27
S11339ACFFFFFFFFFFFFFFFF00000000000000000F
S11339BC00000000000000000000000000000000F7
S11339CC00000000000000000000000000000000E7
S11339DC00000000000000000000000000000000D7
S11339EC00000000000000000000000000000000C7
S11339FC00000000000000000000000000000000B7
S1133A0C00000000000000000000000000000000A6
S1133A1C0000000000000000000000000000000096
S1133A2C0000000000000000000000000000000086
S1133A3C0000000000000000000000000000000076
S1133A4C0000000000000000000000000000000066
S1133A5C0000000000000000000000000000000056
S1133A6C0000000000000000000000000000000046
S1133A7C0000000000000000000000000000000036
S1133A8C03030308061B03030000000000000000EE
S10F3A9C401F00000800000001000000B2
S9032EC905
