S01400005348485F4C6F52415F4E65772E73726563F7
S113000030550020AD620000A9620000A962000022
S113001000000000000000000000000000000000DC
S1130020000000000000000000000000A9620000C1
S11300300000000000000000A9620000A9620000A6
S1130040A9620000A9620000993F0000A9620000B3
S113005069390000A9620000A9620000715800001B
S11300608158000091580000A158000000000000D1
S113007000000000653B0000753B0000853B00006C
S1130080953B0000A53B0000B53B000000000000CC
S113009000000000A9620000A9620000A96200003B
S11300A0A962000010B5064C2378002B07D1054B3C
S11300B0002B02D0044800E000BF0123237010BDD0
S11300C0CC0100200000000060730000084B10B554
S11300D0002B03D00749084800E000BF0748036825
S11300E0002B00D110BD064B002BFBD09847F9E73D
S11300F000000000D0010020607300006073000065
S11301000000000010B51E4AD36904210B43D361DB
S11301101C4B2022FF321A831A7D0523D20701D4F7
S1130120180010BD03781B02C022920013404178CE
S1130130C901FF220A401343817849001E220A4064
S11301401343C27892048021C9020A4013430279FE
S11301501204C02189020A4013430A4A5360936877
S11301605B035B0F084908249C400C8093684B8018
S113017043780B71138BDB05DB0F1B01D0E7C04603
S11301800004004000400041E801002030B50400B4
S1130190224A1088538843438B4206D2802292011C
S11301A018201F4BCB1893420ED81E4B5D6880223B
S11301B0D2022A435A602022FF321A831B7DDB07B6
S11301C003D4184B5D60052030BD452C22D8A30014
S11301D0154AD3589F46134B1B8BDB0503D5114B94
S11301E05D601020F0E7890849000E4BD96103E0F7
S11301F0890849000B4BD961A52000020443094B2F
S11302001C80190001220B7D1342FCD0054B5D605C
S11302100020D9E7034B5D601720D5E7E8010020F3
S113022000C07FFF00400041306B0000F8B5254B53
S11302301D885B886B431824834201D22000F8BDDB
S11302406B1E1842FAD1013C9542F7D31E4B1B7D1D
S1130250123CDB07F2D51D4C1B4B1C801D000124F6
S11302602B7D2342FCD02024FF34174B1C83002A0F
S113027022D0012305009D430023571E09E0CE1818
S11302807678360234432C8002339BB202359A428C
S113029004D9CC5CBB42F2DBA4B2F4E7094B1B7972
S11302A00024002BCAD13F2AC8D800220100042010
S11302B0074B98470400C1E7024B1B790024002B2D
S11302C0F3D0BBE7E80100200040004144A5FFFF54
S11302D08D01000070B5184B1D885B886B43182492
S11302E0834201D2200070BD6B1E1842FAD1013C3A
S11302F09542F7D3114B1B7D123CDB07F2D520242A
S1130300FF340E4B1C83002A14D00123984300238E
S1130310561E04E002339BB202309A4208D9048884
S1130320A4B2CC54B342F5DACD18240A6C70F1E7C8
S11303300024D7E70024D5E7E8010020004000416D
S1130340134B1A885B8853431821834201D2080057
S113035070479200013A1042F9D10E4B1B7D1339BC
S1130360DB07F4D50B4B2022FF321A8380084000B0
S1130370D861094A1A80190001220B7D1342FCD06E
S1130380044B198B1C200140481E81418900DEE783
S1130390E80100200040004102A5FFFFF0B5D64669
S11303A04F4680B583B004003B4B18783B4B9847CD
S11303B00A2804D003B00CBC91469A46F0BD364BD3
S11303C05878364B98470D28F4D1334B9878334BF3
S11303D098470D28EED1324B1B78112BEAD12E4BC6
S11303E01B7C0D2BE6D12C4B9A79597918792D4B1E
S11303F09847C0B26428DDD821002B4B98470500EC
S1130400FF28D7D0294B984721002800284B9A462B
S11304109847284B984701952F01E71900237B70D3
S11304201D4E307A1D4DA8478146707AA8474A462A
S113043013010343DBB23B71B07AA8478146F07ADB
S1130440A8474A4613010343DBB27B71307BA847BC
S11304508146707BA8474A4613010343DBB2BB7154
S1130460B07BA8478146F07BA8474A461301034363
S1130470DBB2FB712000104B984720000F4B9847CC
S113048021000198D0470E4D0D2128000D4CA047A6
S11304900D212800A0478DE7D40200203D2800004C
S11304A022030020F12A0000992F00007D30000073
S11304B0F9300000AD310000C12400005D250000CA
S11304C07002002025270000F0B5DE4657464E4650
S11304D04546E0B583B06A4B18786A4B98470C28B8
S11304E006D003B03CBC90469946A246AB46F0BD4C
S11304F0634B5878634B98471128F2D1624B1B78B1
S1130500092B33D0032BECD15D4B9B780D2BE8D119
S1130510002430265D4F5E48B84731005D485E4D8B
S1130520A8473A215B48A8475C4B18595C4B98474D
S1130530010058485B4B9B46984720215548A847E3
S113054028215448A847584B19595248D8472921BB
S11305505048A8475548B8470136F6B20434102C21
S1130560D9D10D214B484C4B9847BAE7444B1B7AE1
S11305700D2BB6D1424BDB78202BB2D1404EB07854
S1130580404DA84781463079A847FA27BF00474322
S11305907079A84764244443E419B079A847070054
S11305A0F079A84704190A20784303190193002419
S11305B03026364F3648B84731003648364DA847BE
S11305C03A213448A847354B1859354B9847010010
S11305D03048344B9A46984720212E48A847282172
S11305E02C48A847304B19592A48D0472921294873
S11305F0A8472E48B8470136F6B20434102CD9D196
S1130600244C0D212000244DA84721481F4B9B4614
S113061098471B4B9A4699782000A8473A21200016
S1130620A8471E4F4B469E00F0591D4B99469847CC
S1130630010020001B4B984698471D4B9847019B8F
S1130640F3511348D847534699782000A8473A21D4
S11306502000A847F059C84701002000C0470D21D9
S11306602000A8470D212000A847124E3068124BE5
S113067098473068114B98470D212000A84730E770
S1130680D40200203D28000022030020FD2F00009A
S1130690486C00007002002025270000C0180020CC
S11306A0E5290000B9270000601600204C6C00000A
S11306B0AD310000BC180020792300004D2000005B
S11306C070B50A4D44212800094CA0476521280033
S11306D0A04742212800A04775212800A047672190
S11306E02800A04720212800A04770BD70020020E8
S11306F02527000070B5054B9847054D4F2128006C
S1130700044CA0474E212800A04770BDC10600003C
S1130710700200202527000070B5074B9847074D4D
S11307204F212800064CA04746212800A047462117
S11307302800A04770BDC046C1060000700200201A
S11307402527000010B504000C4B984788239B0014
S1130750E35C012B0AD0012288239B00E254084B5E
S113076098470D210748084B984710BD002288235D
S11307709B00E254054B9847F3E7C0462130000044
S1130780F50600007002002025270000190700006C
S113079010B5154B1878154B98470D2800D010BD8F
S11307A0134B1B78032BFAD10F4B9B780D2BF6D1EF
S11307B00D4B58780D4B984701280DD00A4B5878AB
S11307C00A4B98470228EAD10A4C20680A4B9847FA
S11307D020680A4B9847E2E7094C2068064B984783
S11307E02068064B9847DAE7D40200203D28000031
S11307F022030020900C002045070000192B000064
S1130800BC180020F0B5DE4657464E464546E0B5D6
S113081083B00400C64B1878C64B98470D2806D001
S113082003B03CBC90469946A246AB46F0BDC04BD3
S11308305878C04B98471528F2D1BF4B1B78032B2F
S1130840EED1BB4B9B780D2BEAD1BC48BC4B9847EF
S1130850A046BC4D23239A46AA4400239946BA4B8A
S11308609B46BA4CBA4F2CE03E21B848B84B984747
S113087037E02021B548B64B984713E14E21B348E1
S1130880B34B98472921B148B14B9847B14B1A68EB
S11308905B23D35CDBB24B4500D117E10D21AB48A0
S11308A0AB4B98474B460133DBB2994610239C4629
S11308B0E044253515339C46E2444B46642B00D175
S11308C009E1434601935B78012BEBD15A335A4635
S11308D01268D35CDBB24B45C6D020219B489C4BAD
S11308E098474E212000B8476F212000B8472E2199
S11308F02000B847019B1878C0B2974B9847010075
S11309002000964B984720212000B84729782000E2
S1130910934EB04769782000B047A9782000B047CB
S113092020212000B847E9782000B0472979200029
S1130930B04769792000B047A9792000B047202149
S11309402000B847E9792000B04720212000B847AB
S1130950297A2000B047697A2000B047202120007E
S1130960B847A97A2000B047E97A2000B04720218F
S11309702000B847297B2000B047697B2000B0479E
S113098020212000B847A97B2000B047E97B200044
S1130990B04720212000B847297C2000B047697C5B
S11309A02000B04720212000B847A97C2000B04790
S11309B0E97C2000B04720212000B847297D200091
S11309C0B047697D2000B04720212000B847A97DA9
S11309D02000B047E97D2000B04720212000B8471F
S11309E0297E2000B04720212000B847697E2000DE
S11309F0B047A97E2000B04720212000B847E97EF7
S1130A002000B047297F2000B04720212000B847AC
S1130A10697F2000B04720212000B8477B212000B7
S1130A20B847019B597AC9B22000B047019B197A93
S1130A30C9B22000B04720212000B8473C21200043
S1130A40B84720212000B847019B597BC9B2200038
S1130A50B047019B197BC9B22000B0477D2120001B
S1130A60B84720212000B847534601935978200005
S1130A70B04720212000B847EB7E287F1B02184393
S1130A80404280B2374B984720212000B8475B2171
S1130A902000B847AB7F002B00D0EAE658212B4852
S1130AA02B4B98475D212948294EB04720212748E0
S1130AB0B04728212548B047019B1B78002B00D064
S1130AC0DCE620212148224B9847DBE63C211F48E5
S1130AD01F4B9847E2E61C4F234B3A68D15CC9B2DE
S1130AE01A4C20001E4EB04720212000184DA84764
S1130AF01E4B3A68D15CC9B22000B04720212000C7
S1130B00A8471B4B3A68D15CC9B22000B0472021EA
S1130B102000A8473A68174BD15CC9B22000B047FF
S1130B2020212000A8470D212000A84778E6C046D0
S1130B30D40200203D28000022030020506C000055
S1130B40FD2F000038190020BC180020700200207E
S1130B5025270000900C0020E5290000052800004E
S1130B6045270000494F00001E0200001D0200003E
S1130B701F0200002A02000070B50400204B187800
S1130B80204B9847002803D01D4B5B78202B00D0C6
S1130B9070BD1D4B1B78062BFAD1194B5B790D2BBD
S1130BA0F6D1174B1A79D9789878184B9847C0B270
S1130BB02100174B98470500FF28E9D0154B9847AB
S1130BC021002800144B9847144B98472B01E31835
S1130BD05A78002A10D101325A702000104B9847DD
S1130BE02000104B9847210028000B4B98470D21FB
S1130BF00D480E4B9847CBE700225A70EDE7C046EC
S1130C00D40200203D28000022030020F12A000025
S1130C10992F00007D300000F9300000AD31000054
S1130C20C12400005D25000070020020252700007B
S1130C30F0B583B00190002700240C4D0C4E08E061
S1130C400D210C480A4B984700270134E4B2642C68
S1130C500AD001992000A847032FF1D009210548A3
S1130C60B0470137FFB2F0E703B0F0BDF930000040
S1130C70252700007002002010B504000C4B1878E2
S1130C800C4B9847152800D010BD0B4B1B78022B3A
S1130C90FAD1074B5B780D2BF6D12000074B984710
S1130CA02000074B98470022064B1A70ECE7C04619
S1130CB0D40200203D280000220300205D2500000E
S1130CC0310C0000AC270020F8B504000F00544D8F
S1130CD04E212800534EB0476F212800B0472E21E3
S1130CE02800B04728212800B04738004E4B9847C9
S1130CF0010028004D4B984729212800B0472021A6
S1130D002800B0475B212800B047BF00E4192388BE
S1130D109BB2474A934200D169E0E378002B00D0AC
S1130D2068E0444B98473E4E5D2130003D4DA84756
S1130D3020213000A84728213000A84723889BB2EF
S1130D403B4A934259D0208880B2374B98470100E0
S1130D503348364B984729213148324FB847202130
S1130D602F48B8472288D2B2D3009B189B009B1807
S1130D70314EF618F1782A48304DA8473179284881
S1130D80A84771792648A847B1792548A8472D2155
S1130D902348B84752212248B847238823889BB266
S1130DA0072B36D95F211E481E4B98472688B6B2BA
S1130DB0A478E4B21A4D202128001A4FB8473A21EA
S1130DC02800B84720212800B847F6B26400E4B2EE
S1130DD0F3009B199B009B19174AD3181C19217AFD
S1130DE02800164EB047617A2800B047F8BD0023AA
S1130DF0E37092E7124B984795E7094E5F21300064
S1130E00084DA8475F213000A8475F213000A8475C
S1130E10A1E7A1783031C9B20148024B9847C5E730
S1130E207002002025270000E529000005280000A5
S1130E30FFFF0000A53000003819002045270000FE
S1130E4091300000F0B5D646474680B583B0834B59
S1130E501878834B984719280BD0804B1878804B0F
S1130E609847192800D19FE003B00CBC90469A46DD
S1130E70F0BD7A4B58787A4B98471528EDD1794BC9
S1130E801B78082B47D00E2B0AD0032BE5D1734BCC
S1130E909B780D2BE1D100270024734D734E77E02E
S1130EA06E4B5B7B0D2BD8D16C4C62792179E07849
S1130EB06F4DA8476C4E0190010030006B4FB8474E
S1130EC06C4B9847019B9B009846B044627A217A08
S1130ED0E079A84780B242461080E07A604A9246A0
S1130EE090470500207BD047AB00ED186D004519F5
S1130EF0EDB2424695700023D37030005E4B9847A4
S1130F0030005E4B984701993000B8470D215C488A
S1130F105C4B9847A1E7514B9878514B98470E2862
S1130F209BD14E4BDB790D2B97D14C4B9A79597948
S1130F3018794F4B984705004B4C010020004B4B50
S1130F4098474C4B9847AB001B19DA78002A11D10B
S1130F500132DA70444C2000474B98472000474B3D
S1130F60984729002000414B98470D214448454BA0
S1130F70984772E70022DA70ECE70D214048414BB4
S1130F8098470024013796239B009F4200D164E7D1
S1130F9039002800B047022CEFD009213848394BDA
S1130FA098470134E4B2EDE72E4B1B78042B20D094
S1130FB0062B00D058E7294B5878294B98470A2824
S1130FC000D051E7254B5B790D2B00D04CE7234E25
S1130FD0F078234DA84704003079A847A300E4180B
S1130FE064000419E4B2284B18684474274B9847EA
S1130FF03AE71A4B58781A4B9847152800D033E72C
S1131000164B9878164B98470C2800D02CE7134BB6
S1131010DB780D2B00D027E71D481E4B98471A4B51
S11310201B681B7C012B10D019481030194B9847B2
S1131030154B1B6801221A740D211148114B984756
S1131040114B1868114B98470EE711480830114BA3
S113105098470D4B1B6800221A74EDE7D402002058
S11310603D2800002203002028030020C90C0000B2
S1131070F12A0000AD310000E925000091260000AE
S11310807002002025270000900C0020192B00007E
S1131090A86C0000FD2F0000F8B5DE4657464E460A
S11310A04546E0B53A4B18783A4B9847192805D08D
S11310B03CBC90469946A246AB46F8BD344B5878A2
S11310C0344B98470D28F3D1314B9878314B9847DE
S11310D01528EDD1304B1B78042BE9D12C4BDB7850
S11310E00D2BE5D12D4B002598461FE02C482D4EA5
S11310F0B0475B465968C9B22B4C20002B4B98472C
S11311002B481830B0475B465B682A4AD15C3031C3
S1131110C9B22000284EB0470D212000B047382323
S11311209C46E0445F33FF339D42C1D020481D4BB1
S11311309847C346434659681B48204B9847204864
S1131140184B9847EB1D9A4647461B4E1D4B994634
S11311505B211548B0472800C84701001248174BC7
S113116098475D211048B04720210F48B04779784F
S1131170C9B20D480D4CA0473978C9B20A48A047F6
S113118020210948B047013508375545E0D1ADE77E
S1131190D40200203D28000022030020082800205B
S11311A0CC6C0000FD2F00007002002045270000D9
S11311B0BC6C00002002002025270000B927000095
S11311C0C46C0000E529000010B5254B1878254BA8
S11311D09847192800D010BD214B5878214B9847C7
S11311E01C28F8D11E4B98781E4B98471128F2D131
S11311F01B4BD8781B4B98471828ECD1184B1879FF
S1131200184B98472028E6D1174B1B78072BE2D1BF
S1131210134B9B790D2BDED1114B5879114B984709
S113122020280BD1114B1B78002B03D000220F4B2D
S11312301A70D0E701220D4B1A70CCE7084B58798D
S1131240084B98471B28C6D1094B1B78002B03D0A9
S11312500022074B1A70BEE70122054B1A70BAE749
S1131260D40200203D280000220300208A0C002024
S1131270D6270020F8B5DE4657464E464546E0B52B
S11312808146254B9B461879244B984698470F274F
S113129006015B465879C04738400F239A460643F7
S11312A0F3B24A4653705B469879C04700013E400A
S11312B006435B46D879C047384053469E433500C1
S11312C00543EBB24A4693705B46187AC047000167
S11312D03D4005435B46587AC047384053469D43DA
S11312E02C000443E3B24A46D3705B46987AC04765
S11312F000013C4004435B46D87AC047384053461B
S11313009C432043C0B24B4618713CBC904699465E
S1131310A246AB46F8BDC046D40200203D280000DA
S1131320F0B5CE46474680B583B00500224B9846BB
S11313301879224CA047070043465879A047204E0D
S11313407E43FA239B005843361843469879A047B6
S113135081464346D879A04707004346187AA047F8
S113136064244B465C438619A419BB00DB195B005B
S1131370E41823021B0E98466A46D371D1791148AA
S1131380114B994698472604360EF1B20D48C847CA
S1131390E7B239000B48C8476C61C2234246EA549D
S11313A00133EE540133EF540422084BEA5403B0E2
S11313B00CBC90469946F0BDD40200203D280000A4
S11313C01027000070020020452700001D020000C5
S11313D0F8B505000C4F38790C4EB0470400787905
S11313E0B0470238A300E41864000019C0B2021C1C
S11313F00F2800D90F22C523EA54EB5CDBB2AB7390
S11314000422034BEA54F8BDD40200203D28000016
S11314101D020000F8B505000F4F38790F4EB04794
S113142004007879B0470538A300E4186400001973
S1131430C0B2031C012800D802231A1CDBB2072BFC
S113144000D90722DE23EA54EB5CDBB2EB730422FF
S1131450034BEA54F8BDC046D40200203D280000E6
S11314601D02000070B504000D4B98470D4E0D2170
S113147030000D4DA8470D4B984720000C4B984762
S113148020213000A84720213000A8472021300027
S1131490A8472000074B98472000074B984770BD8A
S11314A02130000070020020252700004D3000008C
S11314B0014C00004D200000D94C000010B5604BD9
S11314C01878604B98471C2800D010BD5C4B5878A6
S11314D05C4B98471C28F8D880005B4B1B589F46F0
S11314E05A4B1B78032BF0D1554B9B780D2BECD129
S11314F0574B1868574B9847E7E7544B1B78032B17
S1131500E3D14F4B9B780D2BDFD1534B1868514BD4
S11315109847DAE74D4B1B78072BD6D1484B9B797C
S11315200D2BD2D1464B9878464B984701280DD0C5
S1131530434B9878434B98470228C6D1464C2068C1
S1131540464B98472068464B9847BEE7404C206876
S1131550424B98472068424B9847B6E73B4B1B7871
S1131560072BB2D1364B9B790D2BAED1344B9878E7
S1131570344B984701280DD0314B9878314B98471C
S11315800228A2D1344C2068364B98472068344B4B
S113159098479AE72E4C2068324B98472068304B86
S11315A0984792E7294B1B780A2B00D08DE7244BF0
S11315B05B7A0D2B00D088E7214B9878214B984714
S11315C001280ED01E4B98781E4B9847022800D055
S11315D07BE7214C2068244B98472068204B984790
S11315E073E71B4C2068204B984720681C4B984796
S11315F06BE7164B1B780D2B00D066E7104B1B7B5B
S11316000D2B00D061E70E4B98780E4B98470128BC
S11316100ED00B4B98780B4B9847022800D054E718
S11316200D4C2068114B984720680D4B98474CE7A8
S1131630074C20680D4B98472068094B984744E7AE
S1131640D40200203D280000DC6C000022030020AE
S1131650BC18002065140000900C00201514000034
S1131660192B0000D1130000211300007512000093
S113167010B51A4B18781A4B98471C2800D010BD87
S1131680164B5878164B98471128F8D1134B987875
S1131690134B98471828F2D1104BD878104B984721
S11316A02028ECD10F4B1B78052BE8D10B4B1B7971
S11316B00D2BE4D10C4B1B680C4A9A5C012A06D012
S11316C00A4A012199540A4B1B689954D7E7074ADF
S11316D000219954064B1B689954D0E7D40200208A
S11316E03D28000022030020BC1800202602000030
S11316F0900C0020F0B5C64600B582B00400354B0E
S11317001878354B98471D2803D002B004BC904686
S1131710F0BD304B5B78202BF7D1304B1B780B2B73
S1131720F3D12C4B9B7A0D2BEFD12A4EB0792A4D55
S1131730A847FA27BF004743B846F079A84764276B
S113174047434744307AA8478046707AA847C71968
S113175043469D0045446D00ED193279F178B07827
S11317601F4B98470700C3B21E001E4B9847210029
S1131770019630001C4EB0471C4B9847FF231F4076
S11317803B01E3182A04120E5A72EDB21D72FB00DB
S1131790DB199B00DF19164BDB19DA771A002032AC
S11317A015701900213100220A7022331A702000AA
S11317B0104B98472000104B984721000198B047E0
S11317C00E4D0D2128000E4CA0470D212800A047E6
S11317D09BE7C046D40200203D28000022030020DD
S11317E0F12A00007D300000F9300000AD31000026
S11317F038190020511F0000D91F0000700200207A
S11318002527000070470000002804D1802292029E
S1131810034B5A61704780229202014B9A61F9E7A7
S113182000440041002804D180225202034B5A6133
S1131830704780225202014B9A61F9E7004400414B
S11318400E4B0F4A13600F4A9A6100228E218900C1
S11318505A54DE39FF395A5401315A540A495A54F8
S113186004200A49585402395A5409495A54094916
S11318705A5417315A5008495A5470477016002068
S1131880BC180020F01800201D0200002A020000ED
S113189023020000250200002602000070B5154C4A
S11318A015482060154B836114228E239B00C2547B
S11318B0134B9C4660440021124DA8472368124AEA
S11318C09446634418000321A84723688A2292009F
S11318D09446634418000021A84723680B4A9446A1
S11318E0634418000021A84722680121084BD15401
S11318F070BDC046900C0020980C0020D827002012
S11319001D020000014200002A0200002302000020
S113191026020000F0B583B001AC012363700027F8
S1131920A7702370210017201E4EB0471E4D802340
S11319301B04AB6121001B20B04780231B05AB6156
S113194021001C20B04780235B05AB6121001120DE
S1131950B04780239B02AB6121001020B047802355
S11319605B02AB61277021000B20B04780231B0171
S11319706B6121000720B04780236B612100162092
S1131980B0478023DB036B6121000120B0470223B1
S11319906B61277021000A20B0478023DB006B6154
S11319A003B0F0BDDD5400000044004110B505480B
S11319B0054B98476820054B984701000448054BA0
S11319C0984710BD506D0000FD2F0000E529000070
S11319D0700200200528000010B504001B4B1B6892
S11319E0834204D01A4B1B6898421FD010BD8F232A
S11319F09B00C258174B9A420FD8174BC35C012B5C
S1131A00F4D180225205154B5A61154B9847154B5A
S1131A10E0180621144B9847E8E7144B98478A22AC
S1131A209200A35C0133DBB2A354DFE70A4BC35C2F
S1131A30012BDBD180221204084B5A61084B9847D2
S1131A40084BE0180621084B9847CFE7BC18002044
S1131A50900C0020E2040000230200000044004136
S1131A604D3F00001D02000001420000154200002D
S1131A7070B50400464BC35CDBB2732B63D0742B8C
S1131A8052D0662B00D070BD0B3BC25C12014149A1
S1131A9052189289C35C1B015B18198992B28A425D
S1131AA020D95B23C35C1B013A4A9B1800229A810C
S1131AB0394B9847394BE35C012BE4D12000384B78
S1131AC098472000374B9847374D09212800374C59
S1131AD0A0473748374B9847374B98470D21280084
S1131AE0A047D0E7354B9847354B1B78002B0DD1D9
S1131AF0344A9C33D35C9D21515C1B021943324808
S1131B00324B984701222E4B1A70BCE72D4A9E2374
S1131B10D35C9F21515C1B0219432D482B4B9847E2
S1131B200022274B1A70AEE72A4B98471B4BE35C05
S1131B30012B03D06622164BE254A4E7154920007A
S1131B40254B9847F6E78A239B00C35CDBB2022B44
S1131B5099D900218A239B00C154CE3BFF3BC25C30
S1131B60D2B2D3009B189B009B18164AD3189977BE
S1131B700A4BC35C012B06D02000104B9847662209
S1131B80034BE2547FE70349144B9847F4E7C046FC
S1131B901D020000000F0020154200002602000074
S1131BA021300000CD320000700200202527000003
S1131BB0606D0000FD2F000071270000B51E0000BD
S1131BC0B8340020381900203E1800004D1E0000D3
S1131BD042180000FD2D000025320000C131000034
S1131BE0F0B5CE4600B5050053219448944B994670
S1131BF098475B27EA5DD2B2924CD3009B189B00B6
S1131C009B18E318D9788D488F4EB047EA5DD2B25D
S1131C10D3009B189B009B18E31819798748B04799
S1131C20EA5DD2B2D3009B189B009B18E318597944
S1131C308248B047EA5DD2B2D3009B189B009B1840
S1131C40E31899797D48B047EA5DD2B2D3009B1876
S1131C509B009B18E318D9797848B047EA5DD2B263
S1131C60D3009B189B009B18E318197A7348B0475C
S1131C70EA5DD2B2D3009B189B009B18E318597AF3
S1131C806E48B047EA5DD2B2D3009B189B009B1804
S1131C90E318997A6948B047EA5DD2B2D3009B1839
S1131CA09B009B18E318D97A6448B047EA5DD2B226
S1131CB0D3009B189B009B18E318197B5F48B0471F
S1131CC0EA5DD2B2D3009B189B009B18E318597BA2
S1131CD05A48B047EA5DD2B2D3009B189B009B18C8
S1131CE0E318997B5548B047EA5DD2B2D3009B18FC
S1131CF09B009B18E318D97B5048B047EA5DD2B2E9
S1131D00D3009B189B009B18E318197C4B48B047E1
S1131D10EA5DD2B2D3009B189B009B18E318597C50
S1131D204648B047EA5DD2B2D3009B189B009B188B
S1131D30E318997C4148B047EA5DD2B2D3009B18BE
S1131D409B009B18E318D97C3C48B047EA5DD2B2AB
S1131D50D3009B189B009B18E318197D3748B047A4
S1131D60EA5DD2B2D3009B189B009B18E318597DFF
S1131D703248B047EA5DD2B2D3009B189B009B184F
S1131D80E318997D2D48B047EA5DD2B2D3009B1881
S1131D909B009B18E318D97D2848B047EA5DD2B26E
S1131DA0D3009B189B009B18E318197E2348B04767
S1131DB0EA5DD2B2D3009B189B009B18E318597EAE
S1131DC01E48B047EA5DD2B2D3009B189B009B1813
S1131DD0E318997E1948B047EA5DD2B2D3009B1844
S1131DE09B009B18E318D97E1448B047EA5DD2B231
S1131DF0D3009B189B009B18E318197F0F48B0472A
S1131E00EA5DD2B2D3009B189B009B18E318D97FDC
S1131E100A48B047EA5DD2B2D3009B189B009B18D6
S1131E20E418203421780548B0475A210348C847AC
S1131E300D210248C84704BC9146F0BD7002002041
S1131E402527000038190020891E000010B50D4B0D
S1131E5055221A705A709A70DA7000221A715A71E7
S1131E6001249C710534DC71040A1C725872080A3E
S1131E709872D9721A735A739A73DA7333321A7462
S1131E805A7410BDB0270020F8B505000C000809ED
S1131E90064FB84701002800054EB0472007000F41
S1131EA0B84701002800B047F8BDC04635270000F8
S1131EB025270000F8B504005B23C05C0130C0B2E4
S1131EC00201204BD3185A78012A15D0013064211D
S1131ED01D4B9847C8B263251A4E1B4F03019B192B
S1131EE05A78012A08D001306421B847C8B2013DAC
S1131EF0EDB2002DF2D123E05B22A0541A79D2B2C4
S1131F00F72162545A79D2B2013162549A79D2B229
S1131F1001316254DB79DBB2FA22A354A37BDBB236
S1131F200132A3540332FC23E254F33B07481A0062
S1131F30093A815CE218F432117001331B2BF6D19B
S1131F40F8BDC046000F0020756A0000B0270020CD
S1131F50F0B5D646474680B5D3B002AE34A93300B7
S1131F60427A1A70027A5A70103002338B42F7D1D7
S1131F70144B019342AC144B9846144F0023F25C6B
S1131F801A550133402BFAD10198C04738700528FF
S1131F90FAD00F4B9A460D4D402221000198D047AC
S1131FA028700528F8D0019B0133FF331A000193F0
S1131FB04036084B9A42E1D153B00CBC90469A4645
S1131FC0F0BDC046000E020041030000D7270020E8
S1131FD02D02000000120200F0B5C64600B5D2B0D2
S1131FE0019002AF3C00154B009342AD144E154BCB
S1131FF09846402229000098B047434618700528A7
S1132000F7D000235A5DE2540133402BFAD1403417
S1132010009B0133FF331A0000930B4B9A42E8D123
S1132020019C34AA3B7863727B78237202371034A4
S11320309742F7D152B004BC9046F0BD000E0200A6
S1132040D5020000D727002000120200F0B5DE46BA
S113205057464E464546E0B593B00400B94EBA4DD6
S1132060402202A9B948B04728700528F8D08E212B
S11320708900635CDBB202AAD25C635C02A98C4671
S113208063445B78A373552A00D0F2E0A37BDBB2F0
S1132090C52163548E239B00E35C63449B78E37304
S11320A0E37BDBB2DE2163548E239B00E15C02A858
S11320B084466144C978A175E15C6144097961751C
S11320C0E35C63445B792375552A00D0E2E0A37D89
S11320D0DBB2C2216354637DDBB201316354237DDF
S11320E0DBB2013163548E208000235C63449B790E
S11320F0882189006354235C63449B7963548E2351
S11321009B00E15C02A884466144C8799049087048
S1132110E15C6144097A6171E15C6144497AA171CD
S1132120E15C6144897AE171E15C6144C97A2172BC
S1132130E35C63441B7B2374552A00D0C8E08E23E0
S11321409B00E35C02AA944663445B7B6374814B0B
S11321501B689C4200D1C5E07F4D4E2128007F4E74
S1132160B04756212800B0474D212800B0473A21F6
S11321702800B04720212800B0478E239B009846B2
S1132180E35CDBB202AAD15C2800754FB84720217A
S11321902800B0474346E35C02AA94466344597856
S11321A02800B84720212800B0474346E35C02AA30
S11321B09446634499782800B84720212800B04702
S11321C04346E35C02AA94466344D9782800B8479E
S11321D04346E35C02AA9446634419792800B8474D
S11321E04346E35C02AA9446634459792800B847FD
S11321F020212800B0474346E35C02AA9446634486
S113220099792800B84720212800B0474346E35C69
S113221002AA94466344D9792800B84720212800AB
S1132220B0476179C9B22800B847A179C9B228007A
S1132230B847E179C9B22800B847217AC9B2280061
S1132240B84720212800B047217CC9B22800B847EC
S113225020212800B047617CC9B22800B8470D216D
S11322602800B04713B03CBC90469946A246AB4602
S1132270F0BDC523E35CDBB2A3738E239B00E35C58
S113228002A98C4663449B78E373DE23E35CDBB2F0
S1132290E37309E7C223E35CDBB2A375C323E35C06
S11322A0DBB26375C423E35CDBB223758E21890042
S11322B0635C02A884466344987988239B00E054B5
S11322C00120E054615C61448979E154E05416E7EB
S11322D0002222748E239B00E35C63445B7B637463
S11322E0627434E7322602AB9C4666440025FF271D
S11322F01C4B9B461C4B9A461C4B9946A0460FE030
S11323001B4BEB1800221A605346EC18194B584328
S1132310C821C900C847206002360435102D0FD0EB
S11323203078009BBB43184373781B023840184332
S11323306B46188080B25845E2D00D4B5851E3E704
S1132340444609E7D5020000D7270020000D02000B
S113235004280020BC18002070020020252700005B
S113236045270000FFFF000060160020956700006D
S1132370C01800201027000070B590B004003C4E37
S11323803C4D402269463C48B04728700528F8D0A7
S11323908E239B00E25CD2B2552168468154E25CF4
S11323A0A17B6A445170E25CE17B6A449170E25C17
S11323B0A17D6A44D170E25C617D6A441171E25C82
S11323C0217D6A445171E25C88218900615C6A4420
S11323D09171E25C6A44294909780131D171E25C66
S11323E061786A441172E25CA1786A445172E25CD9
S11323F0E1786A449172E25C21796A44D172E25CC8
S1132400217C6A441173E35C627C6B445A731C4BF9
S11324101B689C4212D0184E1A4D164C3000A84727
S113242020700528FAD0184D124C402269461248F3
S1132430A84720700528F8D010B070BD134B1A6857
S113244032214254120A013142545A680131425431
S1132450120A013142549A6801314254120A01317C
S11324604254DB68382283541B0A01328354D2E776
S1132470D5020000D7270020000D02000428002008
S1132480BC180020410300002D020000C0180020E9
S113249000B583B000226B461A70074B5B68DB06FD
S11324A01B0F69468B70CA700A714A706846034BE9
S11324B0984703B000BDC04600400041050100003C
S11324C0F0B5D646474680B5204CA54402AE98A93F
S11324D0330002781A7042785A7002799A704279FD
S11324E0DA7082791A71C2795A71103006338B42CC
S11324F0EFD1FA235B020193A2AC154B9846154F1A
S11325000023F25C1A550133402BFAD10198C047DD
S113251038700528FAD0104B9A460E4D40222100FF
S11325200198D04728700528F8D0019B0133FF3368
S11325301A0001934036FF235B029A42E0D1B32391
S11325409B009D440CBC90469A46F0BD34FDFFFFB1
S113255041030000D72700202D020000F0B5C64635
S113256000B51E4CA544019002AF3C00FA235B0267
S11325700093A2AD1A4E1B4B9846402229000098A6
S1132580B047434618700528F7D000235A5DE2543B
S11325900133402BFAD14034009B0133FF331A003E
S11325A00093FF235B029A42E7D1019C98AA3B78EF
S11325B023707B786370BB782371FB7863713B79FC
S11325C0A3717B79E371063710349742EFD1B223BC
S11325D09B009D4404BC9046F0BDC04638FDFFFFFF
S11325E0D5020000D7270020F0B5D646474680B56F
S11325F0204CA54402AE962109013300B44661443F
S113260042781A7002785A7082789A70C278DA70B6
S1132610043004338B42F3D1174B019398242401E3
S113262002AB9C466444154B9846154F0023F25C5C
S11326301A550133402BFAD10198C0473870052848
S1132640FAD0104B9A460E4D402221000198D047F3
S113265028700528F8D0019B0133FF331A00019339
S11326604036094B9A42E1D1084B9D440CBC90463C
S11326709A46F0BD34F6FFFF001702004103000044
S1132680D72700202D020000003D0200CC090000E5
S1132690F0B5D64600B51D4CA544019002AE3700F6
S11326A01B4B009398242401B4466444194B9A4666
S11326B0194D402221000098D04728700528F8D0F1
S11326C000231A5DFA540133402BFAD14037009BA2
S11326D00133FF331A000093104B9A42E9D1019D54
S11326E09622120102AB9C46624433786B70737875
S11326F02B70B378AB70F378EB70043604359642E4
S1132700F3D1074B9D4404BC9246F0BD38F6FFFF5D
S113271000170200D5020000D7270020003D020068
S1132720C809000010B589B2014B984710BDC046D6
S1132730055B0000092802D83030C0B2704737303A
S1132740C0B2FBE7F8B505000C000809064FB8470E
S113275081B22800054EB0472007000FB84781B268
S11327602800B047F8BDC04635270000055B0000CF
S1132770F8B50D4D5B2128000C4CA0472021280002
S1132780A0470B4C250012350A4F084E2178064805
S1132790B84720210448B0470134A542F6D15D2151
S11327A00148024B9847F8BD70020020055B000009
S11327B0B027002045270000F0B583B001900C003D
S11327C00804060E000F0D4DA84781B201980C4F66
S11327D0B8473007000FA84781B20198B8472006D0
S11327E0000FA84781B20198B8472007000FA847F7
S11327F081B20198B84703B0F0BDC0463527000048
S1132800055B0000F8B505000C000805000F094F32
S1132810B84781B22800084EB0472006000FB847D9
S113282081B22800B0472007000FB84781B22800C2
S1132830B047F8BD35270000055B0000302800D103
S1132840C8E0312800D1C8E00223322800D1C2E018
S11328500133332800D1BEE00133342800D1BAE07B
S11328600133352800D1B6E00133362800D1B2E077
S11328700133372800D1AEE00133382800D1AAE073
S11328800133392800D1A6E00133612800D1A2E048
S11328900133622800D19EE00133632800D19AE01D
S11328A00133642800D196E00133652800D192E019
S11328B00133662800D18EE0053B412800D18AE02F
S11328C00133422800D186E00133432800D182E05D
S11328D0013344287FD0013345287CD00133462876
S11328E079D00133672876D00133682873D0013357
S11328F0692870D001336A286DD001336B286AD0FF
S113290001336C2867D001336D2864D001336E28FD
S113291061D001336F285ED0013370285BD001335E
S1132920712858D00133722855D00133732852D0FE
S1132930013374284FD0013375284CD001337628E5
S113294049D00133772846D00133782843D0013366
S1132950792840D001337A283DD0133B47283AD018
S11329600133482837D00133492834D001334A2869
S113297031D001334B282ED001334C282BD00133D6
S11329804D2828D001334E2825D001334F2822D09A
S1132990013350281FD0013351281CD00133522851
S11329A019D00133532816D00133542813D00133DE
S11329B0552810D0013356280DD0013357280AD09A
S11329C00133582807D00133592804D05A2806D097
S11329D0DD3300E00023180070470123FBE72323C5
S11329E0F9E70000F0B5CE4600B582B00600174BFB
S11329F09946FA21890098470F270401144DFA21BA
S1132A0089003000A8470B00642101931800C847CF
S1132A1038400443E6B2360264210198A8470B000B
S1132A200A2101931800C84700013C4004430A21CD
S1132A300198A847380008400F239C432043C0B2A4
S1132A40304302B004BC9146F0BDC0469567000017
S1132A50A1680000F0B5CE46474680B583B00F2389
S1132A6099460F241F4B98461F4901909847070029
S1132A7027403D041D4E1C490198B0470B00FA2124
S1132A80890001931800C04700010743FA21890017
S1132A900198B0470B00642101931800C0472040FF
S1132AA04A4697430743FBB21B021D436421019826
S1132AB0B0470B000A2101931800C04700012740CA
S1132AC007430A210198B04721403C004B469C43F0
S1132AD00C43E4B22543280003B00CBC904699464D
S1132AE0F0BDC0469567000010270000A1680000F3
S1132AF0F8B50C001500074EB04707002000B0479A
S1132B0064247C4383001818400024182800B0472C
S1132B100019F8BD3D28000010B50400054B984786
S1132B202000054B98472000044B98470022044B93
S1132B301A7010BD21300000792300004D200000E0
S1132B40AC270020F0B5C64600B5154B1B780C2BFE
S1132B5022D1144C144D16339846A044134F144EEE
S1132B602078B84728702670013401354445F7D1E0
S1132B70104A11491400223413781B01507803437E
S1132B800B7002320131A242F6D10B4B33221A747C
S1132B905A740022024B1A7004BC9046F0BDC04621
S1132BA0AC270020D4020020FC0200203D280000B5
S1132BB06C6D0000FD020020B0270020F8B5DE4651
S1132BC057464E464546E0B55D241E4B98461E4F7B
S1132BD01E4E25005D3D454429783B681819B047D1
S1132BE029781B4B18680019B04701346C2CF0D1BC
S1132BF000239946174B9A466D22D31A9846544699
S1132C004C444E461C365644B3460F4F43461E1999
S1132C1021783B6898190D4DA84721780C4B18680A
S1132C208019A84701345C45F0D11B239C46E1443C
S1132C309623FF339945E2D13CBC90469946A2467F
S1132C40AB46F8BDB0010020BC18002001420000D2
S1132C50900C002000000020F8B505005B23C05C48
S1132C600130C0B20200C3001B189B001B183C4972
S1132C70CB1823331B78012B1AD001306421394B34
S1132C809847C8B26324364E364F0200C3001B185F
S1132C909B001B18F31823331B78012B08D0013039
S1132CA06421B847C8B2013CE4B2002CEDD156E02F
S1132CB0D3009B189B009A18294B9A18D178F723B4
S1132CC0E95411790133E95451790133E954917983
S1132CD00133E954D1790133E954117A0133E954C8
S1132CE0517A0133E954917A0133E954D17A0133A9
S1132CF0E954117B0133E954517B0223FF33E95436
S1132D00917B0133E954D17B0423FF33E954117CD3
S1132D100133E954517C0623FF33E954917C013398
S1132D20E954D17C0823FF33E954117D0133E9547C
S1132D30517D0A23FF33E954917D0133E954D17D58
S1132D400C23FF33E954117E0133E954D17E0E2361
S1132D50FF33E954127F0133EA54B33BE854F8BD1E
S1132D6038190020756A0000F8B504000D005B23D3
S1132D70C05C0130C0B20301CB185A78012A14D0C8
S1132D80013064211B4B9847C8B26326194F0301D5
S1132D90EB185A78012A08D001306421B847C8B228
S1132DA0013EF6B2002EF2D123E05B22A0541A7940
S1132DB0D2B2F72162545A79D2B2013162549A796B
S1132DC0D2B201316254DB79DBB2FA22A354A37B81
S1132DD0DBB20132A3540332FC23E254F33B064832
S1132DE01A00093A815CE218F432117001331B2B8A
S1132DF0F6D1F8BD756A0000B027002070B5040054
S1132E00254BC35C012B27D000215B26234DA25DFB
S1132E10D2B26318D87FD3009B189B009B18EB1881
S1132E20585401311E29F2D15B25615DC9B21B4A98
S1132E30CB005B189B005B18D31801209877615D69
S1132E40C9B2CB005B189B005B18D31823331870EE
S1132E502000134B984770BD124B98471248134BF0
S1132E6098472223E15CC9B2114D2800114EB047A6
S1132E702323E15CC9B22800B0472423E15CC9B232
S1132E802800B0472523E15CC9B22800B0470D21D2
S1132E902800094B9847B7E726020000381900209C
S1132EA0E11B000021300000706D0000FD2F0000C8
S1132EB070020020452700002527000010B50400FB
S1132EC0094B984723899BB2084A934200D010BD0E
S1132ED02300C822D200A218198910339342FBD1CF
S1132EE02000034B9847F2E7D91F0000FFFF0000C2
S1132EF0511F000010B504000A4B98472378DBB239
S1132F00FF2B00D010BD220000230021137051704C
S1132F1051600133DBB21032642BF7D12000024B35
S1132F209847EFE75D250000C1240000884216D2CF
S1132F300301D3180139091AC9B201300818000174
S1132F401218074802E01033934208D0998989B2D5
S1132F508142F8D89989013189B29981F3E77047A0
S1132F600F27000010B50400084B1868084BC35C19
S1132F70012B00D010BD0A0064210020054B9847A6
S1132F800023034AA3541932A350F3E7BC180020CA
S1132F90270200002D2F00000B78DBB298420BD0E3
S1132FA0103101220B78DBB2834206D0013210319A
S1132FB0642AF7D1FF2001E00022D0B2704700005C
S1132FC010B50A4B1B7820229343572B00D010BD19
S1132FD0363B064AD35C202293435A2BF7D1143A4A
S1132FE0034B1A700348044B9847F0E7D4020020BF
S1132FF0AC270020786D0000FD2F000070B501782B
S1133000002908D00400044E044D3000A8470134C0
S113301021780029F9D170BD700200202527000015
S113302010B5064B1B68834203D00548054B9847EF
S113303010BD0548034B9847FAE7C046BC1800206A
S1133040D46D0000FD2F0000CC6D000010B50248C7
S1133050024B984710BDC046A06D0000FD2F000034
S113306010B50348034B9847034B984710BDC0461F
S1133070EC6D0000FD2F00004D30000010B502483B
S1133080024B984710BDC046BC6D0000FD2F0000E8
S113309010B545210148024B984710BD700200202D
S11330A02527000010B520210148024B984710BD88
S11330B07002002025270000F8B507000C000A4D17
S11330C020212800094EB047390161184B7A087A4B
S11330D01B021843064B984701002800054B9847EC
S11330E020212800B047F8BD7002002025270000E9
S11330F0E5290000B9270000F0B583B004000E00F4
S11331002048214B9847009425010196B446654414
S11331102878C0B21D4B984701001D4C20001D4B60
S11331209847202120001C4EB0472979C9B22000BD
S11331301A4FB8476979C9B22000B847A979C9B20A
S11331402000B847E979C9B22000B84720212000FF
S1133150B04701990098124B984720212000B047AE
S11331605B212000B0476B78012B07D00D4B9847AB
S11331705D210748084B984703B0F0BD0A4B9847B8
S1133180F6E7C046846D0000FD2F0000E52900002D
S113319070020020052800002527000045270000B4
S11331A0B9300000A53000009130000010B502488D
S11331B0024B984710BDC046986D0000FD2F0000DB
S11331C0F8B504000D000E4BC35C002B00D1F8BD14
S11331D00C4EB04720000C4B98470C480C4FB84796
S11331E05B23E35C1B01ED182878C0B2094B9847B8
S11331F001000948094B98470948B847B047E6E732
S1133200260200004D30000021300000846D0000D3
S1133210FD2F0000E52900007002002005280000B1
S1133220DC6D0000F8B506000C001D4BC35C002BE0
S113323000D1F8BD1B4B984730001B4B98471B48E7
S11332401B4B98475B23F35C1B01E4182078C0B246
S1133250184B98470100184C2000184B9847202120
S11332602000174B98470025164C174F5B23F25C40
S1133270D2B2D3009B189B009B18E318595D0E48EB
S1133280B84720210C480E4B984701351E2DEDD12F
S11332900D2109480A4B9847024B9847C9E7C04695
S11332A0260200004D30000021300000846D000033
S11332B0FD2F0000E5290000700200200528000011
S11332C0252700003819002045270000F8B5040020
S11332D0174BC35C002B00D1F8BD16480830164BC1
S11332E098475B23E05CC0B2144B98470100144D2F
S11332F02800144B984720212800134FB847F72380
S1133300E15CC9B22800114EB047F823E15CC9B2B0
S11333102800B047F923E15CC9B22800B047FA237A
S1133320E15CC9B22800B0470D212800B847D3E7B3
S113333026020000846D0000FD2F0000E529000036
S11333407002002005280000252700004527000002
S11333507047000000B583B000236A461370012251
S113336069464A7003328A700B710B33CB70023B8F
S11333704B716846014B984703B000BD4D3E0000B9
S113338010B500210348044B98470020034B98478D
S113339010BDC04651330000653F0000793F000076
S11333A010B58CB068460E4B98470E4C6A460E49D1
S11333B020000E4B98472268537E5BB2002BFBDB48
S11333C00F2393751376137802210B431370054B67
S11333D01A68537E5BB2002BFBDB0CB010BDC046F9
S11333E07D340000FC27002000400042C53400006A
S11333F030B5204B19680B691F2293430B610B698D
S1133400184308614B7E5BB2002BFBDB0B7B022273
S113341013430B734B7E5BB2002BFBDB01200425B3
S1133420022401E010420AD10B7EDBB202001A40F2
S11334301D4200D022431C42F4D02A43F2E74B7EC3
S11334405BB2002BFBDB488B80B20B4B1880012353
S11334500B760A7ED2B21340540701D502242343CB
S1133460920701D5042213435B0701D502230B768F
S113347030BDC046FC270020EE01002010B500221C
S113348000230270427000214280017103760262BF
S1133490C261826007240473C0246401C48103747C
S11334A043748374C37403752A2403554375837565
S11334B0063C0355C2840285C1752B23C1540133D4
S11334C0C15410BDF0B5DE4657464E464546E0B5FC
S11334D097B0070016000160C94A106A80235B0296
S11334E0034313620B780520DB0706D517B03CBCF9
S11334F090469946A246AB46F0BD0B7817309B0721
S1133500F4D473783B71002B04D1BE4A136C0421AC
S11335100B431364BC4B1B681B041B0F98463B688E
S11335209B4633786A46137069461720B74B984711
S11335301720B74B98472C23F25C002A5AD0013B42
S1133540F55C337BEB18DBB2D118C9B28B4227D2BE
S11335505219D3B29946AF4B9A4633004E46B946F8
S11335601F0003E00135EDB2AE4217D00F242C400A
S11335703B7BE4185022A84902A8D047132CF1D869
S1133580A40002ABE05801A900234B70CB708B70F0
S113359001330B70C0B2A14B9847E3E73E004F469E
S11335A0F48950229C4902A89A4B9847132C13D9AA
S11335B0737D9B00DBB25A461370B37DDB017278D6
S11335C01343DBB25A4653703379342B00D98CE160
S11335D09B00934AD3589F46A40002ABE05801A92C
S11335E000234B70CB708B7001330B70C0B28B4BCC
S11335F09847DDE7347B5022874902A8854B9847DA
S1133600132C15D9F4895022834902A8814B984779
S1133610132CCDD8A40002ABE05801A900234B70B1
S1133620CB708B7001330B70C0B27C4B9847BFE7F3
S1133630A40002ABE05801A900234B70CB708B703F
S113364001330B70C0B2754B9847DBE70423102499
S1133650022122E0717C337C10241EE04346022BBD
S113366000D8C4E006231024012116E04346022BAF
S113367000D8C0E00823102400210EE000233024E9
S113368000210AE000232024002106E00023002476
S1133690002102E0022310240121090170220A40C2
S11336A013435A469370F37D17203F2B00D91DE72F
S11336B0D3703A68537E5BB2002BFBDBF37C7288D9
S11336C013432422B25CD2001343327D920013438D
S11336D0B27C5200134323435A469380337E002B1B
S11336E020D0102C00D1E2E000D8A1E0202C00D1A1
S11336F0BFE0302C16D1F27C002A0AD0F269803265
S11337001720FF2A00D9F1E6326A8032FF2A00D955
S1133710ECE61720F269FF2A00DDE7E6326AFF2AA9
S113372000DDE3E639684A7E52B2002AFBDB5A46E2
S113373013723A68537E5BB2002BFBDBB38B5A46A1
S113374093833A68537E5BB2002BFBDB338C5A467F
S113375013842C23F35C002B05D0013BDBB2172030
S11337600F2B00D9C2E62B22B15C17200F2900D9F8
S1133770BCE63868427E52B2002AFBDBF289307B19
S11337800243B068024309050A431B0413435A4623
S113379013612A23F35C13750F2393751533F35CBC
S11337A0002B12D0F38C1F4A1720934200D99DE6B8
S11337B05A469384328D80231B01D31819499BB236
S11337C08B4200D992E65B46DA84174B1B685B0197
S11337D0E022D2001340154A516849011268D20E02
S11337E00A43D2B213435A46138500207EE60623C9
S11337F01024032151E70823102404214DE7C04677
S1133800000400400008004018200041216100002D
S1133810956000001D6B0000D46E0000496200003A
S1133820006E0000FF0F0000246080002060800014
S1133830002C00D076E7F27C002A0FD0F2698021B8
S113384009018C4662442A4917208A4200D94DE670
S1133850326A624426498A4200D947E6244A17203C
S1133860F169914200DD41E6316A914200DD3DE6B5
S113387058E7F27C002A0FD0F269802189008C4637
S113388062441C4917208A4200D92FE6326A6244F6
S113389018498A4200D929E6164A1720F16991424B
S11338A000DD23E6316A914200DD1FE63AE7F27C4F
S11338B0002A0FD0F269802109028C4662440E4925
S11338C017208A4200D911E6326A62440A498A42C0
S11338D000D90BE6084A1720F169914200DD05E69C
S11338E0316A914200DD01E61CE71720FEE5C0467F
S11338F0FF0F0000FF030000FFFF00001723002A52
S113390001D0180070478B00064A9B58002B03D047
S1133910834205D01D23F4E7890088500023F0E793
S11339200023EEE7BC3400201723002901D018003F
S1133930704700221F2800D8024A01238340D36025
S11339400023F4E7001800401723002901D01800D1
S1133950704700221F2800D8024A01238340936045
S11339600023F4E70018004070B50022104B1A70D1
S1133970002310491F25104E0D4C0AE00D4908E0A4
S113398023780133DBB223700F2B10D800211F2BB7
S1133990F4D9280018400122824008691042EFD06F
S11339A00A619B009B59002BEAD09847E8E770BD59
S11339B0B934002000180040BC340020044A1378B5
S11339C002210B43137053785BB2002BFBDB70476F
S11339D00018004000B583B0124A936940210B439C
S11339E0936101A900230B7003200F4B9847032018
S11339F00E4B98470E4A137801210B4313705378EA
S1133A005BB2002BFBDB0B4B19004031002204C3DB
S1133A109942FCD11022084B1A60084B984703B016
S1133A2000BDC04600040040216100009560000014
S1133A3000180040BC34002000E100E0BD39000063
S1133A4000230360436001220272427283720233D4
S1133A50C3727047F0B583B005000C0001A90023C0
S1133A604B70CB7023790B70237A8B702078154BB5
S1133A70984700201F2D00D8134807222A4092009F
S1133A80E77AA37A002B01D008231F43EB089B009D
S1133A90C31899690F269640B14397403A000A43E8
S1133AA09A61637A002B06D143690122AA409343A9
S1133AB0436103B0F0BD42690123AB40134343614A
S1133AC0F7E7C0464962000000180040931C9B00C1
S1133AD01950022A09D0032A0CD0012393401A005A
S1133AE0037E1343037600207047037E10221343A2
S1133AF00376F8E7037E202213430376F3E70000FE
S1133B0070B58000164BC45823689D7B227E637E6B
S1133B1013401D40EB0706D4AB070BD4EB0610D4BF
S1133B20AB0615D470BD2000A36898470123226812
S1133B309373F1E72000E3689847022322689373A4
S1133B40ECE7200023699847102322689373E7E782
S1133B50200063699847236820229A73E2E7C046ED
S1133B60FC34002010B50020014B984710BDC0461E
S1133B70013B000010B50120014B984710BDC04621
S1133B80013B000010B50220014B984710BDC04610
S1133B90013B000010B50320014B984710BDC046FF
S1133BA0013B000010B50420014B984710BDC046EE
S1133BB0013B000010B50520014B984710BDC046DD
S1133BC0013B000030B587B00B4B6A4632CB32C2A2
S1133BD032CB32C2009B98420BD001239A00694633
S1133BE05258824206D00133062BF7D1002007B089
S1133BF030BD0023D8B2FAE7246F0000F0B5C64602
S1133C0000B588B004000D0016000800884B9847E2
S1133C10804606AB13221A705A7001329A70DA7019
S1133C2001321A715A7103AA824B183383CB83C2AF
S1133C300023A360E36023616361237663764346D4
S1133C409A007D4BD4502560B378082B08D023719B
S1133C502B880520DB0708D508B004BC9046F0BDCE
S1133C6017204246D207F7D4F1E7EB7B1730DB0687
S1133C70F2D42B889B07EFD4337C002B00D07BE05D
S1133C80337F002B00D083E06C49086A43465A0016
S1133C9003ABD35A03430B62B378082B00D187E0FC
S1133CA001A933780B7006AB42469F5C3800644B25
S1133CB098473800634B98473189B3880B43B178F0
S1133CC0B279114319437378002B02D080231B016E
S1133CD019432268D37B5BB2002BFBDB2980717B09
S1133CE04B1E99418900B37B002B01D0012319435A
S1133CF02268D37B5BB2002BFBDBFF232B710029F3
S1133D0005D02268D37B5BB2002BFBDB6971B17AEF
S1133D10F37A002B01D010231943337B002B01D0FD
S1133D20202319432268D37B5BB2002BFBDBA971F0
S1133D302268D37B5BB2002BFBDB2379042B40D0BE
S1133D40082B5FD01720002B00D085E7D37B5BB214
S1133D50002BFBDB338D2B822268D37B5BB2002BE1
S1133D60FBDB738D2B832268D37B5BB2002BFBDBE5
S1133D70B38D6B8300206FE702A901238B700022AF
S1133D80CA70327E0A704B70307D2F4B984777E7AC
S1133D9002A901238B700022CA702432B21812784F
S1133DA00A704B701F33F3181878274B98476BE74A
S1133DB0086A43465A1C520003ABD35A03430B62AE
S1133DC06EE7D37B5BB2002BFBDB2823F35C2B7405
S1133DD02268D37B5BB2002BFBDB2923F35C2B75BE
S1133DE02268D37B5BB2002BFBDB2A23F35C2B76AC
S1133DF02268D37B5BB2002BFBDB2B23F35C6B765B
S1133E00002029E7D37B5BB2002BFBDBB36A2B6179
S1133E102268D37B5BB2002BFBDBF36AAB612268C5
S1133E20D37B5BB2002BFBDB336BEB61002013E72E
S1133E30C53B0000246F0000FC3400200004004057
S1133E4021610000956000004962000010B582B055
S1133E500400394A936910210B439361374B1B7853
S1133E605BB21020002B03DBE3780730002B01D179
S1133E7002B010BD22799A42FAD862799A42F7D8F0
S1133E802E4A13780E398B431370D3795BB2002B0F
S1133E90FBDB63780020002BEAD001A9A3780B7028
S1133EA00130274B98470120264B98472378002B55
S1133EB027D1E378013B2279002A26D01F490A78CA
S1133EC0042002430A702279013A824013431B49B9
S1133ED0CA7952B2002AFBDBDBB2184A5370637909
S1133EE0002B18D12378002B1FD0144A137880217B
S1133EF00B431370114AD3795BB2002BFBDB002018
S1133F00B6E70120104B9847D3E70C490A78042000
S1133F1082430A70DBE71100CA7952B2002AFBDB44
S1133F20013BDBB2054A9370DCE7044A13780221B3
S1133F300B431370DEE7C04600040040001000404D
S1133F4021610000956000003D610000A522044B42
S1133F501A721A00D3795BB2002BFBDB7047C046A0
S1133F6000100040002901D017207047014B186051
S1133F700020FAE714350020002801D017207047EC
S1133F800122034B5A710332024B1A60F7E7C04611
S1133F900010004000E100E010B50122034B9A71CB
S1133FA0034B1B68002B00D0984710BD0010004045
S1133FB01435002010B5074B1868074BC35C002B61
S1133FC000D010BD044B9C4660440121034B98472C
S1133FD0F7E7C046BC18002023020000014200009D
S1133FE010B5074B1868074BC35C002B00D010BDFD
S1133FF0044B9C4660440121034B9847F7E7C046B5
S1134000900C00202302000001420000F0B585B0AE
S113401001AC20000B4B98470B23019300256560EE
S113402025720127E77221000B20074EB0470723B2
S1134030019365602572E77221000720B04705B03F
S1134040F0BDC046413A0000553A000070B5002268
S11340500B210748074DA84700210B20064CA04719
S1134060002207210548A84700210720A04770BD6A
S1134070B53F0000FD38000029390000E13F000091
S113408000B585B003AB00221A70012159709A70F3
S113409001280BD003A901230B700B200B4B98476D
S11340A0802212010A4B5A6105B000BD6846094BD3
S11340B098470B230093002301936A46137201333C
S11340C0D37269460B20044B9847EDE7DD5400009A
S11340D000440041413A0000553A0000F8B504009C
S11340E03F4B1B68834204D03E4B1B6898423BD035
S11340F0F8BD00203C4FB847FA26760030003B4D0F
S1134100A8470120B8473000A84700228F239B000E
S1134110E250374BE35C002B05D0354B0021E154D2
S1134120E25C002AFBD1334BE35C032B05D0314B1B
S11341300321E154E25C032AFBD18A239B00E35C64
S1134140002B06D08A239B000021E154E25C002A64
S1134150FBD1294BE35C002BCAD0274B0021E1544F
S1134160E25C002AFBD1C3E70020244FB847FA26BB
S1134170760030001D4DA8470120B8473000A847FD
S11341801B4BE35C002B05D0194B0021E154E25C8E
S1134190002AFBD1174BE35C032B05D0154B0321FD
S11341A0E154E25C032AFBD18A239B00E35C002BED
S11341B006D08A239B000021E154E25C002AFBD153
S11341C00D4BE35C002B05D00B4B0021E154E25C6A
S11341D0002AFBD100228F239B00E25088E7C046CF
S11341E0BC180020900C0020091800003D54000069
S11341F01D0200002A02000023020000251800000E
S11342000378DBB2994204D001700378DBB28B42AD
S1134210FAD170470422044BC254023A034BC254ED
S11342200022063BC25470471D0200002A0200000F
S1134230F8B50400866935682800314B98471F2378
S113424018401E3B83402F4A13603268138A1BB206
S1134250002BFBDB2B68022213432B6000238F22ED
S11342609200A350A37725001C35274F1600A069A0
S113427001222900B847A259244B9A420FD8A37FA0
S1134280627FDBB29342F2D100238D229200A350CD
S11342900832A350D53AFF3A1D4BE25416E08D2361
S11342A09B00E2580132E250E250E358022B23D83B
S11342B0184BE35CDBB2164AA3541748174B9847D4
S11342C02000174B98472000164B9847A5692C6887
S11342D020000B4B98471F2318401E3B834080222D
S11342E008498B502A68138A1BB2002BFBDB236816
S11342F0022293432360F8BD20000B4B9847DFE76D
S11343004D58000000E100E0895B0000CF07000089
S11343101D0200001E02000048710000FD2F000075
S11343203D4B0000E14B0000DD400000F0B5CE46FF
S1134330474680B583B00500894600226B46DA7192
S11343400E0043185D331B78002B15D00023480062
S11343504018C200801828186A46D11DAC195D3473
S1134360C2186D3217780A787A400A700133DBB2CA
S11343702278D2B29A42F3D8AF693C682000404B0D
S113438098471F2318401E3B83403E4A13603A68F7
S1134390138A1BB2002BFBDB236802221343236026
S11343A04B46EB185D331B78002B16D000247300AA
S11343B09B19DA009B189846A844334FA8694346D2
S11343C01B196D331978C9B2B8470134E4B2AB197B
S11343D05D331B78DBB2A342F0D8A8696B46D97968
S11343E0C9B2294B9847AB6998461C682000244BF6
S11343F098471F2318401E3B8340802221498B503D
S113440043461A68138A1BB2002BFBDB2368022283
S11344109343236088239B00EB5C012B04D003B0FF
S11344200CBC90469946F0BD4B46EF185D373B787F
S1134430002B18D0002473009B19DA009B18EF1886
S11344403B196D331978C9B21048114B9847202194
S11344500E480D4B98470134E4B2AB195D331B7819
S1134460DBB2A342ECD86B46D979C9B2074C200021
S1134470074B98470D212000034B9847CFE7C046D0
S11344804D58000000E100E02527000070020020E4
S11344904527000010B504000023837705334377D4
S11344A00521034B98472000024B984710BDC04696
S11344B02D4300003142000010B50400002383772F
S11344C01E3343770621034B98472000024B98473D
S11344D010BDC0462D4300003142000010B5040059
S11344E00023837705334377BC33C1540321034B43
S11344F098472000024B984710BDC0462D4300004A
S11345003142000010B5040000238377053343775C
S11345100421034B98472000024B984710BDC04626
S11345202D4300003142000010B5040000238377BE
S11345300A3343770021034B98472000024B9847E6
S113454010BDC0462D4300003142000010B50400E8
S113455000238377053343770121034B98472000D9
S1134560024B984710BDC0462D4300003142000065
S113457030B52323C35CDBB203702425435DDBB277
S113458043702524035DDBB283702621435CDBB2D8
S1134590C3702722835CDBB20371435DDBB24372D9
S11345A0035DDBB28372435CDBB2C372835CDBB258
S11345B003734379DBB2FF2B11D043794278DBB22A
S11345C0934219D04379DBB243708379DBB28370B1
S11345D0C379DBB2C370037ADBB2037130BD837974
S11345E0DBB2FF2BE9D1C379DBB2FF2BE5D1037A30
S11345F0DBB2FF2BE1D1F1E783798278DBB293421E
S1134600E0D1C379C278DBB29342DBD1037A027979
S1134610DBB29342D6D1E1E7F0B5C64600B582B02D
S11346200400D24BC35CDBB27F2B0BD89B00D04A77
S1134630D3589F46CF4B98472000CF4B98476B22C7
S1134640CA4BE25402B004BC9046F0BD8F239B00D9
S1134650C358322BF6D9C94BC35C002B13D0C84ABC
S1134660835C0133DBB283548354835CDBB2022B5F
S113467012D8C44BC35CDBB2BC4A8354C248083072
S1134680C24B9847DEE7C24BC35CDBB2B74A8354E4
S11346900022BB4BC254D5E7BE4B9847D2E7B54B7B
S11346A0984788239B00E35C012B09D000226B46CA
S11346B0DA71A37F013B002B25DD0026002512E0E3
S11346C00921B548B54B9847F0E7A619F17F6B4629
S11346D0DA1DDB794B4013700135EDB22E00A37F58
S11346E0013B9D420FDA88239B00E35C012BECD154
S11346F0A319D97FC9B2A848A94B98472021A64835
S1134700A64B9847E1E788239B00E35C012B17D075
S1134710A37F013BE318DB7F6A4607321278DBB2E2
S1134720934230D020009F4B98470122934BE25490
S113473000228F239B00E25071328C4BE25481E7BC
S1134740954D2D212800954EB04720212800B047D3
S1134750A37F013BE318D97FC9B22800904FB84723
S113476020212800B047A17FC9B22800B8472021E2
S11347702800B0476B46D979C9B22800B847202130
S11347802800B047C4E72000874B984700227B4BA2
S1134790E254CDE700238F2292008350834A83544E
S11347A0784A8354B63AFF3A794BC254714B9847CE
S11347B020007F4B984720007E4B984742E7002219
S11347C07A4BC2547C4B984720006A4B9847674BFE
S11347D0E35C012B00D135E7644B0121E154E25C39
S11347E0012AFBD12EE70022704BC2540132654BE3
S11347F0C2540332664BC2545E4B984720006F4B41
S1134800984720006E4B98471CE70022674BC25420
S113481004325C4BC254013A5D4BC254554B984729
S11348202000684B98472000674B98470AE700220E
S11348305E4BC2540332534BC2546F32544BC25476
S11348404C4B98472000614B9847614BE35CDBB2CB
S1134850022B21D009D9032B19D0042B00D0F1E667
S1134860032120005B4B9847ECE6002B00D0E9E6DF
S113487000212000574B9847574B1A68574BD35C7D
S1134880012B00D0DEE65648404B9847DAE6032178
S11348902000504B9847D5E6022120004D4B984705
S11348A0D0E60122414BC25400221B33C250484B74
S11348B0C35CDBB2022B1AD008D9032B10D0042B13
S11348C000D0BFE66622294BC254BBE6002B00D0C1
S11348D0B8E67F22254BC2540022424B1A60B1E64F
S11348E07322224BC25400223E4B1A60AAE60522D0
S11348F01E4BC254A6E63B4B1B68FA22520093425D
S113490003D00133374A13609CE600210B20364B59
S113491098470020354DA847354F80231B01984602
S1134920BB610320334EB04743467B610320B0474D
S11349300120A84700210B202F4B98470322244B2A
S1134940E254023A094BE25400222C4BE254224B2B
S11349501A68224BD35C012B00D073E628480B4B1A
S113496098476FE6274B98476CE6C0461D02000047
S1134970486F00003D4B0000C14B000022020000C4
S1134980290200001E02000048710000FD2F0000F3
S11349901F020000DD4000007002002025270000F7
S11349A045270000094F0000294F000021020000A4
S11349B0A14B00002945000071450000294E00006C
S11349C04D450000694E000005450000494E0000B9
S11349D02A020000DD440000BC180020260200006A
S11349E0587100001835002049390000814000004A
S11349F0004400413D540000293900002302000016
S1134A0060710000D919000006222D4BC2545E3299
S1134A102C4BC2542C4B984720002C4B9847200019
S1134A202B4B98470EE600252A4BC554264B984736
S1134A302000294B98477422284BE2541F33E55039
S1134A4080225205264B9A61FCE580221205244BF4
S1134A505A6105221A4BC25467321A4BC2541A4B7C
S1134A60984720001F4B984720001F4B9847E9E5C3
S1134A70184BC35C012B00D0E4E51C4B9847200085
S1134A80114B984720001A4B98470023114AA3540E
S1134A906521124AA1541F32A350D3E58022120586
S1134AA00F4B9A61084B98472000124B9847124BC2
S1134AB00022E2540332E2540132084BE254C1E5CD
S1134AC01E0200001F0200003D4B0000894E000042
S1134AD0B944000023020000A94E00001D0200009A
S1134AE000440041C94E0000954400004D3F0000C1
S1134AF0994F0000E94E00002A02000010B5064B51
S1134B001B68834203D00548054B984710BD0548F0
S1134B10034B9847FAE7C046BC18002038720000DF
S1134B20FD2F00002472000010B50248024B984784
S1134B3010BDC04658720000FD2F000010B5114B87
S1134B401B68834204D0104B1B6898420DD010BDE3
S1134B50882292009B5C002BF9D023210B480C4B3C
S1134B6098470C480C4B9847F1E788239B00C35C9B
S1134B70002BECD023210548054B98470748064BEA
S1134B809847E4E7BC180020900C00207002002035
S1134B9025270000CC6D0000FD2F0000D46D00001F
S1134BA010B588239B00C35C002B00D110BD0248C4
S1134BB0024B9847FAE7C04694720000FD2F0000AC
S1134BC010B588239B00C35C002B00D110BD0248A4
S1134BD0024B9847FAE7C046B0710000FD2F000071
S1134BE010B588239B00C35C002B00D110BD024884
S1134BF0024B9847FAE7C046A8720000FD2F000058
S1134C00F0B5C64600B506002A482B4B984698478F
S1134C103178C9B2294C2000294DA8470921200028
S1134C20284FB847284B98470D212000B8472748FC
S1134C30C0477178C9B22000A847B178C9B2200032
S1134C40A847F178C9B22000A8473179C9B2200039
S1134C50A84709212000B8471D48C0477179C9B247
S1134C602000A847B179C9B22000A847F179C9B298
S1134C702000A847317AC9B22000A84709212000A2
S1134C80B8471448C047717AC9B22000A847B17A1E
S1134C90C9B22000A847F17AC9B22000A847317BE5
S1134CA0C9B22000A8470D212000B84704BC904693
S1134CB0F0BDC046F4710000FD2F0000700200201A
S1134CC04527000025270000AD19000000720000F0
S1134CD0B47200004C720000F0B5D6464F4646460A
S1134CE0C0B582B005004348434B9847697CC9B2BC
S1134CF04248434B98472B7C012B6CD03D481830DD
S1134D003D4B98470D213D483E4B98473E483A4B12
S1134D10984788239B00EB5C012B61D035482430F5
S1134D20354B98470D213548364B98473748324B19
S1134D3098476B7B022B58D02E4830302E4B984727
S1134D402E4C0D2120002F4EB04731482A4FB84732
S1134D506869304B984780460102090E2000284BB1
S1134D609946984743461904090E2000C8472E2146
S1134D702000B04743466A46D371D1792000C84722
S1134D801C4B984618003430B8470D212000B0471A
S1134D902148B847A87B0230204B9A469847010027
S1134DA020001F4B9946984740463C30B8470D2198
S1134DB02000B0471B48B847E87B0530D0470100C6
S1134DC02000C8470D212000B04702B01CBC90460B
S1134DD09946A246F0BD07481030074B984791E723
S1134DE004482030044B98479CE702482C30024B7F
S1134DF09847A5E76C710000FD2F000070020020A9
S1134E004527000025270000D471000064720000CB
S1134E10E8710000552A000070720000E5290000C6
S1134E20B92700009C72000010B588239B00C35C66
S1134E30002B00D110BD0248024B9847FAE7C04648
S1134E400C720000FD2F000010B588239B00C35C8A
S1134E50002B00D110BD0248024B9847FAE7C04628
S1134E60D8720000FD2F000010B588239B00C35C9E
S1134E70002B00D110BD0248024B9847FAE7C04608
S1134E80E0720000FD2F000010B588239B00C35C76
S1134E90002B00D110BD0248024B9847FAE7C046E8
S1134EA08C720000FD2F000010B588239B00C35CAA
S1134EB0002B00D110BD0248024B9847FAE7C046C8
S1134EC080720000FD2F000010B588239B00C35C96
S1134ED0002B00D110BD0248024B9847FAE7C046A8
S1134EE0D0720000FD2F000010B588239B00C35C26
S1134EF0002B00D110BD0248024B9847FAE7C04688
S1134F0018720000FD2F000010B588239B00C35CBD
S1134F10002B00D110BD0248024B9847FAE7C04667
S1134F20BC710000FD2F000010B588239B00C35CFA
S1134F30002B00D110BD0248024B9847FAE7C04647
S1134F40C8710000FD2F000030B583B001900E4CF5
S1134F50202120000D4DA8472D212000A8470198AD
S1134F600B4B9847010020000A4B98472021200052
S1134F70A84764212000A84742212000A8476D21AA
S1134F802000A84703B030BD700200202527000090
S1134F90E5290000B927000010B588239B00C35CF5
S1134FA0002B00D110BD0248024B9847FAE7C046D7
S1134FB0C0720000FD2F0000134B1B68134A9A5C5B
S1134FC0002A07D1902292009A580A2A11D9012165
S1134FD00E4A9954912292009A58082A04D8912191
S1134FE089005A5801325A50094B1B68012B06D9C3
S1134FF07047902189005A5801325A50EAE7013328
S1135000034A1360F4E7C046BC18002027020000DE
S1135010D018002010B5104B1B688F2292009958AD
S11350200E4A914204D88F2189005A5801325A50AD
S11350300B4B1B688F2292009958084A914204D85E
S11350408F2189005A5801325A50012205490648D5
S1135050064B984710BDC046BC1800201F4E0000E8
S1135060900C00206802002070020020895B000080
S113507010B58EB001AA0023002193701381002083
S113508050709172D1721173917351731174536191
S11350909361117713625362138501331370802374
S11350A0DB00938020239371123353859385134C33
S11350B013492000134B98472268D37B5BB2002B23
S11350C0FBDB138802210B43138001AAE023DB00DE
S11350D09380202393711233538593850A4C0B4993
S11350E02000084B98472268D37B5BB2002BFBDB84
S11350F0138802210B4313800EB010BD94020020CC
S113510000280042FD3B000040160020002400421D
S1135110F0B5D6464F464646C0B51A4C02221A4947
S113512020001A4B9A4698472068194B994698478D
S1135130184B98461B5C1F26334001252A009A40D1
S1135140154F3A60637E102213436376236810225E
S11351505A73124C0D3A12492000D0472068C847B0
S113516043461B5C1E40B5403D60637E20221343D2
S11351706376236820225A731CBC90469946A24643
S1135180F0BDC04640160020B94F0000CD3A0000E3
S1135190C53B0000E872000000E100E0940200203A
S11351A01550000010B5024B9847024B984710BDAC
S11351B07150000011510000084B1B689A7F597F01
S11351C0D2B28A4209D89A7F197FC9B29A18D17784
S11351D09A7F0132D2B29A779A777047BC1800202E
S11351E0174B1B78002B10D1164B1B78164A1278DC
S11351F01649CA54212B02D8013312490B700D2AC7
S113520004D0082A0ED00A2A14D070470D4B1B78FC
S1135210012B03D90C3A0A4B1A70F6E70022094B0A
S11352201A70F2E7074B1B78022BEED9023B054AB2
S11352301370EAE7034A1378013B1370E5E7C046AD
S1135240940C00202203002068020020D4020020D5
S113525030B58DB08023DB05009300230193FF223A
S113526069460A818B72CB7201220A754A758B7565
S1135270CB7506930B774B77E1235B020493C4232E
S11352809B03039301235B4208930993394B0A93CD
S1135290394B0B93394D3A4C6A463A492800A0479A
S11352A00028F9D1354D2C682000374B98471F232F
S11352B018401E3B8340354A13602A68138A1BB288
S11352C0002BFBDB2368022213432360E1235B02F0
S11352D00493C4239B03039301235B420893099320
S11352E02B4B0A932B4B0B932B4D254C6A462B4986
S11352F02800A0470028F9D1274D2C682000224B14
S113530098471F2318401E3B8340204A13602A6895
S1135310138A1BB2002BFBDB236802221343236096
S113532080235B0303931E4B08931E4B09930123B5
S11353305B420A930B931C4D114C6A461B4928008F
S1135340A0470028F9D1184D2C6820000E4B98472F
S11353501F2318401E3B83400C4A13602A68138A9B
S11353601BB2002BFBDB23680222134323600DB026
S113537030BDC0460200120002001300700200207B
S1135380B1580000000C00424D58000000E100E05C
S113539002000E0002000F00F0180020001000426E
S11353A00200080002000900D8270020000800427B
S11353B070B50C4D01220C4928000C4EB0470C4C22
S11353C001220C492000B04721230221EA5C0A4350
S11353D0EA54E25C0A43E2540748C25C0A43C254FA
S11353E070BDC04670020020E1510000715B0000F6
S11353F0F0180020B9510000D827002070B5002013
S1135400084B98470500084CFA218900A047074B30
S1135410186007492800A047064B18600522064B70
S11354201A6070BD0960000095670000C00100208B
S113543040420F00C401002010E000E030B5084BEA
S11354401C68084A002580214902013807D3002C32
S1135450FBD05460956013680B42FCD0F5E730BD77
S1135460C001002010E000E00C4B1B68002B06D1AB
S1135470EFF31083002B07D00022094B1A70074A60
S1135480136801331360704772B6BFF35F8F002255
S1135490044B1A700132024B1A70F0E7F00100203D
S11354A0F4010020C8010020084B1A68013A1A6070
S11354B01B68002B09D1064B1B78002B05D0012259
S11354C0044B1A70BFF35F8F62B67047F00100207F
S11354D0F4010020C80100207047000000B583B02B
S11354E001AB80221A700A785A704A789A708A78C6
S11354F0DA701900014B984703B000BD49620000FF
S1135500F0B5DE4657464E464546E0B587B0804680
S1135510049116001F000022002300218B463F2423
S113552001202100009601975C46039444460594AB
S113553013E02024641A0500E540A84614E0009C0A
S1135540019D121BAB415C464D462C43A346039C74
S113555045462C430394013925D3202464420C1975
S1135560E7D40500A540A84604008C40A146921843
S11355705B4114001D00059E4F463E40B446049E08
S113558047463E40B246664657463E4303D0060071
S1135590264332002B00009C019D9D42DBD8CED1D6
S11355A09442D8D8CBE7039B5846190007B03CBCBB
S11355B090469946A246AB46F0BD10B54908402333
S11355C00024814202D2180010BD1C00091A631C79
S11355D09BB28842F9D94023FF2CF4D814800023CD
S11355E0F1E70000F0B583B00F00160008AA1178A7
S11355F004004C434022BC4202D9100003B0F0BD69
S1135600002B14D1020008000021194CA04701000E
S11356103A0000230020174CA04700220123121A4D
S11356208B41120C1B041A4332800022E5E700224E
S1135630012BF9D10A00002300210D4CA0470200E0
S11356400B0000920193380000210A4CA04705008A
S113565080239B0140229842CFD8790FF800009A0A
S1135660019BA047EA00821AD2B252032A43DBE725
S1135670816A00000155000010B582B004000E4B91
S11356801B78002B07D0002905D10B4B5B78834294
S113569010D01D200CE001A90C700C20074B98477A
S11356A00C20074B9847044B5C7001221A700020B1
S11356B002B010BD0020FBE7F801002021610000CA
S11356C0956000002B4B984223D00FD92A4B984267
S11356D02FD02A4B984242D101293AD0002946D0F2
S11356E0022938D0032938D0002039E0244B9842CD
S11356F035D1012907D0002933D0022905D0032947
S113570005D000202CE01F482AE01F4828E01F484D
S113571026E0012907D0002925D0022905D0032934
S113572005D000201CE01A481AE01A4818E01A486C
S113573016E0012907D0002917D0022905D0032932
S113574005D000200CE015480AE0154808E015488B
S113575006E0154804E0154802E0154800E0002082
S113576070471448FCE70320FAE71348F8E71348A6
S1135770F6E7C046000C004200100042001400424C
S113578000080042030005000300060003000700B0
S11357900300010003001E0003001F0003000900B2
S11357A003000A0003000B000300110003001200B1
S11357B003001300030004000300080003001000AA
S11357C030B585B06A460F4B32CB32C21B681360CA
S11357D00300009A824211D0019A82420AD0029AAE
S11357E0824209D00020039A9A4201D005B030BD0C
S11357F0033004E0012002E0022000E00020C0B2F7
S1135800F4E7C046F07200007047000030B50B4B5F
S11358101B78002B0ED10A4C0A4D25600A4B00223E
S11358201A6065605A60A5609A60E560DA600132CA
S1135830024B1A708000024BC15030BDFA010020A7
S1135840FC010020095800001C35002010B582B06E
S113585001AC07232370013363700133A370013358
S1135860E370024B9847205602B010BDC1570000A8
S113587010B5024B1B680020984710BDFC010020A6
S113588010B5024B5B680120984710BDFC01002055
S113589010B5024B9B680220984710BDFC01002004
S11358A010B5024BDB680320984710BDFC010020B3
S11358B0F0B5DE4657464E464546E0B58DB0050088
S11358C00C00160029600800804B984702002368EA
S11358D00520DB0706D50DB03CBC90469946A24690
S11358E0AB46F0BD236817309B07F4D47849086AA7
S11358F0971C0123BB4003430B620BA9737F0B70FE
S11359000D32D7B23800734B98473800724B984722
S1135910707F0021714B9847F37A6B71337DAB71C3
S1135920737DEB712B6898461800684B98470D30CF
S113593000220E2302A98C4663441A803368039321
S1135940F3689A46B37D9B4673689946002B14D03E
S113595080235B05994530D1F37D002B31D1336928
S11359601F00C0B25E4B984701000E2202AB9C465A
S1135970624438005B4B984720E0F37D002B0BD04A
S11359801023009300230E2202A98C466244B169BD
S11359903069554FB84711E033691F00C0B2504B0E
S11359A0984701001023009300230E2202A8844686
S11359B0624438004C4FB84700E00020002800D073
S11359C089E72A68039F138A1BB2002BFBDB0E2393
S11359D002AA944663441B884246538153461F439C
S11359E04B461F435B465B071F43F37D002B01D1EE
S11359F004331F43317D4904737D1B040B43B17A87
S1135A00F27A114319433389FF2B03D080225204C5
S1135A1017431943337F002B03D1344B9B789B07E7
S1135A2001D580231F432A68138A1BB2002BFBDB9A
S1135A30434659602A68138A1BB2002BFBDB43469A
S1135A401F600AAB80221A7000225A70DA709A70B2
S1135A50336A0693736A0793B36A0893F36A0393EA
S1135A600993002706AE06E02000214B984707E083
S1135A700137042F0DD0F9B2BB0098590028F3D098
S1135A80431CF5D00AA90870000CC0B2194B984702
S1135A90EEE70023AB60EB602B61AB616B6100222E
S1135AA0EB83AB832033EA540133EA540133EA54E1
S1135AB00133EA542868054B984704000E490F4BFC
S1135AC09847A4000E4BE550002004E7C15700009E
S1135AD00004004021610000956000007956000038
S1135AE06D610000BB550000E55500000020004139
S1135AF0C556000049620000A95B00000D58000073
S1135B001C350020C2791C23002A01D118007047DB
S1135B10C28B92B2173B002AF8D10268138A1BB2D7
S1135B20002BFBDB11830221937B0B42FCD000236F
S1135B30ECE70000F8B506000C00150007680A4BF6
S1135B409847B38B9BB2002B03D0084B9847052092
S1135B50F8BDB583054B9847746105222223F2549E
S1135B601E3B7B730020F3E769540000A954000036
S1135B70931C9B0019502021012393401A00435C7D
S1135B80134343547047000010B51723002A01D172
S1135B90180010BD84790533002CF9D0014B9847C7
S1135BA00300F5E7355B0000F8B58000464BC558A7
S1135BB02C68238A1BB2002BFBDBA37B667B1E4075
S1135BC02023EB5C2122AF5C1F40F30722D5EB8B33
S1135BD09BB2002B1CD0AA691378DBB2511CA961BB
S1135BE0697901290ED09BB2DB05DB0D2383EB8B96
S1135BF0013B9BB2EB83002B0CD1013323730133A4
S1135C00637307E0517809020B430232AA61EBE7A0
S1135C1001232373B30706D5022323730022213300
S1135C20EA54FB0716D473074DD5AB8B9BB2002BFC
S1135C3047D0238ADBB25A0720D09A070ED51A22FE
S1135C402223EA54203B23827B073CD52B6928007E
S1135C50984738E02800AB689847E4E75A0705D529
S1135C601E222223EA541E3B2382EDE7DB07EBD5F9
S1135C7013222223EA54213B2382E5E7238BDB050D
S1135C80DB0DDAB269690A706A69511C6961697964
S1135C90012910D0AB8B013B9BB2AB83002B12D1FB
S1135CA00433237300221E33EA54BB070BD5EB687D
S1135CB02800984707E01B0A53706B6901336B6136
S1135CC0E8E704232373F8BD1C35002010B507282A
S1135CD003D88000164B1B589F46002027E0154B25
S1135CE0D86824E0144B1B6A9B059B0F1348D840CB
