S01800004E564D5F515549434B5F5354415254312E7372656321
S113000028200020B1030000AD030000AD03000070
S113001000000000000000000000000000000000DC
S1130020000000000000000000000000AD0300001C
S11300300000000000000000AD030000AD0300005C
S1130040AD030000AD030000AD030000AD030000EC
S1130050AD030000AD030000AD030000AD030000DC
S1130060AD030000AD030000AD030000AD030000CC
S1130070AD030000AD030000AD030000AD030000BC
S1130080AD030000AD030000AD030000AD030000AC
S1130090AD030000AD030000AD030000AD0300009C
S11300A0AD030000AD030000AD030000AD0300008C
S11300B00000000010B5064C2378002B07D1054B37
S11300C0002B02D0044800E000BF0123237010BDC0
S11300D000000020000000009C060000084B10B542
S11300E0002B03D00749084800E000BF0748036815
S11300F0002B00D110BD064B002BFBD09847F9E72D
S113010000000000040000209C0600009C06000083
S11301100000000010B51E4AD36904210B43D361CB
S11301201C4B2022FF321A831A7D0523D20701D4E7
S1130130180010BD03781B02C022920013404178BE
S1130140C901FF220A401343817849001E220A4054
S11301501343C27892048021C9020A4013430279EE
S11301601204C02189020A4013430A4A5360936867
S11301705B035B0F084908249C400C8093684B8008
S113018043780B71138BDB05DB0F1B01D0E7C046F3
S113019000040040004000411C00002030B5040071
S11301A0224A1088538843438B4206D2802292010C
S11301B018201F4BCB1893420ED81E4B5D6880222B
S11301C0D2022A435A602022FF321A831B7DDB07A6
S11301D003D4184B5D60052030BD452C22D8A30004
S11301E0154AD3589F46134B1B8BDB0503D5114B84
S11301F05D601020F0E7890849000E4BD96103E0E7
S1130200890849000B4BD961A52000020443094B1E
S11302101C80190001220B7D1342FCD0054B5D604C
S11302200020D9E7034B5D601720D5E71C000020B0
S113023000C07FFF0040004164050000F8B5254B75
S11302401D885B886B431824834201D22000F8BDCB
S11302506B1E1842FAD1013C9542F7D31E4B1B7D0D
S1130260123CDB07F2D51D4C1B4B1C801D000124E6
S11302702B7D2342FCD02024FF34174B1C83002AFF
S113028022D0012305009D430023571E09E0CE1808
S11302907678360234432C8002339BB202359A427C
S11302A004D9CC5CBB42F2DBA4B2F4E7094B1B7962
S11302B00024002BCAD13F2AC8D800220100042000
S11302C0074B98470400C1E7024B1B790024002B1D
S11302D0F3D0BBE71C0000200040004144A5FFFF11
S11302E09D01000070B5184B1D885B886B43182472
S11302F0834201D2200070BD6B1E1842FAD1013C2A
S11303009542F7D3114B1B7D123CDB07F2D5202419
S1130310FF340E4B1C83002A14D00123984300237E
S1130320561E04E002339BB202309A4208D9048874
S1130330A4B2CC54B342F5DACD18240A6C70F1E7B8
S11303400024D7E70024D5E71C000020004000412A
S1130350134B1A885B8853431821834201D2080047
S113036070479200013A1042F9D10E4B1B7D1339AC
S1130370DB07F4D50B4B2022FF321A8380084000A0
S1130380D861094A1A80190001220B7D1342FCD05E
S1130390044B198B1C200140481E81418900DEE773
S11303A01C0000200040004102A5FFFFFEE7000002
S11303B0F8B52A4A2A4B9A4211D01A00294B9A427C
S11303C00DD2294A03339B1A9B0801339B00002258
S11303D0234822498C58845004329A42FAD1234A41
S11303E0234B9A420AD2D34321495B1803218B43FE
S11303F004339B18002102C29342FCD11D4AFF2101
S11304001D4B8B439360FD3990235B001B4AD150F5
S11304101B4AD3780325AB4302242343D370D378F8
S11304200C27BB4308263343D370164B987B3022EA
S11304309043202210439873997BB94331439973B5
S11304409A7BAA4322439A730F4A536880210B4331
S113045053600E4B98470E4B9847FEE79C060000EE
S11304600000002000000020040000200000002004
S11304702400002000ED00E00000000000700041B6
S11304800050004100480041004000411D050000AB
S1130490C504000000B583B000226B461A70074BF8
S11304A05B68DB061B0F69468B70CA700A714A7061
S11304B06846034B984703B000BDC0460040004166
S11304C01501000030B591B0104B984700236A46DF
S11304D09B540133402BFAD1C825ED010C4C280064
S11304E0A0470528FBD0C825ED010A4C40226946E7
S11304F02800A0470528F9D0C825ED01064C402264
S113050069462800A0470528F9D0FEE795040000B5
S1130510510300003D020000E502000070B5002612
S11305200C4D0D4C641BA410A64209D1002600F00A
S1130530A5F80A4D0A4C641BA410A64205D170BD4F
S1130540B300EB5898470136EEE7B300EB589847F1
S11305500136F2E7880600008806000088060000DD
S11305608C060000240200002402000000020000A7
S11305702402000000020000E6010000E601000081
S113058024020000240200002402000024020000CF
S113059024020000240200002402000024020000BF
S11305A024020000240200002402000024020000AF
S11305B0240200002402000024020000240200009F
S11305C0240200002402000024020000240200008F
S11305D0240200002402000024020000240200007F
S11305E0240200002402000024020000240200006F
S11305F0240200002402000024020000240200005F
S1130600240200002402000024020000240200004E
S1130610240200002402000024020000240200003E
S1130620240200002402000024020000240200002E
S1130630240200002402000024020000240200001E
S1130640240200002402000024020000240200000E
S113065024020000240200002402000024020000FE
S11306602402000000020000000200000802000052
S1130670080200000802000008020000F8B5C046A5
S1130680F8BC08BC9E467047DD000000F8B5C046C3
S10F0690F8BC08BC9E467047B500000092
S90303B148
